:020000040800F2
:1000000048B600209D010008F5C60008A7010008B9
:10001000A9010008AB010008AD01000800000000C4
:1000200000000000000000000000000009D60008E9
:10003000B10100080000000085CE00080BD60008C2
:10004000B7010008B7010008B7010008B7010008B0
:10005000B7010008B7010008B7010008B7010008A0
:10006000B7010008B7010008B7010008B701000890
:1000700029250008B701000839250008B701000844
:10008000B7010008B7010008B7010008B701000870
:10009000B7010008B7010008B7010008B701000860
:1000A000B7010008B7010008B7010008B701000850
:1000B000B7010008B7010008B7010008B701000840
:1000C000B7010008B7010008B7010008B701000830
:1000D000B7010008B7010008B7010008B701000820
:1000E000B7010008B7010008B7010008B701000810
:1000F000B7010008B7010008B7010008B701000800
:10010000B7010008B7010008B7010008B7010008EF
:10011000B7010008B7010008B7010008B7010008DF
:1001200049250008B7010008B70100085925000853
:10013000B7010008B7010008B7010008B7010008BF
:10014000B7010008B7010008B7010008B7010008AF
:10015000B7010008B7010008B7010008B70100089F
:10016000B7010008B7010008B7010008B70100088F
:10017000B7010008B7010008B7010008000000003F
:10018000B7010008B7010008DFF80CD000F0C8FB89
:10019000004800470987010848B600200648804704
:1001A00006480047FEE7FEE7FEE7FEE7FEE7FEE75C
:1001B000FEE7FEE7FEE7FEE7E1D60008890100085A
:1001C00010B5431A934209D28318881803E010F837
:1001D000011D03F8011D521EF9D210BD40EA0103B2
:1001E0009B0703D009E008C9121F08C0042AFAD2ED
:1001F00003E011F8013B00F8013B521EF9D210BD9B
:10020000D2B201E000F8012B491EFBD27047002258
:10021000F6E710B513460A4604461946FFF7F0FF05
:10022000204610BD421C10F8011B0029FBD1801A8A
:10023000704730B504460020034600E05B1C934243
:1002400003D2E05CCD5C401BF8D030BD034611F812
:10025000012B00F8012B002AF9D1184670472DE92F
:10026000FE4F804681EA0300C00F0C46009021F04B
:10027000004123F00045B8EB0200A94105D24046F9
:10028000214690461C460B46024623F00040104390
:1002900047D0270DC7F30A00C3F30A510290401A52
:1002A000019040286BDAC3F3130040F4801B0098E0
:1002B000924620B10023D2EB030A63EB0B0B0198AB
:1002C0005946C0F14002504600F04DFA06460D4630
:1002D00050465946019A00F065FA10EB080061415A
:1002E000002487EA115284EAE7731A4340D0009A47
:1002F00062B3019A012A4FEA075215DC001B61EB39
:1003000002014FF0004202EA0752CDE90042001C10
:1003100041F5801132462B4600F09CFA03B0BDE84F
:10032000F08F40462146F9E7001B61EB0201001CFB
:1003300041F5801300185B412018A2F5001747EB28
:10034000030140EAD570B6196D4111E06D084FEA1E
:10035000360645EAC0754FEA0752001B61EB020101
:10036000001C41F5801149084FEA30000019514145
:1003700032462B4603B0BDE8F04F00F05CBA00985F
:10038000012240000023D0EB020263EBE0730098EF
:1003900021464FEAE074B8EB000061EB0401E9E7A5
:1003A00083F000435BE781F0004158E72DE9FE4F01
:1003B00081EA030404F0004421F0004100944FF06E
:1003C000000B23F0004350EA01045ED052EA03041C
:1003D0005BD0C3F30A54C1F30A552C44A4F2F3349E
:1003E0000194A0FB0254C1F3130141F48011C3F343
:1003F000130343F4801301FB024400FB034E840A01
:10040000970A44EA815447EA8357A4FB0768029598
:100410008D0A05FB07854FEA932C04FB0C54270536
:10042000029D4FEA065847EA1637B5EB08056EEB12
:10043000070C870E920E47EA811742EA8312A7FB48
:100440000201B6EB0B0164EB00042B0D43EA0C3305
:100450005E1844EB1C50DA465146E7FB0201C5F337
:1004600013044FEA0B3343EA14534FEA0432019C5E
:1004700043EA0603A4F10C040294009CCDE900B405
:1004800000F0E8F903B0BDE8F08F00200146F9E77D
:100490002DE9F04D81EA030404F0004B21F0004502
:1004A00014464FF0000A23F0004150EA050220D024
:1004B00054EA01021DD0C5F30A570246C5F31303DF
:1004C000C1F31300C1F30A5640F4801543F48013BE
:1004D000A7EB0608101BD64608F2FD3873EB0500A3
:1004E00002D308F1010801E092185B41B8F1000F56
:1004F00003DA00200146BDE8F08D00204FF48011A2
:10050000064684460EE0171B73EB050705D3121B46
:1005100063EB050306434CEA010C49084FEA30003F
:1005200092185B4150EA0107EDD152EA030012D064
:1005300082EA040083EA0501084305D0101BAB41A1
:1005400006D20122002306E000224FF0004302E021
:100550006FF0010253101AEB06004CEB085110EB40
:100560000A0041EB0B01BDE8F04D00F064B90EB597
:10057000C10F80EAE0700844CA07002140F233430B
:100580008DE80E000A460B4600F064F903B000BD8A
:100590000EB540F2334102910021CDE900110A4627
:1005A0000B4600F057F903B000BD70B5C1F30A5215
:1005B00001F000450024C1F3130140F2FF3341F480
:1005C00080119A4201DA002070BD40F233439A4212
:1005D000A2F2334203DC524200F0D4F800E0904033
:1005E0002C43F1D0404270BDC1F30A5210B5C1F3A3
:1005F000130140F2FF3341F480119A4201DA0020E6
:1006000010BD40F233439A42A2F2334203DC52421D
:1006100000F0B8F810BD904010BD00F0004230F07E
:1006200000400AD0C10D01F56071C0F3160042EA26
:100630000151C2084007114370470020014670472E
:1006400030B5041E71F1000404DB4FF00044404259
:1006500064EB0101141E73F1000405DB1C464FF02E
:100660000043524263EB04038B4208BF824230BD19
:1006700030B5041E71F1000404DB4FF00044404229
:1006800064EB0101141E73F1000405DB1C464FF0FE
:100690000043524263EB0403994208BF904230BDCD
:1006A00001F0004330B421F0004150EA010206D0CD
:1006B0000A0DA2F56072C1F31301002A02DC30BCFE
:1006C00000207047440F44EAC104C100E01830BC68
:1006D00000EBC25000F078B830B50B460146002060
:1006E0002022012409E021FA02F59D4205D303FAF4
:1006F00002F5491B04FA02F52844151EA2F1010275
:10070000F1DC30BD2DE9F05F0546002092469B46A6
:1007100088460646814640241BE028464146474617
:10072000224600F02FF853465A46C01A914110D382
:1007300011461846224600F016F82D1A67EB0108FC
:100740004F4622460120002100F00DF817EB00096A
:100750004E41201EA4F10104DFDC484631462A4602
:100760004346BDE8F09F202A04DB203A00FA02F15C
:10077000002070479140C2F1200320FA03F319438F
:1007800090407047202A04DB203A21FA02F0002131
:10079000704721FA02F3D040C2F120029140084391
:1007A00019467047202A06DBCB17203A41FA02F09F
:1007B00043EAE07306E041FA02F3D040C2F12002BE
:1007C00091400843194670470029A8BF7047401C54
:1007D000490008BF20F00100704710B4B0FA80FC57
:1007E00000FA0CF050EA010404BF10BC704749B194
:1007F000CCF1200421FA04F411FA0CF118BF012104
:1008000021430843A3EB0C01CB1D4FEA00614FEAE3
:10081000102042BF002010BC704700EBC3501044B2
:100820000029A4BF10BC7047401C490008BF20F03D
:10083000010010BC704710B5141E73F1000408DAF3
:10084000401C41F1000192185B411A4301D120F094
:10085000010010BD2DE9F04D92469B4611B1B1FA51
:1008600081F202E0B0FA80F220329046FFF77BFF7F
:1008700004460F4640EA0A0041EA0B0153465A4635
:10088000084313D0114653EA010019D0C8F14002C1
:100890005046FFF777FF05460E46504659464246FA
:1008A000FFF761FF084305D0012004E020463946E8
:1008B000BDE8F08D0020054346EAE0762C4337433F
:1008C0000A986305E40AA0EB08000022FD0A44EA46
:1008D00047540A3002D500200146E9E70105101906
:1008E0006941DDE9084500196941BDE8F04DA2E71D
:1008F000C1F30A52C1F3130140F2FF3341F48011F6
:100900009A4202DA00200146704740F233439A428D
:10091000A2F2334202DC5242FFF734BFFFF723BF9B
:10092000064C074D06E0E06840F0010394E807003C
:1009300098471034AC42F6D3FFF72AFC14E00108C4
:1009400034E0010870B58C1810F8015B15F007034E
:1009500001D110F8013B2A1106D110F8012B03E058
:1009600010F8016B01F8016B5B1EF9D12B0705D460
:100970000023521E0DD401F8013BFAE710F8013BA9
:10098000CB1A921C03E013F8015B01F8015B521EC5
:10099000F9D5A142D8D3002070BD000010B504469F
:1009A0000E48006840F040000C49086008460068A6
:1009B00040F4805008600846006840F40050086029
:1009C0000846006840F4005008600846006820F4BB
:1009D00000500860204600F03DF810BD140C0240A5
:1009E0002DE9F0412DED048B06460F463846FFF702
:1009F000CFFD41EC190B9FED150B53EC102BFFF7BE
:100A0000D5FC41EC180BFFF7EFFD804644464FEA5A
:100A1000983546B924F4004444F4804425F4004554
:100A200045F4804507E024F4804444F4004425F470
:100A3000804545F40045204600F00CF8284600F0BB
:100A400009F8BDEC048BBDE8F08100003A8C30E27F
:100A50008E79154000211A4A126842F48052184BD0
:100A60001A601A46126822F040021A6000BF1DE0A8
:100A700000F4004232B1124A126842F40062104B94
:100A80001A6005E00E4A126822F400620C4B1A60EC
:100A90000B4A126822F48052094B1A6040001A4631
:100AA000126842F480521A604A1CD1B21029DFDB6E
:100AB000034A126842F04002014B1A60704700007E
:100AC000140C02405A49096821F44031594AC2F8CD
:100AD00004131146D1F8041342681143544A1160BB
:100AE0000168496821F480710268516001684A68B0
:100AF000016942EA0121026851600168496821F0F8
:100B00004071026851600168496882681143026857
:100B100051600168896821F4006102689160016890
:100B20008968C268114302689160434A816A9142B0
:100B300018D00168896821F07061026891600168CD
:100B40008968826A1143026891600168896821F0AE
:100B500040510268916001688968C26A1143026865
:100B600091600BE00168896821F070610268916012
:100B70000168896821F040510268916001688968C4
:100B800021F002010268916001688A68816942EA85
:100B9000410102689160016AD1B10168496841F47C
:100BA0000061026851600168496821F4604102688F
:100BB000516001684A68416A491E4FF4604393FAE4
:100BC000A3F3B3FA83F399400A4301684A6005E04E
:100BD0000168496821F40061026851600168C96ACE
:100BE00021F470010268D1620168CA6A818B491ED2
:100BF00042EA01510268D1620168896821F40071FA
:100C00000268916001688A68016B42EA41210268CA
:100C100091600168896821F48061026891600168CF
:100C20008A68416942EA8121026891607047000048
:100C300004230140002001400100000F002800DCD7
:100C40004042704710B500202349087023480068CF
:100C500000F00200C0BB2249081F01F01BF898B346
:100C600001201D4908701F48B0F9080000EE100A65
:100C7000B8EEC00A1B4890ED001A1948001FD0EDCD
:100C8000000AF8EE600A01EE200ABCEEC00A16481F
:100C900080ED000A1348B0F90A0000EE100AB8EE21
:100CA000C00A104890ED011A0D48001FD0ED010A4E
:100CB000F8EE600A01EE200ABCEEC00A0A4880ED98
:100CC000010A0846007810BDFFE7002006490860C9
:100CD000486001480078F6E7240100201004024033
:100CE0005C1D0020180100206C1D00202DE9FF4F25
:100CF00083B081460E461C46DDE9117A109DDAF874
:100D000000000290DAF8040001902E443248006896
:100D1000007C00F0030030B1012836D002281CD03E
:100D2000032855D130E000BF207880222A411040AE
:100D300008B1019800E0029803463146761C484607
:100D4000059A00F09FFE681C0546082801D1002581
:100D5000641C781E071EE7D13AE000BF207880218E
:100D60002941084028B131464846019B059A00F0C8
:100D700089FE761C681C0546082801D10025641CE4
:100D8000781E071EEAD123E000BFD9F8101088684A
:100D90008047804600BF207880212941084060B10B
:100DA00031464846059A00F029FB83468BEA080342
:100DB00031464846059A00F065FE761C681C0546DB
:100DC000082801D10025641C781E071EE3D100BF4E
:100DD00000BF07B0BDE8F08F640200202DE9FF4F8F
:100DE00081B00F469846DDE90F9A98F800B00E9D45
:100DF0000E9D2F4453480068007C00F0030010B1A2
:100E000002284BD14BE0BAF1000F25D000BFC5F14D
:100E100003004400C4F10601C020084100EA0B00B1
:100E200020FA04F65AF82600009039467F1CDDE9C6
:100E30000030039A00F026FE681C0546042805D100
:100E4000002508F10100804690F800B0A9F10100EA
:100E5000B0F10009DBD121E000BFC5F1030044007F
:100E6000C4F10601C020084100EA0B0020FA04F694
:100E700039467F1C3346039A019800F003FE681C34
:100E80000546042805D1002508F10100804690F8A8
:100E900000B0A9F10100B0F10009DED14DE0BAF1D6
:100EA000000F26D000BFC5F103004400C4F10601C5
:100EB000C020084100EA0B0020FA04F646B15AF8B7
:100EC000260000903946DDE90030039A00F0DAFD93
:100ED0007F1C681C0546042805D1002508F1010087
:100EE000804690F800B0A9F10100B0F10009DAD114
:100EF00022E000BFC5F103004400C4F10601C02098
:100F0000084100EA0B0020FA04F62EB133463946B8
:100F1000039A019800F0B6FD7F1C681C0546042862
:100F200005D1002508F10100804690F800B0A9F134
:100F30000100B0F10009DDD100BF00BF05B0BDE880
:100F4000F08F0000640200202DE9F04107460D46B5
:100F500090461C46069E08E04246294638462368CD
:100F600000F090FD761E6D1C241D002EF4DCBDE803
:100F7000F08100002DE9FF4F81B00F469846DDE972
:100F80000F9A98F800B00E9D0E9D2F4453480068AC
:100F9000007C00F0030010B102284BD14BE0BAF105
:100FA000000F25D000BFC5F101008400C4F1040189
:100FB000F020084100EA0B0020FA04F65AF8260057
:100FC000009039467F1CDDE90030039A00F05AFD9D
:100FD000681C0546022805D1002508F1010080465D
:100FE00090F800B0A9F10100B0F10009DBD121E0D7
:100FF00000BFC5F101008400C4F10401F0200841E4
:1010000000EA0B0020FA04F639467F1C3346039AA7
:10101000019800F037FD681C0546022805D100251F
:1010200008F10100804690F800B0A9F10100B0F18C
:101030000009DED14DE0BAF1000F26D000BFC5F1A6
:1010400001008400C4F10401F020084100EA0B0013
:1010500020FA04F646B15AF8260000903946DDE938
:101060000030039A00F00EFD7F1C681C0546022824
:1010700005D1002508F10100804690F800B0A9F1E3
:101080000100B0F10009DAD122E000BFC5F1010092
:101090008400C4F10401F020084100EA0B0020FAAA
:1010A00004F62EB133463946039A019800F0EAFC63
:1010B0007F1C681C0546022805D1002508F10100A7
:1010C000804690F800B0A9F10100B0F10009DDD12F
:1010D00000BF00BF05B0BDE8F08F00006402002033
:1010E0002DE9F04781460F4692461C46DDE9085837
:1010F00026480068007C00F0030010B1022841D1AE
:101100001EE0B8F1000F0ED00AE0267858F826301D
:1011100052463946484600F0B5FC6D1E7F1C641CE3
:10112000002DF2DC0BE008E02378524639464846B1
:1011300000F0A8FC6D1E7F1C641C002DF4DC21E077
:10114000B8F1000F0FD00BE0267836B158F82630F2
:1011500052463946484600F095FC6D1E7F1C641CC3
:10116000002DF1DC0DE00AE026782EB13346524620
:101170003946484600F086FC6D1E7F1C641C002D1D
:10118000F2DC00BF00BFBDE8F08700006402002071
:101190002DE9FF4F85B016461F46DDE916BADDE999
:1011A0001495DDF84880139808283FD006DC012804
:1011B00009D0022818D004287CD126E0102844D079
:1011C000202877D168E000240BE0A2192B46CDE956
:1011D00000B7CDF808A0DDE90501FFF787FD4D4414
:1011E000641C4445F1DB65E000240BE0A2192B46AA
:1011F000CDE900B7CDF808A0DDE90501FFF7EEFD68
:101200004D44641C4445F1DB54E000240BE0A2197A
:101210002B46CDE900B7CDF808A0DDE90501FFF7C1
:10122000A9FE4D44641C4445F1DB43E0002409E081
:10123000A2192B46CDE9007ADDE90501FFF750FF41
:101240004D44641C4445F3DB34E0002421E006985F
:101250000190A01902A9A1C1DDE9010100F00EFB76
:1012600022204FF0D84108800DE0039800884FF00D
:10127000D84108800498401E04900198401C0190B9
:101280000398801C039004980028EEDC00BF4D44B6
:10129000641C4445DBDB0DE0002408E0A2192B466A
:1012A0000097DDE90501FFF74FFE4D44641C4445FE
:1012B000F4DB00BF00BF09B0BDE8F08F2DE9F041BD
:1012C00007460D4614461E4606480068C06B006877
:1012D00005490860A3B2F2B2A1B2E8B200F0E0F8AA
:1012E000BDE8F08164020020FC0000202DE9F041FF
:1012F00007460C4615461E4606480068C06B006847
:1013000005490860B3B2E2B2A9B2E0B200F0C8F891
:10131000BDE8F08164020020FC0000202DE9F041CE
:1013200080460C4615461E46069F07480068C06B5F
:10133000006806490860BBB2F2B2A9B2E0B200F0A0
:10134000AFF8BDE8F081000064020020FC0000203E
:1013500002460020704700000246A1F1090008285B
:1013600013D2DFE800F00406080A120C0E10084839
:1013700070470848FCE70848FAE70848F8E70848D3
:10138000F6E70848F4E70848F2E70020F0E7000035
:10139000E31A0008091B0008A51A00083114000808
:1013A0005D1900084D190008451A000803460A4651
:1013B00099680F2A1FD2DFE802F01E080A0C0E1EE1
:1013C0001E1E10121416181A1C00486870478868F0
:1013D000FCE7C868FAE70869F8E78869F6E70020DB
:1013E000F4E70120F2E70120F0E70020EEE700201B
:1013F000ECE70020EAE74FF0FF30E7E72DE9F041A6
:1014000007460C4615462946204600F00FFA0646C8
:101410003046BDE8F081826800230B804B809389C1
:101420005B1E1BB28B80138A5B1E1BB2CB80704786
:1014300070B50446204600F009F805460022012157
:10144000A06909F0CFFF0543284670BD70B504467A
:10145000A06858B91C2004F0EDFCA060A5682169C3
:101460008868804706460AF0A5F8A861A06808B910
:10147000012070BD0020FCE770B504460D462946EA
:10148000204600F0FBF922204FF0D84108800248A6
:1014900000880249088070BDFC0000208000006CBC
:1014A0002DE9F04104460D4616461F4650204FF0E8
:1014B000D841088022480480512008800846A0F8BE
:1014C0008060522008801E4805805320088008460E
:1014D000A0F880702946204600F0D0F922204FF075
:1014E000D8410880781B401C311B491C00FB01F8C7
:1014F00003E01448008812490880B8F10000A8F100
:101500000108F6D150204FF0D841088000200C4946
:10151000088051204FF0D8410880EF20A1F88000CA
:101520005220088000200649088053204FF0D841FF
:10153000088040F23F10A1F88000BDE8F081000073
:101540008000006CFC00002000B5E5204FF0D84181
:10155000088047F6F000B349088001204FF0D841D9
:1015600008800002A1F88000022008804FF4E060AB
:10157000AC49088003204FF0D841088041F2300088
:10158000A849088004204FF0D84108800020A549D0
:10159000088008204FF0D841088040F20220A1497D
:1015A000088009204FF0D841088000209D4908801C
:1015B0000A204FF0D841088000209A4908800C206A
:1015C0004FF0D84108800020964908800D204FF048
:1015D000D84108800020934908800F204FF0D8415F
:1015E000088000208F49088010204FF0D8410880E3
:1015F00000208C49088011204FF0D8410880072036
:101600008849088012204FF0D84108800020854981
:10161000088013204FF0D8410880002081490880BD
:1016200007204FF0D841088000207E490880102014
:101630004FF0D841088041F290607A49088011202B
:101640004FF0D841088040F22720764908801220C8
:101650004FF0D84108809D207249088013204FF038
:10166000D84108804FF4C8506E49088029204FF0B7
:10167000D841088025206B4908802B204FF0D841A5
:1016800008800D206749088030204FF0D84108803D
:1016900007206449088031204FF0D841088040F28B
:1016A00003306049088032204FF0D8410880032081
:1016B0005C49088035204FF0D841088040F2062070
:1016C000584908803620410608800820554908807E
:1016D00037204FF0D841088040F206405149088039
:1016E00038204FF0D84108804FF441704D490880B0
:1016F00039204FF0D841088007204A4908803C2013
:101700004FF0D841088040F20260464908803D20F1
:101710004FF0D841088008204249088050204FF0FF
:10172000D841088000203F49088051204FF0D8411F
:101730000880EF203B49088052204FF0D8410880B4
:1017400000203849088053204FF0D841088040F2EB
:101750003F103449088060204FF0D84108804FF492
:1017600027403049088061204FF0D841088001208F
:101770002C4908806A204FF0D84108800020294970
:10178000088080204FF0D84108800020254908803B
:1017900081204FF0D8410880002022490880822013
:1017A0004FF0D841088000201E49088083204FF068
:1017B000D841088000201B49088084204FF0D84180
:1017C000088000201749088085204FF0D841088004
:1017D00000201449088090204FF0D8410880102044
:1017E0001049088092204FF0D84108804FF4C06023
:1017F0000C49088007204FF0D841088040F2331090
:101800000849088000204FF0D84108802220A1F824
:10181000800000F025F80448006840F400400249C8
:10182000086000BD8000006C140402402DE9F04106
:1018300004460D4600260027B0462946204600F003
:101840001DF822204FF0D84108800448008800B1DC
:1018500000BF024806883046BDE8F0818000006C79
:10186000002040F0100040F4805003214FF0D84297
:1018700011800149088070478000006C20224FF0E1
:10188000D8431A80044B188021224FF0D8431A8085
:10189000A3F88010704700008000006C00B59DB078
:1018A000002006F065F96FF07F400CF049FD6FF005
:1018B0007F400DF0BDFD1A480BF06CFA194802F09C
:1018C000C7FF17480BF066FA174800F0D7FC174817
:1018D00000F0E8FD164800F015FF16480BF098FDE3
:1018E00015480BF083FE154808F02EFF14480BF046
:1018F00027FB0BF011F8134948600AF0F1FC11497D
:10190000C860702210496846FEF75AFC0E480C3831
:101910000EC801200BF035FB05F094FA1DB000BD98
:1019200011CD0008DD430008B11F0008B5230008F1
:10193000592600085DD20008C1D4000809A7000894
:1019400089CE0008906D00203473002010B5044645
:1019500000220621A06909F045FD10BD10B504461E
:1019600000220521A06909F03DFD10BD10B5FFF76B
:1019700069F93049087409F085F92E4909688842E7
:1019800005D909F08BF92B494968884204D8002011
:101990002849086048600874274800682549096894
:1019A000884205D92448006822490968401A04E0A1
:1019B0002048006820490968401A204908801E48CC
:1019C00040681C494968884205D91B484068194944
:1019D0004968401A04E01748406817494968401AA6
:1019E000174908801448007A1249097C884207D1B7
:1019F000124800881E2803DC114800881E2817DDC5
:101A00000C48007C0C4908720A48007C48B109481F
:101A100000680860074840684860084606F03AFADF
:101A200006E0054806F036FA0020034908604860E1
:101A300010BD00006C1D0020801D0020260100202C
:101A4000280100207CB504460D4616460020009073
:101A500001908DF8045000966A460421A06909F0AF
:101A6000C1FC7CBD7CB504460D46164600200090A6
:101A70000190009501966A460321A06909F0B2FC25
:101A80007CBD00002DE9F04107460C4615461E4678
:101A90000348066029462046FFF7EEFCBDE8F081CA
:101AA000FC0000202DE9FC4105460E4617460020AB
:101AB000009001902846FFF7C9FCA86878B1AC688F
:101AC000606908B9304600E0606960616660A760DF
:101AD000009601976A460721A86909F083FCBDE8D2
:101AE000FC81F8B504460D46002000902046FFF723
:101AF000ADFCA06838B1A668356000956A46022141
:101B0000A06909F06FFCF8BD2DE9F04105460E46CD
:101B100017462846FFF79AFCA86818B1AC68E6603B
:101B200027616661BDE8F08170B506460025002496
:101B30002A48006820F00100284908602848006809
:101B400020F40060264908602648006820F4005010
:101B500024490860304600F0E3F8062016F072FDD4
:101B60001E48006820F001001C490860012016F0A2
:101B700069FD1A48006840F001001849086001201A
:101B800016F060FD1548006820F001001349086058
:101B900000BF17E064001148006820F001000F4901
:101BA0000860012016F04EFD0C48006840F001006E
:101BB0000A490860081F006800F0040000B1641CB6
:101BC000681CC5B2102DE5DB24090648006840F406
:101BD000005004490860204670BD00001404024013
:101BE00014140240140802402DE9F04186B08046EA
:101BF0000027002406E04046FFF796FF01A941F8C0
:101C00002400641C052CF6D3002418E0651C13E0A6
:101C100001A850F8240001A951F8251088420AD9DA
:101C200001A850F8246050F8250001A941F82400CB
:101C300001A840F825606D1C052DE9D3641C042C17
:101C4000E4D30027012404E001A850F8240007444D
:101C5000641C042CF8D30320B7FBF0F6304606B022
:101C6000BDE8F0812DE9F04104460D4607480078B3
:101C7000FFF7BAFF064606480078FFF7B5FF0746AC
:101C800026602F600120BDE8F081000004010020E3
:101C9000050100207FB504460D4602A903A8FFF701
:101CA000E1FF064616B9002004B070BD694601A8E0
:101CB000FFF7D8FF06460EB90020F5E70399019813
:101CC000884204D8019832300399814208D301999F
:101CD0000398884222D803983230019981421DD25C
:101CE00002990098884204D80098323002998142C3
:101CF00008D300990298884210D80298323000998F
:101D000081420BD201990398084440082060009951
:101D100002980844400828600120C5E70020C3E776
:101D200070B50446002500BF22E004F0800030B109
:101D30001148006840F400600F49086005E00E4853
:101D4000006820F400600C4908606006040E0B482F
:101D5000006820F0010009490860012016F072FCBB
:101D60000648006840F0010004490860681CC5B2DC
:101D7000082DDADB70BD0000141402401404024088
:101D80000C48006840F400500A4908600A4800689E
:101D900040F00100084908600848006840F400600D
:101DA000064908600448006840F0010002490860E4
:101DB000704700001408024014040240141402404A
:101DC0002DE9F04104460D46164632462946204686
:101DD000FFF714FB0746216988688047804687EA39
:101DE0000803324629462046FFF74CFEBDE8F08145
:101DF00038B545680446014628460BF0FFFF002829
:101E00002BD02068304A11280DD006DC0B2825D0B5
:101E10000E2833D00F2852D112E0282849D0B0F52F
:101E2000107F4CD108E09268002A16D0214628463F
:101E300001B0BDE830401047214628465268F7E718
:101E4000284604F08FF80090406E0468684604F05D
:101E5000D3F8002C01D02846A04738BD284604F00E
:101E600081F80090683003F0CFFF009803216C30B8
:101E700003F0D2FF684604F0BFF820E0E16848684C
:101E800009680D2902D0202913D105E0002810DDB2
:101E9000284612F057FF06E0002804DD2846BDE87A
:101EA000384012F04FBF2846BDE83840022112F0FA
:101EB0005FBFE06818B90021284600F004FA204608
:101EC000BDE838400CF08CBB040300202DE9FF4135
:101ED0000AAF97E87000002703958DE8D00000F066
:101EE00003F804B0BDE8F081F0B585B00DF1280C21
:101EF0009CE8F0004FF0000C8DE8F01000F024F8A2
:101F000005B0F0BDF0B5044685B08069B4F908505D
:101F1000668A0027CDE90265CDE900170490B4F97F
:101F20000C00B4F91060C118B4F90A00B4F90E50ED
:101F3000104433462A4600F007F80546616800F071
:101F4000E1F905B02846F0BDF0B585B00C46DDE9F5
:101F50000D51DFF854C04C31DDE90A67CDE902C10B
:101F60002146CDE900670CF08DFA040018D003F08B
:101F7000F9FF1022294604900CF0E6F8049830226C
:101F80000A493430FEF71CF9084D04990C3D2868C5
:101F9000486604A804F030F828684168204688475D
:101FA00005B02046F0BD0000F11D00081003002020
:101FB000F0B5044680688B4989B051F820506068BC
:101FC00000287DD0052804D006287AD0122879D19F
:101FD000AEE0E86900284FD095E80E008DE80F00CC
:101FE00004F110010FC906F0E7FC002655F82600A1
:101FF00005F0E0FDA169E8690A1A216901446069F8
:10200000304404F021FEA169E8690A1A21690144FB
:10201000E069801B04F018FEE169E8690A1A616949
:1020200001442069304404F0AFFEE169E8690A1A0E
:1020300061690144A069801B04F0A6FE761C022E93
:10204000D4DBA86805F0B6FDE069E9696669431A62
:10205000206942183144801C521E04F015FFE169CA
:10206000E869A2690B1A61690144101A401C921EAA
:1020700004F00AFFEE6913E05FF0000655F8260051
:1020800005F098FDE069831BA069821B60698119D6
:102090002069304404F03AFE761C022EEEDB022664
:1020A000D5E90301CDE900016169E0690844431005
:1020B000A069891C821B2069304404F06DFD02E098
:1020C00089E012E08AE0D5E90501CDE90001E36984
:1020D00060690121184401EB6001A0699B1E821B0D
:1020E0002069304404F058FD78E0206803F03AFF9E
:1020F000049020680DF088FD40B1A06808B1002070
:1021000008E00498006F28B1012003E00498406FB4
:1021100000B10220049901EB8000C56E04A803F011
:102120006BFF00231A462846216804F06FFA55E039
:10213000206803F017FF0490866EEEB3B0F95C7070
:10214000A168D1B3032942D05FF0000100EB810107
:10215000406D0C6C05F038FD204605F02BFD05A800
:1021600004F032FFBDF81410A88B0144ADF8141030
:10217000BDF81810081AADF81800BDF81600801C3C
:10218000ADF81600BDF81A00801EADF81A000498CC
:10219000B0F96020B0F95E1005A805F01BFC04A89A
:1021A00003F02AFF022005F051FD304603F0DAFE6D
:1021B0003A4605A9079001E00BE006E004F050FB69
:1021C0000DF11C0003F018FF08E00121BEE7022119
:1021D000BCE704A8F6E720680DF0BEF909B00020BE
:1021E000F0BD0000E8CF01082DE9FC4115460E4680
:1021F00000281DD003F0B6FE0190806E002798B134
:1022000003F0B0FE0090FEF70DF80446681E84420D
:1022100000DD0446224630460099FDF7D1FF6846AE
:1022200003F0EAFE375500E0377001A803F0E4FE42
:10223000BDE8FC8170B516460C4605461946304689
:10224000049A04F0AFF9024621462846BDE87040E2
:1022500000F080B8F8B515460C4606000DD003F026
:1022600081FE0090032C02D200EB84004563684697
:1022700003F0C2FE30460CF0BCFEF8BD044A034930
:10228000116004494A6A48621046704740030020C2
:10229000040300201003002000294FF0100101D09A
:1022A0000BF03CBE0BF096BD38B50D46040009D0CE
:1022B00003F058FE00904565684603F09DFE2046F9
:1022C0000CF097FE38BD4FF480720029114601D002
:1022D0000BF024BE0BF07EBD08B50023009300F088
:1022E00001F808BD70B516460C460546194630463D
:1022F000049A04F073F9024621462846BDE870406E
:1023000000F028B82DE9FF410E4605004FF001040A
:102310001CD003F027FE0190876E01A8009703F000
:102320006BFE3146684606F055FE78B100980024F1
:10233000B84208D0284603F015FE01900099816646
:1023400001A803F059FE28460CF053FE04B02046C5
:10235000BDE8F081F8B515460C46060013D003F031
:1023600001FE0090032C0BD200EB84006C3003F0D4
:102370004BFD009800EB8400C56630460CF039FE3A
:10238000684603F039FEF8BD10B5002005F0F0FBFB
:10239000FFF7ECFA04F056FD012005F0E9FB01F02F
:1023A000F7FB04F04FFD024801F0A8FD10BD00004E
:1023B000480000202DE9FF470446006810B10DF0E9
:1023C00023FC68B10022314850F8221060680A28C6
:1023D00041D007DCF0B306280DD0072854D106E021
:1023E0000122F0E712280AD019284DD137E0204603
:1023F0000EF024FF48E020460FF000FC44E0206887
:1024000003F0B0FD0290B0F9548090F85650476C3C
:10241000466B02A803F0F0FD206800F039F8814611
:1024200068460CF0D3F9BDF8001009EB050008442C
:10243000ADF80000246A304605F0C6FB022005F026
:1024400005FC384605F0B6FB42466946204604F0D6
:1024500007FA19E007E020460FF08CFF14E08869C6
:1024600004B0BDE8F08720680DF076F8206803F02E
:1024700079FD0390B0F90610B0F90220891A491CC1
:10248000C16703A803F0B8FD0020E9E7F8CF010811
:1024900038B503F067FD0090C46F684603F0ACFDEB
:1024A000204638BD044A034911600449CA69C8611D
:1024B00010467047CC0300201408002018080020A4
:1024C00000B589B024216846FDF7A1FE19200190CE
:1024D00003480068806841686846884709B000BDC5
:1024E0001408002000B59DB00C48007801280AD1DE
:1024F00070220B496846FDF763FE09480C380EC888
:1025000000200AF03EFD0548C078012804D10549A5
:10251000C86800210DF07EFE1DB000BD4D000020FA
:1025200034730020906D002010B5024807F014F8B5
:1025300010BD0000640B002010B5024807F00CF835
:1025400010BD0000C40B002010B5024807F004F8CD
:1025500010BD0000640A002010B5024806F0FCFF20
:1025600010BD0000C40A0020014608781038182366
:10257000B0FBF3F20848805CC865032A05D90868F7
:102580006FF30900001D886503E008686FF3090018
:102590008865886D7047000060870108014600204B
:1025A0008A6A8B6903BB32B1012A0CD0022A10D08F
:1025B000032A17D115E0CB6A03F08073B3F1807F53
:1025C00000D101200FE0CB6AB3F1C07F00D1012020
:1025D00009E0CB6A03F08073B3F1807F00D1012062
:1025E00001E000E000BF35E08B69B3F5005F1BD16F
:1025F00032B1012A06D0022A0CD0032A12D10BE0F4
:10260000012010E0CB6A03F08073B3F1807F00D12A
:10261000012008E0012006E0CB6AB3F1C07F00D1C1
:10262000012000E000BF15E032B1012A05D0022AE6
:1026300004D0032A0CD103E000BF00BF012008E052
:10264000CB6A03F08073B3F1807F00D1012000E0FA
:1026500000BF00BF70470000F8B50546006803F0F2
:1026600081FC0090448ED0F88860684603F0C4FC7A
:1026700006B1012604F0010428680DF0C5FA0EB178
:10268000002006E00CB1012003E008B1022000E0C8
:1026900003201B4951F82010686858B302280CD059
:1026A000052802D0122828D103E028460EF0F2FDBA
:1026B00023E0284610F06DFC1FE06A69E8694FF0DE
:1026C000FF33801AA0F1080203EB6204421CAB69DD
:1026D000001B4510A3EB6206C86905F06BFA06E023
:1026E0003219311B284604F0AFFA641E6D1C002C11
:1026F000F6DA02E028680CF02FFF0020F8BD000099
:1027000000D00108044A0349116004490A6B0863B8
:102710001046704718040020540800205808002074
:1027200038B50D46002403F01DFC0090C06B29460F
:1027300003F0FAFC0546684603F05EFC1DB128462E
:1027400003F010FC0446204638BD000010B5FEF72B
:10275000FBFEFFF715FB01F0E1FB01F00DF9094865
:1027600001F0CCFB002001F0B1F8064801F0C6FBF7
:10277000002001F0ABF804F0BFFC01F05BF9FFF7BB
:102780008DF810BD480000202DE9FC470E465FEA99
:10279000000978D003F0E6FB009090F85470D0F870
:1027A0005880456BC46C684603F026FCB8F1000FF6
:1027B00004D0314648464246904761E0122E18D078
:1027C00006DC082E43D0102E3CD0112E06D112E08C
:1027D000132E21D01D2E43D01E2E3DD0202E4FDB98
:1027E00017B148460EF0E1FAB1B2484612F018F8B7
:1027F00060B3611C27E04DB3284603F0B3FB0546E8
:102800002146019005F0A0FB4419204605F05EFB2F
:1028100001462346012210E0C5B1284603F0A2FB81
:1028200005462146019005F08FFB4419204605F02E
:102830004DFB014623464FF0FF3248460EF002F8AA
:1028400001A81BE0611E484600F034FB18E0BCB153
:10285000611E484600F02EFB48460EF0A6FA0FE037
:10286000484603F07FFB0090012F0ED0012180F835
:1028700054102146484600F01DFB684603F0BCFB9F
:1028800048460CF0B6FBBDE8FC87002180F85410E8
:10289000F3E7FEB54468054620460DF0B5F9064657
:1028A000294620460BF0AAFA002837D028680F28BE
:1028B00030D004DC0B2832D00E2853D13AE0A0F5FA
:1028C0008070133804D0A0F580702D384AD110E004
:1028D00020460CF0EDFC2046002113F010F82046B5
:1028E00003F040FB0190C06F00210CF0C7FC01A871
:1028F0001DE0E86860B1017A29B10168204600F066
:10290000E9F8012100E0022120460CF0F6FB29E065
:102910000321F9E70121204612F0F1FFFEBD204618
:1029200003F020FB0090343003F06EFA684603F0A9
:1029300063FB17E0B6B1E8684168002912DD016861
:102940001B290FD006DC09290CD00A290AD00D2931
:1029500004D107E0212905D0222903D02046FFF722
:1029600013FFFEBD28460BF03BFEFEBDF0B587B061
:1029700004460DF1080CD4E90567B0F90850408A07
:102980008CE8E1000020CDE90010B4F90C00B4F9A6
:102990001060C118B4F90A00B4F90E50104433465F
:1029A0002A4600F009F8050002D0618A00F045FAD5
:1029B00007B02846F0BD0000F0B585B00D46DDE952
:1029C0000D640F9FDDE90AC141F48051DFF870E02A
:1029D000CDE900C15837CDE902E729460BF052FD99
:1029E00005002AD003F0BEFA1022314604900BF005
:1029F000ABFB04981C2213496030FDF7E1FB0499FE
:102A0000012081F85500601C00D0012081F8800071
:102A1000002C00DC082424B20C870020488748637F
:102A200004A8641C03F0E8FA2146284611F0DDFDF5
:102A300018B928460BF008FE002505B02846F0BD61
:102A400093280008D404002038B504001BD05AB1E4
:102A500000230A4619460BF0EBFC0546204603F01E
:102A600081FA0090C5670BE003F07CFA0090C06F1C
:102A70000BF0D9FD00990020C86720460CF0B9FA88
:102A8000684603F0B9FA38BD00B52DED028B81B070
:102A90009FED0E8AA0B103F065FA009090F8441003
:102AA0000B4AD0ED120A684652F82110F8EEE00AFF
:102AB00000EE101AB8EE400A80EE808A03F09CFA0D
:102AC00001B0B0EE480ABDEC028B00BD0000000072
:102AD00078D201082DE9F04186B00C46060050D0AE
:102AE00003F040FA0090406B98B303F03BFA039078
:102AF0000098806E05F068F8804630460BF0C5FF00
:102B00000746039804F0B4FA0546009890F8601060
:102B100001F00301012916D002290DD0416EC06ACF
:102B200000680844241A641E039806F0FDF8014664
:102B3000002C0FDA002115E0781B401C00EBD07050
:102B4000A4EB6004F0E7406E791B081A241A641C99
:102B5000EAE713E0AC4205DC02462146039806F0A2
:102B600083F80146304600F0A5F903A803F044FAC3
:102B7000404605F029F830460CF03BFA684603F071
:102B80003BFA06B0BDE8F0812DE9F8431D46DDE9CA
:102B9000084916460F465FEA000840D003F0E2F904
:102BA0002049009081652049C1650021C0E912716A
:102BB000E0E90F650121047280F81A90017690F81F
:102BC0004470684603F018FA87B1284611F0FAFA03
:102BD0000546304611F0F6FA0CB1401C6D1C8542DA
:102BE00000DD28460146404600F093F8404614F0C8
:102BF0004FFA404603F0B6F9009000F046F90B4951
:102C00000978884205D10098C16C4046491C00F003
:102C100051F9684603F0F0F940460CF0EAF9BDE8D6
:102C2000F8830000F50201089170010858020020A5
:102C30002DE9F04190462DED068B82B00E46F0EE68
:102C4000418AB0EE60AA070048D0274850F8260015
:102C500000EE900AB8EE608A28EE000A10EE100A24
:102C6000FDF7DBFC9FED219B53EC192BFDF7F7FAE9
:102C700041EC100B14F0F4FE51EC100BFDF795FC39
:102C800028EE0A0A054610EE100AFDF7C6FC53ECC2
:102C9000192BFDF7E4FA41EC100B14F0E1FE51ECB6
:102CA000100BFDF782FC28EE280A044610EE100AED
:102CB000FDF7B3FC53EC192BFDF7D1FA41EC100BE7
:102CC00014F0CEFE51EC100BFDF76FFCCDE900685F
:102CD0000346224629463846FFF756FF02B0BDECB0
:102CE000068BBDE8F081000078D2010800000000EA
:102CF0000000E03F38B50D46040009D003F032F97A
:102D00000090856620460CF074F9684603F074F96B
:102D100038BD7CB50C4606002ED003F023F9009098
:102D2000B0F93810458FA14223D012DD406B80B13D
:102D300003F018F9019005F0F7FFA04206DD2146E7
:102D4000019805F001F9019A0021115401A803F03E
:102D500053F9684603F050F9611B3046491C11F0E5
:102D600044FC304603F0FEF80090048730460CF037
:102D700040F9684603F040F97CBD2DE9FC478846E0
:102D80005FEA00094FF0000655D003F0EBF8009021
:102D9000B0F93850446B684603F02EF90027B8F1BB
:102DA000000F3ED04CB1204603F0DCF80190FDF757
:102DB00039FA461C01A803F01FF9404605F0B4FF9C
:102DC0000446A84200DD2C462146404605F0BCF8EA
:102DD000451CA91B484611F00BFE08B3484603F0FA
:102DE000C1F80090406B03F0BDF82A4641460190BF
:102DF000FDF7E6F90198284400F8017C0098C464C6
:102E0000B0F938108C4205D190F85410012901D145
:102E1000641EC46401A803F0EFF8684603F0ECF800
:102E200006E00098343002F0EFFF00984787C7644F
:102E300048460CF0DEF8BDE8FC8738B50C460500C6
:102E40000AD003F08FF8009018B1046628460CF001
:102E5000D0F8684603F0D0F838BDF8B515460C46F2
:102E600006000ED003F07EF8009038B1022C05D297
:102E700000EB8400C56630460CF0BBF8684603F0F2
:102E8000BBF8F8BD002213F081BF38B50546406B92
:102E9000002468B103F066F800900446E96C05F080
:102EA00053F8204405F012F80446684603F0A4F8ED
:102EB000204638BD1CB50C4603F054F80090406B1A
:102EC000F0B103F04FF8019005F02EFF009991F852
:102ED000542002B10122002C00DA0024844200DDDB
:102EE0000446B1F93800801AA04200DA0446C86CE2
:102EF000A04200D0CC640020086501A803F07CF853
:102F0000684603F079F81CBD10B5044610484069C6
:102F100020F010000E494861204601F017F80C48D7
:102F2000406940F020000A494861082015F068FB1C
:102F30000748406920F0200005494861082015F045
:102F40005FFB00F091FE034908600846006810BD71
:102F5000001002409000002010B5044600203B49BC
:102F600008603B4908600CE02046FFF7CDFF394977
:102F7000374A126841F8220035480068401C34493D
:102F80000860334800680628EED300203049086006
:102F900035E02F480068401C2F49086026E02D4886
:102FA0002B49096850F821102B4A126850F822006A
:102FB000814216D927482649096850F82100274937
:102FC000086024482449096850F821002149204A12
:102FD000126841F82200214800681F4A126841F82F
:102FE00022001D480068401C1B4908601A48006800
:102FF0000628D4D316480068401C154908601448B8
:1030000000680528C5D30020104908600120104938
:1030100008600EE00F480E49096850F821000B497E
:10302000096808440949086009480068401C0849C3
:103030000860074800680528ECD304480068800849
:10304000064908600846006810BD00009C0000208A
:1030500094000020281D002098000020A0000020DF
:10306000F0B504460F4615461E463946022000F0CC
:10307000D9FC2146032000F0D5FC3146062000F0A3
:10308000D1FC2946072000F0CDFC0F204FF0C041B5
:103090000880F0BD10B500202E4908702E49081F89
:1030A00000F046FE00284DD001202A4908702A4829
:1030B000001F00682949096888420DD92648001F69
:1030C000006826490968401A4FF47A714843244938
:1030D0000968B0FBF1F00CE01F48001F00681F49B1
:1030E0000968081A4FF47A7148431D490968B0FB12
:1030F000F1F01C4908601848001F40681A49096827
:1031000088420DD91448001F406817490968401AC1
:103110004FF47A71484315490968B0FBF1F00CE0AF
:103120000D48001F406810490968081A4FF47A7169
:1031300048430E490968B0FBF1F00A494860054868
:10314000007810BD002007490860486001480078F9
:10315000F7E70000E8000020041D002080000020A8
:1031600078000020141D0020840000207C00002036
:103170002DE9FF4F83B081460E461C46DDE9117AEA
:10318000109DDAF800000290DAF8040001902E4455
:1031900032480068007C00F0030030B1012836D0CE
:1031A00002281CD0032855D130E000BF20788022AF
:1031B0002A41104008B1019800E0029803463146C8
:1031C000761C4846059A00F03DFE681C0546082816
:1031D00001D10025641C781E071EE7D13AE000BF2C
:1031E000207880212941084028B131464846019B7A
:1031F000059A00F027FE761C681C0546082801D1B8
:103200000025641C781E071EEAD123E000BFD9F810
:10321000101088688047804600BF207880212941AF
:10322000084060B131464846059A00F011FB8346DC
:103230008BEA080331464846059A00F003FE761CE7
:10324000681C0546082801D10025641C781E071E4D
:10325000E3D100BF00BF07B0BDE8F08F64020020DB
:103260002DE9FF4F81B00F469846DDE90F9A98F897
:1032700000B00E9D0E9D2F4453480068007C00F066
:10328000030010B102284BD14BE0BAF1000F25D05A
:1032900000BFC5F103004400C4F10601C02008418D
:1032A00000EA0B0020FA04F65AF82600009039468E
:1032B0007F1CDDE90030039A00F0C4FD681C054660
:1032C000042805D1002508F10100804690F800B0DF
:1032D000A9F10100B0F10009DBD121E000BFC5F187
:1032E00003004400C4F10601C020084100EA0B00BD
:1032F00020FA04F639467F1C3346039A019800F001
:10330000A1FD681C0546042805D1002508F101002F
:10331000804690F800B0A9F10100B0F10009DED1BB
:103320004DE0BAF1000F26D000BFC5F10300440004
:10333000C4F10601C020084100EA0B0020FA04F69F
:1033400046B15AF8260000903946DDE90030039A6C
:1033500000F078FD7F1C681C0546042805D1002577
:1033600008F10100804690F800B0A9F10100B0F129
:103370000009DAD122E000BFC5F103004400C4F126
:103380000601C020084100EA0B0020FA04F62EB125
:1033900033463946039A019800F054FD7F1C681C9F
:1033A0000546042805D1002508F10100804690F863
:1033B00000B0A9F10100B0F10009DDD100BF00BFEC
:1033C00005B0BDE8F08F0000640200202DE9F04157
:1033D00007460D4690461C46069E08E04246294692
:1033E0003846236800F02EFD761E6D1C241D002E2D
:1033F000F4DCBDE8F08100002DE9FF4F81B00F46FD
:103400009846DDE90F9A98F800B00E9D0E9D2F4466
:1034100053480068007C00F0030010B102284BD133
:103420004BE0BAF1000F25D000BFC5F101008400C8
:10343000C4F10401F020084100EA0B0020FA04F670
:103440005AF82600009039467F1CDDE90030039AC7
:1034500000F0F8FC681C0546022805D1002508F19B
:103460000100804690F800B0A9F10100B0F1000918
:10347000DBD121E000BFC5F101008400C4F10401EB
:10348000F020084100EA0B0020FA04F639467F1CC0
:103490003346039A019800F0D5FC681C05460228C3
:1034A00005D1002508F10100804690F800B0A9F18F
:1034B0000100B0F10009DED14DE0BAF1000F26D0D5
:1034C00000BFC5F101008400C4F10401F0200841EF
:1034D00000EA0B0020FA04F646B15AF826000090E4
:1034E0003946DDE90030039A00F0ACFC7F1C681C13
:1034F0000546022805D1002508F10100804690F814
:1035000000B0A9F10100B0F10009DAD122E000BF5A
:10351000C5F101008400C4F10401F020084100EA73
:103520000B0020FA04F62EB133463946039A01986F
:1035300000F088FC7F1C681C0546022805D1002588
:1035400008F10100804690F800B0A9F10100B0F147
:103550000009DDD100BF00BF05B0BDE8F08F00005D
:10356000640200202DE9F04781460F4692461C4632
:10357000DDE9085826480068007C00F0030010B11F
:10358000022841D11EE0B8F1000F0ED00AE02678E3
:1035900058F8263052463946484600F053FC6D1E16
:1035A0007F1C641C002DF2DC0BE008E023785246FF
:1035B0003946484600F046FC6D1E7F1C641C002DF9
:1035C000F4DC21E0B8F1000F0FD00BE0267836B123
:1035D00058F8263052463946484600F033FC6D1EF6
:1035E0007F1C641C002DF1DC0DE00AE026782EB172
:1035F000334652463946484600F024FC6D1E7F1C77
:10360000641C002DF2DC00BF00BFBDE8F0870000A5
:10361000640200202DE9FF4F85B016461F46DDE904
:1036200016BADDE91495DDF84880139808283FD0D4
:1036300006DC012809D0022818D004287BD126E016
:10364000102844D0202876D167E000240BE0A2198E
:103650002B46CDE900B7CDF808A0DDE90501FFF75D
:1036600087FD4D44641C4445F1DB64E000240BE01D
:10367000A2192B46CDE900B7CDF808A0DDE9050178
:10368000FFF7EEFD4D44641C4445F1DB53E000249C
:103690000BE0A2192B46CDE900B7CDF808A0DDE973
:1036A0000501FFF7A9FE4D44641C4445F1DB42E0EF
:1036B000002409E0A2192B46CDE9007ADDE90501D5
:1036C000FFF750FF4D44641C4445F3DB33E0002416
:1036D00020E006980190A01902A9A1C1DDE901012D
:1036E00000F096F90F204FF0C04108800CE00398DD
:1036F0000088134908800498401E04900198401CDB
:1037000001900398801C039004980028EFDC00BF10
:103710004D44641C4445DCDB0DE0002408E0A219A4
:103720002B460097DDE90501FFF750FE4D44641C70
:103730004445F4DB00BF00BF09B0BDE8F08F0000D6
:1037400000001060F8B505460E4614461F463B467D
:10375000224631462846009400F00EF8F8BDF8B530
:1037600006460C4617461D4623463A462146304635
:10377000009500F001F8F8BD2DE9F84380460C46AD
:1037800015461E46089F06480068C06B00683B4609
:10379000324629460090204600F0CCF8BDE8F88378
:1037A0006402002002460020704700000246A1F19A
:1037B0000900082813D2DFE800F00406080A120CFA
:1037C0000E10084870470848FCE70848FAE7084820
:1037D000F8E70848F6E70848F4E70848F2E7002069
:1037E000F0E70000A33E0008C93E0008653E00085F
:1037F00085380008813B0008713B0008053E000841
:1038000003460A4699680F2A1FD2DFE802F01E0815
:103810000A0C0E1E1E1E10121416181A1C004868E0
:1038200070478868FCE7C868FAE70869F8E78869BC
:10383000F6E70020F4E70120F2E70120F0E700209E
:10384000EEE70020ECE70020EAE74FF0FF30E7E783
:103850002DE9F04107460C4615462946204600F062
:10386000C1F806463046BDE8F081826800230B802F
:103870004B8093895B1E1BB28B80138A5B1E1BB22D
:10388000CB80704770B50446204600F009F8054625
:1038900000220121A06907F0A5FD0543284670BD5F
:1038A00070B50446A06858B91C2002F0C3FAA060A5
:1038B000A568216988688047064607F07BFEA861F5
:1038C000A06808B9012070BD0020FCE770B504466F
:1038D00040F2DF1340F21F3200210846FFF7C0FB21
:1038E000002508E0002602E005490C80761CB6F5AC
:1038F000F07FF9D36D1CB5F5487FF3D370BD0000A0
:103900000000106000B50321012000F08BF800BD1D
:1039100070B504460D462B46224629462046FFF741
:103920009FFB024800880249088070BD7400002097
:10393000000010602DE9F04704460D4616461F466C
:10394000DDF820A03B46324629462046FFF788FB9B
:10395000A8460AE0A14604E00649A1F800A009F142
:103960000109B145F8D908F10108B845F2D9BDE817
:10397000F08700000000106010B51848006840F0A3
:10398000100016490860642014F040FE13480068D7
:1039900040F0200011490860642014F037FE104800
:1039A000406920F040000E494861642014F02EFE6A
:1039B0000B48406940F0400009494861642014F018
:1039C00025FE0648006820F0800004490860642055
:1039D00014F01CFEFFF796FF10BD0000140C02400F
:1039E0000010024030B504460D46B4F5487F02D2BF
:1039F000B5F5F07F01D3002030BD2B462246294685
:103A00002046FFF72DFB01480088F5E70000106015
:103A100070B504460D462B46224629462046FFF740
:103A20001FFB70BD4FF0C0431880014B19807047D9
:103A30000000106010B5012004F09AF83C480AF02C
:103A40007FFC3C4809F0A6F93B4800F001FF3948EB
:103A500009F0A0F93948FEF711FC3948FEF722FDBC
:103A60003848FEF74FFE384809F0D2FC374809F0D5
:103A7000BDFD374806F068FE364809F061FA08F0E7
:103A80006DF83549086003F0DDF9344800F036FA86
:103A9000314908680BF06CFB4FF42A73304A194621
:103AA0003048006801F052FE2F4908602A49086931
:103AB0002D49096801F04CFD2C4A1168264A10680E
:103AC0000AF0B6FE294948600A469168224A106801
:103AD0000AF0AEFE2549C8600A4611691E4A106800
:103AE0000AF0A6FE214948610A4691691A4A1068FF
:103AF0000AF09EFE1D49C8610A46116A164A1068FE
:103B00000AF096FE194948620A46916A124A1068FC
:103B10000AF08EFE1549C8620A46116B0E4A1068FB
:103B20000AF086FE1149486303F08CF910BD0000CD
:103B30004040400011CD0008DD430008B11F0008DF
:103B4000B5230008592600085DD20008C1D400083A
:103B500009A7000889CE0008906D002048000020C9
:103B6000D86D00205401002048010020640100208D
:103B700010B5044600220621A06907F033FC10BDF1
:103B800010B5044600220521A06907F02BFC10BDEA
:103B900010B5FFF77FFA3049087407F073F82E4923
:103BA0000968884205D907F079F82B4949688842A5
:103BB00004D8002028490860486008742748006835
:103BC00025490968884205D92448006822490968BE
:103BD000401A04E02048006820490968401A20493A
:103BE00008801E4840681C494968884205D91B481E
:103BF000406819494968401A04E017484068174965
:103C00004968401A174908801448007A1249097C0B
:103C1000884207D1124800881E2803DC114800881A
:103C20001E2817DD0C48007C0C4908720A48007CED
:103C300048B109480068086007484068486008467D
:103C400004F028F906E0054804F024F900200349AF
:103C50000860486010BD0000141D0020EC0000202A
:103C6000F8000020FA00002010B500201A49087062
:103C70001A4908601849087026E018480068400092
:103C8000164908601648406940F020001449486110
:103C9000082014F0B5FC1248406920F020001049BB
:103CA0004861082014F0ACFC0E48006800F00400E5
:103CB00028B10A48006840F0010008490860064839
:103CC0000078401C04490870034800780C28D4DBB5
:103CD0000248006810BD0000890000208C00002010
:103CE00000100240100C024070B504460D46D02072
:103CF000FFF732F90C4908609020FFF72DF90B49C6
:103D0000086009480068642803D3084600686428EE
:103D100001D2002070BD044800682060034800689C
:103D200028600120F6E70000A4000020A800002081
:103D300070B504460D462E492E48FFF7D5FF2E4993
:103D400008700846007808B9002070BD2B492C483F
:103D5000FFF7CAFF284908700846007808B9002014
:103D6000F3E72748006823490968884206D82148B4
:103D7000016823480068143081420CD31D48006854
:103D80001F490968884230D81D48016819480068F1
:103D90001430814229D219480068154909688842BF
:103DA00006D81348016815480068143081420CD3C6
:103DB0000F48006811490968884216D80F48016801
:103DC0000B480068143081420FD20A4800680C4941
:103DD00009680844400820600548006807490968E8
:103DE0000844400828600120AFE70020ADE700004C
:103DF000B0000020AC000020BC000020B800002073
:103E0000B40000207CB504460D4616460020009004
:103E100001908DF8045000966A460421A06907F0CD
:103E2000E1FA7CBD7CB504460D46164600200090A4
:103E30000190009501966A460321A06907F0D2FA25
:103E40007CBD00002DE9F04107460C4615461E4694
:103E50000348066029462046FFF75AFDBDE8F08179
:103E6000740000202DE9FC4105460E46174600204F
:103E7000009001902846FFF713FDA86878B1AC6860
:103E8000606908B9304600E0606960616660A760FB
:103E9000009601976A460721A86907F0A3FABDE8D2
:103EA000FC81F8B504460D46002000902046FFF73F
:103EB000F7FCA06838B1A668356000956A46022113
:103EC000A06907F08FFAF8BD2DE9F04105460E46CE
:103ED00017462846FFF7E4FCA86818B1AC68E6600E
:103EE00027616661BDE8F08104214FF0C042118076
:103EF00001490880704700000000106000B50346CB
:103F00005878FFF7F1FF187800F062F81878987089
:103F1000587818709878587000BD00000A484069B9
:103F200040F01000084948610846406940F0200010
:103F300048610846406940F004004861084640690D
:103F400040F02000486170470010024010B5044660
:103F500000201D4908701D48406920F020001B49C1
:103F6000486100201849087028E004F0800030B152
:103F70001648406940F004001449486105E01348C0
:103F8000406920F00400114948616006040E0F48A2
:103F9000406920F020000D494861082014F030FBF2
:103FA0000A48406940F0200008494861082014F0A0
:103FB00027FB05480078401C034908700248007838
:103FC0000828D2DB10BD000088000020001002404D
:103FD00005214FF0C0421180014908807047000060
:103FE000000010602DE9F04104460D4616463246A9
:103FF00029462046FFF72CFC074621698868804740
:10400000804687EA0803324629462046FFF71AFF12
:10401000BDE8F08100BFFEE72DE9F04389B0984686
:1040200015460F4606004FF0000428D000F0B8FBFC
:104030000446304600F0A0FB814603A9304600F05C
:10404000CCFCF80706D0BDF91C008221001B401BE8
:10405000401C08E0B807BDF91800284402D540F21A
:10406000022100E002210096CDE9018123461A4693
:104070004946FDF72BFF04460021FEF70DF909B074
:104080002046BDE8F083000010B50523FFF7C4FF0C
:104090000446054A0021FEF71FF9044920460BF0AB
:1040A0003BF9204610BD00001D1001081D7C0108D1
:1040B00010B50723FFF7B0FF0446054A0021FEF7BD
:1040C0000BF9044920460BF027F9204610BD0000EB
:1040D00069110108337C010810B50823FFF79CFF24
:1040E0000446054A0021FEF7F7F8044920460BF084
:1040F00013F9204610BD000099110108697C0108E0
:104100002DE9F047044640688EB00027804601F054
:1041100029FF0090B0F87CA0D0F86890D0F88060BB
:10412000D0F88850C06D00B10768684601F064FFA0
:1041300005E0696820468847002843D12D68002D96
:10414000F7D12068172853D00CDC0F283DD004DCB1
:104150000B2877D00D2825D18BE0112810D01428FA
:1041600020D13BE0262846D004DC1E2851D0202850
:1041700018D18AE02A2816D0B0F5107F12D128E095
:104180004046E56801F0EEFE0290697A39B9297A75
:10419000012904D130F87C1F41F48071018002A80C
:1041A00001F02AFF75E0404601F0DCFE0090E16876
:1041B00011B1C0F8841002E0D0F88400E0606846D5
:1041C00001F01AFF0EB0BDE8F087D7B34046B847FC
:1041D0005FE02146404611F077F9F3E705A9404634
:1041E00000F0FBFBE0680699016007994160E9E790
:1041F000C4F80C90E6E7E0680228E3D1CDF83080FF
:10420000E0680D9027200A900AA9A0680BF00CFF27
:10421000D8E7E068012804D00021404600F0EDFA1C
:10422000D0E730460AF03AFF68B130460BF01EF98D
:1042300030460AF015FE98B10121304609F06EFEB5
:104240000EE026E02FE048460BF05EF906464046B9
:1042500001F088FE0090C0F88060684601F0CCFE56
:104260000121404600F0C9FA002EABD10020E060E9
:10427000A8E75FEA0A700CD4E068C06848B1007A29
:1042800038B140460BF0F2F803E02146404610F00A
:104290008CFD2146404609F0B1FD002892D0204611
:1042A0000AF09EF98EE7404601F05CFE0090703007
:1042B00001F0AAFD684673E7F0B587B0B0F9084091
:1042C0000DF10C0C0C9E876945688CE8F000448A5F
:1042D0000025CDE900150294B0F90C10B0F910508A
:1042E000B0F90E40B0F90A00194410442B4622469A
:1042F00000F002F807B0F0BD2DE9F0478AB00DF1EB
:104300004C0CDDE917849CE86006129F45F480554B
:10431000DFF8BCC06034CDE902C4CDE900750AF015
:10432000B1F804004FD001F01DFE30224946049040
:1043300009F00AFF0498282226493430FBF740FF91
:104340000498244FC0F86480A0F87C600026C0F870
:104350008060C666083FC0F888607968C16504A8B7
:1043600001F04AFE05A9204600F037FB1A4841F249
:10437000827103960094CDE90110BDF91E00BDF9CC
:104380001A10BDF91C20431ABDF918005B1C121A43
:10439000521C0AF077F8064678684168204688473C
:1043A000204601F0DFFD0490866604A801F024FE9B
:1043B00042F20400054202D120460AF0B7F9514604
:1043C000204600F089FA0AB02046BDE8F0870000D8
:1043D00001410008F8040020E14C00082DE9F041FB
:1043E000044694B0006800F0B7F908B1D94D01E077
:1043F000D84D2C35606815281ED00CDC0B281FD03A
:1044000004DC00287ED005287DD12FE10E287BD04A
:104410001228F9D141E1162806D0172808D018280B
:1044200008D01C28F0D109E0E86914B0BDE8F0819B
:10443000286AFAE7686AF8E7A86AF6E76869F4E7BD
:1044400020680B901C200C90206801F08BFD0390DD
:10445000016D0BA88847064603A801F0CDFD022E8A
:104460000FDB95E807008DE80700D4E90402334626
:10447000A16904F06FFA20698719A069A0EB06080A
:104480002CE0286803F096FB2169E8690A18521E9F
:10449000606902F0D9FBA269E869111A491C6069D8
:1044A00002F0D2FBD4E904077F1C394602F00EFC6F
:1044B0003946A06902F00AFC686803F07BFB2069BA
:1044C0003946401C02F002FCA0693946401E02F049
:1044D000FDFBA0692769A0F10208BF1C286803F052
:1044E00069FB42463946606902F0AEFB686803F03A
:1044F00061FB606942463946401C02F0A5FB686AD0
:10450000022802E015E1B0E000E10BDDA86803F04D
:1045100051FB61696A6A881C8B180146424638461D
:104520005B1E27E0296AB14226DD6069022E07463C
:1045300000F1020801DB374401E007F102072069BE
:1045400001DB304401E000F1020022693B460A44ED
:104550004146A2F1010202F097FC022E02DBA069A3
:10456000821B01E0A269921EA069E9693B46401ADC
:104570004146401C02F088FC022E02DB60690644C2
:1045800001E06669B61CE76928687F1E03F012FB2C
:104590003A463146206902F0F7FB3A463146A069B7
:1045A00002F0F2FBE7696868BF1E03F003FB2069B5
:1045B0003A463146401C02F0E7FBA0693A463146D4
:1045C000401E02F0E1FBE869022802DC286A0228AA
:1045D00023DDA86A022802DDE1690F1A01E0E7691C
:1045E000BF1EA86803F0E6FAE969022909DD20691F
:1045F0003B46421800F1020C31466046521E02F062
:1046000043FC286A022808DDA269E8693B46101AC3
:104610003146401C921E02F037FC286803F0CAFAAB
:10462000D4E90620216902F00FFB686803F0C2FAA2
:10463000D4E906202169401E491C521E02F004FBE9
:10464000A86A022811DDA1692669E469A1F10208BE
:10465000271AA41EB61C7F1CA86803F0ABFA2346D9
:1046600042463946304602F00FFC71E0208A00B223
:10467000ADF81400A18A09B2ADF81610228B12B25F
:10468000ADF81820A38B1BB2ADF81A302C69ED6879
:10469000CDE9005402F080FA5AE0208A298B0844C0
:1046A000ADF81400A08AADF81600208B298B401AB3
:1046B000ADF81800A08BADF81A00206801F052FC8C
:1046C0000390006FF0B1022003F0C0FA039890F855
:1046D0007C10C1F3C00100EB8100006C03F06AFAAA
:1046E0000398406B03F070FA0398006F01F03AFCF6
:1046F00003990990B1F95A2005A902F0B1F809A867
:1047000001F07AFC03A801F077FC21E0208AADF8E3
:104710001400A08AADF81600208BADF81800A08B0D
:10472000ADF81A00A86803F045FA05A802F0D0FB1E
:104730000EE0206801F016FC039030F85A1F41F09B
:104740000C01018003A801F057FC20680AF004FF67
:1047500000206AE63405002038B5002450B101F08D
:1047600001FC009090F87C00000700D50124684609
:1047700001F042FC204638BD38B505004FF000047A
:104780000CD001F0EFFB0090C06D00218068026842
:10479000284690470446684601F02EFC204638BD66
:1047A00030B587B005004FF000040ED001A900F02D
:1047B00014F9284601F0D6FB0090B0F95440684641
:1047C00001F01AFC0CB9BDF9044007B0204630BD19
:1047D000002801D010F0F0B97047002801D010F087
:1047E0003ABA704710B5040006D011F08BFE20468F
:1047F000BDE8104011F05ABE10BD002801D011F0E4
:104800001DBF7047F8B515460C4606000DD001F0E7
:10481000A9FB0090022C05D200EB84008563304692
:104820000AF0E7FB684601F0E7FBF8BD38B50C4637
:1048300000280CD001F096FB0090816CA14203D0BF
:104840008464806E0AF0D5FB684601F0D5FB38BD64
:10485000074A0649054B1160064A083BD169586072
:104860001B68C2E906300846704700002805002092
:10487000F4040020F80400202DE9FC410D46070057
:1048800028D001F06FFB0190C16D8C6800F00CF92D
:1048900080460198456301A801F0AEFB2268012122
:1048A0003846904706462268032138469047054619
:1048B00022680021384690470446384600F0D9F96E
:1048C0002B46324641463846009400F062F938469D
:1048D0000AF08FFBBDE8FC817CB50D46040019D0C1
:1048E00001F040FB0090006F0190684601F084FBEE
:1048F000294601A804F06EFB00280BD0204601F0E9
:1049000031FB009001990167684601F075FB204674
:104910000AF06FFB7CBD38B50C4605000ED001F0E7
:1049200021FB0090B0F95A10A14204D0A0F85A40DF
:1049300028460AF05EFB684601F05EFB38BD38B5DC
:104940000C4605000FD001F00DFB0022009000EB9B
:104950008201521C0C64022AF9D3684601F04CFB18
:1049600028460AF046FB38BD2DE9FC470D465FEAB4
:1049700000094FF000042DD001F0F4FA0190B0F9D5
:104980005440A54223D000F08FF8804601980121C1
:10499000A0F85450C06D856848462A68904707467D
:1049A0002A6803214846904706462A68002148465F
:1049B00090470546484600F05CF933463A46414682
:1049C0004846009500F0E5F848460AF012FB01A8B9
:1049D00001F012FB2046BDE8FC872DE9F34F85B0BE
:1049E00000270C46B846059801F0BCFA0090C06D4F
:1049F0000121856805982A68904782462A68032124
:104A00000598904704902A680221059890470390E2
:104A10002A68002105989047064600980AF072FF20
:104A2000834600980AF075FF8146009890F832108E
:104A3000890601D5B0F9588000F036F8054600988F
:104A4000C06E10B10AF032F8074625806780A4F8DE
:104A500004A0049AABEB020006EB0802401E2A44B5
:104A600020813A44E280039BA9EB0302521E62813B
:104A7000A4F80CA020827019E681401E608268466E
:104A800001F0BAFAB4F90C000190B4F910000290E8
:104A900002AA01A9059800F039F80198A0810298AE
:104AA000208207B0BDE8F08F10B50146002091F8D4
:104AB0003220920607D5B1F95400002803D1486B83
:104AC00002F0FAFA801C10BD70B58AB00C4605469B
:104AD00001F048FA0990C06D866809A801F08CFAC7
:104AE000009534B1012C06D0022C0BD0032C04D13C
:104AF0000AE0182000E01620019071686846884797
:104B00000AB070BD1520F7E71720F5E72DE9FC4145
:104B100017468846044601F025FA0090C16D0568E5
:104B200068468E6801F068FA326800212046904796
:104B30000646204609F084FE27E000BF01F012FA85
:104B40000190B0F900102AB2B0F90430891A9A1A0B
:104B5000B0F90230A3EB2543B34210D190F82800FE
:104B6000000605D53868884209DB491E396006E031
:104B7000D8F80000904202DC521CC8F8002001A8BE
:104B800001F03AFA204609F004FF0400D6D1BDE84E
:104B9000FC812DE9FF4F83B00E460746DDF84090BB
:104BA00001F0E0F90190C16D8D68FFF77DFF0446CB
:104BB00001A801F021FA2A6801213846904783466E
:104BC0002A6803213846904782462A6800213846E1
:104BD00090470546B44207D105998B4504D1069903
:104BE0008A4501D14D4541D0A41B0026B046384628
:104BF00009F026FE38E001F0B5F90090806A010660
:104C000001D5800502E0810528D50006002825DBB6
:104C100024B12246114638460AF0BAFA009890F8B4
:104C2000280000060AD50698A5EB0902A0EB0A00A9
:104C300004FB16013846761C0AF05DFA0098008DD8
:104C400080050BD50599A5EB0902ABEB010004FB30
:104C5000080108F1010838460AF04DFA684601F0EB
:104C6000CBF9384609F095FE0700C4D107B0BDE87E
:104C7000F08F70B586B0064601F074F90590D0E962
:104C80001A4505A801F0B8F954EA050026D069468E
:104C90003046FFF7A2FEACB1BDF90620BDF9041005
:104CA00020460AF0FDF9BDF90A00BDF90610421AC6
:104CB000BDF90800BDF90410521C411A2046491CD8
:104CC0000AF07AFC002D09D0BDF90600BDF90210EA
:104CD000421ABDF9041028460AF0E2F906B070BD88
:104CE0002DE9F0430446406889B0054609F068FEA6
:104CF000814601F037F90290D0F84880D0F88070F2
:104D0000466E02A801F078F92068172853D008DC15
:104D10000E283AD00F2811D014284CD015283DD198
:104D200049E01E281ED01F282AD0222840D0312832
:104D300034D10020E06009B0BDE8F0836FF070412D
:104D40004046884503D006F045F901F0FBFA002EF5
:104D5000F1D0D4E902122068CDE90405CDE90612AC
:104D600004A81FE0E0680028E5D02FB1AF4203D0CF
:104D700038460AF07BFBDEE728460AF0C5FBDAE797
:104D80002146484609F03AF8D5E7E068416800292D
:104D900004DD00680928EFD00A2805D05EB120465E
:104DA000C4F80490B047C6E728460AF0B5FBC2E74E
:104DB000C4F80C80BFE7204609F012FCBBE70000F6
:104DC00070B504461D460023B5F5804F13D154F845
:104DD00022300C480340D1E9000640EA06108E68F4
:104DE00040EA06208E8940EA06408E69304303433C
:104DF00044F8223003E06FF0704044F822000020B5
:104E000070BD00000000F0CF10B503460022086816
:104E100053F8202012480240D1E901042043CC6815
:104E200020430C6920434C6920438C692043CC69A2
:104E300020430C6A20434C6A20438C6A2043CC6A8E
:104E40002043CC6B20430C6B204302438868082826
:104E500001D142F04002086843F82020002010BD34
:104E60008000F0FF30B503460024501C53F820406A
:104E700004F04044D1E9000540EA05108D6840EA9D
:104E800005208D8940EA0545088A401E45EA0055FF
:104E9000087D801E45EA00608D6928430443501C4C
:104EA00043F82040002030BD10B505490868FBF7E5
:104EB00075FD034841680020FBF792FD10BD00001E
:104EC0005400002010B50248407800F077FD10BD76
:104ED0004D0000202DE9F0430446C56887B0904698
:104EE0008946002002F06EFE064625B1287910B1F1
:104EF00046F0020001E026F0020002F063FE2069A5
:104F0000012558B1D4E902128DE826000395638883
:104F10002288046841464846A0471EE0124F134BC2
:104F2000214638681B68427CE068984730B9E088C1
:104F3000012801D0002001E03868806BA288E38856
:104F4000A1680095CDE90410CDE90232019563888E
:104F500022884146484605F045FC07B03046BDE88A
:104F6000F04302F02FBE0000640200205C0200202B
:104F70001CB50024019401AC009400F0E7F81CBDBE
:104F80002DE9FF4F83B0814606988A46A0EB0A08B8
:104F9000109E00200090A2EB09043568934654EA65
:104FA000080018D02046FBF749FE07464046FBF7AD
:104FB00045FE87420BDA2046444680464846D146A5
:104FC00082465846DDF818B0069001200090002C6B
:104FD00007DD204606E007B04846BDE8F04F00F088
:104FE0003BB96042A0420AD04846D9466442C8F163
:104FF000000883464FF0FF37DDF818A000E00127D6
:105000005148B8F1000F11D004EBD4714FEA610B95
:1050100001DACBF1000B4C480068807E88B3002F8A
:1050200002DA30682044306000257BE000990029D6
:10503000016821D0897E11B10027804615E007B0B4
:105040005A4649465046BDE8F04F05F02DBD28466A
:105050006D1C11F0D1FB38B9D8F8000009EB07013D
:10506000406E4268504690477F1CA742EFDD6D1EA0
:10507000356007B0BDE8F08F8A7E1AB10027804600
:1050800017E019E0486E5A465146036807B0484693
:10509000BDE8F04F184728466D1C11F0ADFB38B93C
:1050A000D8F8001009EB0700496E4A68514690474E
:1050B0007F1CA742EFDDDAE700250FE008FB05B013
:1050C00090FBF4F101EB0A00009951B11E4A09EB83
:1050D00005011268526E526890476D1CA542EDDDC5
:1050E000C7E7194909EB05030968496E4A68014693
:1050F0001846F1E708FB05B090FBF4F101EB0A005C
:10510000019030683844306011F076FB48B900985F
:1051100090B10D4809EB05010068406E42680198A6
:1051200090476D1CA542E5DD3068002F01DA204470
:105130003060C01B30609CE7034909EB050009683B
:10514000496E4A680199EBE7640200202DE9FF47A8
:105150000F4640491646804609680C981D460A7E4F
:10516000012A1CD0A8EB0600791B50EA01031CD0D1
:10517000A2F1010912F010FD00F58060824603F0F3
:10518000FAFF00FB09F4504603F0FAFF00FB09F1B7
:10519000002C0CDAC4F50070801240420AE0009046
:1051A000324639464046FFF7EBFEBDE8FF8704F57F
:1051B0000074A012002904DAC1F5007189124C4272
:1051C00002E001F500718C12002804DD411C01EBA6
:1051D000D171491003E000EBD0714910401E00EB83
:1051E000D0704210002C04DD601C00EBD070401029
:1051F00003E004EBD4704010641E04EBD47308EB9E
:105200000104ADF800403C18ADF80240A8EB0204E0
:105210005B10B21AADF80440ADF808203144FC1A16
:10522000EA1AADF80C102844ADF80A20ADF80E00CB
:105230000023ADF806401A460421684600F07AF8CB
:10524000394640460DF022FC294630460DF01EFC42
:10525000ABE7000064020020064A13681A7E012AA8
:1052600005D0521E02EBD272521000F005B85A6EF1
:1052700052681047640200202DE9F05F0646884618
:1052800040F2C32002FB00F14FF47A7091FBF0F77B
:1052900002FB02F102EBD27001EB600B1446B11875
:1052A000234A301B7F1C1268526E13680A4641461F
:1052B0009847012538E000BF05FB05F004FB040119
:1052C00059451CDDBC4219DD194B06EB050AA6EB5E
:1052D00005091B68AAF1010208EB04015B6E09F1E4
:1052E00001001B689847124BAAF10102A8EB0401C8
:1052F0001B6809F101005B6E1B689847641E0C4B2C
:105300003219301B1B68924608EB05015B6E814623
:105310001B689847064B5246A8EB05011B68484698
:105320005B6E1B6898476D1CBD42C5DDBDE8F09FF4
:10533000640200202DE9FF4F43F6FF740F466642DA
:1053400083B09B46814600210BE000BF09EB810042
:10535000B0F90200A04200DA0446B04200DD064681
:10536000491CB942F2DB67480068406900280DD04B
:10537000B0F906101A46A1EB0B01B14200DA0E4655
:10538000B0F90200801AA04200DD0446B4E0DFF864
:1053900078A100200546CAF8000088E0781E854202
:1053A00001DA6B1C00E0002309EB850C09EB83029A
:1053B000BCF90200B2F90210A04244D1A14215D1B9
:1053C00039F92330059A39F9251003EB020C4D4ABF
:1053D00005981268084404EB0B01526E604513688F
:1053E00001DA62462AE00246604627E02846A446E3
:1053F0004FF000087A1E0BE008B1401E00E0781E56
:1054000009EB8003B3F90230634504D108F10108C8
:105410009045F1DB2346A34248D01A1B39F92500F9
:10542000A1EB040C059B92EA0C0F09D4354A1844F1
:1054300004EB0B011268526E13680246984735E080
:105440000AF0F6FE32E0A14230D001DBA04203DDDB
:10545000A0422BDBA14229DCE04688420ADC03465D
:10546000A04223DC0846A14220DBB8F900C0B2F913
:10547000001008E00B46A14218DCA04216DBB2F98E
:1054800000C0B8F90010E21AA1EB0C015143002949
:10549000A0EB030202DD01EB620102E0A1EB62017D
:1054A000491CC01A91FBF0F06044C9E76D1CBD4275
:1054B000FFF674AF0598009004EB0B0001900020FC
:1054C0008046054613E01149B8F1000F31F915A0E7
:1054D00009D0009901EB0A0208440A490968496E9B
:1054E0000B680199984788F0010850466D1C0649E1
:1054F00009688D42E7DB641CB4427FF748AF07B010
:10550000BDE8F08F640200206C09002014760020B2
:1055100010B5002002F04CFB6FF07F4002F04AFB18
:10552000012002F081FB002002F086FB002002F047
:105530008DFB002002F046FB0448006802F044FBAB
:10554000BDE81040002002F04BBB000060020020CC
:1055500033B583B0040016D000F004FD0190456E11
:1055600001A800F049FD049800F0FCFC0090846064
:10557000684600F041FD042204A9284600F060FDC1
:10558000204609F036FD05B030BD33B583B00400C8
:1055900016D000F0E7FC0190856E01A800F02CFD0C
:1055A000049800F0DFFC00908460684600F024FD61
:1055B000042204A9284600F043FD204609F019FD05
:1055C00005B030BD2DE9F04104460025D4E90007BF
:1055D000B0F5407F00D101252146384608F00EFC89
:1055E000064615B138460FF080FA002E2FD02068FD
:1055F000052806D00B280ED00F2806D0262821D14A
:105600000EE038460FF071FA1CE03846E168BDE85C
:10561000F0410FF0C5BC3846BDE8F0410FF0F4BBD7
:10562000E06805280ED1384609F0EFF9A1688842F4
:1056300005D0384609F0E0F9A168884202D16068D7
:105640000FF0F3FE2046BDE8F04108F0C9BFBDE809
:10565000F081F0B585B0B0F90850468A84690296A9
:10566000CDE903540027CDE90017B0F90C10B0F9CB
:105670001050B0F90E40B0F90A00194410442B46FE
:10568000224600F003F805B0F0BD00002DE9F0411E
:1056900086B00DF1300CDDE90F849CE8E0006C343D
:1056A000DFF850C003948DE8601008F0EBFE0400B2
:1056B0001BD000F002FD054600F0FFFC0646204628
:1056C00000F050FC0490C0E919560022414608F051
:1056D0003BFD0498302208493430FAF771FD0498F4
:1056E000A0F8787004A800F087FC06B02046BDE85A
:1056F000F0810000C55500088C05002003B583B07B
:1057000000F030FC009060B1406A00F02BFC0146D4
:105710000190022304AA009800F0EAF801A800F022
:105720006BFC684600F068FC05B000BD08B50028B9
:105730000AD000F017FC002100900161806809F098
:1057400058FC684600F058FC08BD00002DE9F04305
:10575000814685B01D4690460F462C2000F011FB77
:10576000060024D0780000F00CFB04000ED0B8F145
:10577000000F0BD055B1204600F0F4FB6A00414603
:105780000090FAF71DFD684600F036FC304600F048
:10579000E9FB0949029000F10C02446282E8A2028E
:1057A000064901600649416002A800F025FC05B0E9
:1057B0003046BDE8F0830000894901084B510108DB
:1057C000994E01082DE9F8430746984615460E46BE
:1057D000302000F0D6FA040015D000F0C3FB009092
:1057E000C0E905768584094AB7EE000AC0F81C8036
:1057F00080ED0A0AD2E90012C0E9031204490160EF
:10580000684600F0F9FB2046BDE8F883BC0500209F
:105810002352010838B50D46002460B100F0A2FB08
:105820000090C468AC4203D0C560806809F0E1FB19
:10583000684600F0E1FB204638BDF8B50D4606008D
:105840004FF000040CD000F08DFB0090846CAC4253
:1058500003D08564304609F0CCFB684600F0CCFBF1
:105860002046F8BDF8B50D4606004FF0000416D0EE
:1058700000F078FB0090B0F8781011F0010403D02C
:1058800055B921F0010102E035B141F00101A0F864
:105890007810304609F0ADFB684600F0ADFB2046BD
:1058A000F8BDF8B50D4606004FF000040ED000F02C
:1058B00059FB009090F86C40AC4204D080F86C50DA
:1058C000304609F096FB684600F096FB2046F8BD8E
:1058D00038B50D4604000AD000F044FB0090C0F833
:1058E0009450684600F088FB204609F082FB38BDE2
:1058F0002DE9F041044680681D4617460E460028F3
:1059000026D0D4E9040290420ED1521E6A43711986
:105910003046FAF755FC20692A46401E05FB006018
:105920003946FAF74DFC0EE005FB0013401C2061E0
:105930002A4639461846FAF743FCE16819B1204671
:10594000BDE8F0410847A068BDE8F04100F002B8AA
:10595000BDE8F08110B58AB0044600F003FB09A948
:1059600004AACDE9002105AB089006AA07A90EF00C
:1059700028FD08A800F040FB02A9204608F0A6FF79
:10598000BDF8080007990844ADF80800BDF80A0002
:1059900006990844ADF80A00BDF80C000599401AB4
:1059A000ADF80C00BDF80E000499401AADF80E00D9
:1059B00002A9204609F0E2FA0AB010BD10B5284944
:1059C0008868FAF7D4FD274AC2E902012449086928
:1059D000FAF7CDFD234AC2E904014FF42A712248A7
:1059E00006F0B8FF00B910BD20480068FFF79EFE22
:1059F00000201F4908600EE01B481D4A126830F85D
:105A0000120001B219480068FFF778FE18480068D4
:105A1000401C174908601348006B15490968884203
:105A2000EAD81449486809F0E4FA1249C86809F04C
:105A3000E0FA1049486909F0DCFA0E49C86909F032
:105A4000D8FA0C49486A09F0D4FA0A49C86A09F038
:105A5000D0FA0849486B09F0CCFA00BFC3E7000050
:105A6000A86D002010000020D86D00204801002003
:105A70005C010020640100202DE9F04FDFF828B11F
:105A800091B04FF0FF35DBF80030B3F922100691EA
:105A9000DE69B3F92490F469A189814206D8E289CC
:105AA000824203D3471AD4F8008012E0D4E901817E
:105AB00000296FD00A8882426CD84D88854269D30C
:105AC000801A82B2486800EB8200B0F90070B0F929
:105AD0000250781C5ED0307EA17C10FB01FA217C44
