:020000040800F2
:1000000018B600209D01000869C50008A701000876
:10001000A9010008AB010008AD01000800000000C4
:100020000000000000000000000000007DD4000877
:10003000B101000800000000F9CC00087FD40008DE
:10004000B7010008B7010008B7010008B7010008B0
:10005000B7010008B7010008B7010008B7010008A0
:10006000B7010008B7010008B7010008B701000890
:100070006D240008B70100087D240008B7010008BE
:10008000B7010008B7010008B7010008B701000870
:10009000B7010008B7010008B7010008B701000860
:1000A000B7010008B7010008B7010008B701000850
:1000B000B7010008B7010008B7010008B701000840
:1000C000B7010008B7010008B7010008B701000830
:1000D000B7010008B7010008B7010008B701000820
:1000E000B7010008B7010008B7010008B701000810
:1000F000B7010008B7010008B7010008B701000800
:10010000B7010008B7010008B7010008B7010008EF
:10011000B7010008B7010008B7010008B7010008DF
:100120008D240008B7010008B70100089D240008CD
:10013000B7010008B7010008B7010008B7010008BF
:10014000B7010008B7010008B7010008B7010008AF
:10015000B7010008B7010008B7010008B70100089F
:10016000B7010008B7010008B7010008B70100088F
:10017000B7010008B7010008B7010008000000003F
:10018000B7010008B7010008DFF80CD000F06AFBE7
:1001900000480047F57C010818B600200648804753
:1001A00006480047FEE7FEE7FEE7FEE7FEE7FEE75C
:1001B000FEE7FEE7FEE7FEE755D5000889010008E7
:1001C00010B5431A934209D28318881803E010F837
:1001D000011D03F8011D521EF9D210BD40EA0103B2
:1001E0009B0703D009E008C9121F08C0042AFAD2ED
:1001F00003E011F8013B00F8013B521EF9D210BD9B
:10020000D2B201E000F8012B491EFBD27047002258
:10021000F6E710B513460A4604461946FFF7F0FF05
:10022000204610BD421C10F8011B0029FBD1801A8A
:10023000704730B504460020034600E05B1C934243
:1002400003D2E05CCD5C401BF8D030BD034611F812
:10025000012B00F8012B002AF9D1184670472DE92F
:10026000FE4F804681EA0300C00F0C46009021F04B
:10027000004123F00045B8EB0200A94105D24046F9
:10028000214690461C460B46024623F00040104390
:1002900047D0270DC7F30A00C3F30A510290401A52
:1002A000019040286BDAC3F3130040F4801B0098E0
:1002B000924620B10023D2EB030A63EB0B0B0198AB
:1002C0005946C0F14002504600F006FA06460D4677
:1002D00050465946019A00F01EFA10EB08006141A1
:1002E000002487EA115284EAE7731A4340D0009A47
:1002F00062B3019A012A4FEA075215DC001B61EB39
:1003000002014FF0004202EA0752CDE90042001C10
:1003100041F5801132462B4600F055FA03B0BDE896
:10032000F08F40462146F9E7001B61EB0201001CFB
:1003300041F5801300185B412018A2F5001747EB28
:10034000030140EAD570B6196D4111E06D084FEA1E
:10035000360645EAC0754FEA0752001B61EB020101
:10036000001C41F5801149084FEA30000019514145
:1003700032462B4603B0BDE8F04F00F015BA0098A6
:10038000012240000023D0EB020263EBE0730098EF
:1003900021464FEAE074B8EB000061EB0401E9E7A5
:1003A00083F000435BE781F0004158E72DE9FE4F01
:1003B00081EA030404F0004421F0004100944FF06E
:1003C000000B23F0004350EA01045ED052EA03041C
:1003D0005BD0C3F30A54C1F30A552C44A4F2F3349E
:1003E0000194A0FB0254C1F3130141F48011C3F343
:1003F000130343F4801301FB024400FB034E840A01
:10040000970A44EA815447EA8357A4FB0768029598
:100410008D0A05FB07854FEA932C04FB0C54270536
:10042000029D4FEA065847EA1637B5EB08056EEB12
:10043000070C870E920E47EA811742EA8312A7FB48
:100440000201B6EB0B0164EB00042B0D43EA0C3305
:100450005E1844EB1C50DA465146E7FB0201C5F337
:1004600013044FEA0B3343EA14534FEA0432019C5E
:1004700043EA0603A4F10C040294009CCDE900B405
:1004800000F0A1F903B0BDE8F08F00200146F9E7C4
:100490002DE9F04D81EA030404F0004B21F0004502
:1004A00014464FF0000A23F0004150EA050220D024
:1004B00054EA01021DD0C5F30A570246C5F31303DF
:1004C000C1F31300C1F30A5640F4801543F48013BE
:1004D000A7EB0608101BD64608F2FD3873EB0500A3
:1004E00002D308F1010801E092185B41B8F1000F56
:1004F00003DA00200146BDE8F08D00204FF48011A2
:10050000064684460EE0171B73EB050705D3121B46
:1005100063EB050306434CEA010C49084FEA30003F
:1005200092185B4150EA0107EDD152EA030012D064
:1005300082EA040083EA0501084305D0101BAB41A1
:1005400006D20122002306E000224FF0004302E021
:100550006FF0010253101AEB06004CEB085110EB40
:100560000A0041EB0B01BDE8F04D00F01DB90EB5DE
:10057000C10F80EAE0700844CA07002140F233430B
:100580008DE80E000A460B4600F01DF903B000BDD1
:100590000EB540F2334102910021CDE900110A4627
:1005A0000B4600F010F903B000BD70B5C1F30A525C
:1005B00001F000450024C1F3130140F2FF3341F480
:1005C00080119A4201DA002070BD40F233439A4212
:1005D000A2F2334203DC524200F08DF800E090407A
:1005E0002C43F1D0404270BDC1F30A5210B5C1F3A3
:1005F000130140F2FF3341F480119A4201DA0020E6
:1006000010BD40F233439A42A2F2334203DC52421D
:1006100000F071F810BD904010BD00F0004230F0C5
:1006200000400AD0C10D01F56071C0F3160042EA26
:100630000151C2084007114370470020014670472E
:1006400030B5041E71F1000404DB4FF00044404259
:1006500064EB0101141E73F1000405DB1C464FF02E
:100660000043524263EB04038B4208BF824230BD19
:1006700030B5041E71F1000404DB4FF00044404229
:1006800064EB0101141E73F1000405DB1C464FF0FE
:100690000043524263EB0403994208BF904230BDCD
:1006A00001F0004330B421F0004150EA010206D0CD
:1006B0000A0DA2F56072C1F31301002A02DC30BCFE
:1006C00000207047440F44EAC104C100E01830BC68
:1006D00000EBC25000F031B8202A04DB203A00FAC7
:1006E00002F1002070479140C2F1200320FA03F389
:1006F000194390407047202A04DB203A21FA02F087
:100700000021704721FA02F3D040C2F1200291404B
:10071000084319467047202A06DBCB17203A41FAD6
:1007200002F043EAE07306E041FA02F3D040C2F17E
:10073000200291400843194670470029A8BF70471E
:10074000401C490008BF20F00100704710B4B0FA07
:1007500080FC00FA0CF050EA010404BF10BC7047A2
:1007600049B1CCF1200421FA04F411FA0CF118BFBC
:10077000012121430843A3EB0C01CB1D4FEA00618B
:100780004FEA102042BF002010BC704700EBC3505E
:1007900010440029A4BF10BC7047401C490008BF8A
:1007A00020F0010010BC704710B5141E73F1000456
:1007B00008DA401C41F1000192185B411A4301D153
:1007C00020F0010010BD2DE9F04D92469B4611B17D
:1007D000B1FA81F202E0B0FA80F220329046FFF7DF
:1007E0007BFF04460F4640EA0A0041EA0B015346EC
:1007F0005A46084313D0114653EA010019D0C8F1F4
:1008000040025046FFF777FF05460E4650465946D0
:100810004246FFF761FF084305D0012004E020466F
:100820003946BDE8F08D0020054346EAE0762C43CA
:1008300037430A986305E40AA0EB08000022FD0A8A
:1008400044EA47540A3002D500200146E9E7010591
:1008500010196941DDE9084500196941BDE8F04D0D
:10086000A2E70000064C074D06E0E06840F00103F7
:1008700094E8070098471034AC42F6D3FFF788FCA1
:10088000A4D50108C4D5010870B58C1810F8015B17
:1008900015F0070301D110F8013B2A1106D110F819
:1008A000012B03E010F8016B01F8016B5B1EF9D11D
:1008B0002B0705D40023521E0DD401F8013BFAE7A3
:1008C00010F8013BCB1A921C03E013F8015B01F80E
:1008D000015B521EF9D5A142D8D3002070BD0000A3
:1008E00010B504460E48006840F040000C4908600E
:1008F0000846006840F4805008600846006840F4EC
:10090000005008600846006840F40050086008463F
:10091000006820F400500860204600F03DF810BD4B
:10092000140C02402DE9F0412DED048B06460F46D4
:100930003846FFF72DFE41EC190B9FED150B53ECDC
:10094000102BFFF733FD41EC180BFFF74DFE8046EF
:1009500044464FEA983546B924F4004444F48044B0
:1009600025F4004545F4804507E024F4804444F430
:10097000004425F4804545F40045204600F00CF87D
:10098000284600F009F8BDEC048BBDE8F0810000BA
:100990003A8C30E28E79154000211A4A126842F4EE
:1009A0008052184B1A601A46126822F040021A60F0
:1009B00000BF1DE000F4004232B1124A126842F456
:1009C0000062104B1A6005E00E4A126822F40062C1
:1009D0000C4B1A600B4A126822F48052094B1A60C1
:1009E00040001A46126842F480521A604A1CD1B282
:1009F0001029DFDB034A126842F04002014B1A6003
:100A000070470000140C02405A49096821F4403133
:100A1000594AC2F804131146D1F80413426811432D
:100A2000544A11600168496821F48071026851607C
:100A300001684A68016942EA01210268516001685F
:100A4000496821F040710268516001684968826814
:100A50001143026851600168896821F400610268ED
:100A6000916001688968C268114302689160434AD5
:100A7000816A914218D00168896821F0706102682A
:100A8000916001688968826A114302689160016817
:100A9000896821F040510268916001688968C26AE2
:100AA0001143026891600BE00168896821F0706170
:100AB000026891600168896821F040510268916084
:100AC0000168896821F002010268916001688A6802
:100AD000816942EA410102689160016AD1B101680D
:100AE000496841F40061026851600168496821F475
:100AF00060410268516001684A68416A491E4FF4CA
:100B0000604393FAA3F3B3FA83F399400A4301686D
:100B10004A6005E00168496821F40061026851609B
:100B20000168C96A21F470010268D1620168CA6A69
:100B3000818B491E42EA01510268D16201688968CD
:100B400021F400710268916001688A68016B42EAD1
:100B50004121026891600168896821F4806102681E
:100B6000916001688A68416942EA81210268916066
:100B70007047000004230140002001400100000FE5
:100B8000002800DC4042704710B50020234908705F
:100B90002348006800F00200C0BB2249081F01F092
:100BA0001BF898B301201D4908701F48B0F90800D0
:100BB00000EE100AB8EEC00A1B4890ED001A194862
:100BC000001FD0ED000AF8EE600A01EE200ABCEE2C
:100BD000C00A164880ED000A1348B0F90A0000EE7A
:100BE000100AB8EEC00A104890ED011A0D48001F17
:100BF000D0ED010AF8EE600A01EE200ABCEEC00A50
:100C00000A4880ED010A0846007810BDFFE7002081
:100C100006490860486001480078F6E72401002092
:100C2000100402402C1D0020180100203C1D002053
:100C30002DE9FF4F83B081460E461C46DDE9117A4F
:100C4000109DDAF800000290DAF8040001902E44BA
:100C500032480068007C00F0030030B1012836D033
:100C600002281CD0032855D130E000BF2078802214
:100C70002A41104008B1019800E00298034631462D
:100C8000761C4846059A00F09FFE681C0546082819
:100C900001D10025641C781E071EE7D13AE000BF91
:100CA000207880212941084028B131464846019BDF
:100CB000059A00F089FE761C681C0546082801D1BB
:100CC0000025641C781E071EEAD123E000BFD9F876
:100CD000101088688047804600BF20788021294115
:100CE000084060B131464846059A00F029FB83462A
:100CF0008BEA080331464846059A00F065FE761CEB
:100D0000681C0546082801D10025641C781E071EB2
:100D1000E3D100BF00BF07B0BDE8F08F3C02002068
:100D20002DE9FF4F81B00F469846DDE90F9A98F8FC
:100D300000B00E9D0E9D2F4453480068007C00F0CB
:100D4000030010B102284BD14BE0BAF1000F25D0BF
:100D500000BFC5F103004400C4F10601C0200841F2
:100D600000EA0B0020FA04F65AF8260000903946F3
:100D70007F1CDDE90030039A00F026FE681C054662
:100D8000042805D1002508F10100804690F800B044
:100D9000A9F10100B0F10009DBD121E000BFC5F1EC
:100DA00003004400C4F10601C020084100EA0B0022
:100DB00020FA04F639467F1C3346039A019800F066
:100DC00003FE681C0546042805D1002508F1010032
:100DD000804690F800B0A9F10100B0F10009DED121
:100DE0004DE0BAF1000F26D000BFC5F1030044006A
:100DF000C4F10601C020084100EA0B0020FA04F605
:100E000046B15AF8260000903946DDE90030039AD1
:100E100000F0DAFD7F1C681C0546042805D100257A
:100E200008F10100804690F800B0A9F10100B0F18E
:100E30000009DAD122E000BFC5F103004400C4F18B
:100E40000601C020084100EA0B0020FA04F62EB18A
:100E500033463946039A019800F0B6FD7F1C681CA2
:100E60000546042805D1002508F10100804690F8C8
:100E700000B0A9F10100B0F10009DDD100BF00BF51
:100E800005B0BDE8F08F00003C0200202DE9F041E4
:100E900007460D4690461C46069E08E042462946F7
:100EA0003846236800F090FD761E6D1C241D002E30
:100EB000F4DCBDE8F08100002DE9FF4F81B00F4662
:100EC0009846DDE90F9A98F800B00E9D0E9D2F44CC
:100ED00053480068007C00F0030010B102284BD199
:100EE0004BE0BAF1000F25D000BFC5F1010084002E
:100EF000C4F10401F020084100EA0B0020FA04F6D6
:100F00005AF82600009039467F1CDDE90030039A2C
:100F100000F05AFD681C0546022805D1002508F19D
:100F20000100804690F800B0A9F10100B0F100097D
:100F3000DBD121E000BFC5F101008400C4F1040150
:100F4000F020084100EA0B0020FA04F639467F1C25
:100F50003346039A019800F037FD681C05460228C5
:100F600005D1002508F10100804690F800B0A9F1F4
:100F70000100B0F10009DED14DE0BAF1000F26D03A
:100F800000BFC5F101008400C4F10401F020084154
:100F900000EA0B0020FA04F646B15AF82600009049
:100FA0003946DDE90030039A00F00EFD7F1C681C15
:100FB0000546022805D1002508F10100804690F879
:100FC00000B0A9F10100B0F10009DAD122E000BFC0
:100FD000C5F101008400C4F10401F020084100EAD9
:100FE0000B0020FA04F62EB133463946039A0198D5
:100FF00000F0EAFC7F1C681C0546022805D100258C
:1010000008F10100804690F800B0A9F10100B0F1AC
:101010000009DDD100BF00BF05B0BDE8F08F0000C2
:101020003C0200202DE9F04781460F4692461C46BF
:10103000DDE9085826480068007C00F0030010B184
:10104000022841D11EE0B8F1000F0ED00AE0267848
:1010500058F8263052463946484600F0B5FC6D1E19
:101060007F1C641C002DF2DC0BE008E02378524664
:101070003946484600F0A8FC6D1E7F1C641C002DFC
:10108000F4DC21E0B8F1000F0FD00BE0267836B188
:1010900058F8263052463946484600F095FC6D1EF9
:1010A0007F1C641C002DF1DC0DE00AE026782EB1D7
:1010B000334652463946484600F086FC6D1E7F1C7A
:1010C000641C002DF2DC00BF00BFBDE8F08700000B
:1010D0003C0200202DE9FF4F85B016461F46DDE992
:1010E00016BADDE91495DDF84880139808283FD03A
:1010F00006DC012809D0022818D004287CD126E07B
:10110000102844D0202877D168E000240BE0A219F1
:101110002B46CDE900B7CDF808A0DDE90501FFF7C2
:1011200087FD4D44641C4445F1DB65E000240BE081
:10113000A2192B46CDE900B7CDF808A0DDE90501DD
:10114000FFF7EEFD4D44641C4445F1DB54E0002400
:101150000BE0A2192B46CDE900B7CDF808A0DDE9D8
:101160000501FFF7A9FE4D44641C4445F1DB43E053
:10117000002409E0A2192B46CDE9007ADDE905013A
:10118000FFF750FF4D44641C4445F3DB34E000247A
:1011900021E006980190A01902A9A1C1DDE9010191
:1011A00000F00EFB22204FF0D84108800DE003989C
:1011B00000884FF0D84108800498401E04900198A0
:1011C000401C01900398801C039004980028EEDCDA
:1011D00000BF4D44641C4445DBDB0DE0002408E007
:1011E000A2192B460097DDE90501FFF74FFE4D449C
:1011F000641C4445F4DB00BF00BF09B0BDE8F08FBC
:101200002DE9F04107460D4614461E460648006883
:10121000C06B006805490860A3B2F2B2A1B2E8B29F
:1012200000F0E0F8BDE8F0813C020020FC00002066
:101230002DE9F04107460C4615461E460648006853
:10124000C06B006805490860B3B2E2B2A9B2E0B26F
:1012500000F0C8F8BDE8F0813C020020FC0000204E
:101260002DE9F04180460C4615461E46069F07486C
:101270000068C06B006806490860BBB2F2B2A9B250
:10128000E0B200F0AFF8BDE8F08100003C020020C1
:10129000FC00002002460020704700000246A1F139
:1012A0000900082813D2DFE800F00406080A120C2F
:1012B0000E10084870470848FCE70848FAE7084855
:1012C000F8E70848F6E70848F4E70848F2E700209E
:1012D000F0E70000271A00084D1A0008E919000875
:1012E00075130008A1180008911800088919000852
:1012F00003460A4699680F2A1FD2DFE802F01E084B
:101300000A0C0E1E1E1E10121416181A1C00486815
:1013100070478868FCE7C868FAE70869F8E78869F1
:10132000F6E70020F4E70120F2E70120F0E70020D3
:10133000EEE70020ECE70020EAE74FF0FF30E7E7B8
:101340002DE9F04107460C4615462946204600F097
:101350000FFA06463046BDE8F081826800230B8014
:101360004B8093895B1E1BB28B80138A5B1E1BB262
:10137000CB80704770B50446204600F009F805465A
:1013800000220121A0690AF097F80543284670BDA4
:1013900070B50446A06858B91C2004F0B5FDA060E3
:1013A000A56821698868804706460AF06DF9A8613A
:1013B000A06808B9012070BD0020FCE770B50446A4
:1013C0000D462946204600F0FBF922204FF0D84177
:1013D0000880024800880249088070BDFC00002097
:1013E0008000006C2DE9F04104460D4616461F466C
:1013F00050204FF0D84108802248048051200880B6
:101400000846A0F88060522008801E4805805320BE
:1014100008800846A0F880702946204600F0D0F9E0
:1014200022204FF0D8410880781B401C311B491CFA
:1014300000FB01F803E01448008812490880B8F165
:101440000000A8F10108F6D150204FF0D8410880E3
:1014500000200C49088051204FF0D8410880EF202F
:10146000A1F88000522008800020064908805320FF
:101470004FF0D841088040F23F10A1F88000BDE84D
:10148000F08100008000006CFC00002000B5E52029
:101490004FF0D841088047F6F000B349088001209A
:1014A0004FF0D84108800002A1F880000220088097
:1014B0004FF4E060AC49088003204FF0D841088029
:1014C00041F23000A849088004204FF0D84108803C
:1014D0000020A549088008204FF0D841088040F23C
:1014E0000220A149088009204FF0D841088000203F
:1014F0009D4908800A204FF0D841088000209A4971
:1015000008800C204FF0D8410880002096490880C0
:101510000D204FF0D84108800020934908800F200B
:101520004FF0D841088000208F49088010204FF0EC
:10153000D841088000208C49088011204FF0D84104
:10154000088007208849088012204FF0D841088081
:1015500000208549088013204FF0D84108800020E2
:101560008149088007204FF0D841088000207E493B
:10157000088010204FF0D841088041F290607A49ED
:10158000088011204FF0D841088040F2272076498A
:10159000088012204FF0D84108809D2072490880B1
:1015A00013204FF0D84108804FF4C8506E4908808E
:1015B00029204FF0D841088025206B4908802B2036
:1015C0004FF0D84108800D206749088030204FF047
:1015D000D841088007206449088031204FF0D84165
:1015E000088040F203306049088032204FF0D84133
:1015F000088003205C49088035204FF0D8410880DE
:1016000040F206205849088036204106088008200C
:101610005549088037204FF0D841088040F20640F5
:101620005149088038204FF0D84108804FF441706C
:101630004D49088039204FF0D841088007204A4999
:1016400008803C204FF0D841088040F202604649B3
:1016500008803D204FF0D84108800820424908808A
:1016600050204FF0D841088000203F490880512089
:101670004FF0D8410880EF203B49088052204FF0BE
:10168000D841088000203849088053204FF0D841C5
:10169000088040F23F103449088060204FF0D84164
:1016A00008804FF427403049088061204FF0D8412E
:1016B000088001202C4908806A204FF0D84108801A
:1016C00000202949088080204FF0D8410880002060
:1016D0002549088081204FF0D84108800020224908
:1016E000088082204FF0D841088000201E490880E1
:1016F00083204FF0D841088000201B4908808420B7
:101700004FF0D841088000201749088085204FF00D
:10171000D841088000201449088090204FF0D8411B
:10172000088010201049088092204FF0D84108808E
:101730004FF4C0600C49088007204FF0D841088062
:1017400040F233100849088000204FF0D84108804B
:101750002220A1F8800000F025F80448006840F439
:1017600000400249086000BD8000006C1404024083
:101770002DE9F04104460D4600260027B0462946D3
:10178000204600F01DF822204FF0D8410880044880
:10179000008800B100BF024806883046BDE8F081ED
:1017A0008000006C002040F0100040F480500321C5
:1017B0004FF0D84211800149088070478000006CCA
:1017C00020224FF0D8431A80044B188021224FF07A
:1017D000D8431A80A3F88010704700008000006C86
:1017E00000B59DB0002006F02DFA6FF07F400CF0A0
:1017F000FFFC6FF07F400DF073FD1A480BF004FA08
:10180000194802F0C7FF17480BF0FEF9174800F01F
:10181000D7FC174800F0E8FD164800F015FF164801
:101820000BF030FD15480BF01BFE154808F0F6FFD5
:1018300014480BF0BFFA0AF0A9FF134948600AF0F8
:10184000EFFC1149C860702210496846FEF7B8FCE9
:101850000E480C380EC801200BF0CDFA05F05CFBE9
:101860001DB000BD85CB000821430008F51E00080F
:10187000F92200089D250008D1D0000835D30008C2
:10188000DDA70008FDCC0008606D00200473002077
:1018900010B5044600220621A06909F00DFE10BD16
:1018A00010B5044600220521A06909F005FE10BD0F
:1018B00010B5FFF769F93049087409F04DFA2E495F
:1018C0000968884205D909F053FA2B4949688842CA
:1018D00004D8002028490860486008742748006838
:1018E00025490968884205D92448006822490968C1
:1018F000401A04E02048006820490968401A20493D
:1019000008801E4840681C494968884205D91B4820
:10191000406819494968401A04E017484068174967
:101920004968401A174908801448007A1249097C0E
:10193000884207D1124800881E2803DC114800881D
:101940001E2817DD0C48007C0C4908720A48007CF0
:1019500048B1094800680860074840684860084680
:1019600006F002FB06E0054806F0FEFA00200349F7
:101970000860486010BD00003C1D0020501D002084
:1019800026010020280100207CB504460D4616469D
:101990000020009001908DF8045000966A460421C2
:1019A000A06909F089FD7CBD7CB504460D4616464C
:1019B000002000900190009501966A460321A069DD
:1019C00009F07AFD7CBD00002DE9F04107460C4688
:1019D00015461E460348066029462046FFF7EEFCE2
:1019E000BDE8F081FC0000202DE9FC4105460E46D3
:1019F00017460020009001902846FFF7C9FCA86810
:101A000078B1AC68606908B9304600E0606960612F
:101A10006660A760009601976A460721A86909F0E9
:101A20004BFDBDE8FC81F8B504460D460020009052
:101A30002046FFF7ADFCA06838B1A6683560009578
:101A40006A460221A06909F037FDF8BD2DE9F04191
:101A500005460E4617462846FFF79AFCA86818B1B7
:101A6000AC68E66027616661BDE8F08170B5064646
:101A7000002500242A48006820F001002849086059
:101A80002848006820F4006026490860264800685D
:101A900020F4005024490860304600F0E3F80620A6
:101AA00016F0C6F81E48006820F001001C490860C6
:101AB000012016F0BDF81A48006840F001001849EE
:101AC0000860012016F0B4F81548006820F0010005
:101AD0001349086000BF17E064001148006820F057
:101AE00001000F490860012016F0A2F80C480068B8
:101AF00040F001000A490860081F006800F0040077
:101B000000B1641C681CC5B2102DE5DB2409064831
:101B1000006840F4005004490860204670BD000091
:101B20001404024014140240140802402DE9F0414C
:101B300086B080460027002406E04046FFF796FF67
:101B400001A941F82400641C052CF6D3002418E0F8
:101B5000651C13E001A850F8240001A951F82510D4
:101B600088420AD901A850F8246050F8250001A93C
:101B700041F8240001A840F825606D1C052DE9D32B
:101B8000641C042CE4D30027012404E001A850F8CD
:101B900024000744641C042CF8D30320B7FBF0F6A0
:101BA000304606B0BDE8F0812DE9F04104460D460F
:101BB00007480078FFF7BAFF064606480078FFF7A7
:101BC000B5FF074626602F600120BDE8F0810000C8
:101BD00004010020050100207FB504460D4602A93E
:101BE00003A8FFF7E1FF064616B9002004B070BD58
:101BF000694601A8FFF7D8FF06460EB90020F5E7B1
:101C000003990198884204D801983230039981429F
:101C100008D301990398884222D803983230019959
:101C200081421DD202990098884204D8009832302F
:101C30000299814208D300990298884210D80298EC
:101C40003230009981420BD2019903980844400830
:101C50002060009902980844400828600120C5E7E8
:101C60000020C3E770B50446002500BF22E004F061
:101C7000800030B11148006840F400600F490860EE
:101C800005E00E48006820F400600C49086060061A
:101C9000040E0B48006820F001000949086001208B
:101CA00015F0C6FF0648006840F0010004490860CE
:101CB000681CC5B2082DDADB70BD000014140240A8
:101CC000140402400C48006840F400500A490860BF
:101CD0000A48006840F001000849086008480068A8
:101CE00040F40060064908600448006840F00100C4
:101CF00002490860704700001408024014040240C2
:101D0000141402402DE9F04104460D4616463246B1
:101D100029462046FFF714FB07462169886880475B
:101D2000804687EA0803324629462046FFF74CFEE4
:101D3000BDE8F08138B545680446014628460BF0F9
:101D4000B5FF00282BD02068304A11280DD006DCC2
:101D50000B2825D00E2833D00F2852D112E0282886
:101D600049D0B0F5107F4CD108E09268002A16D017
:101D70002146284601B0BDE830401047214628469C
:101D80005268F7E7284604F057F90090406E04685F
:101D9000684604F09BF9002C01D02846A04738BDC6
:101DA000284604F049F90090683004F097F800984C
:101DB00003216C3004F09AF8684604F087F920E0BB
:101DC000E168486809680D2902D0202913D105E08F
:101DD000002810DD284612F00DFF06E0002804DD83
:101DE0002846BDE8384012F005BF2846BDE8384017
:101DF000022112F015BFE06818B90021284600F052
:101E000004FA2046BDE838400CF042BBDC0200205A
:101E10002DE9FF410AAF97E87000002703958DE890
:101E2000D00000F003F804B0BDE8F081F0B585B053
:101E30000DF1280C9CE8F0004FF0000C8DE8F0103C
:101E400000F024F805B0F0BDF0B5044685B0806917
:101E5000B4F90850668A0027CDE90265CDE900177C
:101E60000490B4F90C00B4F91060C118B4F90A0078
:101E7000B4F90E50104433462A4600F007F80546E0
:101E8000616800F0E1F905B02846F0BDF0B585B015
:101E90000C46DDE90D51DFF854C04C31DDE90A672D
:101EA000CDE902C12146CDE900670CF043FA0400F8
:101EB00018D004F0C1F81022294604900CF09CF8C8
:101EC000049830220A493430FEF77AF9084D049913
:101ED0000C3D2868486604A804F0F8F828684168B2
:101EE0002046884705B02046F0BD0000351D00089B
:101EF000E8020020F0B5044680688B4989B051F8AB
:101F00002050606800287DD0052804D006287AD0AB
:101F1000122879D1AEE0E86900284FD095E80E008C
:101F20008DE80F0004F110010FC906F0AFFD002687
:101F300055F8260005F0A8FEA169E8690A1A21698A
:101F400001446069304404F0E9FEA169E8690A1AB5
:101F500021690144E069801B04F0E0FEE169E86961
:101F60000A1A616901442069304404F077FFE1698D
:101F7000E8690A1A61690144A069801B04F06EFFD8
:101F8000761C022ED4DBA86805F07EFEE069E969C4
:101F90006669431A206942183144801C521E04F0BD
:101FA000DDFFE169E869A2690B1A61690144101A51
:101FB000401C921E04F0D2FFEE6913E05FF00006B1
:101FC00055F8260005F060FEE069831BA069821BBE
:101FD000606981192069304404F002FF761C022EEA
:101FE000EEDB0226D5E90301CDE900016169E06974
:101FF00008444310A069891C821B2069304404F006
:1020000035FE02E089E012E08AE0D5E90501CDE97C
:102010000001E36960690121184401EB6001A069D6
:102020009B1E821B2069304404F020FE78E020686B
:1020300004F002F8049020680DF03EFD40B1A06865
:1020400008B1002008E00498006F28B1012003E0E7
:102050000498406F00B10220049901EB8000C56E26
:1020600004A804F033F800231A462846216804F037
:1020700037FB55E0206803F0DFFF0490866EEEB377
:10208000B0F95C70A168D1B3032942D05FF00001C0
:1020900000EB8101406D0C6C05F000FE204605F060
:1020A000F3FD05A804F0FAFFBDF81410A88B014455
:1020B000ADF81410BDF81810081AADF81800BDF8E6
:1020C0001600801CADF81600BDF81A00801EADF891
:1020D0001A000498B0F96020B0F95E1005A805F068
:1020E000E3FC04A803F0F2FF022005F019FE3046DD
:1020F00003F0A2FF3A4605A9079001E00BE006E0D5
:1021000004F018FC0DF11C0003F0E0FF08E00121D1
:10211000BEE70221BCE704A8F6E720680DF074F9D9
:1021200009B00020F0BD000078C501082DE9FC4190
:1021300015460E4600281DD003F07EFF0190806EEC
:10214000002798B103F078FF0090FEF76BF8044683
:10215000681E844200DD0446224630460099FEF7A0
:102160002FF8684603F0B2FF375500E0377001A83A
:1021700003F0ACFFBDE8FC8170B516460C46054681
:1021800019463046049A04F077FA0246214628465A
:10219000BDE8704000F080B8F8B515460C46060062
:1021A0000DD003F049FF0090032C02D200EB840015
:1021B0004563684603F08AFF30460CF072FEF8BDB6
:1021C000044A0349116004494A6A4862104670474C
:1021D00018030020DC020020E802002000294FF054
:1021E000100101D00BF0F2BD0BF04CBD38B50D461F
:1021F000040009D003F020FF00904565684603F015
:1022000065FF20460CF04DFE38BD4FF4807200296A
:10221000114601D00BF0DABD0BF034BD08B5002338
:10222000009300F001F808BD70B516460C4605464F
:1022300019463046049A04F03BFA024621462846E5
:10224000BDE8704000F028B82DE9FF410E460500BA
:102250004FF001041CD003F0EFFE0190876E01A83F
:10226000009703F033FF3146684606F01DFF78B152
:1022700000980024B84208D0284603F0DDFE019003
:102280000099816601A803F021FF28460CF009FEA1
:1022900004B02046BDE8F081F8B515460C460600AE
:1022A00013D003F0C9FE0090032C0BD200EB840086
:1022B0006C3003F013FE009800EB8400C5663046D6
:1022C0000CF0EFFD684603F001FFF8BD10B50020EB
:1022D00005F0B8FCFFF7ECFA04F01EFE012005F053
:1022E000B1FC01F0F7FB04F017FE024801F0A8FD75
:1022F00010BD0000480000202DE9FF47044600689B
:1023000010B10DF0D9FB68B10022314850F822100D
:1023100060680A2841D007DCF0B306280DD00728F2
:1023200054D106E00122F0E712280AD019284DD135
:1023300037E020460EF0DAFE48E020460FF0B6FB0C
:1023400044E0206803F078FE0290B0F9548090F8E1
:102350005650476C466B02A803F0B8FE206800F0A8
:1023600039F8814668460CF089F9BDF8001009EB90
:1023700005000844ADF80000246A304605F08EFCE4
:10238000022005F0CDFC384605F07EFC4246694649
:10239000204604F0CFFA19E007E020460FF042FF94
:1023A00014E0886904B0BDE8F08720680DF02CF8CF
:1023B000206803F041FE0390B0F90610B0F9022046
:1023C000891A491CC16703A803F080FE0020E9E7D1
:1023D00088C5010838B503F02FFE0090C46F684629
:1023E00003F074FE204638BD044A034911600449D5
:1023F000CA69C86110467047A4030020EC0700209A
:10240000F007002000B589B024216846FDF7FFFEE3
:102410001920019003480068806841686846884731
:1024200009B000BDEC07002000B59DB00C48007855
:1024300001280AD170220B496846FDF7C1FE094800
:102440000C380EC800200AF0D6FC0548C0780128D8
:1024500004D10549C86800210DF034FE1DB000BD4F
:102460004D00002004730020606D002010B502486C
:1024700007F0DCF810BD00003C0B002010B502484E
:1024800007F0D4F810BD00009C0B002010B50248E6
:1024900007F0CCF810BD00003C0A002010B502483F
:1024A00007F0C4F810BD00009C0A0020014608781F
:1024B00010381823B0FBF3F20848805CC865032A83
:1024C00005D908686FF30900001D886503E00868F6
:1024D0006FF309008865886D70470000447D01082E
:1024E000014600208A6A8B6903BB32B1012A0CD0F5
:1024F000022A10D0032A17D115E0CB6A03F08073AB
:10250000B3F1807F00D101200FE0CB6AB3F1C07F2F
:1025100000D1012009E0CB6A03F08073B3F1807F22
:1025200000D1012001E000E000BF35E08B69B3F588
:10253000005F1BD132B1012A06D0022A0CD0032A37
:1025400012D10BE0012010E0CB6A03F08073B3F1ED
:10255000807F00D1012008E0012006E0CB6AB3F1C2
:10256000C07F00D1012000E000BF15E032B1012A98
:1025700005D0022A04D0032A0CD103E000BF00BF1B
:10258000012008E0CB6A03F08073B3F1807F00D1B3
:10259000012000E000BF00BF70470000F8B505460D
:1025A000006803F049FD0090448ED0F888606846CA
:1025B00003F08CFD06B1012604F0010428680DF03B
:1025C0007BFA0EB1002006E00CB1012003E008B157
:1025D000022000E003201B4951F82010686858B31E
:1025E00002280CD0052802D0122828D103E0284662
:1025F0000EF0A8FD23E0284610F023FC1FE06A69D6
:10260000E8694FF0FF33801AA0F1080203EB62047F
:10261000421CAB69001B4510A3EB6206C86905F0BC
:1026200033FB06E03219311B284604F077FB641EA9
:102630006D1C002CF6DA02E028680CF0E5FE0020A4
:10264000F8BD000090C50108044A0349116004491F
:102650000A6B086310467047F00300202C08002026
:102660003008002038B50D46002403F0E5FC00904A
:10267000C06B294603F0C2FD0546684603F026FDFF
:102680001DB1284603F0D8FC0446204638BD0000A2
:1026900010B5FEF7FBFEFFF715FB01F0E1FB01F0C3
:1026A0000DF9094801F0CCFB002001F0B1F8064813
:1026B00001F0C6FB002001F0ABF804F087FD01F04B
:1026C0005BF9FFF78DF810BD480000202DE9FC47AD
:1026D0000E465FEA000978D003F0AEFC009090F857
:1026E0005470D0F85880456BC46C684603F0EEFC1B
:1026F000B8F1000F04D0314648464246904761E0A9
:10270000122E18D006DC082E43D0102E3CD0112EED
:1027100006D112E0132E21D01D2E43D01E2E3DD007
:10272000202E4FDB17B148460EF097FAB1B248465B
:1027300011F0CEFF60B3611C27E04DB3284603F0D3
:102740007BFC05462146019005F068FC44192046B3
:1027500005F026FC01462346012210E0C5B12846BB
:1027600003F06AFC05462146019005F057FC441928
:10277000204605F015FC014623464FF0FF3248463F
:102780000DF0B8FF01A81BE0611E484600F034FBC5
:1027900018E0BCB1611E484600F02EFB48460EF022
:1027A0005CFA0FE0484603F047FC0090012F0ED082
:1027B000012180F854102146484600F01DFB684670
:1027C00003F084FC48460CF06CFBBDE8FC8700215C
:1027D00080F85410F3E7FEB54468054620460DF036
:1027E0006BF90646294620460BF060FA002837D0E0
:1027F00028680F2830D004DC0B2832D00E2853D1A3
:102800003AE0A0F58070133804D0A0F580702D3820
:102810004AD110E020460CF0A3FC2046002112F023
:10282000C6FF204603F008FC0190C06F00210CF0A9
:102830007DFC01A81DE0E86860B1017A29B101685A
:10284000204600F0E9F8012100E0022120460CF0CA
:10285000ACFB29E00321F9E70121204612F0A7FF94
:10286000FEBD204603F0E8FB0090343003F036FB59
:10287000684603F02BFC17E0B6B1E8684168002910
:1028800012DD01681B290FD006DC09290CD00A29AA
:102890000AD00D2904D107E0212905D0222903D02F
:1028A0002046FFF713FFFEBD28460BF0F1FDFEBDED
:1028B000F0B587B004460DF1080CD4E90567B0F90E
:1028C0000850408A8CE8E1000020CDE90010B4F9FE
:1028D0000C00B4F91060C118B4F90A00B4F90E5034
:1028E000104433462A4600F009F8050002D0618AF8
:1028F00000F045FA07B02846F0BD0000F0B585B0FD
:102900000D46DDE90D640F9FDDE90AC141F48051F8
:10291000DFF870E0CDE900C15837CDE902E729467C
:102920000BF008FD05002AD003F086FB102231468B
:1029300004900BF061FB04981C2213496030FDF7F2
:102940003FFC0499012081F85500601C00D0012053
:1029500081F88000002C00DC082424B20C870020C1
:102960004887486304A8641C03F0B0FB214628464E
:1029700011F093FD18B928460BF0BEFD002505B0F7
:102980002846F0BDD7270008AC04002038B5040065
:102990001BD05AB100230A4619460BF0A1FC05468C
:1029A000204603F049FB0090C5670BE003F044FBB1
:1029B0000090C06F0BF08FFD00990020C867204683
:1029C0000CF06FFA684603F081FB38BD00B52DEDC1
:1029D000028B81B09FED0E8AA0B103F02DFB009019
:1029E00090F844100B4AD0ED120A684652F82110B4
:1029F000F8EEE00A00EE101AB8EE400A80EE808A87
:102A000003F064FB01B0B0EE480ABDEC028B00BDE0
:102A10000000000008C801082DE9F04186B00C460E
:102A2000060050D003F008FB0090406B98B303F011
:102A300003FB03900098806E05F030F98046304625
:102A40000BF07BFF0746039804F07CFB05460098DB
:102A500090F8601001F00301012916D002290DD071
:102A6000416EC06A00680844241A641E039806F088
:102A7000C5F90146002C0FDA002115E0781B401C37
:102A800000EBD070A4EB6004F0E7406E791B081AED
:102A9000241A641CEAE713E0AC4205DC0246214636
:102AA000039806F04BF90146304600F0A5F903A85B
:102AB00003F00CFB404605F0F1F830460CF0F1F95C
:102AC000684603F003FB06B0BDE8F0812DE9F8434A
:102AD0001D46DDE9084916460F465FEA000840D06A
:102AE00003F0AAFA2049009081652049C1650021C0
:102AF000C0E91271E0E90F650121047280F81A90B3
:102B0000017690F84470684603F0E0FA87B12846F1
:102B100011F0B0FA0546304611F0ACFA0CB1401C89
:102B20006D1C854200DD28460146404600F093F8C2
:102B3000404614F005FA404603F07EFA009000F09B
:102B400046F90B490978884205D10098C16C404686
:102B5000491C00F051F9684603F0B8FA40460CF001
:102B6000A0F9BDE8F8830000A5010108416F010844
:102B7000300200202DE9F04190462DED068B82B009
:102B80000E46F0EE418AB0EE60AA070048D0274812
:102B900050F8260000EE900AB8EE608A28EE000A8F
:102BA00010EE100AFDF739FD9FED219B53EC192B18
:102BB000FDF755FB41EC100B14F096FE51EC100B99
:102BC000FDF7F3FC28EE0A0A054610EE100AFDF7A1
:102BD00024FD53EC192BFDF742FB41EC100B14F0D4
:102BE00083FE51EC100BFDF7E0FC28EE280A0446AA
:102BF00010EE100AFDF711FD53EC192BFDF72FFB1A
:102C000041EC100B14F070FE51EC100BFDF7CDFCF5
:102C1000CDE900680346224629463846FFF756FFAD
:102C200002B0BDEC068BBDE8F081000008C80108C9
:102C3000000000000000E03F38B50D46040009D058
:102C400003F0FAF90090856620460CF02AF96846F0
:102C500003F03CFA38BD7CB50C4606002ED003F0DC
:102C6000EBF90090B0F93810458FA14223D012DD66
:102C7000406B80B103F0E0F9019006F0BFF8A0428C
:102C800006DD2146019805F0C9F9019A0021115489
:102C900001A803F01BFA684603F018FA611B3046DE
:102CA000491C11F0FAFB304603F0C6F90090048786
:102CB00030460CF0F6F8684603F008FA7CBD2DE9C2
:102CC000FC4788465FEA00094FF0000655D003F044
:102CD000B3F90090B0F93850446B684603F0F6F948
:102CE0000027B8F1000F3ED04CB1204603F0A4F904
:102CF0000190FDF797FA461C01A803F0E7F940465A
:102D000006F07CF80446A84200DD2C4621464046E9
:102D100005F084F9451CA91B484611F0C1FD08B314
:102D2000484603F089F90090406B03F085F92A4684
:102D300041460190FDF744FA0198284400F8017CCF
:102D40000098C464B0F938108C4205D190F8541042
:102D5000012901D1641EC46401A803F0B7F96846D3
:102D600003F0B4F906E00098343003F0B7F80098A7
:102D70004787C76448460CF094F8BDE8FC8738B52F
:102D80000C4605000AD003F057F9009018B104660C
:102D900028460CF086F8684603F098F938BDF8B577
:102DA00015460C4606000ED003F046F9009038B1E7
:102DB000022C05D200EB8400C56630460CF071F899
:102DC000684603F083F9F8BD002213F037BF38B529
:102DD0000546406B002468B103F02EF900900446CC
:102DE000E96C05F01BF9204405F0DAF80446684662
:102DF00003F06CF9204638BD1CB50C4603F01CF9F5
:102E00000090406BF0B103F017F9019005F0F6FF68
:102E1000009991F8542002B10122002C00DA00241C
:102E2000844200DD0446B1F93800801AA04200DA7D
:102E30000446C86CA04200D0CC640020086501A8FC
:102E400003F044F9684603F041F91CBD10B504468F
:102E50001048406920F010000E494861204601F0FA
:102E600017F80C48406940F020000A4948610820E2
:102E700014F0BCFE0748406920F020000549486175
:102E8000082014F0B3FE00F091FE034908600846E4
:102E9000006810BD001002409000002010B50446EC
:102EA00000203B4908603B4908600CE02046FFF7E2
:102EB000CDFF3949374A126841F822003548006889
:102EC000401C34490860334800680628EED30020CF
:102ED0003049086035E02F480068401C2F490860E1
:102EE00026E02D482B49096850F821102B4A12681A
:102EF00050F82200814216D927482649096850F81F
:102F000021002749086024482449096850F8210015
:102F10002149204A126841F82200214800681F4ACE
:102F2000126841F822001D480068401C1B490860D7
:102F30001A4800680628D4D316480068401C154972
:102F40000860144800680528C5D3002010490860AF
:102F50000120104908600EE00F480E49096850F83A
:102F600021000B49096808440949086009480068BC
:102F7000401C08490860074800680528ECD304484D
:102F800000688008064908600846006810BD000017
:102F90009C00002094000020F81C002098000020D5
:102FA000A0000020F0B504460F4615461E463946DF
:102FB000022000F0D9FC2146032000F0D5FC314668
:102FC000062000F0D1FC2946072000F0CDFC0F20A0
:102FD0004FF0C0410880F0BD10B500202E490870A8
:102FE0002E49081F00F046FE00284DD001202A4936
:102FF00008702A48001F00682949096888420DD9CD
:103000002648001F006826490968401A4FF47A7163
:10301000484324490968B0FBF1F00CE01F48001F49
:1030200000681F490968081A4FF47A7148431D491E
:103030000968B0FBF1F01C4908601848001F40689F
:103040001A49096888420DD91448001F4068174979
:103050000968401A4FF47A71484315490968B0FB72
:10306000F1F00CE00D48001F406810490968081A8B
:103070004FF47A7148430E490968B0FBF1F00A49F0
:1030800048600548007810BD002007490860486086
:1030900001480078F7E70000E8000020D41C002079
:1030A0008000002078000020E41C00208400002024
:1030B0007C0000202DE9FF4F83B081460E461C4660
:1030C000DDE9117A109DDAF800000290DAF80400C8
:1030D00001902E4432480068007C00F0030030B1BB
:1030E000012836D002281CD0032855D130E000BF7B
:1030F000207880222A41104008B1019800E002980F
:1031000003463146761C4846059A00F03DFE681C91
:103110000546082801D10025641C781E071EE7D14A
:103120003AE000BF207880212941084028B131468B
:103130004846019B059A00F027FE761C681C054650
:10314000082801D10025641C781E071EEAD123E05F
:1031500000BFD9F8101088688047804600BF2078EB
:1031600080212941084060B131464846059A00F067
:1031700011FB83468BEA080331464846059A00F066
:1031800003FE761C681C0546082801D10025641C36
:10319000781E071EE3D100BF00BF07B0BDE8F08F67
:1031A0003C0200202DE9FF4F81B00F469846DDE933
:1031B0000F9A98F800B00E9D0E9D2F44534800685A
:1031C000007C00F0030010B102284BD14BE0BAF1B3
:1031D000000F25D000BFC5F103004400C4F1060173
:1031E000C020084100EA0B0020FA04F65AF8260035
:1031F000009039467F1CDDE90030039A00F0C4FDE1
:10320000681C0546042805D1002508F10100804608
:1032100090F800B0A9F10100B0F10009DBD121E084
:1032200000BFC5F103004400C4F10601C0200841FD
:1032300000EA0B0020FA04F639467F1C3346039A55
:10324000019800F0A1FD681C0546042805D1002561
:1032500008F10100804690F800B0A9F10100B0F13A
:103260000009DED14DE0BAF1000F26D000BFC5F154
:1032700003004400C4F10601C020084100EA0B002D
:1032800020FA04F646B15AF8260000903946DDE9E6
:103290000030039A00F078FD7F1C681C0546042866
:1032A00005D1002508F10100804690F800B0A9F191
:1032B0000100B0F10009DAD122E000BFC5F103003E
:1032C0004400C4F10601C020084100EA0B0020FAC6
:1032D00004F62EB133463946039A019800F054FDA6
:1032E0007F1C681C0546042805D1002508F1010053
:1032F000804690F800B0A9F10100B0F10009DDD1DD
:1033000000BF00BF05B0BDE8F08F00003C02002008
:103310002DE9F04107460D4690461C46069E08E002
:10332000424629463846236800F02EFD761E6D1C65
:10333000241D002EF4DCBDE8F08100002DE9FF4FD4
:1033400081B00F469846DDE90F9A98F800B00E9DBF
:103350000E9D2F4453480068007C00F0030010B11C
:1033600002284BD14BE0BAF1000F25D000BFC5F1C8
:1033700001008400C4F10401F020084100EA0B00C0
:1033800020FA04F65AF82600009039467F1CDDE941
:103390000030039A00F0F8FC681C0546022805D1AD
:1033A000002508F10100804690F800B0A9F1010065
:1033B000B0F10009DBD121E000BFC5F101008400BC
:1033C000C4F10401F020084100EA0B0020FA04F6E1
:1033D00039467F1C3346039A019800F0D5FC681CDF
:1033E0000546022805D1002508F10100804690F825
:1033F00000B0A9F10100B0F10009DED14DE0BAF151
:10340000000F26D000BFC5F101008400C4F1040103
:10341000F020084100EA0B0020FA04F646B15AF801
:10342000260000903946DDE90030039A00F0ACFC3C
:103430007F1C681C0546022805D1002508F1010003
:10344000804690F800B0A9F10100B0F10009DAD18E
:1034500022E000BFC5F101008400C4F10401F020A6
:10346000084100EA0B0020FA04F62EB13346394633
:10347000039A019800F088FC7F1C681C054602280E
:1034800005D1002508F10100804690F800B0A9F1AF
:103490000100B0F10009DDD100BF00BF05B0BDE8FB
:1034A000F08F00003C0200202DE9F04781460F46D6
:1034B00092461C46DDE9085826480068007C00F06A
:1034C000030010B1022841D11EE0B8F1000F0ED068
:1034D0000AE0267858F8263052463946484600F029
:1034E00053FC6D1E7F1C641C002DF2DC0BE008E019
:1034F000237852463946484600F046FC6D1E7F1C34
:10350000641C002DF4DC21E0B8F1000F0FD00BE0BB
:10351000267836B158F8263052463946484600F0EB
:1035200033FC6D1E7F1C641C002DF1DC0DE00AE0F5
:1035300026782EB1334652463946484600F024FCE0
:103540006D1E7F1C641C002DF2DC00BF00BFBDE8B7
:10355000F08700003C0200202DE9FF4F85B01646A1
:103560001F46DDE916BADDE91495DDF848801398A9
:1035700008283FD006DC012809D0022818D00428EA
:103580007BD126E0102844D0202876D167E00024A3
:103590000BE0A2192B46CDE900B7CDF808A0DDE974
:1035A0000501FFF787FD4D44641C4445F1DB64E0F1
:1035B00000240BE0A2192B46CDE900B7CDF808A0F6
:1035C000DDE90501FFF7EEFD4D44641C4445F1DBE8
:1035D00053E000240BE0A2192B46CDE900B7CDF84B
:1035E00008A0DDE90501FFF7A9FE4D44641C444530
:1035F000F1DB42E0002409E0A2192B46CDE9007A74
:10360000DDE90501FFF750FF4D44641C4445F3DB41
:1036100033E0002420E006980190A01902A9A1C17E
:10362000DDE9010100F096F90F204FF0C04108805C
:103630000CE003980088134908800498401E049009
:103640000198401C01900398801C03900498002866
:10365000EFDC00BF4D44641C4445DCDB0DE000247E
:1036600008E0A2192B460097DDE90501FFF750FE9F
:103670004D44641C4445F4DB00BF00BF09B0BDE805
:10368000F08F000000001060F8B505460E461446A5
:103690001F463B46224631462846009400F00EF86D
:1036A000F8BDF8B506460C4617461D4623463A4671
:1036B00021463046009500F001F8F8BD2DE9F843A9
:1036C00080460C4615461E46089F06480068C06B9B
:1036D00000683B46324629460090204600F0CCF870
:1036E000BDE8F8833C02002002460020704700003D
:1036F0000246A1F10900082813D2DFE800F0040611
:10370000080A120C0E10084870470848FCE70848E1
:10371000FAE70848F8E70848F6E70848F4E70848F1
:10372000F2E70020F0E70000E73D00080D3E00084A
:10373000A93D0008C9370008C53A0008B53A000895
:10374000493D000803460A4699680F2A1FD2DFE860
:1037500002F01E080A0C0E1E1E1E10121416181A55
:103760001C00486870478868FCE7C868FAE7086981
:10377000F8E78869F6E70020F4E70120F2E7012086
:10378000F0E70020EEE70020ECE70020EAE74FF04A
:10379000FF30E7E72DE9F04107460C46154629467C
:1037A000204600F0C1F806463046BDE8F081826848
:1037B00000230B804B8093895B1E1BB28B80138A86
:1037C0005B1E1BB2CB80704770B50446204600F0EC
:1037D00009F8054600220121A06907F06DFE0543A6
:1037E000284670BD70B50446A06858B91C2002F088
:1037F0008BFBA060A568216988688047064607F0B2
:1038000043FFA861A06808B9012070BD0020FCE753
:1038100070B5044640F2DF1340F21F320021084623
:10382000FFF7C0FB002508E0002602E005490C80F8
:10383000761CB6F5F07FF9D36D1CB5F5487FF3D350
:1038400070BD00000000106000B50321012000F0F1
:103850008BF800BD70B504460D462B46224629461E
:103860002046FFF79FFB024800880249088070BD90
:1038700074000020000010602DE9F04704460D465A
:1038800016461F46DDF820A03B4632462946204614
:10389000FFF788FBA8460AE0A14604E00649A1F824
:1038A00000A009F10109B145F8D908F10108B845AE
:1038B000F2D9BDE8F08700000000106010B518488C
:1038C000006840F0100016490860642014F094F974
:1038D0001348006840F0200011490860642014F08B
:1038E0008BF91048406920F040000E49486164207F
:1038F00014F082F90B48406940F0400009494861E2
:10390000642014F079F90648006820F0800004492A
:103910000860642014F070F9FFF796FF10BD0000F6
:10392000140C02400010024030B504460D46B4F5B8
:10393000487F02D2B5F5F07F01D3002030BD2B4681
:10394000224629462046FFF72DFB01480088F5E76F
:103950000000106070B504460D462B4622462946ED
:103960002046FFF71FFB70BD4FF0C0431880014B8E
:10397000198070470000106010B5012004F062F952
:103980003C480AF035FC3C4809F03EF93B4800F061
:1039900001FF394809F038F93948FEF711FC394878
:1039A000FEF722FD3848FEF74FFE384809F06AFC62
:1039B000374809F055FD374806F030FF364809F022
:1039C000F9F908F035F93549086003F0A5FA3448EB
:1039D00000F036FA314908680BF022FB4FF42A73E5
:1039E000304A19463048006801F01AFF2F49086034
:1039F0002A4908692D49096801F014FE2C4A11680A
:103A0000264A10680AF06CFE294948600A46916807
:103A1000224A10680AF064FE2549C8600A46116906
:103A20001E4A10680AF05CFE214948610A46916905
:103A30001A4A10680AF054FE1D49C8610A46116A04
:103A4000164A10680AF04CFE194948620A46916A03
:103A5000124A10680AF044FE1549C8620A46116B02
:103A60000E4A10680AF03CFE1149486303F054FA0C
:103A700010BD00004040400085CB000821430008F5
:103A8000F51E0008F92200089D250008D1D0000885
:103A900035D30008DDA70008FDCC0008606D0020CC
:103AA00048000020A86D00205C010020500100208B
:103AB0006C01002010B5044600220621A06907F021
:103AC000FBFC10BD10B5044600220521A06907F0DB
:103AD000F3FC10BD10B5FFF77FFA3049087407F00A
:103AE0003BF92E490968884205D907F041F92B496D
:103AF0004968884204D80020284908604860087452
:103B00002748006825490968884205D92448006883
:103B100022490968401A04E02048006820490968E1
:103B2000401A204908801E4840681C49496888425C
:103B300005D91B48406819494968401A04E01748EC
:103B4000406817494968401A174908801448007AA4
:103B50001249097C884207D1124800881E2803DCDC
:103B6000114800881E2817DD0C48007C0C4908729B
:103B70000A48007C48B10948006808600748406866
:103B80004860084604F0F0F906E0054804F0ECF956
:103B9000002003490860486010BD0000E41C0020BC
:103BA000EC000020F8000020FA00002010B50020F2
:103BB0001A4908701A4908601849087026E0184820
:103BC00000684000164908601648406940F020002F
:103BD00014494861082014F009F81248406920F09F
:103BE000200010494861082014F000F80E480068D1
:103BF00000F0040028B10A48006840F001000849BC
:103C0000086006480078401C0449087003480078A2
:103C10000C28D4DB0248006810BD00008900002099
:103C20008C00002000100240100C024070B50446C9
:103C30000D46D020FFF732F90C4908609020FFF7BD
:103C40002DF90B49086009480068642803D3084629
:103C50000068642801D2002070BD0448006820601C
:103C60000348006828600120F6E70000A400002057
:103C7000A800002070B504460D462E492E48FFF7D7
:103C8000D5FF2E4908700846007808B9002070BD9D
:103C90002B492C48FFF7CAFF2849087008460078CE
:103CA00008B90020F3E727480068234909688842DB
:103CB00006D82148016823480068143081420CD39B
:103CC0001D4800681F490968884230D81D480168AE
:103CD000194800681430814229D2194800681549F2
:103CE0000968884206D813480168154800681430EE
:103CF00081420CD30F48006811490968884216D8E0
:103D00000F4801680B480068143081420FD20A48FE
:103D100000680C49096808444008206005480068AC
:103D2000074909680844400828600120AFE70020DF
:103D3000ADE70000B0000020AC000020BC00002077
:103D4000B8000020B40000207CB504460D4616469D
:103D50000020009001908DF8045000966A460421DE
:103D6000A06907F0A9FB7CBD7CB504460D4616464C
:103D7000002000900190009501966A460321A069F9
:103D800007F09AFB7CBD00002DE9F04107460C4688
:103D900015461E460348066029462046FFF75AFD91
:103DA000BDE8F081740000202DE9FC4105460E4677
:103DB00017460020009001902846FFF713FDA868E1
:103DC00078B1AC68606908B9304600E0606960614C
:103DD0006660A760009601976A460721A86907F008
:103DE0006BFBBDE8FC81F8B504460D460020009051
:103DF0002046FFF7F7FCA06838B1A668356000954B
:103E00006A460221A06907F057FBF8BD2DE9F04191
:103E100005460E4617462846FFF7E4FCA86818B189
:103E2000AC68E66027616661BDE8F08104214FF06F
:103E3000C0421180014908807047000000001060F6
:103E400000B503465878FFF7F1FF187800F062F8E4
:103E500018789870587818709878587000BD0000DD
:103E60000A48406940F01000084948610846406926
:103E700040F0200048610846406940F00400486175
:103E80000846406940F02000486170470010024039
:103E900010B5044600201D4908701D48406920F0F7
:103EA00020001B49486100201849087028E004F0F0
:103EB000800030B11648406940F004001449486160
:103EC00005E01348406920F004001149486160068C
:103ED000040E0F48406920F020000D494861082079
:103EE00013F084FE0A48406940F020000849486108
:103EF000082013F07BFE05480078401C0349087039
:103F0000024800780828D2DB10BD0000880000209D
:103F10000010024005214FF0C04211800149088085
:103F200070470000000010602DE9F04104460D4686
:103F30001646324629462046FFF72CFC07462169E3
:103F400088688047804687EA08033246294620462B
:103F5000FFF71AFFBDE8F08100BFFEE72DE9F0434F
:103F600089B0984615460F4606004FF0000428D049
:103F700000F0B8FB0446304600F0A0FB814603A9E0
:103F8000304600F0CCFCF80706D0BDF91C008221B9
:103F9000001B401B401C08E0B807BDF9180028446E
:103FA00002D540F2022100E002210096CDE9018114
:103FB00023461A464946FDF72BFF04460021FEF72B
:103FC0000DF909B02046BDE8F083000010B50523C7
:103FD000FFF7C4FF0446054A0021FEF71FF9044914
:103FE00020460BF0F1F8204610BD0000CD0E010870
:103FF000A57A010810B50723FFF7B0FF0446054A6C
:104000000021FEF70BF9044920460BF0DDF82046AD
:1040100010BD000019100108BB7A010810B5082373
:10402000FFF79CFF0446054A0021FEF7F7F8044914
:1040300020460BF0C9F8204610BD000049100108C9
:10404000F17A01082DE9F047044640688EB0002758
:10405000804601F0F1FF0090B0F87CA0D0F86890A5
:10406000D0F88060D0F88850C06D00B1076868460D
:1040700002F02CF805E0696820468847002843D103
:104080002D68002DF7D12068172853D00CDC0F289D
:104090003DD004DC0B2877D00D2825D18BE01128EA
:1040A00010D0142820D13BE0262846D004DC1E285E
:1040B00051D0202818D18AE02A2816D0B0F5107FD8
:1040C00012D128E04046E56801F0B6FF0290697A17
:1040D00039B9297A012904D130F87C1F41F4807163
:1040E000018002A801F0F2FF75E0404601F0A4FF54
:1040F0000090E16811B1C0F8841002E0D0F88400AB
:10410000E060684601F0E2FF0EB0BDE8F087D7B38B
:104110004046B8475FE02146404611F02DF9F3E7ED
:1041200005A9404600F0FBFBE0680699016007998D
:104130004160E9E7C4F80C90E6E7E0680228E3D1C3
:10414000CDF83080E0680D9027200A900AA9A06879
:104150000BF0C2FED8E7E068012804D000214046F9
:1041600000F0EDFAD0E730460AF0F0FE68B13046D4
:104170000BF0D4F830460AF0CBFD98B1012130465F
:1041800009F024FE0EE026E02FE048460BF014F97B
:104190000646404601F050FF0090C0F88060684637
:1041A00001F094FF0121404600F0C9FA002EABD186
:1041B0000020E060A8E75FEA0A700CD4E068C068FD
:1041C00048B1007A38B140460BF0A8F803E0214628
:1041D000404610F042FD2146404609F067FD0028A8
:1041E00092D020460AF054F98EE7404601F024FFB1
:1041F0000090703001F072FE684673E7F0B587B04A
:10420000B0F908400DF10C0C0C9E876945688CE8EC
:10421000F000448A0025CDE900150294B0F90C1095
:10422000B0F91050B0F90E40B0F90A00194410442A
:104230002B46224600F002F807B0F0BD2DE9F0470A
:104240008AB00DF14C0CDDE917849CE86006129FE2
:1042500045F48055DFF8BCC06034CDE902C4CDE937
:1042600000750AF067F804004FD001F0E5FE302237
:104270004946049009F0C0FE0498282226493430AB
:10428000FBF79EFF0498244FC0F86480A0F87C6080
:104290000026C0F88060C666083FC0F8886079686C
:1042A000C16504A801F012FF05A9204600F037FB04
:1042B0001A4841F2827103960094CDE90110BDF9CC
:1042C0001E00BDF91A10BDF91C20431ABDF91800D3
:1042D0005B1C121A521C0AF02DF8064678684168D9
:1042E00020468847204601F0A7FE0490866604A871
:1042F00001F0ECFE42F20400054202D120460AF031
:104300006DF95146204600F089FA0AB02046BDE812
:10431000F087000045400008D0040020254C00082C
:104320002DE9F041044694B0006800F0B7F908B1F7
:10433000D94D01E0D84D2C35606815281ED00CDC15
:104340000B281FD004DC00287ED005287DD12FE16A
:104350000E287BD01228F9D141E1162806D0172863
:1043600008D0182808D01C28F0D109E0E86914B05A
:10437000BDE8F081286AFAE7686AF8E7A86AF6E714
:104380006869F4E720680B901C200C90206801F00D
:1043900053FE0390016D0BA88847064603A801F061
:1043A00095FE022E0FDB95E807008DE80700D4E9A3
:1043B00004023346A16904F037FB20698719A0691C
:1043C000A0EB06082CE0286803F05EFC2169E86990
:1043D0000A18521E606902F0A1FCA269E869111A6C
:1043E000491C606902F09AFCD4E904077F1C394635
:1043F00002F0D6FC3946A06902F0D2FC686803F0EE
:1044000043FC20693946401C02F0CAFCA0693946C9
:10441000401E02F0C5FCA0692769A0F10208BF1C7C
:10442000286803F031FC42463946606902F076FCA8
:10443000686803F029FC606942463946401C02F076
:104440006DFC686A022802E015E1B0E000E10BDDD6
:10445000A86803F019FC61696A6A881C8B18014618
:10446000424638465B1E27E0296AB14226DD606974
:10447000022E074600F1020801DB374401E007F194
:104480000207206901DB304401E000F102002269EB
:104490003B460A444146A2F1010202F05FFD022EB2
:1044A00002DBA069821B01E0A269921EA069E96992
:1044B0003B46401A4146401C02F050FD022E02DBF2
:1044C0006069064401E06669B61CE76928687F1EDA
:1044D00003F0DAFB3A463146206902F0BFFC3A4667
:1044E0003146A06902F0BAFCE7696868BF1E03F0B4
:1044F000CBFB20693A463146401C02F0AFFCA06974
:104500003A463146401E02F0A9FCE869022802DC66
:10451000286A022823DDA86A022802DDE1690F1A51
:1045200001E0E769BF1EA86803F0AEFBE969022954
:1045300009DD20693B46421800F1020C3146604615
:10454000521E02F00BFD286A022808DDA269E86904
:104550003B46101A3146401C921E02F0FFFC2868B0
:1045600003F092FBD4E90620216902F0D7FB6868CA
:1045700003F08AFBD4E906202169401E491C521E23
:1045800002F0CCFBA86A022811DDA1692669E46962
:10459000A1F10208271AA41EB61C7F1CA86803F00C
:1045A00073FB234642463946304602F0D7FC71E0A1
:1045B000208A00B2ADF81400A18A09B2ADF8161035
:1045C000228B12B2ADF81820A38B1BB2ADF81A30B3
:1045D0002C69ED68CDE9005402F048FB5AE0208ACE
:1045E000298B0844ADF81400A08AADF81600208B82
:1045F000298B401AADF81800A08BADF81A0020687E
:1046000001F01AFD0390006FF0B1022003F088FB67
:10461000039890F87C10C1F3C00100EB8100006C9E
:1046200003F032FB0398406B03F038FB0398006FF4
:1046300001F002FD03990990B1F95A2005A902F091
:1046400079F909A801F042FD03A801F03FFD21E03E
:10465000208AADF81400A08AADF81600208BADF8C2
:104660001800A08BADF81A00A86803F00DFB05A890
:1046700002F098FC0EE0206801F0DEFC039030F8B8
:104680005A1F41F00C01018003A801F01FFD2068B2
:104690000AF0BAFE00206AE60C05002038B50024B6
:1046A00050B101F0C9FC009090F87C00000700D5E3
:1046B0000124684601F00AFD204638BD38B50500E2
:1046C0004FF000040CD001F0B7FC0090C06D002149
:1046D00080680268284690470446684601F0F6FC68
:1046E000204638BD30B587B005004FF000040ED02D
:1046F00001A900F014F9284601F09EFC0090B0F9E1
:104700005440684601F0E2FC0CB9BDF9044007B022
:10471000204630BD002801D010F0A6B9704700280F
:1047200001D010F0F0B9704710B5040006D011F0B8
:1047300041FE2046BDE8104011F010BE10BD00281B
:1047400001D011F0D3BE7047F8B515460C460600EF
:104750000DD001F071FC0090022C05D200EB84001A
:10476000856330460AF09DFB684601F0AFFCF8BD5A
:1047700038B50C4600280CD001F05EFC0090816C2E
:10478000A14203D08464806E0AF08BFB684601F07E
:104790009DFC38BD074A0649054B1160064A083B97
:1047A000D16958601B68C2E90630084670470000AE
:1047B00000050020CC040020D00400202DE9FC419D
:1047C0000D46070028D001F037FC0190C16D8C68C0
:1047D00000F00CF980460198456301A801F076FCD1
:1047E0002268012138469047064622680321384650
:1047F00090470546226800213846904704463846CF
:1048000000F0D9F92B46324641463846009400F074
:1048100062F938460AF045FBBDE8FC817CB50D46DF
:10482000040019D001F008FC0090006F0190684668
:1048300001F04CFC294601A804F036FC00280BD0FE
:10484000204601F0F9FB009001990167684601F0EC
:104850003DFC20460AF025FB7CBD38B50C46050022
:104860000ED001F0E9FB0090B0F95A10A14204D03B
:10487000A0F85A4028460AF014FB684601F026FCCE
:1048800038BD38B50C4605000FD001F0D5FB00222D
:10489000009000EB8201521C0C64022AF9D3684696
:1048A00001F014FC28460AF0FCFA38BD2DE9FC475B
:1048B0000D465FEA00094FF000042DD001F0BCFB6B
:1048C0000190B0F95440A54223D000F08FF8804603
:1048D00001980121A0F85450C06D856848462A68A7
:1048E000904707462A6803214846904706462A68AB
:1048F0000021484690470546484600F05CF933469B
:104900003A4641464846009500F0E5F848460AF028
:10491000C8FA01A801F0DAFB2046BDE8FC872DE9C2
:10492000F34F85B000270C46B846059801F084FB8C
:104930000090C06D0121856805982A6890478246DD
:104940002A6803210598904704902A680221059857
:10495000904703902A6800210598904706460098E2
:104960000AF028FF834600980AF02BFF8146009842
:1049700090F83210890601D5B0F9588000F036F869
:1049800005460098C06E10B109F0E8FF0746258083
:104990006780A4F804A0049AABEB020006EB0802BF
:1049A000401E2A4420813A44E280039BA9EB030283
:1049B000521E6281A4F80CA020827019E681401E6C
:1049C0006082684601F082FBB4F90C000190B4F9F2
:1049D0001000029002AA01A9059800F039F8019888
:1049E000A0810298208207B0BDE8F08F10B5014683
:1049F000002091F83220920607D5B1F95400002822
:104A000003D1486B02F0C2FB801C10BD70B58AB0A8
:104A10000C46054601F010FB0990C06D866809A898
:104A200001F054FB009534B1012C06D0022C0BD0C0
:104A3000032C04D10AE0182000E0162001907168D0
:104A4000684688470AB070BD1520F7E71720F5E7DC
:104A50002DE9FC4117468846044601F0EDFA009026
:104A6000C16D056868468E6801F030FB3268002130
:104A7000204690470646204609F03AFE27E000BF50
:104A800001F0DAFA0190B0F900102AB2B0F904305E
:104A9000891A9A1AB0F90230A3EB2543B34210D118
:104AA00090F82800000605D53868884209DB491EC1
:104AB000396006E0D8F80000904202DC521CC8F8C9
:104AC000002001A801F002FB204609F0BAFE040014
:104AD000D6D1BDE8FC812DE9FF4F83B00E460746D5
:104AE000DDF8409001F0A8FA0190C16D8D68FFF7E4
:104AF0007DFF044601A801F0E9FA2A680121384641
:104B0000904783462A6803213846904782462A68A0
:104B10000021384690470546B44207D105998B4598
:104B200004D106998A4501D14D4541D0A41B0026E8
:104B3000B046384609F0DCFD38E001F07DFA00901F
:104B4000806A010601D5800502E0810528D50006AE
:104B5000002825DB24B12246114638460AF070FAB7
:104B6000009890F8280000060AD50698A5EB0902DF
:104B7000A0EB0A0004FB16013846761C0AF013FA73
:104B80000098008D80050BD50599A5EB0902ABEBCC
:104B9000010004FB080108F1010838460AF003FA95
:104BA000684601F093FA384609F04BFE0700C4D17D
:104BB00007B0BDE8F08F70B586B0064601F03CFA4C
:104BC0000590D0E91A4505A801F080FA54EA0500DD
:104BD00026D069463046FFF7A2FEACB1BDF90620EB
:104BE000BDF9041020460AF0B3F9BDF90A00BDF979
:104BF0000610421ABDF90800BDF90410521C411AF2
:104C00002046491C0AF030FC002D09D0BDF90600F1
:104C1000BDF90210421ABDF9041028460AF098F9AD
:104C200006B070BD2DE9F0430446406889B00546E2
:104C300009F01EFE814601F0FFF90290D0F848808D
:104C4000D0F88070466E02A801F040FA206817285C
:104C500053D008DC0E283AD00F2811D014284CD09D
:104C600015283DD149E01E281ED01F282AD0222811
:104C700040D0312834D10020E06009B0BDE8F08395
:104C80006FF070414046884503D006F00DFA01F000
:104C9000C3FB002EF1D0D4E902122068CDE904054F
:104CA000CDE9061204A81FE0E0680028E5D02FB186
:104CB000AF4203D038460AF031FBDEE728460AF05F
:104CC0007BFBDAE72146484608F0F0FFD5E7E068CD
:104CD0004168002904DD00680928EFD00A2805D0C2
:104CE0005EB12046C4F80490B047C6E728460AF0F3
:104CF0006BFBC2E7C4F80C80BFE7204609F0C8FB95
:104D0000BBE7000070B504461D460023B5F5804F93
:104D100013D154F822300C480340D1E9000640EA90
:104D200006108E6840EA06208E8940EA06408E69A9
:104D30003043034344F8223003E06FF0704044F8FE
:104D40002200002070BD00000000F0CF10B5034627
:104D50000022086853F8202012480240D1E90104DB
:104D60002043CC6820430C6920434C6920438C6964
:104D70002043CC6920430C6A20434C6A20438C6A50
:104D80002043CC6A2043CC6B20430C6B204302436E
:104D90008868082801D142F04002086843F82020C2
:104DA000002010BD8000F0FF30B503460024501CE9
:104DB00053F8204004F04044D1E9000540EA0510D2
:104DC0008D6840EA05208D8940EA0545088A401E25
:104DD00045EA0055087D801E45EA00608D6928433C
:104DE0000443501C43F82040002030BD10B5054955
:104DF0000868FBF775FD034841680020FBF792FD4A
:104E000010BD0000540000202DE9F0412DED088B6D
:104E100090B000200C900D900E900F90089009908B
:104E20000A900B90049005900690079000900190D6
:104E30000290039000240026002700258046612070
:104E400008F04EFD0C90622008F04AFD0D906320A2
:104E500008F046FD0E90642008F042FD0F9065209A
:104E600008F03EFD0890662008F03AFD09906720A2
:104E700008F036FD0A90682008F032FD0B9069209A
:104E800008F02EFD04906A2008F02AFD05906B20A2
:104E900008F026FD06906C2008F022FD07906D209A
:104EA00008F01EFD00906E2008F01AFD01906F20A2
:104EB00008F016FD0290702008F012FD03900C9887
:104EC00000060D9940EA01400E9940EA01200F9931
:104ED00040EA010408980006099940EA01400A994D
:104EE00040EA01200B9940EA010604980006059962
:104EF00040EA0140069940EA0120079940EA01078B
:104F000000980006019940EA0140029940EA012018
:104F1000039940EA01053046FBF73AFB41EC190BD7
:104F20002046FBF735FB41EC1A0B53EC192BFBF732
:104F3000AFFA41EC180B9FED150B53EC102BFBF760
:104F400035FA144AC2E902012846FBF721FB41EC7D
:104F50001A0B3846FBF71CFB41EC1B0B53EC1A2BCE
:104F6000FBF77DF941EC180B3846FBF711FB41ECE0
:104F7000190B53EC182BFBF78BFA064AC2E9060112
:104F800010B0BDEC088BBDE8F0810000000000000F
:104F900084D78741A01C002010B50248407800F05B
:104FA00077FD10BD4D0000202DE9F0430446C56893
:104FB00087B090468946002002F06EFE064625B175
:104FC000287910B146F0020001E026F0020002F05C
:104FD00063FE2069012558B1D4E902128DE826004C
:104FE000039563882288046841464846A0471EE02E
:104FF000124F134B214638681B68427CE068984783
:1050000030B9E088012801D0002001E03868806BC9
:10501000A288E388A1680095CDE90410CDE90232A9
:105020000195638822884146484605F045FC07B053
:105030003046BDE8F04302F02FBE00003C020020E5
:10504000340200201CB50024019401AC009400F04F
:10505000E7F81CBD2DE9FF4F83B0814606988A46CC
:10506000A0EB0A08109E00200090A2EB090435680E
:10507000934654EA080018D02046FBF781FD074606
:105080004046FBF77DFD87420BDA204644468046CA
:105090004846D14682465846DDF818B006900120B1
:1050A0000090002C07DD204606E007B04846BDE82A
:1050B000F04F00F03BB96042A0420AD04846D946C2
:1050C0006442C8F1000883464FF0FF37DDF818A0AE
:1050D00000E001275148B8F1000F11D004EBD47162
:1050E0004FEA610B01DACBF1000B4C480068807E7F
:1050F00088B3002F02DA30682044306000257BE05E
:1051000000990029016821D0897E11B100278046CD
:1051100015E007B05A4649465046BDE8F04F05F045
:105120002DBD28466D1C11F0BFFA38B9D8F8000023
:1051300009EB0701406E4268504690477F1CA7422A
:10514000EFDD6D1E356007B0BDE8F08F8A7E1AB1C5
:105150000027804617E019E0486E5A46514603681A
:1051600007B04846BDE8F04F184728466D1C11F0BF
:105170009BFA38B9D8F8001009EB0700496E4A6865
:10518000514690477F1CA742EFDDDAE700250FE08C
:1051900008FB05B090FBF4F101EB0A00009951B156
:1051A0001E4A09EB05011268526E526890476D1C49
:1051B000A542EDDDC7E7194909EB05030968496E0A
:1051C0004A6801461846F1E708FB05B090FBF4F188
:1051D00001EB0A00019030683844306011F064FA45
:1051E00048B9009890B10D4809EB05010068406E80
:1051F0004268019890476D1CA542E5DD3068002F9C
:1052000001DA20443060C01B30609CE7034909EBA1
:1052100005000968496E4A680199EBE73C020020E5
:105220002DE9FF470F4640491646804609680C980D
:105230001D460A7E012A1CD0A8EB0600791B50EA05
:1052400001031CD0A2F1010912F0EAFB00F5806015
:10525000824603F0FAFF00FB09F4504603F0FAFF20
:1052600000FB09F1002C0CDAC4F5007080124042FA
:105270000AE00090324639464046FFF7EBFEBDE8B3
:10528000FF8704F50074A012002904DAC1F500714B
:1052900089124C4202E001F500718C12002804DDF5
:1052A000411C01EBD171491003E000EBD0714910B2
:1052B000401E00EBD0704210002C04DD601C00EB9F
:1052C000D070401003E004EBD4704010641E04EB77
:1052D000D47308EB0104ADF800403C18ADF802406F
:1052E000A8EB02045B10B21AADF80440ADF8082038
:1052F0003144FC1AEA1AADF80C102844ADF80A2023
:10530000ADF80E000023ADF806401A4604216846A9
:1053100000F07AF8394640460DF010FB2946304639
:105320000DF00CFBABE700003C020020064A1368BE
:105330001A7E012A05D0521E02EBD272521000F0E2
:1053400005B85A6E526810473C0200202DE9F05F04
:105350000646884640F2C32002FB00F14FF47A7003
:1053600091FBF0F702FB02F102EBD27001EB600B54
:105370001446B118234A301B7F1C1268526E136802
:105380000A4641469847012538E000BF05FB05F075
:1053900004FB040159451CDDBC4219DD194B06EB29
:1053A000050AA6EB05091B68AAF1010208EB040136
:1053B0005B6E09F101001B689847124BAAF10102CC
:1053C000A8EB04011B6809F101005B6E1B6898479C
:1053D000641E0C4B3219301B1B68924608EB05010A
:1053E0005B6E81461B689847064B5246A8EB050149
:1053F0001B6848465B6E1B6898476D1CBD42C5DD47
:10540000BDE8F09F3C0200202DE9FF4F43F6FF74FA
:105410000F46664283B09B46814600210BE000BFE9
:1054200009EB8100B0F90200A04200DA0446B04264
:1054300000DD0646491CB942F2DB67480068406956
:1054400000280DD0B0F906101A46A1EB0B01B142AD
:1054500000DA0E46B0F90200801AA04200DD0446D0
:10546000B4E0DFF878A100200546CAF8000088E023
:10547000781E854201DA6B1C00E0002309EB850CE5
:1054800009EB8302BCF90200B2F90210A04244D138
:10549000A14215D139F92330059A39F9251003EBCA
:1054A000020C4D4A05981268084404EB0B01526E39
:1054B0006045136801DA62462AE00246604627E04A
:1054C0002846A4464FF000087A1E0BE008B1401EA3
:1054D00000E0781E09EB8003B3F90230634504D184
:1054E00008F101089045F1DB2346A34248D01A1B7E
:1054F00039F92500A1EB040C059B92EA0C0F09D4A5
:10550000354A184404EB0B011268526E13680246C8
:10551000984735E00AF0E4FD32E0A14230D001DBEB
:10552000A04203DDA0422BDBA14229DCE0468842F9
:105530000ADC0346A04223DC0846A14220DBB8F97E
:1055400000C0B2F9001008E00B46A14218DCA042EE
:1055500016DBB2F900C0B8F90010E21AA1EB0C0199
:1055600051430029A0EB030202DD01EB620102E0DE
:10557000A1EB6201491CC01A91FBF0F06044C9E73D
:105580006D1CBD42FFF674AF0598009004EB0B0054
:10559000019000208046054613E01149B8F1000F44
:1055A00031F915A009D0009901EB0A0208440A4913
:1055B0000968496E0B680199984788F001085046C0
:1055C0006D1C064909688D42E7DB641CB4427FF715
:1055D00048AF07B0BDE8F08F3C020020440900202E
:1055E000E475002010B5002002F04CFB6FF07F4006
:1055F00002F04AFB012002F081FB002002F086FB52
:10560000002002F08DFB002002F046FB04480068F9
:1056100002F044FBBDE81040002002F04BBB00004C
:105620003802002033B583B0040016D000F004FD2A
:105630000190456E01A800F049FD049800F0FCFCC3
:1056400000908460684600F041FD042204A92846C9
:1056500000F060FD204609F024FC05B030BD33B5F4
:1056600083B0040016D000F0E7FC0190856E01A81D
:1056700000F02CFD049800F0DFFC00908460684688
:1056800000F024FD042204A9284600F043FD204632
:1056900009F007FC05B030BD2DE9F04104460025B6
:1056A000D4E90007B0F5407F00D1012521463846F6
:1056B00008F0FCFA064615B138460FF06EF9002ED8
:1056C0002FD02068052806D00B280ED00F2806D032
:1056D000262821D10EE038460FF05FF91CE038464D
:1056E000E168BDE8F0410FF0B3BB3846BDE8F041DA
:1056F0000FF0E2BAE06805280ED1384609F0DDF86F
:10570000A168884205D0384609F0CEF8A1688842E1
:1057100002D160680FF0E1FD2046BDE8F04108F0DD
:10572000B7BEBDE8F081F0B585B0B0F90850468A43
:1057300084690296CDE903540027CDE90017B0F93A
:105740000C10B0F91050B0F90E40B0F90A0019442D
:1057500010442B46224600F003F805B0F0BD0000CF
:105760002DE9F04186B00DF1300CDDE90F849CE8A5
:10577000E0006C34DFF850C003948DE8601008F04E
:10578000D9FD04001BD000F002FD054600F0FFFC2F
:105790000646204600F050FC0490C0E9195600224D
:1057A000414608F029FC0498302208493430FAF7C1
:1057B00007FD0498A0F8787004A800F087FC06B0F4
:1057C0002046BDE8F08100009956000864050020DD
:1057D00003B583B000F030FC009060B1406A00F087
:1057E0002BFC01460190022304AA009800F0EAF87D
:1057F00001A800F06BFC684600F068FC05B000BD35
:1058000008B500280AD000F017FC002100900161C3
:10581000806809F046FB684600F058FC08BD0000AF
:105820002DE9F043814685B01D4690460F462C2059
:1058300000F011FB060024D0780000F00CFB0400FF
:105840000ED0B8F1000F0BD055B1204600F0F4FB9C
:105850006A0041460090FAF7B3FC684600F036FC57
:10586000304600F0E9FB0949029000F10C02446265
:1058700082E8A202064901600649416002A800F0E0
:1058800025FC05B03046BDE8F0830000394801082A
:10589000FB4F0108494D01082DE9F843074698469A
:1058A00015460E46302000F0D6FA040015D000F060
:1058B000C3FB0090C0E905768584094AB7EE000A6B
:1058C000C0F81C8080ED0A0AD2E90012C0E9031278
:1058D00004490160684600F0F9FB2046BDE8F88302
:1058E00094050020D350010838B50D46002460B15E
:1058F00000F0A2FB0090C468AC4203D0C560806891
:1059000009F0CFFA684600F0E1FB204638BDF8B553
:105910000D4606004FF000040CD000F08DFB009007
:10592000846CAC4203D08564304609F0BAFA68460C
:1059300000F0CCFB2046F8BDF8B50D4606004FF050
:10594000000416D000F078FB0090B0F8781011F049
:10595000010403D055B921F0010102E035B141F055
:105960000101A0F87810304609F09BFA684600F073
:10597000ADFB2046F8BDF8B50D4606004FF000041B
:105980000ED000F059FB009090F86C40AC4204D06F
:1059900080F86C50304609F084FA684600F096FBB7
:1059A0002046F8BD38B50D4604000AD000F044FB8F
:1059B0000090C0F89450684600F088FB204609F03B
:1059C00070FA38BD2DE9F041044680681D4617463F
:1059D0000E46002826D0D4E9040290420ED1521E71
:1059E0006A4371193046FAF7EBFB20692A46401EDC
:1059F00005FB00603946FAF7E3FB0EE005FB0013F8
:105A0000401C20612A4639461846FAF7D9FBE1685E
:105A100019B12046BDE8F0410847A068BDE8F04153
:105A200000F002B8BDE8F08110B58AB0044600F07D
:105A300003FB09A904AACDE9002105AB089006AA39
:105A400007A90EF016FC08A800F040FB02A92046AA
:105A500008F094FEBDF8080007990844ADF8080066
:105A6000BDF80A0006990844ADF80A00BDF80C001C
:105A70000599401AADF80C00BDF80E000499401AC3
:105A8000ADF80E0002A9204609F0D0F90AB010BD09
:105A900010B528498868FAF76AFD274AC2E9020169
:105AA00024490869FAF763FD234AC2E904014FF467
:105AB0002A71224806F088FE00B910BD204800680F
:105AC000FFF79EFE00201F4908600EE01B481D4A9C
:105AD000126830F8120001B219480068FFF778FE2A
