:020000040800F2
:10000000B0BA00209D010008DDB20008A701000879
:10001000A9010008AB010008AD01000800000000C4
:1000200000000000000000000000000001C4000803
:10003000B10100080000000049BA0008B7C4000878
:10004000B7010008B7010008B7010008B7010008B0
:10005000B7010008B7010008B7010008B7010008A0
:10006000B7010008B7010008B7010008B701000890
:1000700041170008B701000851170008B701000830
:10008000B7010008B7010008B7010008B701000870
:10009000B7010008B7010008B7010008B701000860
:1000A000B7010008B7010008B7010008B701000850
:1000B000B7010008B7010008B7010008B701000840
:1000C000B7010008B7010008B7010008B701000830
:1000D000B7010008B7010008B7010008B701000820
:1000E000B7010008B7010008B7010008B701000810
:1000F000B7010008B7010008B7010008B701000800
:10010000B7010008B7010008B7010008B7010008EF
:10011000B7010008B7010008B7010008B7010008DF
:1001200061170008B7010008B7010008711700083F
:10013000B7010008B7010008B7010008B7010008BF
:10014000B7010008B7010008B7010008B7010008AF
:10015000B7010008B7010008B7010008B70100089F
:10016000B7010008B7010008B7010008B70100088F
:10017000B7010008B7010008B7010008000000003F
:10018000B7010008B7010008DFF80CD000F052FBFF
:10019000004800476B6C0108B0BA00200648804751
:1001A00006480047FEE7FEE7FEE7FEE7FEE7FEE75C
:1001B000FEE7FEE7FEE7FEE78DC5000889010008BF
:1001C00010B5431A934209D28318881803E010F837
:1001D000011D03F8011D521EF9D210BD40EA0103B2
:1001E0009B0703D009E008C9121F08C0042AFAD2ED
:1001F00003E011F8013B00F8013B521EF9D210BD9B
:10020000D2B201E000F8012B491EFBD27047002258
:10021000F6E710B513460A4604461946FFF7F0FF05
:10022000204610BD421C10F8011B0029FBD1801A8A
:10023000704730B504460020034600E05B1C934243
:1002400003D2E05CCD5C401BF8D030BD034611F812
:10025000012B00F8012B002AF9D1184670472DE92F
:10026000FE4F804681EA0300C00F0C46009021F04B
:10027000004123F00045B8EB0200A94105D24046F9
:10028000214690461C460B46024623F00040104390
:1002900047D0270DC7F30A00C3F30A510290401A52
:1002A000019040286BDAC3F3130040F4801B0098E0
:1002B000924620B10023D2EB030A63EB0B0B0198AB
:1002C0005946C0F14002504600F0EEF906460D4690
:1002D00050465946019A00F006FA10EB08006141B9
:1002E000002487EA115284EAE7731A4340D0009A47
:1002F00062B3019A012A4FEA075215DC001B61EB39
:1003000002014FF0004202EA0752CDE90042001C10
:1003100041F5801132462B4600F03DFA03B0BDE8AE
:10032000F08F40462146F9E7001B61EB0201001CFB
:1003300041F5801300185B412018A2F5001747EB28
:10034000030140EAD570B6196D4111E06D084FEA1E
:10035000360645EAC0754FEA0752001B61EB020101
:10036000001C41F5801149084FEA30000019514145
:1003700032462B4603B0BDE8F04F00F0FDB90098BF
:10038000012240000023D0EB020263EBE0730098EF
:1003900021464FEAE074B8EB000061EB0401E9E7A5
:1003A00083F000435BE781F0004158E72DE9FE4F01
:1003B00081EA030404F0004421F0004100944FF06E
:1003C000000B23F0004350EA01045ED052EA03041C
:1003D0005BD0C3F30A54C1F30A552C44A4F2F3349E
:1003E0000194A0FB0254C1F3130141F48011C3F343
:1003F000130343F4801301FB024400FB034E840A01
:10040000970A44EA815447EA8357A4FB0768029598
:100410008D0A05FB07854FEA932C04FB0C54270536
:10042000029D4FEA065847EA1637B5EB08056EEB12
:10043000070C870E920E47EA811742EA8312A7FB48
:100440000201B6EB0B0164EB00042B0D43EA0C3305
:100450005E1844EB1C50DA465146E7FB0201C5F337
:1004600013044FEA0B3343EA14534FEA0432019C5E
:1004700043EA0603A4F10C040294009CCDE900B405
:1004800000F089F903B0BDE8F08F00200146F9E7DC
:100490002DE9F04D81EA030404F0004B21F0004502
:1004A00014464FF0000A23F0004150EA050220D024
:1004B00054EA01021DD0C5F30A570246C5F31303DF
:1004C000C1F31300C1F30A5640F4801543F48013BE
:1004D000A7EB0608101BD64608F2FD3873EB0500A3
:1004E00002D308F1010801E092185B41B8F1000F56
:1004F00003DA00200146BDE8F08D00204FF48011A2
:10050000064684460EE0171B73EB050705D3121B46
:1005100063EB050306434CEA010C49084FEA30003F
:1005200092185B4150EA0107EDD152EA030012D064
:1005300082EA040083EA0501084305D0101BAB41A1
:1005400006D20122002306E000224FF0004302E021
:100550006FF0010253101AEB06004CEB085110EB40
:100560000A0041EB0B01BDE8F04D00F005B90EB5F6
:10057000C10F80EAE0700844CA07002140F233430B
:100580008DE80E000A460B4600F005F903B000BDE9
:100590000EB540F2334102910021CDE900110A4627
:1005A0000B4600F0F8F803B000BD70B5C1F30A5275
:1005B00001F000450024C1F3130140F2FF3341F480
:1005C00080119A4201DA002070BD40F233439A4212
:1005D000A2F2334203DC524200F075F800E0904092
:1005E0002C43F1D0404270BD00F0004230F000409A
:1005F0000AD0C10D01F56071C0F3160042EA015145
:10060000C2084007114370470020014670470000B0
:1006100030B5041E71F1000404DB4FF00044404289
:1006200064EB0101141E73F1000405DB1C464FF05E
:100630000043524263EB04038B4208BF824230BD49
:1006400030B5041E71F1000404DB4FF00044404259
:1006500064EB0101141E73F1000405DB1C464FF02E
:100660000043524263EB0403994208BF904230BDFD
:1006700001F0004330B421F0004150EA010206D0FD
:100680000A0DA2F56072C1F31301002A02DC30BC2E
:1006900000207047440F44EAC104C100E01830BC98
:1006A00000EBC25000F031B8202A04DB203A00FAF7
:1006B00002F1002070479140C2F1200320FA03F3B9
:1006C000194390407047202A04DB203A21FA02F0B7
:1006D0000021704721FA02F3D040C2F1200291407C
:1006E000084319467047202A06DBCB17203A41FA07
:1006F00002F043EAE07306E041FA02F3D040C2F1AF
:10070000200291400843194670470029A8BF70474E
:10071000401C490008BF20F00100704710B4B0FA37
:1007200080FC00FA0CF050EA010404BF10BC7047D2
:1007300049B1CCF1200421FA04F411FA0CF118BFEC
:10074000012121430843A3EB0C01CB1D4FEA0061BB
:100750004FEA102042BF002010BC704700EBC3508E
:1007600010440029A4BF10BC7047401C490008BFBA
:1007700020F0010010BC704710B5141E73F1000486
:1007800008DA401C41F1000192185B411A4301D183
:1007900020F0010010BD2DE9F04D92469B4611B1AD
:1007A000B1FA81F202E0B0FA80F220329046FFF70F
:1007B0007BFF04460F4640EA0A0041EA0B0153461C
:1007C0005A46084313D0114653EA010019D0C8F124
:1007D00040025046FFF777FF05460E465046594601
:1007E0004246FFF761FF084305D0012004E02046A0
:1007F0003946BDE8F08D0020054346EAE0762C43FB
:1008000037430A986305E40AA0EB08000022FD0ABA
:1008100044EA47540A3002D500200146E9E70105C1
:1008200010196941DDE9084500196941BDE8F04D3D
:10083000A2E70000064C074D06E0E06840F0010327
:1008400094E8070098471034AC42F6D3FFF7A0FCB9
:1008500080C40108A0C4010870B58C1810F8015BB1
:1008600015F0070301D110F8013B2A1106D110F849
:10087000012B03E010F8016B01F8016B5B1EF9D14D
:100880002B0705D40023521E0DD401F8013BFAE7D3
:1008900010F8013BCB1A921C03E013F8015B01F83E
:1008A000015B521EF9D5A142D8D3002070BD0000D3
:1008B0005A49096821F44031594AC2F804131146D3
:1008C000D1F8041342681143544A11600168496821
:1008D00021F480710268516001684A68016942EA46
:1008E0000121026851600168496821F04071026885
:1008F000516001684968826811430268516001686B
:10090000896821F400610268916001688968C268A1
:10091000114302689160434A816A914218D001688C
:10092000896821F070610268916001688968826A53
:100930001143026891600168896821F040510268A2
:10094000916001688968C26A1143026891600BE096
:100950000168896821F070610268916001688968A6
:1009600021F04051026891600168896821F002011C
:100970000268916001688A68816942EA41010268FF
:100980009160016AD1B10168496841F4006102686F
:1009900051600168496821F4604102685160016852
:1009A0004A68416A491E4FF4604393FAA3F3B3FACD
:1009B00083F399400A4301684A6005E00168496889
:1009C00021F40061026851600168C96A21F4700174
:1009D0000268D1620168CA6A818B491E42EA0151EC
:1009E0000268D1620168896821F40071026891602F
:1009F00001688A68016B42EA4121026891600168DE
:100A0000896821F480610268916001688A6841699F
:100A100042EA81210268916070470000042301408E
:100A2000002001400100000F002800DC4042704718
:100A300000B5E5204FF0D841088047F6F000B349F3
:100A4000088001204FF0D84108800002A1F87E0004
:100A5000022008804FF4E060AC49088003204FF08A
:100A6000D841088041F23000A849088004204FF0A6
:100A7000D84108800020A549088008204FF0D841BF
:100A8000088040F20220A149088009204FF0D84197
:100A9000088000209D4908800A204FF0D841088036
:100AA00000209A4908800C204FF0D841088000208F
:100AB000964908800D204FF0D841088000209349C6
:100AC00008800F204FF0D841088000208F4908800F
:100AD00010204FF0D841088000208C490880112058
:100AE0004FF0D841088007208849088012204FF035
:100AF000D841088000208549088013204FF0D84154
:100B0000088000208149088007204FF0D8410880E4
:100B100000207E49088010204FF0D841088041F223
:100B200090607A49088011204FF0D841088040F247
:100B300027207649088012204FF0D84108809D2058
:100B40007249088013204FF0D84108804FF4C850F4
:100B50006E49088029204FF0D841088025206B4934
:100B600008802B204FF0D84108800D20674908806D
:100B700030204FF0D8410880072064490880312098
:100B80004FF0D841088040F203306049088032209D
:100B90004FF0D841088003205C49088035204FF091
:100BA000D841088040F20620584908803620410686
:100BB000088008205549088037204FF0D841088028
:100BC00040F206405149088038204FF0D841088053
:100BD0004FF441704D49088039204FF0D8410880CA
:100BE00007204A4908803C204FF0D841088040F255
:100BF0000260464908803D204FF0D8410880082017
:100C00004249088050204FF0D841088000203F49D9
:100C1000088051204FF0D8410880EF203B490880E0
:100C200052204FF0D84108800020384908805320D6
:100C30004FF0D841088040F23F10344908806020CE
:100C40004FF0D84108804FF4274030490880612098
:100C50004FF0D841088001202C4908806A204FF0CD
:100C6000D841088000202949088080204FF0D841D1
:100C7000088000202549088081204FF0D841088055
:100C800000202249088082204FF0D84108800020AF
:100C90001E49088083204FF0D841088000201B495E
:100CA000088084204FF0D841088000201749088030
:100CB00085204FF0D84108800020144908809020FA
:100CC0004FF0D841088010201049088092204FF042
:100CD000D84108804FF4C0600C49088007204FF0CD
:100CE000D841088040F233100849088000204FF0B6
:100CF000D84108802220A1F87E0000F00BF80448BB
:100D0000006840F400400249086000BD7E00006CAD
:100D100014040240002040F0100040F480500321F1
:100D20004FF0D84211800149088070477E00006C66
:100D300000B59DB0002005F0E3FF6FF07F400CF0A0
:100D400069FA6FF07F400DF0C3FA1C480AF004FE08
:100D50001B4802F033FE19480AF0FEFD194800F066
:100D6000A9FA194800F0B2FB184800F0D7FD18485E
:100D70000BF030F917480BF0F7FA174808F03AFE75
:100D800016480AF0BFFE0AF0B9FB1549486000F0AA
:100D9000EBFB13498860002000F0D6FB702211495C
:100DA0006846FFF70DFA0F480C380EC800200AF00D
:100DB000CAFE05F01DF91DB000BD0000D5B8000841
:100DC00095350008E90F0008DD13000871180008C8
:100DD00021BE0008F1C10008B59900084DBA00080D
:100DE000A86C00208C7700200C48006840F400506C
:100DF0000A4908600A48006840F001000849086094
:100E00000848006840F4006006490860044800682B
:100E100040F00100024908607047000014080240D9
:100E2000140402401414024038B5456804460146D3
:100E300028460BF037FF00282BD02068304A1128B5
:100E40000DD006DC0B2825D00E2833D00F2852D128
:100E500012E0282849D0B0F5107F4CD108E0926804
:100E6000002A16D02146284601B0BDE83040104780
:100E7000214628465268F7E7284604F06DF90090AD
:100E8000406E0468684604F0B1F9002C01D0284691
:100E9000A04738BD284604F05FF90090683004F0A0
:100EA000ADF8009803216C3004F0B0F8684604F007
:100EB0009DF920E0E168486809680D2902D02029E1
:100EC00013D105E0002810DD284612F0BBFD06E036
:100ED000002804DD2846BDE8384012F0B3BD28469E
:100EE000BDE83840022112F0C3BDE06818B9002106
:100EF000284600F004FA2046BDE838400CF0C0BA9D
:100F0000900200202DE9FF410AAF97E8700000270A
:100F100003958DE8D00000F003F804B0BDE8F0813F
:100F2000F0B585B00DF1280C9CE8F0004FF0000CF6
:100F30008DE8F01000F024F805B0F0BDF0B50446DF
:100F400085B08069B4F90850668A0027CDE902654A
:100F5000CDE900170490B4F90C00B4F91060C11881
:100F6000B4F90A00B4F90E50104433462A4600F092
:100F700007F80546616800F0E1F905B02846F0BDC4
:100F8000F0B585B00C46DDE90D51DFF854C04C31A9
:100F9000DDE90A67CDE902C12146CDE900670CF021
:100FA000C1F9040018D004F0D7F8102229460490A3
:100FB0000CF034F8049830220A493430FFF700F975
:100FC000084D04990C3D2868486604A804F00EF901
:100FD000286841682046884705B02046F0BD0000DB
:100FE000290E00089C020020F0B5044680688B4959
:100FF00089B051F82050606800287DD0052804D0C1
:1010000006287AD0122879D1AEE0E86900284FD0BE
:1010100095E80E008DE80F0004F110010FC906F0ED
:10102000E9FD002655F8260005F08CFEA169E86967
:101030000A1A216901446069304404F0DBFEA169A9
:10104000E8690A1A21690144E069801B04F0D2FEB4
:10105000E169E8690A1A616901442069304404F0D1
:1010600069FFE169E8690A1A61690144A069801BA6
:1010700004F060FF761C022ED4DBA86805F062FE47
:10108000E069E9696669431A206942183144801CA5
:10109000521E04F0CFFFE169E869A2690B1A616989
:1010A0000144101A401C921E04F0C4FFEE6913E0C4
:1010B0005FF0000655F8260005F044FEE069831B4A
:1010C000A069821B606981192069304404F0F4FE34
:1010D000761C022EEEDB0226D5E90301CDE90001E4
:1010E0006169E06908444310A069891C821B20697A
:1010F000304404F04BFE02E089E012E08AE0D5E9DA
:101100000501CDE90001E36960690121184401EBA3
:101110006001A0699B1E821B2069304404F036FEEA
:1011200078E0206804F018F8049020680DF0BCFC0A
:1011300040B1A06808B1002008E00498006F28B111
:10114000012003E00498406F00B10220049901EBF4
:101150008000C56E04A804F049F800231A4628460A
:10116000216804F04DFB55E0206803F0F5FF049082
:10117000866EEEB3B0F95C70A168D1B3032942D09A
:101180005FF0000100EB8101406D0C6C05F0E4FDA7
:10119000204605F0D7FD05A804F0ECFFBDF81410BB
:1011A000A88B0144ADF81410BDF81810081AADF85A
:1011B0001800BDF81600801CADF81600BDF81A0026
:1011C000801EADF81A000498B0F96020B0F95E10E6
:1011D00005A805F0C7FC04A804F008F8022005F0F3
:1011E000FDFD304603F0B8FF3A4605A9079001E03F
:1011F0000BE006E004F02EFC0DF11C0003F0F6FFFE
:1012000008E00121BEE70221BCE704A8F6E7206858
:101210000DF0F2F809B00020F0BD00006CB4010838
:101220002DE9FC4115460E4600281DD003F094FF21
:101230000190806E002798B103F08EFF0090FEF7BA
:10124000F1FF0446681E844200DD04462246304613
:101250000099FEF7B5FF684603F0C8FF375500E078
:10126000377001A803F0C2FFBDE8FC8170B51646D7
:101270000C46054619463046049A04F08DFA02469B
:1012800021462846BDE8704000F080B8F8B5154604
:101290000C4606000DD003F05FFF0090032C02D235
:1012A00000EB84004563684603F0A0FF30460CF075
:1012B000F0FDF8BD044A0349116004494A6A4862D6
:1012C00010467047CC020020900200209C020020B3
:1012D00000294FF0100101D00BF074BD0BF0CEBC13
:1012E00038B50D46040009D003F036FF009045657F
:1012F000684603F07BFF20460CF0CBFD38BD4FF471
:1013000080720029114601D00BF05CBD0BF0B6BC19
:1013100008B50023009300F001F808BD70B516462B
:101320000C46054619463046049A04F051FA024626
:1013300021462846BDE8704000F028B82DE9FF415D
:101340000E4605004FF001041CD003F005FF01908C
:10135000876E01A8009703F049FF3146684606F002
:1013600057FF78B100980024B84208D0284603F00F
:10137000F3FE01900099816601A803F037FF28462B
:101380000CF087FD04B02046BDE8F081F8B51546A5
:101390000C46060013D003F0DFFE0090032C0BD2A6
:1013A00000EB84006C3003F029FE009800EB840011
:1013B000C56630460CF06DFD684603F017FFF8BDBA
:1013C00010B5012005F09CFC01F0BEFC04F010FEFD
:1013D000014801F06FFE10BD480000202DE9FF47D5
:1013E0000446006810B10DF05FFB68B1002231487F
:1013F00050F8221060680A2841D007DCF0B30628B4
:101400000DD0072854D106E00122F0E712280AD0B7
:1014100019284DD137E020460EF052FE48E0204614
:101420000FF02EFB44E0206803F096FE0290B0F926
:10143000548090F85650476C466B02A803F0D6FED5
:10144000206800F039F8814668460CF00FF9BDF8C5
:10145000001009EB05000844ADF80000246A30468E
:1014600005F07AFC022005F0B9FC384605F06AFC6C
:1014700042466946204604F0EDFA19E007E02046AE
:101480000FF0BAFE14E0886904B0BDE8F087206868
:101490000CF0B2FF206803F05FFE0390B0F9061075
:1014A000B0F90220891A491CC16703A803F09EFE07
:1014B0000020E9E77CB4010838B503F04DFE009048
:1014C000C46F684603F092FE204638BD044A0349C3
:1014D00011600449CA69C86110467047580300206A
:1014E000A0070020A407002000B589B02421684689
:1014F000FEF78DFE1920019003480068806841685E
:101500006846884709B000BDA007002000B59DB01F
:101510000B48007801280AD170220A496846FEF774
:101520004FFE08480C380EC800200AF00CFB044897
:101530008078012802D1002000F006F81DB000BD1F
:101540004D0000208C77002010B50446012C04D1FA
:10155000044988680CF0ACFF03E0024988680CF08D
:10156000DFFB10BDA86C00201CB5002000900346D6
:10157000044A05210190044804F026F80446204658
:101580001CBD000079160008F06C010870B5044617
:101590006568FF21284602F088FA3449284602F09F
:1015A00021FA0221284602F06CFA00220121284685
:1015B00001F046FE01221146284601F055FE0222A6
:1015C0000121284601F064FE1021284602F082FA2B
:1015D0004FF4987128460CF07BF8064664220021EF
:1015E0000AF0D0FE4FF4987128460CF071F80646C8
:1015F00001210AF0E3FE40F2311128460CF068F8B0
:10160000064642F2283200210AF0BCFE40F23111B7
:1016100028460CF05DF8064640F6B8310AF0CEFEDA
:101620004FF4B07128460CF053F8064610490BF001
:1016300099F84FF4B07128460CF04AF8064602219A
:101640000BF0A2F840F2611128460CF041F8064672
:1016500007490BF087F840F2611128460CF038F882
:10166000064602210BF090F870BD00009C8A01082C
:101670009CAD0108416870472DE9F0410446676858
:1016800020680E281CD00F2804D01D2806D026283C
:101690004DD127E02046FFF7EDFF4CE02046FFF755
:1016A00075FF4FF4987138460CF012F82349086022
:1016B00040F2311138460CF00BF82049C8603AE08E
:1016C000E06800680D2806D01B2809D101213846A2
:1016D00004F050FC04E00021384604F04BFC00BF4D
:1016E00000BF28E0A0680CF024F80646E56813491E
:1016F00008680AF012FE11494860C8680AF00DFE39
:101700000E490861012E02D0022E0ED106E0022DF4
:1017100003D10021384604F02DFC06E0022D03D150
:101720000021384604F026FC00BF00BF03E020463D
:101730000BF0A6FE00BF00BFBDE8F081B86C002032
:1017400010B5024807F05EF810BD0000EC0A00205A
:1017500010B5024807F056F810BD00004C0B0020F1
:1017600010B5024807F04EF810BD0000EC0900204B
:1017700010B5024807F046F810BD00004C0A0020E2
:101780000146087810381823B0FBF3F20848805C53
:10179000C865032A05D908686FF30900001D88652C
:1017A00003E008686FF309008865886D70470000E2
:1017B000B26C0108014600208A6A8B6903BB32B112
:1017C000012A0CD0022A10D0032A17D115E0CB6AC7
:1017D00003F08073B3F1807F00D101200FE0CB6A6A
:1017E000B3F1C07F00D1012009E0CB6A03F0807320
:1017F000B3F1807F00D1012001E000E000BF35E0BF
:101800008B69B3F5005F1BD132B1012A06D0022AE1
:101810000CD0032A12D10BE0012010E0CB6A03F0B8
:101820008073B3F1807F00D1012008E0012006E041
:10183000CB6AB3F1C07F00D1012000E000BF15E00A
:1018400032B1012A05D0022A04D0032A0CD103E0C8
:1018500000BF00BF012008E0CB6A03F08073B3F142
:10186000807F00D1012000E000BF00BF7047000072
:10187000F8B50546006803F06FFC0090448ED0F880
:101880008860684603F0B2FC06B1012604F001044A
:1018900028680DF009F90EB1002006E00CB1012016
:1018A00003E008B1022000E003201B4951F820109A
:1018B000686858B302280CD0052802D0122828D115
:1018C00003E028460EF028FC23E0284610F00BFA2F
:1018D0001FE06A69E8694FF0FF33801AA0F108023F
:1018E00003EB6204421CAB69001B4510A3EB6206CC
:1018F000C86905F027FA06E03219311B284604F0C2
:1019000079FA641E6D1C002CF6DA02E028680CF0EF
:1019100073FD0020F8BD000084B40108044A0349A7
:10192000116004490A6B086310467047A403002045
:10193000E0070020E407002038B50D46002403F03E
:101940000BFC0090C06B294603F0E8FC0546684696
:1019500003F04CFC1DB1284603F0FEFB0446204674
:1019600038BD2DE9FC470E465FEA000978D003F048
:10197000F3FB009090F85470D0F85880456BC46C1D
:10198000684603F033FCB8F1000F04D031464846F6
:101990004246904761E0122E18D006DC082E43D054
:1019A000102E3CD0112E06D112E0132E21D01D2E68
:1019B00043D01E2E3DD0202E4FDB17B148460EF0EF
:1019C00036F9B1B2484611F0D5FD60B3611C27E08D
:1019D0004DB3284603F0C0FB05462146019005F0B3
:1019E000D1FB4419204605F08FFB01462346012216
:1019F00010E0C5B1284603F0AFFB05462146019033
:101A000005F0C0FB4419204605F07EFB0146234645
:101A10004FF0FF3248460DF057FE01A81BE0611E53
:101A2000484600F013FB18E0BCB1611E484600F0C8
:101A30000DFB48460EF0FBF80FE0484603F08CFB28
:101A40000090012F0ED0012180F854102146484605
:101A500000F0FCFA684603F0C9FB48460CF019FA9E
:101A6000BDE8FC87002180F85410F3E7FEB5446818
:101A7000054620460DF018F80646294620460BF08C
:101A800011F9002837D028680F2830D004DC0B2843
:101A900032D00E2853D13AE0A0F58070133804D02C
:101AA000A0F580702D384AD110E020460CF050FB94
:101AB0002046002112F03BFE204603F04DFB019032
:101AC000C06F00210CF02AFB01A81DE0E86860B19E
:101AD000017A29B10168204600F0C8F8012100E030
:101AE000022120460CF059FA29E00321F9E70121EF
:101AF000204612F01CFEFEBD204603F02DFB009098
:101B0000343003F07BFA684603F070FB17E0B6B19F
:101B1000E8684168002912DD01681B290FD006DC46
:101B200009290CD00A290AD00D2904D107E021295E
:101B300005D0222903D02046FFF713FFFEBD28461B
:101B40000BF09EFCFEBDF0B587B004460DF1080C0D
:101B5000D4E90567B0F90850408A8CE8E10000201C
:101B6000CDE90010B4F90C00B4F91060C118B4F953
:101B70000A00B4F90E50104433462A4600F008F823
:101B8000050002D0618A00F024FA07B02846F0BDB3
:101B9000F0B585B00D46DDE90D640F9FDDE90AC1A2
:101BA00041F48051DFF870E0CDE900C15837CDE94C
:101BB00002E729460BF0B6FB05002AD003F0CCFA69
:101BC0001022314604900BF029FA04981C22134984
:101BD0006030FEF7F5FA0499012081F85500601C89
:101BE00000D0012081F88000002C00DC082424B201
:101BF0000C8700204887486304A8641C03F0F6FAA9
:101C00002146284611F09BFB18B928460BF06CFCC6
:101C1000002505B02846F0BD6D1A000860040020BC
:101C200000B52DED028B81B09FED0E8AA0B103F0BF
:101C300093FA009090F844100B4AD0ED120A6846CF
:101C400052F82110F8EEE00A00EE101AB8EE400A41
:101C500080EE808A03F0CAFA01B0B0EE480ABDEC0B
:101C6000028B00BD00000000FCB601082DE9F04128
:101C700086B00C46060050D003F06EFA0090406B20
:101C800098B303F069FA03900098806E05F064F849
:101C9000804630460BF049FE0746039804F0BEFA32
:101CA0000546009890F8601001F00301012916D054
:101CB00002290DD0416EC06A00680844241A641ECF
:101CC000039806F04FF90146002C0FDA002115E0C9
:101CD000781B401C00EBD070A4EB6004F0E7406E72
:101CE000791B081A241A641CEAE713E0AC4205DCED
:101CF00002462146039806F0D5F80146304600F02A
:101D0000A5F903A803F072FA404605F025F830461D
:101D10000CF0BFF8684603F069FA06B0BDE8F08140
:101D20002DE9F8431D46DDE9084916460F465FEAEE
:101D3000000840D003F010FA204900908165204946
:101D4000C1650021C0E91271E0E90F65012104724B
:101D500080F81A90017690F84470684603F046FACD
:101D600087B1284611F0D8F80546304611F0D4F86E
:101D70000CB1401C6D1C854200DD284601464046E2
:101D800000F093F8404614F0B5F8404603F0E4F94B
:101D9000009000F046F90B490978884205D1009877
:101DA000C16C4046491C00F051F9684603F01EFA28
:101DB00040460CF06EF8BDE8F883000079F10008A9
:101DC000F55E0108D80100202DE9F04190462DED87
:101DD000068B82B00E46F0EE418AB0EE60AA070094
:101DE00048D0274850F8260000EE900AB8EE608AE6
:101DF00028EE000A10EE100AFEF7F6FB9FED219B7D
:101E000053EC192BFEF72BFA41EC100B14F044FDA8
:101E100051EC100BFEF7C9FB28EE0A0A054610EE3E
:101E2000100AFEF7E1FB53EC192BFEF718FA41EC10
:101E3000100B14F031FD51EC100BFEF7B6FB28EE41
:101E4000280A044610EE100AFEF7CEFB53EC192BBD
:101E5000FEF705FA41EC100B14F01EFD51EC100BCF
:101E6000FEF7A3FBCDE90068034622462946384623
:101E7000FFF756FF02B0BDEC068BBDE8F081000015
:101E8000FCB60108000000000000E03F38B50D4638
:101E9000040009D003F060F90090856620460BF03D
:101EA000F8FF684603F0A2F938BD7CB50C46060081
:101EB0002ED003F051F90090B0F93810458FA142AF
:101EC00023D012DD406B80B103F046F9019006F09B
:101ED00049F8A04206DD2146019805F053F9019A20
:101EE0000021115401A803F081F9684603F07EF93E
:101EF000611B3046491C11F022FA304603F02CF9E0
:101F00000090048730460BF0C4FF684603F06EF97A
:101F10007CBD2DE9FC4788465FEA00094FF00006CA
:101F200055D003F019F90090B0F93850446B684669
:101F300003F05CF90027B8F1000F3ED04CB1204609
:101F400003F00AF90190FEF76DF9461C01A803F0B1
:101F50004DF9404606F006F80446A84200DD2C463E
:101F60002146404605F00EF9451CA91B484611F0D4
:101F7000B5FB08B3484603F0EFF80090406B03F060
:101F8000EBF82A4641460190FEF71AF901982844D9
:101F900000F8017C0098C464B0F938108C4205D177
:101FA00090F85410012901D1641EC46401A803F003
:101FB0001DF9684603F01AF906E00098343003F082
:101FC0001DF800984787C76448460BF062FFBDE8DC
:101FD000FC8738B50C4605000AD003F0BDF8009028
:101FE00018B1046628460BF054FF684603F0FEF86B
:101FF00038BDF8B515460C4606000ED003F0ACF817
:10200000009038B1022C05D200EB8400C566304642
:102010000BF03FFF684603F0E9F8F8BD002213F02B
:10202000E7BD38B50546406B002468B103F094F86D
:1020300000900446E96C05F0A5F8204405F064F82A
:102040000446684603F0D2F8204638BD1CB50C465D
:1020500003F082F80090406BF0B103F07DF801903E
:1020600005F080FF009991F8542002B10122002C64
:1020700000DA0024844200DD0446B1F93800801AF9
:10208000A04200DA0446C86CA04200D0CC64002014
:10209000086501A803F0AAF8684603F0A7F81CBD7C
:1020A00010B504461048406920F010000E49486100
:1020B000204601F027F80C48406940F020000A490A
:1020C0004861082014F06AFD0748406920F02000AC
:1020D00005494861082014F061FD00F0A1FE0349A4
:1020E00008600846006810BD00100240880000200B
:1020F00010B5044600203B4908603B4908600CE0ED
:102100002046FFF7CDFF3949374A126841F82200CF
:1021100035480068401C3449086033480068062888
:10212000EED300203049086035E02F480068401C9D
:102130002F49086026E02D482B49096850F82110E6
:102140002B4A126850F82200814216D927482649A6
:10215000096850F821002749086024482449096883
:1021600050F821002149204A126841F822002148F4
:1021700000681F4A126841F822001D480068401C90
:102180001B4908601A4800680628D4D3164800681E
:10219000401C15490860144800680528C5D3002074
:1021A000104908600120104908600EE00F480E49F0
:1021B000096850F821000B4909680844094908607A
:1021C00009480068401C084908600748006805285D
:1021D000ECD3044800688008064908600846006897
:1021E00010BD0000940000208C000020741C002012
:1021F0009000002098000020F0B504460F461546D8
:102200001E463946022000F0E1FC2146032000F082
:10221000DDFC3146062000F0D9FC2946072000F0FD
:10222000D5FC0F204FF0C0410880F0BD10B5002054
:10223000314908703148006800F00800002853D187
:102240002F49081F00F050FE00284DD001202A49D8
:1022500008702B48001F00682A49096888420DD978
:102260002748001F006827490968401A4FF47A710F
:10227000484325490968B0FBF1F00CE02048001FF5
:10228000006820490968081A4FF47A7148431E49CA
:102290000968B0FBF1F01D4908601948001F40684B
:1022A0001B49096888420DD91548001F4068184924
:1022B0000968401A4FF47A71484316490968B0FB1F
:1022C000F1F00CE00E48001F406811490968081A37
:1022D0004FF47A7148430F490968B0FBF1F00B499C
:1022E00048600548007810BD002008490860486033
:1022F00001480078F7E70000E0000020100C0240E1
:10230000501C00207800002070000020601C00207D
:102310007C000020740000202DE9FF4F83B081462F
:102320000E461C46DDE9117A109DDAF80000029095
:10233000DAF8040001902E4432480068007C00F076
:10234000030030B1012836D002281CD0032855D113
:1023500030E000BF207880222A41104008B1019867
:1023600000E0029803463146761C4846059A00F084
:1023700045FE681C0546082801D10025641C781E0E
:10238000071EE7D13AE000BF2078802129410840AC
:1023900028B131464846019B059A00F02FFE761C75
:1023A000681C0546082801D10025641C781E071EFC
:1023B000EAD123E000BFD9F8101088688047804632
:1023C00000BF207880212941084060B1314648464D
:1023D000059A00F011FB83468BEA08033146484614
:1023E000059A00F00BFE761C681C0546082801D1F2
:1023F0000025641C781E071EE3D100BF00BF07B094
:10240000BDE8F08FE40100202DE9FF4F81B00F46B9
:102410009846DDE90F9A98F800B00E9D0E9D2F4466
:1024200053480068007C00F0030010B102284BD133
:102430004BE0BAF1000F25D000BFC5F10300440006
:10244000C4F10601C020084100EA0B0020FA04F69E
:102450005AF82600009039467F1CDDE90030039AC7
:1024600000F0CCFD681C0546042805D1002508F1C4
:102470000100804690F800B0A9F10100B0F1000918
:10248000DBD121E000BFC5F103004400C4F1060127
:10249000C020084100EA0B0020FA04F639467F1CF0
:1024A0003346039A019800F0A9FD681C05460428EC
:1024B00005D1002508F10100804690F800B0A9F18F
:1024C0000100B0F10009DED14DE0BAF1000F26D0D5
:1024D00000BFC5F103004400C4F10601C02008415B
:1024E00000EA0B0020FA04F646B15AF826000090E4
:1024F0003946DDE90030039A00F080FD7F1C681C3E
:102500000546042805D1002508F10100804690F811
:1025100000B0A9F10100B0F10009DAD122E000BF5A
:10252000C5F103004400C4F10601C020084100EADF
:102530000B0020FA04F62EB133463946039A01986F
:1025400000F05CFD7F1C681C0546042805D10025B1
:1025500008F10100804690F800B0A9F10100B0F147
:102560000009DDD100BF00BF05B0BDE8F08F00005D
:10257000E40100202DE9F04107460D4690461C4637
:10258000069E08E0424629463846236800F036FD9C
:10259000761E6D1C241D002EF4DCBDE8F0810000C9
:1025A0002DE9FF4F81B00F469846DDE90F9A98F864
:1025B00000B00E9D0E9D2F4453480068007C00F033
:1025C000030010B102284BD14BE0BAF1000F25D027
:1025D00000BFC5F101008400C4F10401F0200841EE
:1025E00000EA0B0020FA04F65AF82600009039465B
:1025F0007F1CDDE90030039A00F000FD681C0546F1
:10260000022805D1002508F10100804690F800B0AD
:10261000A9F10100B0F10009DBD121E000BFC5F153
:1026200001008400C4F10401F020084100EA0B001D
:1026300020FA04F639467F1C3346039A019800F0CD
:10264000DDFC681C0546022805D1002508F10100C3
:10265000804690F800B0A9F10100B0F10009DED188
:102660004DE0BAF1000F26D000BFC5F10100840093
:10267000C4F10401F020084100EA0B0020FA04F63E
:1026800046B15AF8260000903946DDE90030039A39
:1026900000F0B4FC7F1C681C0546022805D100250B
:1026A00008F10100804690F800B0A9F10100B0F1F6
:1026B0000009DAD122E000BFC5F101008400C4F1B5
:1026C0000401F020084100EA0B0020FA04F62EB1C4
:1026D00033463946039A019800F090FC7F1C681C31
:1026E0000546022805D1002508F10100804690F832
:1026F00000B0A9F10100B0F10009DDD100BF00BFB9
:1027000005B0BDE8F08F0000E40100202DE9F0479E
:1027100081460F4692461C46DDE908582648006867
:10272000007C00F0030010B1022841D11EE0B8F196
:10273000000F0ED00AE0267858F826305246394667
:10274000484600F05BFC6D1E7F1C641C002DF2DC13
:102750000BE008E0237852463946484600F04EFC2C
:102760006D1E7F1C641C002DF4DC21E0B8F1000F0D
:102770000FD00BE0267836B158F82630524639464D
:10278000484600F03BFC6D1E7F1C641C002DF1DCF4
:102790000DE00AE026782EB13346524639464846C7
:1027A00000F02CFC6D1E7F1C641C002DF2DC00BFB1
:1027B00000BFBDE8F0870000E40100202DE9FF4FD5
:1027C00085B016461F46DDE916BADDE91495DDF839
:1027D0004880139808283FD006DC012809D0022839
:1027E00018D004287BD126E0102844D0202876D1A8
:1027F00067E000240BE0A2192B46CDE900B7CDF825
:1028000008A0DDE90501FFF787FD4D44641C444540
:10281000F1DB64E000240BE0A2192B46CDE900B700
:10282000CDF808A0DDE90501FFF7EEFD4D44641C7D
:102830004445F1DB53E000240BE0A2192B46CDE91F
:1028400000B7CDF808A0DDE90501FFF7A9FE4D446A
:10285000641C4445F1DB42E0002409E0A2192B4648
:10286000CDE9007ADDE90501FFF750FF4D44641C16
:102870004445F3DB33E0002420E006980190A019E2
:1028800002A9A1C1DDE9010100F096F90F204FF086
:10289000C04108800CE00398008813490880049820
:1028A000401E04900198401C01900398801C0390E6
:1028B00004980028EFDC00BF4D44641C4445DCDB79
:1028C0000DE0002408E0A2192B460097DDE9050180
:1028D000FFF750FE4D44641C4445F4DB00BF00BFCD
:1028E00009B0BDE8F08F000000001060F8B50546A3
:1028F0000E4614461F463B46224631462846009463
:1029000000F00EF8F8BDF8B506460C4617461D4611
:1029100023463A4621463046009500F001F8F8BDBE
:102920002DE9F84380460C4615461E46089F06488A
:102930000068C06B00683B4632462946009020463E
:1029400000F0CCF8BDE8F883E40100200246002046
:10295000704700000246A1F10900082813D2DFE801
:1029600000F00406080A120C0E10084870470848C8
:10297000FCE70848FAE70848F8E70848F6E7084897
:10298000F4E70848F2E70020F0E700005B300008B9
:10299000813000081D3000082D2A0008392D00085C
:1029A000292D0008BD2F000803460A4699680F2A02
:1029B0001FD2DFE802F01E080A0C0E1E1E1E1012A7
:1029C0001416181A1C00486870478868FCE7C86825
:1029D000FAE70869F8E78869F6E70020F4E70120DC
:1029E000F2E70120F0E70020EEE70020ECE700200E
:1029F000EAE74FF0FF30E7E72DE9F04107460C46E4
:102A000015462946204600F0C1F806463046BDE886
:102A1000F081826800230B804B8093895B1E1BB280
:102A20008B80138A5B1E1BB2CB80704770B5044647
:102A3000204600F009F8054600220121A06907F0B0
:102A40001DFE0543284670BD70B50446A06858B900
:102A50001C2002F0E9FAA060A56821698868804717
:102A6000064607F0F3FEA861A06808B9012070BD12
:102A70000020FCE770B5044640F2DF1340F21F323D
:102A800000210846FFF7B8FB002508E0002602E019
:102A900005490C80761CB6F5F07FF9D36D1CB5F5B1
:102AA000487FF3D370BD00000000106000B5032123
:102AB000012000F08BF800BD70B504460D462B4692
:102AC000224629462046FFF797FB02480088024924
:102AD000088070BD6C000020000010602DE9F047F8
:102AE00004460D4616461F46DDF820A03B463246FA
:102AF00029462046FFF780FBA8460AE0A14604E0ED
:102B00000649A1F800A009F10109B145F8D908F179
:102B10000108B845F2D9BDE8F08700000000106058
:102B200010B51848006840F010001649086064208D
:102B300014F03AF81348006840F02000114908608A
:102B4000642014F031F81048406920F040000E492C
:102B50004861642014F028F80B48406940F04000B8
:102B600009494861642014F01FF80648006820F005
:102B7000800004490860642014F016F8FFF796FFFF
:102B800010BD0000140C02400010024030B5044695
:102B90000D46B4F5487F02D2B5F5F07F01D3002091
:102BA00030BD2B46224629462046FFF725FB01482B
:102BB0000088F5E70000106070B504460D462B460E
:102BC000224629462046FFF717FB70BD4FF0C04351
:102BD0001880014B198070470000106010B501206B
:102BE00004F08EF840480AF015FB404808F0B4FEA7
:102BF0003F4800F0E3FE3D4808F0AEFE3D48FEF7DA
:102C000059FB3D48FEF762FC3C48FEF787FE3C4816
:102C100009F0E0F93B4809F0A7FB3B4806F0EAFE63
:102C20003A4808F06FFF08F0B9F83949086003F036
:102C3000DFF9384800F03EFA354908680BF0E8F94A
:102C40004FF42A73344A19463448006801F070FE84
:102C5000334908602E49C8683149096801F06AFDA6
:102C6000304A11682A4A10680AF032FD2D4948603E
:102C70000A469168264A10680AF02AFD2949C86068
:102C80000A461169224A10680AF022FD2549486166
:102C90000A4691691E4A10680AF01AFD2149C86166
:102CA0000A46916A1A4A10680AF012FD1D49C86264
:102CB0000A46116A164A10680AF00AFD1949486264
:102CC0000A46116B124A10680AF002FD1549486362
:102CD0000A46916B0E4A10680AF0FAFC1149C86363
:102CE00003F086F910BD000040404000D5B8000850
:102CF00095350008E90F0008DD1300087118000879
:102D000021BE0008F1C10008B59900084DBA0008BD
:102D1000A86C002048000020E06C00202801002062
:102D20001C0100203801002010B5044600220621B5
:102D3000A06907F0A3FC10BD10B5044600220521D0
:102D4000A06907F09BFC10BD10B5FFF76FFA304982
:102D5000087407F0EDF82E490968884205D907F094
:102D6000F3F82B494968884204D8002028490860B4
:102D7000486008742748006825490968884205D9D1
:102D80002448006822490968401A04E02048006885
:102D900020490968401A204908801E4840681C499B
:102DA0004968884205D91B48406819494968401A52
:102DB00004E01748406817494968401A17490880D5
:102DC0001448007A1249097C884207D112480088C9
:102DD0001E2803DC114800881E2817DD0C48007CE3
:102DE0000C4908720A48007C48B10948006808602C
:102DF000074840684860084604F06AF906E005485C
:102E000004F066F9002003490860486010BD000026
:102E1000601C0020E4000020F0000020F2000020F0
:102E200010B500201A4908701A490860184908703E
:102E300026E01848006840001649086016484069B6
:102E400040F0200014494861082013F0A7FE124802
:102E5000406920F0200010494861082013F09EFED0
:102E60000E48006800F0040028B10A48006840F0ED
:102E700001000849086006480078401C04490870B1
:102E8000034800780C28D4DB0248006810BD00001D
:102E9000810000208400002000100240100C02403D
:102EA00070B504460D46D020FFF722F90C490860A2
:102EB0009020FFF71DF90B49086009480068642855
:102EC00003D308460068642801D2002070BD04487E
:102ED000006820600348006828600120F6E70000D1
:102EE0009C000020A000002070B504460D462E492D
:102EF0002E48FFF7D5FF2E4908700846007808B91C
:102F0000002070BD2B492C48FFF7CAFF28490870E4
:102F10000846007808B90020F3E7274800682349ED
:102F20000968884206D8214801682348006814309F
:102F300081420CD31D4800681F490968884230D877
:102F40001D480168194800681430814229D2194887
:102F5000006815490968884206D813480168154871
:102F60000068143081420CD30F4800681149096889
:102F7000884216D80F4801680B4800681430814217
:102F80000FD20A4800680C490968084440082060CC
:102F9000054800680749096808444008286001207E
:102FA000AFE70020ADE70000A8000020A40000204B
:102FB000B4000020B0000020AC0000207CB5044626
:102FC0000D4616460020009001908DF804500096A2
:102FD0006A460421A06907F051FB7CBD7CB504461C
:102FE0000D461646002000900190009501966A4615
:102FF0000321A06907F042FB7CBD00002DE9F041F0
:1030000007460C4615461E460348066029462046DC
:10301000FFF752FDBDE8F0816C0000202DE9FC4176
:1030200005460E4617460020009001902846FFF7FF
:103030000BFDA86878B1AC68606908B9304600E05B
:10304000606960616660A760009601976A46072123
:10305000A86907F013FBBDE8FC81F8B504460D46EE
:10306000002000902046FFF7EFFCA06838B1A6686A
:10307000356000956A460221A06907F0FFFAF8BDA5
:103080002DE9F04105460E4617462846FFF7DCFCC1
:10309000A86818B1AC68E66027616661BDE8F08198
:1030A00004214FF0C04211800149088070470000A0
:1030B0000000106000B503465878FFF7F1FF18785C
:1030C00000F062F8187898705878187098785870EE
:1030D00000BD00000A48406940F0100008494861FE
:1030E0000846406940F0200048610846406940F0C9
:1030F000040048610846406940F02000486170477C
:103100000010024010B5044600201D4908701D48FB
:10311000406920F020001B494861002018490870D0
:1031200028E004F0800030B11648406940F0040007
:103130001449486105E01348406920F00400114932
:1031400048616006040E0F48406920F020000D49D8
:103150004861082013F022FD0A48406940F0200031
:1031600008494861082013F019FD05480078401C03
:1031700003490870024800780828D2DB10BD00001F
:10318000800000200010024005214FF0C042118055
:103190000149088070470000000010602DE9F041EF
:1031A00004460D461646324629462046FFF724FCC3
:1031B0000746216988688047804687EA08033246C7
:1031C00029462046FFF71AFFBDE8F08100BFFEE761
:1031D0002DE9F04389B0984615460F4606004FF09A
:1031E000000428D000F0B8FB0446304600F0A0FBF5
:1031F000814603A9304600F0A6FCF80706D0BDF9C9
:103200001C008221001B401B401C08E0B807BDF9D0
:103210001800284402D540F2022100E00221009665
:10322000CDE9018123461A464946FDF76BFE044667
:103230000021FEF74DF809B02046BDE8F0830000FC
:1032400010B50523FFF7C4FF0446054A0021FEF729
:103250005FF8044920460AF0AFFF204610BD000089
:10326000A1FE0008556A010810B50723FFF7B0FF5B
:103270000446054A0021FEF74BF8044920460AF0AF
:103280009BFF204610BD0000EDFF00086B6A01089F
:1032900010B50823FFF79CFF0446054A0021FEF7FE
:1032A00037F8044920460AF087FF204610BD000089
:1032B0001D000108A16A01082DE9F0470446406895
:1032C0008EB00027804601F047FF0090B0F87CA048
:1032D000D0F86890D0F88060D0F88850C06D00B108
:1032E0000768684601F082FF05E069682046884764
:1032F000002843D12D68002DF7D12068172853D01E
:103300000CDC0F283DD004DC0B2877D00D2825D10C
:103310008BE0112810D0142820D13BE0262846D07D
:1033200004DC1E2851D0202818D18AE02A2816D083
:10333000B0F5107F12D128E04046E56801F00CFF9F
:103340000290697A39B9297A012904D130F87C1FB1
:1033500041F48071018002A801F048FF75E0404609
:1033600001F0FAFE0090E16811B1C0F8841002E0AB
:10337000D0F88400E060684601F038FF0EB0BDE888
:10338000F087D7B34046B8475FE02146404610F08B
:1033900047FFF3E705A9404600F0D5FBE068069932
:1033A000016007994160E9E7C4F80C90E6E7E0683E
:1033B0000228E3D1CDF83080E0680D9027200A90F4
:1033C0000AA9A0680BF080FDD8E7E068012804D0C6
:1033D0000021404600F0EDFAD0E730460AF0AEFD9D
:1033E00068B130460AF092FF30460AF089FC98B185
:1033F0000121304609F0E6FC0EE026E02FE04846C9
:103400000AF0D2FF0646404601F0A6FE0090C0F842
:103410008060684601F0EAFE0121404600F0C9FAEA
:10342000002EABD10020E060A8E75FEA0A700CD460
:10343000E068C06848B1007A38B140460AF066FFDB
:1034400003E02146404610F030FB2146404609F09B
:1034500029FC002892D020460AF012F88EE7404658
:1034600001F07AFE0090703001F0C8FD684673E705
:10347000F0B587B0B0F908400DF10C0C0C9E8769CF
:1034800045688CE8F000448A0025CDE900150294D7
:10349000B0F90C10B0F91050B0F90E40B0F90A00B4
:1034A000194410442B46224600F002F807B0F0BD44
:1034B0002DE9F0478AB00DF14C0CDDE917849CE84A
:1034C0006006129F45F48055DFF8BCC06034CDE93A
:1034D00002C4CDE9007509F025FF04004FD001F0CA
:1034E0003BFE30224946049009F098FD04982822BA
:1034F00026493430FCF764FE0498244FC0F86480F9
:10350000A0F87C600026C0F88060C666083FC0F85E
:1035100088607968C16504A801F068FE05A92046A5
:1035200000F011FB1A4841F2827103960094CDE934
:103530000110BDF91E00BDF91A10BDF91C20431A77
:10354000BDF918005B1C121A521C09F0EBFE06466E
:103550007868416820468847204601F0FDFD0490C8
:10356000866604A801F042FE42F20400054202D140
:1035700020460AF02BF85146204600F063FA0AB0C4
:103580002046BDE8F0870000B9320008840400201E
:103590004D3E00082DE9F041044694B0006800F06B
:1035A000B7F908B1D94D01E0D84D2C356068152820
:1035B0001ED00CDC0B281FD004DC00287ED0052890
:1035C0007DD12FE10E287BD01228F9D141E11628B8
:1035D00006D0172808D0182808D01C28F0D109E0F8
:1035E000E86914B0BDE8F081286AFAE7686AF8E78C
:1035F000A86AF6E76869F4E720680B901C200C9035
:10360000206801F0A9FD0390016D0BA888470646CC
:1036100003A801F0EBFD022E0FDB95E807008DE813
:103620000700D4E904023346A16904F0B1FA206925
:103630008719A069A0EB06082CE0286803F082FB3C
:103640002169E8690A18521E606902F0D3FBA26979
:10365000E869111A491C606902F0CCFBD4E904073F
:103660007F1C394602F008FC3946A06902F004FCD0
:10367000686803F067FB20693946401C02F0FCFBD8
:10368000A0693946401E02F0F7FBA0692769A0F146
:103690000208BF1C286803F055FB424639466069A2
:1036A00002F0A8FB686803F04DFB606942463946AA
:1036B000401C02F09FFB686A022802E015E1B0E0BE
:1036C00000E10BDDA86803F03DFB61696A6A881CB4
:1036D0008B180146424638465B1E27E0296AB142F4
:1036E00026DD6069022E074600F1020801DB37443F
:1036F00001E007F10207206901DB304401E000F13D
:10370000020022693B460A444146A2F1010202F04E
:1037100091FC022E02DBA069821B01E0A269921ECD
:10372000A069E9693B46401A4146401C02F082FC10
:10373000022E02DB6069064401E06669B61CE76997
:1037400028687F1E03F0FEFA3A463146206902F0EF
:10375000F1FB3A463146A06902F0ECFBE769686884
:10376000BF1E03F0EFFA20693A463146401C02F0D2
:10377000E1FBA0693A463146401E02F0DBFBE869F6
:10378000022802DC286A022823DDA86A022802DD5A
:10379000E1690F1A01E0E769BF1EA86803F0D2FAD9
:1037A000E969022909DD20693B46421800F1020C53
:1037B00031466046521E02F03DFC286A022808DDB0
:1037C000A269E8693B46101A3146401C921E02F07D
:1037D00031FC286803F0B6FAD4E90620216902F02A
:1037E00009FB686803F0AEFAD4E906202169401E9F
:1037F000491C521E02F0FEFAA86A022811DDA169D6
:103800002669E469A1F10208271AA41EB61C7F1CD0
:10381000A86803F097FA234642463946304602F03C
:1038200009FC71E0208A00B2ADF81400A18A09B247
:10383000ADF81610228B12B2ADF81820A38B1BB274
:10384000ADF81A302C69ED68CDE9005402F09EFA0B
:103850005AE0208A298B0844ADF81400A08AADF8FC
:103860001600208B298B401AADF81800A08BADF8FC
:103870001A00206801F070FC0390006FF0B1022084
:1038800003F0ACFA039890F87C10C1F3C00100EB90
:103890008100006C03F056FA0398406B03F05CFA69
:1038A0000398006F01F058FC03990990B1F95A2070
:1038B00005A902F0CFF809A801F098FC03A801F0CF
:1038C00095FC21E0208AADF81400A08AADF816001E
:1038D000208BADF81800A08BADF81A00A86803F093
:1038E00031FA05A802F0CAFB0EE0206801F034FCB2
:1038F000039030F85A1F41F00C01018003A801F039
:1039000075FC20680AF078FD00206AE6C0040020FB
:1039100038B5002450B101F01FFC009090F87C00F5
:10392000000700D50124684601F060FC204638BD40
:1039300038B505004FF000040CD001F00DFC0090EC
:10394000C06D00218068026828469047044668469A
:1039500001F04CFC204638BD30B587B005004FF073
:1039600000040ED001A900F0EEF8284601F0F4FBA7
:103970000090B0F95440684601F038FC0CB9BDF92C
:10398000044007B0204630BD002801D00FF094BF9E
:103990007047002801D00FF0DEBF704710B504005B
:1039A00006D011F0C7FC2046BDE8104011F096BCCF
:1039B00010BD002801D011F059BD7047074A0649D3
:1039C000054B1160064A083BD16958601B68C2E983
:1039D0000630084670470000B40400208004002030
:1039E000840400202DE9FC410D46070028D001F099
:1039F000B3FB0190C16D8C6800F00CF98046019812
:103A0000456301A801F0F2FB226801213846904786
:103A10000646226803213846904705462268002161
:103A2000384690470446384600F0D9F92B463246CE
:103A300041463846009400F062F938460AF029FA07
:103A4000BDE8FC817CB50D46040019D001F084FB73
:103A50000090006F0190684601F0C8FB294601A85C
:103A600004F0D6FB00280BD0204601F075FB009037
:103A700001990167684601F0B9FB20460AF009FA8E
:103A80007CBD38B50C4605000ED001F065FB0090FA
:103A9000B0F95A10A14204D0A0F85A4028460AF0C2
:103AA000F8F9684601F0A2FB38BD38B50C460500B0
:103AB0000FD001F051FB0022009000EB8201521C5C
:103AC0000C64022AF9D3684601F090FB28460AF0FC
:103AD000E0F938BD2DE9FC470D465FEA00094FF0DB
:103AE00000042DD001F038FB0190B0F95440A542FC
:103AF00023D000F08FF8804601980121A0F854509F
:103B0000C06D856848462A68904707462A680321A1
:103B10004846904706462A68002148469047054691
:103B2000484600F05CF933463A464146484600951F
:103B300000F0E5F848460AF0ACF901A801F056FBA0
:103B40002046BDE8FC872DE9F34F85B000270C46E1
:103B5000B846059801F000FB0090C06D0121856812
:103B600005982A68904782462A680321059890475D
:103B700004902A6802210598904703902A68002142
:103B800005989047064600980AF00CFE8346009878
:103B90000AF00FFE8146009890F83210890601D590
:103BA000B0F9588000F036F805460098C06E10B1A4
:103BB00009F0CCFE074625806780A4F804A0049A8B
:103BC000ABEB020006EB0802401E2A4420813A4477
:103BD000E280039BA9EB0302521E6281A4F80CA0B1
:103BE00020827019E681401E6082684601F0FEFA6C
:103BF000B4F90C000190B4F91000029002AA01A9D6
:103C0000059800F039F80198A0810298208207B049
:103C1000BDE8F08F10B50146002091F832209206E1
:103C200007D5B1F95400002803D1486B02F01AFB04
:103C3000801C10BD70B58AB00C46054601F08CFAA8
:103C40000990C06D866809A801F0D0FA009534B1DA
:103C5000012C06D0022C0BD0032C04D10AE0182032
:103C600000E0162001907168684688470AB070BD70
:103C70001520F7E71720F5E72DE9FC4117468846A0
:103C8000044601F069FA0090C16D056868468E68C7
:103C900001F0ACFA326800212046904706462046E3
:103CA00009F01EFD27E000BF01F056FA0190B0F9BF
:103CB00000102AB2B0F90430891A9A1AB0F9023009
:103CC000A3EB2543B34210D190F82800000605D598
:103CD0003868884209DB491E396006E0D8F80000E0
:103CE000904202DC521CC8F8002001A801F07EFAC4
:103CF000204609F09EFD0400D6D1BDE8FC812DE9E7
:103D0000FF4F83B00E460746DDF8409001F024FADD
:103D10000190C16D8D68FFF77DFF044601A801F099
:103D200065FA2A6801213846904783462A680321AC
:103D30003846904782462A68002138469047054613
:103D4000B44207D105998B4504D106998A4501D122
:103D50004D4541D0A41B0026B046384609F0C0FCB2
:103D600038E001F0F9F90090806A010601D580057C
:103D700002E0810528D50006002825DB24B1224673
:103D8000114638460AF054F9009890F828000006C9
:103D90000AD50698A5EB0902A0EB0A0004FB160160
:103DA0003846761C0AF0F7F80098008D80050BD590
:103DB0000599A5EB0902ABEB010004FB080108F132
:103DC000010838460AF0E7F8684601F00FFA38466D
:103DD00009F02FFD0700C4D107B0BDE8F08F70B522
:103DE00086B0064601F0B8F90590D0E91A4505A855
:103DF00001F0FCF954EA050026D069463046FFF789
:103E0000A2FEACB1BDF90620BDF9041020460AF0AF
:103E100097F8BDF90A00BDF90610421ABDF908006D
:103E2000BDF90410521C411A2046491C0AF014FB2B
:103E3000002D09D0BDF90600BDF90210421ABDF9E6
:103E4000041028460AF07CF806B070BD2DE9F04356
:103E50000446406889B0054609F002FD814601F03C
:103E60007BF90290D0F84880D0F88070466E02A8A6
:103E700001F0BCF92068172853D008DC0E283AD08E
:103E80000F2811D014284CD015283DD149E01E2808
:103E90001ED01F282AD0222840D0312834D100201B
:103EA000E06009B0BDE8F0836FF07041404688459E
:103EB00003D006F0E5F901F03FFB002EF1D0D4E984
:103EC00002122068CDE90405CDE9061204A81FE01E
:103ED000E0680028E5D02FB1AF4203D038460AF0A1
:103EE00015FADEE728460AF05FFADAE72146484687
:103EF00008F0D8FED5E7E0684168002904DD0068D5
:103F00000928EFD00A2805D05EB12046C4F80490F5
:103F1000B047C6E728460AF04FFAC2E7C4F80C805B
:103F2000BFE7204609F0ACFABBE7000070B50446D5
:103F30001D460023B5F5804F13D154F822300C48AC
:103F40000340D1E9000640EA06108E6840EA0620E8
:103F50008E8940EA06408E693043034344F822309C
:103F600003E06FF0704044F82200002070BD0000B4
:103F70000000F0CF10B503460022086853F8202057
:103F800012480240D1E901042043CC6820430C6967
:103F900020434C6920438C692043CC6920430C6A40
:103FA00020434C6A20438C6A2043CC6A2043CC6B6C
:103FB00020430C6B204302438868082801D142F05B
:103FC0004002086843F82020002010BD8000F0FF68
:103FD00030B503460024501C53F8204004F0404400
:103FE000D1E9000540EA05108D6840EA05208D8979
:103FF00040EA0545088A401E45EA0055087D801EB6
:1040000045EA00608D6928430443501C43F8204072
:10401000002030BD10B52DED048B1548407800F020
:10402000C1FD0421012004F0F5F9BCEEC00A10EE38
:10403000100A104988830846808B00EE100AB8EEFB
:10404000400A10EE101A0846FCF7CEFA41EC190BA4
:104050009FED090B53EC102BFCF7A8F941EC180B62
:10406000FCF706FB03490862BDEC048B10BD0000A1
:104070004D000020100000206666666666664A3FB6
:104080002DE9F0430446C56887B090468946002074
:1040900002F060FE064625B1287910B146F0020014
:1040A00001E026F0020002F055FE2069012558B11A
:1040B000D4E902128DE826000395638822880468FB
:1040C00041464846A0471EE0124F134B2146386830
:1040D0001B68427CE068984730B9E088012801D02D
:1040E000002001E03868806BA288E388A168009511
:1040F000CDE90410CDE9023201956388228841465A
:10410000484605F0C5FC07B03046BDE8F04302F074
:1041100021BE0000E4010020DC0100201CB50024C9
:10412000019401AC009400F0E7F81CBD2DE9FF4FAD
:1041300083B0814606988A46A0EB0A08109E0020AC
:104140000090A2EB09043568934654EA080018D0A1
:104150002046FCF769FC07464046FCF765FC8742B1
:104160000BDA2046444680464846D14682465846A9
:10417000DDF818B0069001200090002C07DD2046E5
:1041800006E007B04846BDE8F04F00F04FB9604286
:10419000A0420AD04846D9466442C8F10008834686
:1041A0004FF0FF37DDF818A000E001275148B8F1C3
:1041B000000F11D004EBD4714FEA610B01DACBF19F
:1041C000000B4C480068807E88B3002F02DA30680C
:1041D0002044306000257BE000990029016821D04F
:1041E000897E11B10027804615E007B05A4649463E
:1041F0005046BDE8F04F05F0ADBD28466D1C11F0EE
:1042000013FA38B9D8F8000009EB0701406E42688C
:10421000504690477F1CA742EFDD6D1E356007B00A
:10422000BDE8F08F8A7E1AB10027804617E019E0BA
:10423000486E5A465146036807B04846BDE8F04FFD
:10424000184728466D1C11F0EFF938B9D8F800105E
:1042500009EB0700496E4A68514690477F1CA74208
:10426000EFDDDAE700250FE008FB05B090FBF4F185
:1042700001EB0A00009951B11E4A09EB05011268D1
:10428000526E526890476D1CA542EDDDC7E7194993
:1042900009EB05030968496E4A6801461846F1E7CB
:1042A00008FB05B090FBF4F101EB0A0001903068C7
:1042B0003844306011F0B8F948B9009890B10D4811
:1042C00009EB05010068406E4268019890476D1C3B
:1042D000A542E5DD3068002F01DA20443060C01BC4
:1042E00030609CE7034909EB05000968496E4A689C
:1042F0000199EBE7E40100202DE9FF470F46404913
:104300001646804609680C981D460A7E012A1CD074
:10431000A8EB0600791B50EA01031CD0A2F10109A9
:1043200012F056FB00F58060824604F042F800FB74
:1043300009F4504604F042F800FB09F1002C0CDAB5
:10434000C4F50070801240420AE0009032463946BF
:104350004046FFF7EBFEBDE8FF8704F50074A012AE
:10436000002904DAC1F5007189124C4202E001F51E
:1043700000718C12002804DD411C01EBD171491041
:1043800003E000EBD0714910401E00EBD0704210EA
:10439000002C04DD601C00EBD070401003E004EB47
:1043A000D4704010641E04EBD47308EB0104ADF824
:1043B00000403C18ADF80240A8EB02045B10B21AB2
:1043C000ADF80440ADF808203144FC1AEA1AADF803
:1043D0000C102844ADF80A20ADF80E000023ADF80B
:1043E00006401A460421684600F08EF839464046D9
:1043F0000DF092F9294630460DF08EF9ABE700003A
:10440000E4010020F8B5084E0546009230680C46DD
:104410002346B0F92810B0F926002A46FFF76CFFB2
:104420003068C5840485F8BDE4010020064A13689D
:104430001A7E012A05D0521E02EBD272521000F0F1
:1044400005B85A6E52681047E40100202DE9F05F6C
:104450000646884640F2C32002FB00F14FF47A7012
:1044600091FBF0F702FB02F102EBD27001EB600B63
:104470001446B118234A301B7F1C1268526E136811
:104480000A4641469847012538E000BF05FB05F084
:1044900004FB040159451CDDBC4219DD194B06EB38
:1044A000050AA6EB05091B68AAF1010208EB040145
:1044B0005B6E09F101001B689847124BAAF10102DB
:1044C000A8EB04011B6809F101005B6E1B689847AB
:1044D000641E0C4B3219301B1B68924608EB050119
:1044E0005B6E81461B689847064B5246A8EB050158
:1044F0001B6848465B6E1B6898476D1CBD42C5DD56
:10450000BDE8F09FE40100202DE9FF4F43F6FF7462
:104510000F46664283B09B46814600210BE000BFF8
:1045200009EB8100B0F90200A04200DA0446B04273
:1045300000DD0646491CB942F2DB67480068406965
:1045400000280DD0B0F906101A46A1EB0B01B142BC
:1045500000DA0E46B0F90200801AA04200DD0446DF
:10456000B4E0DFF878A100200546CAF8000088E032
:10457000781E854201DA6B1C00E0002309EB850CF4
:1045800009EB8302BCF90200B2F90210A04244D147
:10459000A14215D139F92330059A39F9251003EBD9
:1045A000020C4D4A05981268084404EB0B01526E48
:1045B0006045136801DA62462AE00246604627E059
:1045C0002846A4464FF000087A1E0BE008B1401EB2
:1045D00000E0781E09EB8003B3F90230634504D193
:1045E00008F101089045F1DB2346A34248D01A1B8D
:1045F00039F92500A1EB040C059B92EA0C0F09D4B4
:10460000354A184404EB0B011268526E13680246D7
:10461000984735E00AF04EFD32E0A14230D001DB90
:10462000A04203DDA0422BDBA14229DCE046884208
:104630000ADC0346A04223DC0846A14220DBB8F98D
:1046400000C0B2F9001008E00B46A14218DCA042FD
:1046500016DBB2F900C0B8F90010E21AA1EB0C01A8
:1046600051430029A0EB030202DD01EB620102E0ED
:10467000A1EB6201491CC01A91FBF0F06044C9E74C
:104680006D1CBD42FFF674AF0598009004EB0B0063
:10469000019000208046054613E01149B8F1000F53
:1046A00031F915A009D0009901EB0A0208440A4922
:1046B0000968496E0B680199984788F001085046CF
:1046C0006D1C064909688D42E7DB641CB4427FF724
:1046D00048AF07B0BDE8F08FE4010020F8080020E3
:1046E0007C7A0020024A1268D0841185704700004D
:1046F000E401002010B5002002F022FB6FF07F40A3
:1047000002F020FB012002F057FB002002F05CFBCE
:10471000002002F063FB002002F01CFB044800684C
:1047200002F01AFBBDE81040002002F021BB00009F
:10473000E001002033B583B0040016D000F00CFD7A
:104740000190456E01A800F051FD049800F004FDB1
:1047500000908460684600F049FD042204A92846C0
:1047600000F068FD204609F094FB05B030BD33B57C
:1047700083B0040016D000F0EFFC0190856E01A814
:1047800000F034FD049800F0E7FC00908460684677
:1047900000F02CFD042204A9284600F04BFD204621
:1047A00009F077FB05B030BD2DE9F0410446002546
:1047B000D4E90007B0F5407F00D1012521463846F5
:1047C00008F070FA064615B138460FF00EF8002EC4
:1047D0002FD02068052806D00B280ED00F2806D031
:1047E000262821D10EE038460EF0FFFF1CE03846A7
:1047F000E168BDE8F0410FF053BA3846BDE8F0413A
:104800000FF082B9E06805280ED1384609F04DF85E
:10481000A168884205D0384609F03EF8A168884270
:1048200002D160680FF0ACFC2046BDE8F04108F012
:1048300027BEBDE8F081F0B585B0B0F90850468AD2
:1048400084690296CDE903540027CDE90017B0F939
:104850000C10B0F91050B0F90E40B0F90A0019442C
:1048600010442B46224600F003F805B0F0BD0000CE
:104870002DE9F04186B00DF1300CDDE90F849CE8A4
:10488000E0006C34DFF850C003948DE8601008F04D
:1048900049FD04001BD000F00AFD054600F007FDAD
:1048A0000646204600F058FC0490C0E91956002244
:1048B000414608F0B3FB0498302208493430FBF736
:1048C0007FFC0498A0F8787004A800F08FFC06B074
:1048D0002046BDE8F0810000A94700081805002027
:1048E0001CB50C46002812D000F036FC0090406A3F
:1048F00000F032FC0146019004232246009800F0AB
:10490000EBF801A800F072FC684600F06FFC1CBDDB
:1049100008B500280AD000F01FFC002100900161BA
:10492000806809F0B6FA684600F060FC08BD000037
:104930002DE9F043814685B01D4690460F46342050
:1049400000F019FB060029D0B80000F014FB0400A9
:104950000ED0B8F1000F0BD055B1204600F0FCFB93
:10496000AA0041460090FBF72BFC684600F03EFC95
:10497000304600F0F1FB02900121446280F82D10D6
:104980000522826280F82C10064902C0064940F8D0
:104990000C1B80E8A00202A800F028FC05B03046FD
:1049A000BDE8F0834D3E0108993B01082DE9F8432D
:1049B0000746984615460E46302000F0DCFA040003
:1049C00015D000F0C9FB0090C0E905768584094A3E
:1049D000B7EE000AC0F81C8080ED0A0AD2E9001286
:1049E000C0E9031204490160684600F0FFFB20465D
:1049F000BDE8F88348050020793F010838B50D4629
:104A0000002460B100F0A8FB0090C468AC4203D061
:104A1000C560806809F03DFA684600F0E7FB204673
:104A200038BDF8B50D4606004FF000040CD000F07C
:104A300093FB0090846CAC4203D08564304609F04F
:104A400028FA684600F0D2FB2046F8BDF8B50D46BE
:104A500006004FF0000416D000F07EFB0090B0F886
:104A6000781011F0010403D055B921F0010102E0E2
:104A700035B141F00101A0F87810304609F009FA8B
:104A8000684600F0B3FB2046F8BDF8B50D460600B9
:104A90004FF000040ED000F05FFB009090F86C40E7
:104AA000AC4204D080F86C50304609F0F2F9684608
:104AB00000F09CFB2046F8BD38B50D4604000AD036
:104AC00000F04AFB0090C0F89450684600F08EFB5E
:104AD000204609F0DEF938BD2DE9F0410446806832
:104AE0001D4617460E46002826D0D4E904029042FF
:104AF0000ED1521E6A4371193046FBF761FB2069E3
:104B00002A46401E05FB00603946FBF759FB0EE0C4
:104B100005FB0013401C20612A4639461846FBF766
:104B20004FFBE16819B12046BDE8F0410847A06895
:104B3000BDE8F04100F002B8BDE8F08110B58AB0E0
:104B4000044600F009FB09A904AACDE9002105AB40
:104B5000089006AA07A90EF0DEFA08A800F046FBA6
:104B600002A9204608F002FEBDF808000799084493
:104B7000ADF80800BDF80A0006990844ADF80A002F
:104B8000BDF80C000599401AADF80C00BDF80E00F8
:104B90000499401AADF80E0002A9204609F03EF92A
:104BA0000AB010BD10B52B4807F02BFC29498868C6
:104BB000FBF7DDFC284AC2E9020126490869FBF738
:104BC000D6FC254AC2E904014FF42A71234806F0B5
:104BD000B3FC00B910BD22480068FFF799FE002021
:104BE000204908600DE01D481E4A126800EB820152
:104BF0001B480068FFF774FE1A480068401C1949FA
:104C000008601548006B174909688842EBD81649B7
:104C1000486809F03EF91449C86809F03AF91249A0
:104C2000486909F036F91049C86909F032F90E49A6
:104C3000C86A09F02EF90C49486A09F02AF90A49AC
:104C4000486B09F026F90849C86B09F022F900BF42
:104C5000C0E70000B86C002010000020E06C0020CD
:104C60001C01002030010020380100202DE9F04F08
:104C7000DFF828B191B04FF0FF35DBF80030B3F921
:104C800022100691DE69B3F92490F469A18981426A
:104C900006D8E289824203D3471AD4F8008012E092
:104CA000D4E9018100296FD00A8882426CD84D88EE
:104CB000854269D3801A82B2486800EB8200B0F95D
:104CC0000070B0F90250781C5ED0307EA17C10FBE1
:104CD00001FA217CCDE90701B3F92A60304605F0DD
:104CE00019FBC0B20E90DBF8000007FB0A81A37C21
:104CF000826B0127CDE90412CDE90273C069089ADD
:104D0000C17E807ECDE90001DDE90603494604F05D
:104D1000BFFE681C18D046F0020005F0FBFADBF875
:104D20000000A37C05FB0A81826BCDE90273CDE90B
:104D30000412C069089AC17E807ECDE90001DDE9D8
:104D40000603494604F0A4FEDBF800005D46C06996
:104D5000417E007E814214D9022E12D086F00400DA
:104D600005F0D8FA2868C069027EC37E12FB039161
:104D7000437E857E089A06984B4412FB050205F097
:104D800013F80E9805F0C6FADBF80000627C418C3F
:104D90001144418411B0BDE8F08F0000E40100200F
:104DA00004480068C069C06909B1027C0A60407C9F
:104DB00070470000E4010020022008807047C069AD
:104DC00082898A4202D8C2898A4210D2806880B120
:104DD00002888A420DD843888B420AD3406800EB90
:104DE0008100A0EB8200B0F90000002801DB012067
:104DF00070470020704700002DE9F043304C034617
:104E000087B020681946B0F92A60C069C06900F00F
:104E100086F8002850D041680088181A01EBC005B8
:104E20003046AF7805F076FA814620686A6801233B
:104E3000816BCDE90237CDE90421C169CB7E8A7E41
:104E4000CDE900230B7EB0F924102A78B0F92200B6
:104E500004F01EFE2068C069417E027E91421FD987
:104E6000C07E11FB00F812FB00F7022E18D001F0F3
:104E700086F9064601F066F901F064FF21682A7898
:104E8000CB69B1F92200DB7E12FB0302B1F92410D9
:104E900001EB0803394404F087FF304601F052FF6C
:104EA000484605F037FA20686A78C369B0F92210DD
:104EB0009B7E12FB0311418407B0BDE8F083000024
:104EC000E401002030B50F4C05460B46206829460A
:104ED000C069C06900F023F8002812D0416800883A
:104EE00024682A1A0120E46900EBC200085CA47E51
:104EF00010FB04F0002B04D011F8321011FB04F168
:104F0000196030BDE401002001200880704700B521
:104F1000C06900F004F8002800D0012000BD06E0C0
:104F200002888A4202D842888A4202D280680028D7
:104F3000F6D17047F8B505460C000DD0084600F0D4
:104F400015F8060010D000F007F9224600902DB1A8
:104F50002946FBF735F904E00020F8BD002103F0F5
:104F6000C8F9684600F042F93046F8BD002801D083
:104F70000AF0BAB9704738B50546FFF7F7FF0400E5
:104F800009D000F0E9F82A460021009003F0B1F9B9
:104F9000684600F02BF9204638BD0000024A106038
:104FA00021F0030050607047BC78002010B5002845
:104FB00014D004460A48406B10F8341000290DD074
:104FC00002290BD2042101EBC401415848680AF0C0
:104FD0008DF82046BDE8104010F0BAB810BD0000B2
:104FE000FC770020002805D0034AD16B016001B195
:104FF0004860D06370470000FC77002010B504467D
:105000000068FFF7D3FF0020206010BD70B50D468B
:105010000646002405E000BF06EB8400FFF7EEFF24
:10502000641CAC42F8DB70BD2DE9F04104460EF083
:105030004DFA2848E41C24F00305016C2D1DA942FB
:1050400000D90D46C46B13E054F8042CAA420ED1CB
:1050500084B1216809B162684A60616809B1226857
:105060000A60C26BA24231D12168C1632EE024687C
:10507000002CE9D18046816BC0680F1857F8040CEA
:105080003E1A306838B1002010F0D8F857F8040CF8
:105090003E1A3068D0B97068A84217DB3044441B10
:1050A0003046241D10F082F8D8F80C10491BC8F8BF
:1050B0000C10D8F814102944C8F814107068401B5C
:1050C00002D031460AF012F844F8045C2046BDE8EC
:1050D000F0810000FC77002010B500240EF0F6F9F6
:1050E0000C490F2001EBC002526C1AB101EBC00059
:1050F000406C08E0401EF5D508E04168A14200D9A7
:105100000C46806810B180680028F6D1A4F10C002C
:1051100010BD0000FC770020034800680C38002810
:1051200000DC002070470000FC7700200248C168C6
:105130000068081A70470000FC770020002138B191
:105140000449042202EBC000496B085841680C393D
:1051500008467047FC7700200549CA69521CCA619D
:10516000496B01EBC0010A78521C0A7000F056B876
:10517000FC7700207CB506460C460846FFF7F6FE95
:1051800005001CD0DEB13046FFF7D8FFA04200DAA0
:1051900004462846FFF7E0FF00903046FFF7DCFFAB
:1051A0000146019022460098FBF70AF8684600F095
:1051B0001DF801A800F01AF83046FFF7F7FE284660
:1051C0007CBD000010B5FFF787FF64220649B0F5EB
:1051D000800F04D990FBF2F0096A484310BD096AB8
:1051E0004143B1FBF2F010BDFC7700200A49026890
:1051F0004B6B52F8082C03EBC2021378022B03D33B
:10520000CB690BB15B1ECB611178491E1170002177
:105210000160084670470000FC770020002806D097
:105220000349042202EBC000496B0858083070475C
:10523000FC7700202DE9FC414FF000060B465FEAA9
:10524000000834462BD032B111461846FFF772FEE3
:10525000060000D101244046FFF77EFF009007883A
:1052600045686846FFF7C2FFCCB9B9002846091D5A
:10527000FFF780FF050015D0FFF76EFF019040F8A3
:10528000276001A8FFF7B2FF4046FFF765FF0090D7
:1052900045600188491C01806846FFF7A7FF20464A
:1052A000BDE8FC813046FFF781FE0124F7E70820C6
:1052B000FFF761BE7CB5050023D0FFF74DFF0090DE
:1052C0004068C0B1FFF748FF0024019005E0019855
:1052D00000EB8400FFF792FE641C00980088A04257
:1052E000F5DC01A8FFF782FF0098001DFFF786FE9E
:1052F0000099002008806846FFF778FF2846FFF7EE
:1053000055FE7CBD38B5002430B1FFF725FF009075
:1053100004886846FFF76AFF204638BD38B50D4659
:10532000002448B1FFF718FF2946009000F016F856
:1053300004466846FFF75AFF204638BD38B50D468B
:10534000002448B1FFF708FF2946009000F018F844
:1053500004466846FFF74AFF204638BD38B50D467B
:1053600001880024A94209D9406838B1FFF7F4FE4A
:10537000009050F825406846FFF738FF204638BDBA
:1053800010B50024FFF7EAFF10B1FFF7E5FE044671
:10539000204610BD70B50C46054600F0E5FFC1B2D1
:1053A00023462846BDE87040002200F001B8000006
:1053B000F0B52D271C68B0F1004F08D0002600285A
:1053C0000DDA651C1D6027704042012408E0651C51
:1053D00001261D606FF000402770491E01E0002487
:1053E000091BC9B22AB3491EC9B222E00C46491EA4
:1053F000C9B2944205D1124C27781C68651C1D6007
:105400002770104C54F8215090FBF5F4E4B20A2CAC
:1054100011D804FB150011B90EB1641CE4B20A2CBA
:1054200002D10124491CC9B21D686F1C30341F60B1
:105430002C700029DAD1196800200870F0BD000036
:10544000D8010020FCB6010810B5136808290DD852
:105450005C18146000222270054A04E000F00F047A
:105460000009145D5C54491EC9B2F7D210BD00009A
:105470002CC2010810B5002807DD0A682B24531C34
:105480000B601470096800220A7010BD70B50646E2
:105490000D461446104600F079FE0300164804EB52
:1054A00084010AD050F8210041688068711A2A1AD4
:1054B000BDE87040184601F059BC00EB8104A268B9
:1054C000B24201D0012200E00022E368AB4201D0E9
:1054D000012300E000231A430CD0236943B150F8A4
:1054E0002100816840686A1A311A184601F0F0FB01
:1054F000C4E9026570BD00003879002010B5C2B261
:10550000CBB2D21A00D5524293B25B43C0F307220A
:10551000C1F30724121B00D55242000C92B2A0EB3B
:10552000114002FB023200B2002801DA404200B210
:1055300080B200FB002010BD10B50021084600F02D
:10554000A7FE43F6FF725042BDE8104013460146E5
:10555000AFF300802DE9FC4107461C4615460E4678
:10556000042004F0D7FE80461148C068C16C006D6D
:105570000F4406440D440444ADF80070ADF80450E7
:10558000ADF80260ADF80640684609F019F907E089
:1055900023462A463146384604F006FC09F0C4F892
:1055A0000028F5D1404604F0B5FEBDE8FC810000BE
:1055B000D8010020B0F90630B0F90420B0F902108B
:1055C000B0F90000FFF7C6BF2DE9F8431C00DDE984
:1055D000089816460F46054602D108F063F80446BF
:1055E00000962E6843464A4621462846B0470600A4
:1055F00035D008F04BF88146698A304607F0E2FB67
:10560000304608F055FF484608F052FF4FF00008BA
:105610000CE000BFCDF8008055F81CCF00231A46DF
:1056200049462846E047E0B108F042FF7F1E002FC0
:10563000F0DC1D21484608F0AEFD601C0ED008F0DD
:1056400061F830B1FFF7EAFD8469B44201D020006F
:10565000F8D1B44202D0304608F0A6FE3046BDE88C
:10566000F883304607F040FF0020F8E72DE9F041CD
:105670001C4616460D460746022B02DB0020BDE8FD
:10568000F0811C20FFF7D0FC0028F8D00DB1056197
:105690000AE0094A52F8241009B905E011460A68DF
:1056A000002AFBD1096901618461868200210160C1
:1056B0004160C0E90217E2E7FC01002070B51D4619
:1056C000FFF7D4FF040009D000F00EF8E06800688E
:1056D00020B90348006800EB85008465204670BD52
:1056E000E4010020FFF77EBC70B590B38269022A06
:1056F00030DA1E4C54F8221019B944F8220032E076
:1057000019464B68002BFBD106E0CB68C5681B68C7
:105710002D68AB4203DD09680029F6D11AE0C1B15A
:10572000CB68C6681B683668B3420CD1838A012BEC
:1057300005D008E01946DB681B68AB4203DB0B6849
:10574000002BF7D129B14B6833B118604A68426029
:1057500004E0FFE7012070BD44F822004860884261
:1057600000D100210160002070BD0000FC0100207C
:1057700010F0A8BB022801DB00207047054951F852
:10578000200004E0C16809680029F6D000680028FC
:10579000F8D17047FC010020F8B516460F46050009
:1057A0004FF000040FD00C20FFF7E5FB04000AD0F7
:1057B000FFF7D2FC05490090C0E90015078146813A
:1057C0006846FFF713FD2046F8BD0000FCBF010846
:1057D000F8B5074615460E460C20FFF7CCFB040033
:1057E0000AD0FFF7B9FC05490090C0E9001706810F
:1057F00045816846FFF7FAFC2046F8BD70C10108F4
:105800002DE9F8431D461646884604000CD0FFF7E4
:10581000A3FC0090006807686846FFF7E7FC2B468A
:10582000324641462046B847BDE8F88338B5040003
:105830004FF000000AD02046FFF78EFC0090006871
:1058400045686846FFF7D2FC2046A84738BD38B502
:1058500004004FF000000AD02046FFF77DFC0090C6
:10586000006885686846FFF7C1FC2046A84738BD38
:1058700010B500F0DFFC08490A68B2F92410091AD3
:10588000D069437E481E0344B2F92200BDE81040AF
:105890004FF47A62FFF75EBEE40100201FB503A952
:1058A000CDF80CD0FFF776FD684600F04BF81FBD31
:1058B0001FB503ABCDF80CD0FFF77AFD684600F0BA
:1058C00041F81FBD10B504462DED028BB0EE408AA5
:1058D000BDEEC80A10EE100A00F046FD211AB5EE22
:1058E000C08A491EF1EE10FA05D218EE100A10F126
:1058F000814F00D2491E002900DA0021B0EE480A8B
:10590000BDEC028B2046BDE81040C9B200220AF06F
:10591000DDB900210AF0FAB97FB50C461546CDF87D
:105920000CD003A9FFF7A6FD002801DD641EE4B238
:1059300003AB2A462146FFF73BFD684600F002F81C
:105940007FBD00002DE9FC4706005BD000F036FC6F
:105950003B4C81462068B0F9228000F06BFC216846
:1059600007468A8CD01B888441E000BF47F6FF7150
:10597000304602F0DBFA82460146304602F0ACFACD
:105980002168054691F82C0000F0030001283FD063
:10599000022839D000204A8C101A4884ADF8000043
:1059A0006A1E1044ADF80400888CADF80200A9F11D
:1059B00001010844ADF806006A465146304601F040
:1059C000F7FE2168BDF8020088845146304601F098
:1059D000D9FB064430780A281CD00D281AD0BDF80F
:1059E0000000216828444884307818B1761C30784B
:1059F0000028BBD12068818C39448184818D21F0BD
:105A000003018185BDE8FC8705EBD5704010C2E736
:105A10002846C0E7206890F82C1001F00301012906
:105A20000BD0022909D0018C418431780A29DBD1BD
:105A3000828C02EB09018184D6E7A0F82280F4E78A
:105A4000E4010020024B1B6859849A84FFF77ABF57
:105A5000E401002047F6FF7300F040B82DE9FF474E
:105A60001F460C9E90460D46814676B30024009456
:105A70000194ADB1286800906868019016480099BB
:105A8000016001994160284608F006FD040007D036
:105A90000246294602A802F0B6FA02A808F0FCFC69
:105AA000304610F06DF805467168684688473B46F9
:105AB00042466946484601F0D3FE204608F0ECFC19
:105AC000284610F05DF8BDE8FF87FFE704B0BDE8A9
:105AD000F04700F003B80000280200202DE9FC4147
