:020000040800F2
:1000000078B600209D0100081DCA0008A70100085D
:10001000A9010008AB010008AD01000800000000C4
:1000200000000000000000000000000015D70008DC
:10003000B101000800000000D1CF000817D7000868
:10004000B7010008B7010008B7010008B7010008B0
:10005000B7010008B7010008B7010008B7010008A0
:10006000B7010008B7010008B7010008B701000890
:10007000B5240008B7010008C5240008B70100082E
:10008000B7010008B7010008B7010008B701000870
:10009000B7010008B7010008B7010008B701000860
:1000A000B7010008B7010008B7010008B701000850
:1000B000B7010008B7010008B7010008B701000840
:1000C000B7010008B7010008B7010008B701000830
:1000D000B7010008B7010008B7010008B701000820
:1000E000B7010008B7010008B7010008B701000810
:1000F000B7010008B7010008B7010008B701000800
:10010000B7010008B7010008B7010008B7010008EF
:10011000B7010008B7010008B7010008B7010008DF
:10012000D5240008B7010008B7010008E52400083D
:10013000B7010008B7010008B7010008B7010008BF
:10014000B7010008B7010008B7010008B7010008AF
:10015000B7010008B7010008B7010008B70100089F
:10016000B7010008B7010008B7010008B70100088F
:10017000B7010008B7010008B7010008000000003F
:10018000B7010008B7010008DFF80CD000F0C8FB89
:1001900000480047CD85010878B600200648804712
:1001A00006480047FEE7FEE7FEE7FEE7FEE7FEE75C
:1001B000FEE7FEE7FEE7FEE7EDD70008890100084D
:1001C00010B5431A934209D28318881803E010F837
:1001D000011D03F8011D521EF9D210BD40EA0103B2
:1001E0009B0703D009E008C9121F08C0042AFAD2ED
:1001F00003E011F8013B00F8013B521EF9D210BD9B
:10020000D2B201E000F8012B491EFBD27047002258
:10021000F6E710B513460A4604461946FFF7F0FF05
:10022000204610BD421C10F8011B0029FBD1801A8A
:10023000704730B504460020034600E05B1C934243
:1002400003D2E05CCD5C401BF8D030BD034611F812
:10025000012B00F8012B002AF9D1184670472DE92F
:10026000FE4F804681EA0300C00F0C46009021F04B
:10027000004123F00045B8EB0200A94105D24046F9
:10028000214690461C460B46024623F00040104390
:1002900047D0270DC7F30A00C3F30A510290401A52
:1002A000019040286BDAC3F3130040F4801B0098E0
:1002B000924620B10023D2EB030A63EB0B0B0198AB
:1002C0005946C0F14002504600F04DFA06460D4630
:1002D00050465946019A00F065FA10EB080061415A
:1002E000002487EA115284EAE7731A4340D0009A47
:1002F00062B3019A012A4FEA075215DC001B61EB39
:1003000002014FF0004202EA0752CDE90042001C10
:1003100041F5801132462B4600F09CFA03B0BDE84F
:10032000F08F40462146F9E7001B61EB0201001CFB
:1003300041F5801300185B412018A2F5001747EB28
:10034000030140EAD570B6196D4111E06D084FEA1E
:10035000360645EAC0754FEA0752001B61EB020101
:10036000001C41F5801149084FEA30000019514145
:1003700032462B4603B0BDE8F04F00F05CBA00985F
:10038000012240000023D0EB020263EBE0730098EF
:1003900021464FEAE074B8EB000061EB0401E9E7A5
:1003A00083F000435BE781F0004158E72DE9FE4F01
:1003B00081EA030404F0004421F0004100944FF06E
:1003C000000B23F0004350EA01045ED052EA03041C
:1003D0005BD0C3F30A54C1F30A552C44A4F2F3349E
:1003E0000194A0FB0254C1F3130141F48011C3F343
:1003F000130343F4801301FB024400FB034E840A01
:10040000970A44EA815447EA8357A4FB0768029598
:100410008D0A05FB07854FEA932C04FB0C54270536
:10042000029D4FEA065847EA1637B5EB08056EEB12
:10043000070C870E920E47EA811742EA8312A7FB48
:100440000201B6EB0B0164EB00042B0D43EA0C3305
:100450005E1844EB1C50DA465146E7FB0201C5F337
:1004600013044FEA0B3343EA14534FEA0432019C5E
:1004700043EA0603A4F10C040294009CCDE900B405
:1004800000F0E8F903B0BDE8F08F00200146F9E77D
:100490002DE9F04D81EA030404F0004B21F0004502
:1004A00014464FF0000A23F0004150EA050220D024
:1004B00054EA01021DD0C5F30A570246C5F31303DF
:1004C000C1F31300C1F30A5640F4801543F48013BE
:1004D000A7EB0608101BD64608F2FD3873EB0500A3
:1004E00002D308F1010801E092185B41B8F1000F56
:1004F00003DA00200146BDE8F08D00204FF48011A2
:10050000064684460EE0171B73EB050705D3121B46
:1005100063EB050306434CEA010C49084FEA30003F
:1005200092185B4150EA0107EDD152EA030012D064
:1005300082EA040083EA0501084305D0101BAB41A1
:1005400006D20122002306E000224FF0004302E021
:100550006FF0010253101AEB06004CEB085110EB40
:100560000A0041EB0B01BDE8F04D00F064B90EB597
:10057000C10F80EAE0700844CA07002140F233430B
:100580008DE80E000A460B4600F064F903B000BD8A
:100590000EB540F2334102910021CDE900110A4627
:1005A0000B4600F057F903B000BD70B5C1F30A5215
:1005B00001F000450024C1F3130140F2FF3341F480
:1005C00080119A4201DA002070BD40F233439A4212
:1005D000A2F2334203DC524200F0D4F800E0904033
:1005E0002C43F1D0404270BDC1F30A5210B5C1F3A3
:1005F000130140F2FF3341F480119A4201DA0020E6
:1006000010BD40F233439A42A2F2334203DC52421D
:1006100000F0B8F810BD904010BD00F0004230F07E
:1006200000400AD0C10D01F56071C0F3160042EA26
:100630000151C2084007114370470020014670472E
:1006400030B5041E71F1000404DB4FF00044404259
:1006500064EB0101141E73F1000405DB1C464FF02E
:100660000043524263EB04038B4208BF824230BD19
:1006700030B5041E71F1000404DB4FF00044404229
:1006800064EB0101141E73F1000405DB1C464FF0FE
:100690000043524263EB0403994208BF904230BDCD
:1006A00001F0004330B421F0004150EA010206D0CD
:1006B0000A0DA2F56072C1F31301002A02DC30BCFE
:1006C00000207047440F44EAC104C100E01830BC68
:1006D00000EBC25000F078B830B50B460146002060
:1006E0002022012409E021FA02F59D4205D303FAF4
:1006F00002F5491B04FA02F52844151EA2F1010275
:10070000F1DC30BD2DE9F05F0546002092469B46A6
:1007100088460646814640241BE028464146474617
:10072000224600F02FF853465A46C01A914110D382
:1007300011461846224600F016F82D1A67EB0108FC
:100740004F4622460120002100F00DF817EB00096A
:100750004E41201EA4F10104DFDC484631462A4602
:100760004346BDE8F09F202A04DB203A00FA02F15C
:10077000002070479140C2F1200320FA03F319438F
:1007800090407047202A04DB203A21FA02F0002131
:10079000704721FA02F3D040C2F120029140084391
:1007A00019467047202A06DBCB17203A41FA02F09F
:1007B00043EAE07306E041FA02F3D040C2F12002BE
:1007C00091400843194670470029A8BF7047401C54
:1007D000490008BF20F00100704710B4B0FA80FC57
:1007E00000FA0CF050EA010404BF10BC704749B194
:1007F000CCF1200421FA04F411FA0CF118BF012104
:1008000021430843A3EB0C01CB1D4FEA00614FEAE3
:10081000102042BF002010BC704700EBC3501044B2
:100820000029A4BF10BC7047401C490008BF20F03D
:10083000010010BC704710B5141E73F1000408DAF3
:10084000401C41F1000192185B411A4301D120F094
:10085000010010BD2DE9F04D92469B4611B1B1FA51
:1008600081F202E0B0FA80F220329046FFF77BFF7F
:1008700004460F4640EA0A0041EA0B0153465A4635
:10088000084313D0114653EA010019D0C8F14002C1
:100890005046FFF777FF05460E46504659464246FA
:1008A000FFF761FF084305D0012004E020463946E8
:1008B000BDE8F08D0020054346EAE0762C4337433F
:1008C0000A986305E40AA0EB08000022FD0A44EA46
:1008D00047540A3002D500200146E9E70105101906
:1008E0006941DDE9084500196941BDE8F04DA2E71D
:1008F000C1F30A52C1F3130140F2FF3341F48011F6
:100900009A4202DA00200146704740F233439A428D
:10091000A2F2334202DC5242FFF734BFFFF723BF9B
:10092000064C074D06E0E06840F0010394E807003C
:1009300098471034AC42F6D3FFF72AFC50E0010888
:1009400070E0010870B58C1810F8015B15F0070312
:1009500001D110F8013B2A1106D110F8012B03E058
:1009600010F8016B01F8016B5B1EF9D12B0705D460
:100970000023521E0DD401F8013BFAE710F8013BA9
:10098000CB1A921C03E013F8015B01F8015B521EC5
:10099000F9D5A142D8D3002070BD00002DE9F04167
:1009A0002DED048B06460F463846FFF7F1FD41EC6E
:1009B000190B9FED150B53EC102BFFF7F7FC41ECD7
:1009C000180BFFF711FE804644464FEA983546B9AA
:1009D00024F4004444F4804425F4004545F4804563
:1009E00007E024F4804444F4004425F4804545F4B1
:1009F0000045204600F00CF8284600F009F8BDEC50
:100A0000048BBDE8F08100003A8C30E28E7915400D
:100A100000211A4A126842F48052184B1A601A4692
:100A2000126822F040021A6000BF1DE000F400428C
:100A300032B1124A126842F40062104B1A6005E0AB
:100A40000E4A126822F400620C4B1A600B4A1268BC
:100A500022F48052094B1A6040001A46126842F490
:100A600080521A604A1CD1B21029DFDB034A126897
:100A700042F04002014B1A6070470000140C024023
:100A80005A49096821F44031594AC2F80413114601
:100A9000D1F8041342681143544A1160016849684F
:100AA00021F480710268516001684A68016942EA74
:100AB0000121026851600168496821F040710268B3
:100AC0005160016849688268114302685160016899
:100AD000896821F400610268916001688968C268D0
:100AE000114302689160434A816A914218D00168BB
:100AF000896821F070610268916001688968826A82
:100B00001143026891600168896821F040510268D0
:100B1000916001688968C26A1143026891600BE0C4
:100B20000168896821F070610268916001688968D4
:100B300021F04051026891600168896821F002014A
:100B40000268916001688A68816942EA410102682D
:100B50009160016AD1B10168496841F4006102689D
:100B600051600168496821F4604102685160016880
:100B70004A68416A491E4FF4604393FAA3F3B3FAFB
:100B800083F399400A4301684A6005E001684968B7
:100B900021F40061026851600168C96A21F47001A2
:100BA0000268D1620168CA6A818B491E42EA01511A
:100BB0000268D1620168896821F40071026891605D
:100BC00001688A68016B42EA41210268916001680C
:100BD000896821F480610268916001688A684169CE
:100BE00042EA8121026891607047000004230140BD
:100BF000002001400100000F002800DC4042704747
:100C000010B50020234908702348006800F0020056
:100C1000C0BB2249081F01F00DF898B301201D49FF
:100C200008701F48B0F9080000EE100AB8EEC00ABC
:100C30001B4890ED001A1948001FD0ED000AF8EE8D
:100C4000600A01EE200ABCEEC00A164880ED000AD8
:100C50001348B0F90A0000EE100AB8EEC00A1048B6
:100C600090ED011A0D48001FD0ED010AF8EE600A60
:100C700001EE200ABCEEC00A0A4880ED010A0846CF
:100C8000007810BDFFE70020064908604860014871
:100C90000078F6E760010020100402409423002051
:100CA00054010020A42300202DE9FF4F83B081468A
:100CB0000E461C46DDE9117A109DDAF8000002901C
:100CC000DAF8040001902E4432480068007C00F0FD
:100CD000030030B1012836D002281CD0032855D19A
:100CE00030E000BF207880222A41104008B10198EE
:100CF00000E0029803463146761C4846059A00F00B
:100D000091FE681C0546082801D10025641C781E48
:100D1000071EE7D13AE000BF207880212941084032
:100D200028B131464846019B059A00F07BFE761CAF
:100D3000681C0546082801D10025641C781E071E82
:100D4000EAD123E000BFD9F81010886880478046B8
:100D500000BF207880212941084060B131464846D3
:100D6000059A00F029FB83468BEA08033146484682
:100D7000059A00F057FE761C681C0546082801D12C
:100D80000025641C781E071EE3D100BF00BF07B01A
:100D9000BDE8F08FD80200202DE9FF4F81B00F464B
:100DA0009846DDE90F9A98F800B00E9D0E9D2F44ED
:100DB00053480068007C00F0030010B102284BD1BA
:100DC0004BE0BAF1000F25D000BFC5F1030044008D
:100DD000C4F10601C020084100EA0B0020FA04F625
:100DE0005AF82600009039467F1CDDE90030039A4E
:100DF00000F018FE681C0546042805D1002508F1FE
:100E00000100804690F800B0A9F10100B0F100099E
:100E1000DBD121E000BFC5F103004400C4F10601AD
:100E2000C020084100EA0B0020FA04F639467F1C76
:100E30003346039A019800F0F5FD681C0546042826
:100E400005D1002508F10100804690F800B0A9F115
:100E50000100B0F10009DED14DE0BAF1000F26D05B
:100E600000BFC5F103004400C4F10601C0200841E1
:100E700000EA0B0020FA04F646B15AF8260000906A
:100E80003946DDE90030039A00F0CCFD7F1C681C78
:100E90000546042805D1002508F10100804690F898
:100EA00000B0A9F10100B0F10009DAD122E000BFE1
:100EB000C5F103004400C4F10601C020084100EA66
:100EC0000B0020FA04F62EB133463946039A0198F6
:100ED00000F0A8FD7F1C681C0546042805D10025EC
:100EE00008F10100804690F800B0A9F10100B0F1CE
:100EF0000009DDD100BF00BF05B0BDE8F08F0000E4
:100F0000D80200202DE9F04107460D4690461C46C8
:100F1000069E08E0424629463846236800F082FDD6
:100F2000761E6D1C241D002EF4DCBDE8F08100004F
:100F30002DE9FF4F81B00F469846DDE90F9A98F8EA
:100F400000B00E9D0E9D2F4453480068007C00F0B9
:100F5000030010B102284BD14BE0BAF1000F25D0AD
:100F600000BFC5F101008400C4F10401F020084174
:100F700000EA0B0020FA04F65AF8260000903946E1
:100F80007F1CDDE90030039A00F04CFD681C05462B
:100F9000022805D1002508F10100804690F800B034
:100FA000A9F10100B0F10009DBD121E000BFC5F1DA
:100FB00001008400C4F10401F020084100EA0B00A4
:100FC00020FA04F639467F1C3346039A019800F054
:100FD00029FD681C0546022805D1002508F10100FD
:100FE000804690F800B0A9F10100B0F10009DED10F
:100FF0004DE0BAF1000F26D000BFC5F1010084001A
:10100000C4F10401F020084100EA0B0020FA04F6C4
:1010100046B15AF8260000903946DDE90030039ABF
:1010200000F000FD7F1C681C0546022805D1002544
:1010300008F10100804690F800B0A9F10100B0F17C
:101040000009DAD122E000BFC5F101008400C4F13B
:101050000401F020084100EA0B0020FA04F62EB14A
:1010600033463946039A019800F0DCFC7F1C681C6B
:101070000546022805D1002508F10100804690F8B8
:1010800000B0A9F10100B0F10009DDD100BF00BF3F
:1010900005B0BDE8F08F0000D80200202DE9F04730
:1010A00081460F4692461C46DDE9085826480068EE
:1010B000007C00F0030010B1022841D11EE0B8F11D
:1010C000000F0ED00AE0267858F8263052463946EE
:1010D000484600F0A7FC6D1E7F1C641C002DF2DC4E
:1010E0000BE008E0237852463946484600F09AFC67
:1010F0006D1E7F1C641C002DF4DC21E0B8F1000F94
:101100000FD00BE0267836B158F8263052463946D3
:10111000484600F087FC6D1E7F1C641C002DF1DC2E
:101120000DE00AE026782EB133465246394648464D
:1011300000F078FC6D1E7F1C641C002DF2DC00BFEB
:1011400000BFBDE8F0870000D80200202DE9FF4F66
:1011500085B016461F46DDE916BADDE91495DDF8BF
:101160004880139808283FD006DC012809D00228BF
:1011700018D004287CD126E0102844D0202877D12C
:1011800068E000240BE0A2192B46CDE900B7CDF8AA
:1011900008A0DDE90501FFF787FD4D44641C4445C7
:1011A000F1DB65E000240BE0A2192B46CDE900B786
:1011B000CDF808A0DDE90501FFF7EEFD4D44641C04
:1011C0004445F1DB54E000240BE0A2192B46CDE9A5
:1011D00000B7CDF808A0DDE90501FFF7A9FE4D44F1
:1011E000641C4445F1DB43E0002409E0A2192B46CE
:1011F000CDE9007ADDE90501FFF750FF4D44641C9D
:101200004445F3DB34E0002421E006980190A01966
:1012100002A9A1C1DDE9010100F00AFB22204FF083
:10122000D84108800DE0039800884FF0D84108802D
:101230000498401E04900198401C01900398801C63
:10124000039004980028EEDC00BF4D44641C444524
:10125000DBDB0DE0002408E0A2192B460097DDE956
:101260000501FFF74FFE4D44641C4445F4DB00BF0D
:1012700000BF09B0BDE8F08F2DE9F04107460D46EB
:1012800014461E4606480068C06B006805490860A1
:10129000A3B2F2B2A1B2E8B200F0E0F8BDE8F0818A
:1012A000D8020020380100202DE9F04107460C4605
:1012B00015461E4606480068C06B00680549086070
:1012C000B3B2E2B2A9B2E0B200F0C8F8BDE8F08172
:1012D000D8020020380100202DE9F04180460C465C
:1012E00015461E46069F07480068C06B0068064901
:1012F0000860BBB2F2B2A9B2E0B200F0AFF8BDE84C
:10130000F0810000D80200203801002002460020B1
:10131000704700000246A1F10900082813D2DFE857
:1013200000F00406080A120C0E100848704708481E
:10133000FCE70848FAE70848F8E70848F6E70848ED
:10134000F4E70848F2E70020F0E70000831A0008FD
:10135000A91A0008451A0008ED130008FD18000836
:10136000ED180008E519000803460A4699680F2A97
:101370001FD2DFE802F01E080A0C0E1E1E1E1012FD
:101380001416181A1C00486870478868FCE7C8687B
:10139000FAE70869F8E78869F6E70020F4E7012032
:1013A000F2E70120F0E70020EEE70020ECE7002064
:1013B000EAE74FF0FF30E7E72DE9F04107460C463A
:1013C00015462946204600F00FFA06463046BDE88D
:1013D000F081826800230B804B8093895B1E1BB2D7
:1013E0008B80138A5B1E1BB2CB80704770B504469E
:1013F000204600F009F8054600220121A0690AF004
:101400002FF90543284670BD70B50446A06858B949
:101410001C2004F021FEA060A5682169886880472F
:1014200006460AF005FAA861A06808B9012070BD57
:101430000020FCE770B504460D462946204600F022
:10144000F7F922204FF0D84108800248008802496D
:10145000088070BD380100208000006C2DE9F0414B
:1014600004460D4616461F4650204FF0D8410880CE
:1014700022480480512008800846A0F8806052204D
:1014800008801E480580532008800846A0F8807018
:101490002946204600F0CCF922204FF0D8410880A0
:1014A000781B401C311B491C00FB01F803E0144869
:1014B000008812490880B8F10000A8F10108F6D1AF
:1014C00050204FF0D841088000200C49088051205E
:1014D0004FF0D8410880EF20A1F88000522008800A
:1014E00000200649088053204FF0D841088040F280
:1014F0003F10A1F88000BDE8F08100008000006C82
:101500003801002000B5E5204FF0D841088047F6AB
:10151000F000B349088001204FF0D8410880000254
:10152000A1F88000022008804FF4E060AC490880F8
:1015300003204FF0D841088041F23000A8490880CC
:1015400004204FF0D84108800020A54908800820D9
:101550004FF0D841088040F20220A14908800920BC
:101560004FF0D841088000209D4908800A204FF0A4
:10157000D841088000209A4908800C204FF0D841BB
:1015800008800020964908800D204FF0D84108803F
:101590000020934908800F204FF0D8410880002098
:1015A0008F49088010204FF0D841088000208C49D6
:1015B000088011204FF0D841088007208849088012
:1015C00012204FF0D8410880002085490880132060
:1015D0004FF0D841088000208149088007204FF053
:1015E000D841088000207E49088010204FF0D84163
:1015F000088041F290607A49088011204FF0D8416C
:10160000088040F227207649088012204FF0D84108
:1016100008809D207249088013204FF0D84108802F
:101620004FF4C8506E49088029204FF0D8410880F7
:1016300025206B4908802B204FF0D84108800D20D1
:101640006749088030204FF0D8410880072064495E
:10165000088031204FF0D841088040F203306049C3
:10166000088032204FF0D841088003205C49088070
:1016700035204FF0D841088040F2062058490880B4
:1016800036204106088008205549088037204FF051
:10169000D841088040F206405149088038204FF078
:1016A000D84108804FF441704D49088039204FF0EF
:1016B000D841088007204A4908803C204FF0D84193
:1016C000088040F20260464908803D204FF0D84132
:1016D000088008204249088050204FF0D8410880F7
:1016E00000203F49088051204FF0D8410880EF206A
:1016F0003B49088052204FF0D841088000203849EB
:10170000088053204FF0D841088040F23F10344900
:10171000088060204FF0D84108804FF427403049BE
:10172000088061204FF0D841088001202C490880B2
:101730006A204FF0D8410880002029490880802085
:101740004FF0D841088000202549088081204FF0C3
:10175000D841088000202249088082204FF0D841DB
:10176000088000201E49088083204FF0D84108805F
:1017700000201B49088084204FF0D84108800020B9
:101780001749088085204FF0D8410880002014496F
:10179000088090204FF0D841088010201049088020
:1017A00092204FF0D84108804FF4C0600C49088067
:1017B00007204FF0D841088040F2331008490880D4
:1017C00000204FF0D84108802220A1F8800000F0CE
:1017D00021F80448006840F400400249086000BD58
:1017E0008000006C1404024070B504460D460026CB
:1017F0002946204600F01CF822204FF0D8410880EE
:101800000348008800B100BF01480688304670BD1B
:101810008000006C002040F0100040F48050032154
:101820004FF0D84211800149088070478000006C59
:1018300020224FF0D8431A80044B188021224FF009
:10184000D8431A80A3F88010704700008000006C15
:1018500010B5002006F060FA6FF07F400CF034FD08
:101860006FF07F400DF090FD16480BF039FB1648E5
:1018700003F020F913480BF033FB144800F0CEFCC2
:10188000134800F0D9FD134800F002FF12480BF096
:1018900045FE12480BF030FF114809F077F8114867
:1018A0000BF0F4FB0BF010FA0F4948600AF0ACFEA5
:1018B0000D49C860486800210EF044FC05F096FB15
:1018C00010BD00005DCE000841460008511F000811
:1018D00049230008E525000869D30008CDD5000894
:1018E0004DA90008D5CF0008C473002010B50446E8
:1018F00000220621A06909F0B3FE10BD10B5044610
:1019000000220521A06909F0ABFE10BD10B5FFF75C
:1019100077F93049087409F0F3FA2E4909688842CA
:1019200005D909F0F9FA2B494968884204D8002002
:1019300028490860486008742748006825490968F4
:10194000884205D92448006822490968401A04E001
:101950002048006820490968401A204908801E482C
:1019600040681C494968884205D91B4840681949A4
:101970004968401A04E01748406817494968401A06
:10198000174908801448007A1249097C884207D117
:10199000124800881E2803DC114800881E2817DD25
:1019A0000C48007C0C4908720A48007C48B1094880
:1019B00000680860074840684860084606F03EFB3B
:1019C00006E0054806F03AFB00200349086048603D
:1019D00010BD0000A4230020B823002062010020D5
:1019E000640100207CB504460D4616460020009098
:1019F00001908DF8045000966A460421A06909F010
:101A00002FFE7CBD7CB504460D4616460020009096
:101A10000190009501966A460321A06909F020FE15
:101A20007CBD00002DE9F04107460C4615461E46D8
:101A30000348066029462046FFF7FCFCBDE8F0811C
:101A4000380100202DE9FC4105460E4617460020CE
:101A5000009001902846FFF7D7FCA86878B1AC68E1
:101A6000606908B9304600E0606960616660A7603F
:101A7000009601976A460721A86909F0F1FDBDE8C3
:101A8000FC81F8B504460D46002000902046FFF783
:101A9000BBFCA06838B1A668356000956A46022193
:101AA000A06909F0DDFDF8BD2DE9F04105460E46BF
:101AB00017462846FFF7A8FCA86818B1AC68E6608E
:101AC00027616661BDE8F08170B5064600250024F7
:101AD0002A48006820F0010028490860284800686A
:101AE00020F40060264908602648006820F4005071
:101AF00024490860304600F0E3F8062016F004FDA3
:101B00001E48006820F001001C490860012016F002
:101B1000FBFC1A48006840F00100184908600120E9
:101B200016F0F2FC1548006820F001001349086027
:101B300000BF17E064001148006820F001000F4961
:101B40000860012016F0E0FC0C48006840F001003D
:101B50000A490860081F006800F0040000B1641C16
:101B6000681CC5B2102DE5DB24090648006840F466
:101B7000005004490860204670BD00001404024073
:101B800014140240140802402DE9F04186B080464A
:101B90000027002406E04046FFF796FF01A941F820
:101BA0002400641C052CF6D3002418E0651C13E007
:101BB00001A850F8240001A951F8251088420AD93B
:101BC00001A850F8246050F8250001A941F824002C
:101BD00001A840F825606D1C052DE9D3641C042C78
:101BE000E4D30027012404E001A850F824000744AE
:101BF000641C042CF8D30320B7FBF0F6304606B083
:101C0000BDE8F0812DE9F04104460D460748007813
:101C1000FFF7BAFF064606480078FFF7B5FF07460C
:101C200026602F600120BDE8F08100004001002007
:101C3000410100207FB504460D4602A903A8FFF725
:101C4000E1FF064616B9002004B070BD694601A840
:101C5000FFF7D8FF06460EB90020F5E70399019873
:101C6000884204D8019832300399814208D30199FF
:101C70000398884222D803983230019981421DD2BC
:101C800002990098884204D8009832300299814223
:101C900008D300990298884210D8029832300099EF
:101CA00081420BD2019903980844400820600099B2
:101CB00002980844400828600120C5E70020C3E7D7
:101CC00070B50446002500BF22E004F0800030B16A
:101CD0001148006840F400600F49086005E00E48B4
:101CE000006820F400600C4908606006040E0B4890
:101CF000006820F0010009490860012016F004FC8A
:101D00000648006840F0010004490860681CC5B23C
:101D1000082DDADB70BD00001414024014040240E8
:101D20000C48006840F400500A4908600A480068FE
:101D300040F00100084908600848006840F400606D
:101D4000064908600448006840F001000249086044
:101D500070470000140802401404024014140240AA
:101D60002DE9F04104460D461646324629462046E6
:101D7000FFF722FB0746216988688047804687EA8B
:101D80000803324629462046FFF74CFEBDE8F081A5
:101D900038B545680446014628460CF0C5F80028C9
:101DA0002BD02068304A11280DD006DC0B2825D016
:101DB0000E2833D00F2852D112E0282849D0B0F590
:101DC000107F4CD108E09268002A16D021462846A0
:101DD00001B0BDE830401047214628465268F7E779
:101DE000284604F0D1F90090406E0468684604F07B
:101DF00015FA002C01D02846A04738BD284604F02B
:101E0000C3F90090683004F011F9009803216C3098
:101E100004F014F9684604F001FA20E0E16848682B
:101E200009680D2902D0202913D105E0002810DD12
:101E3000284612F01FFF06E0002804DD2846BDE812
:101E4000384012F017BF2846BDE83840022112F092
:101E500027BFE06818B90021284600F004FA2046A0
:101E6000BDE838400CF080BB780300202DE9FF412D
:101E70000AAF97E87000002703958DE8D00000F0C6
:101E800003F804B0BDE8F081F0B585B00DF1280C81
:101E90009CE8F0004FF0000C8DE8F01000F024F802
:101EA00005B0F0BDF0B5044685B08069B4F90850BE
:101EB000668A0027CDE90265CDE900170490B4F9E0
:101EC0000C00B4F91060C118B4F90A00B4F90E504E
:101ED000104433462A4600F007F80546616800F0D2
:101EE000E1F905B02846F0BDF0B585B00C46DDE956
:101EF0000D51DFF854C04C31DDE90A67CDE902C16C
:101F00002146CDE900670CF081FA040018D004F0F6
:101F10003BF91022294604900CF0ACF904983022C9
:101F20000A493430FEF74CF9084D04990C3D2868F5
:101F3000486604A804F072F928684168204688477A
:101F400005B02046F0BD0000911D0008840300206C
:101F5000F0B5044680688B4989B051F8205060681C
:101F600000287DD0052804D006287AD0122879D1FF
:101F7000AEE0E86900284FD095E80E008DE80F002C
:101F800004F110010FC906F0EBFD002655F82600FC
:101F900005F0E4FEA169E8690A1A21690144606953
:101FA000304404F025FFA169E8690A1A2169014457
:101FB000E069801B04F01CFFE169E8690A1A6169A5
:101FC00001442069304404F0B3FFE169E8690A1A6A
:101FD00061690144A069801B04F0AAFF761C022EEF
:101FE000D4DBA86805F0BAFEE069E9696669431ABE
:101FF000206942183144801C521E05F019F8E1692D
:10200000E869A2690B1A61690144101A401C921E0A
:1020100005F00EF8EE6913E05FF0000655F82600B3
:1020200005F09CFEE069831BA069821B6069811931
:102030002069304404F03EFF761C022EEEDB0226BF
:10204000D5E90301CDE900016169E0690844431065
:10205000A069891C821B2069304404F071FE02E0F3
:1020600089E012E08AE0D5E90501CDE90001E369E4
:1020700060690121184401EB6001A0699B1E821B6D
:102080002069304404F05CFE78E0206804F07CF8BD
:10209000049020680DF050FD40B1A06808B1002008
:1020A00008E00498006F28B1012003E00498406F15
:1020B00000B10220049901EB8000C56E04A804F071
:1020C000ADF800231A462846216804F0B1FB55E01C
:1020D000206804F059F80490866EEEB3B0F95C7095
:1020E000A168D1B3032942D05FF0000100EB810168
:1020F000406D0C6C05F03CFE204605F02FFE05A857
:1021000005F036F8BDF81410A88B0144ADF8141092
:10211000BDF81810081AADF81800BDF81600801C9C
:10212000ADF81600BDF81A00801EADF81A0004982C
:10213000B0F96020B0F95E1005A805F01FFD04A8F5
:1021400004F06CF8022005F055FE304604F01CF84F
:102150003A4605A9079001E00BE006E004F054FCC4
:102160000DF11C0004F05AF808E00121BEE702213D
:10217000BCE704A8F6E720680DF09AF909B0002042
:10218000F0BD000010D001082DE9FC4115460E46B7
:1021900000281DD003F0F8FF0190806E002798B151
:1021A00003F0F2FF0090FEF73DF80446681E8442FB
:1021B00000DD0446224630460099FEF701F86846E5
:1021C00004F02CF8375500E0377001A804F026F829
:1021D000BDE8FC8170B516460C46054619463046EA
:1021E000049A04F0F1FA024621462846BDE8704000
:1021F00000F080B8F8B515460C4606000DD003F087
:10220000C3FF0090032C02D200EB840045636846B4
:1022100004F004F830460CF0B0FEF8BD044A03495F
:10222000116004494A6A486210467047B4030020AE
:10223000780300208403002000294FF0100101D012
:102240000BF002BF0BF05CBE38B50D46040009D0A0
:1022500003F09AFF00904565684603F0DFFF2046D3
:102260000CF08BFE38BD4FF480720029114601D06E
:102270000BF0EABE0BF044BE08B50023009300F05B
:1022800001F808BD70B516460C460546194630469D
:10229000049A04F0B5FA024621462846BDE870408B
:1022A00000F028B82DE9FF410E4605004FF001046B
:1022B0001CD003F069FF0190876E01A8009703F01E
:1022C000ADFF3146684606F059FF78B1009800240A
:1022D000B84208D0284603F057FF01900099816664
:1022E00001A803F09BFF28460CF047FE04B02046EF
:1022F000BDE8F081F8B515460C46060013D003F092
:1023000043FF0090032C0BD200EB84006C3003F0F1
:102310008DFE009800EB8400C56630460CF02DFE63
:10232000684603F07BFFF8BD10B5002005F0F4FC13
:10233000FFF7ECFA04F05AFE012005F0EDFC01F085
:10234000F1FB04F053FE10BD2DE9FF470446006881
:1023500010B10DF0F1FB68B10022314850F82210A5
:1023600060680A2841D007DCF0B306280DD00728A2
:1023700054D106E00122F0E712280AD019284DD1E5
:1023800037E020460EF0F2FE48E020460FF0CEFB8C
:1023900044E0206803F0F8FE0290B0F9548090F811
:1023A0005650476C466B02A803F038FF206800F0D7
:1023B00039F8814668460CF0CDF9BDF8001009EBFC
:1023C00005000844ADF80000246A304605F0D0FC52
:1023D000022005F00FFD384605F0C0FC4246694674
:1023E000204604F011FB19E007E020460FF05AFFE9
:1023F00014E0886904B0BDE8F08720680DF058F853
:10240000206803F0C1FE0390B0F90610B0F9022075
:10241000891A491CC16703A803F000FF0020E9E7FF
:1024200020D0010838B503F0AFFE0090C46F6846B5
:1024300003F0F4FE204638BD044A03491160044904
:10244000CA69C86110467047400400208408002013
:102450008808002000B589B024216846FDF7D7FE22
:1024600019200190034800688068416868468847E1
:1024700009B000BD8408002010B50C484078012840
:1024800007D10B49C86800210DF05CFE0020074908
:10249000487006488078012807D10549486800211E
:1024A0000DF050FE00200149887010BD93000020FF
:1024B000C473002010B5024807F070F910BD000089
:1024C000D40B002010B5024807F068F910BD0000D9
:1024D000340C002010B5024807F060F910BD000070
:1024E000D40A002010B5024807F058F910BD0000CA
:1024F000340B00200146087810381823B0FBF3F2A3
:102500000848805CC865032A05D908686FF309008C
:10251000001D886503E008686FF309008865886D11
:102520007047000050870108014600208A6A8B69C5
:1025300003BB32B1012A0CD0022A10D0032A17D1D2
:1025400015E0CB6A03F08073B3F1807F00D10120E6
:102550000FE0CB6AB3F1C07F00D1012009E0CB6A64
:1025600003F08073B3F1807F00D1012001E000E02F
:1025700000BF35E08B69B3F5005F1BD132B1012A92
:1025800006D0022A0CD0032A12D10BE0012010E061
:10259000CB6A03F08073B3F1807F00D1012008E0A3
:1025A000012006E0CB6AB3F1C07F00D1012000E03A
:1025B00000BF15E032B1012A05D0022A04D0032A57
:1025C0000CD103E000BF00BF012008E0CB6A03F09C
:1025D0008073B3F1807F00D1012000E000BF00BF15
:1025E00070470000F8B50546006803F0CDFD009087
:1025F000448ED0F88860684603F010FE06B10126CC
:1026000004F0010428680DF097FA0EB1002006E0EE
:102610000CB1012003E008B1022000E003201B49B7
:1026200051F82010686858B302280CD0052802D051
:10263000122828D103E028460EF0C4FD23E02846E6
:1026400010F03FFC1FE06A69E8694FF0FF33801A21
:10265000A0F1080203EB6204421CAB69001B4510A9
:10266000A3EB6206C86905F079FB06E03219311B5D
:10267000284604F0BDFB641E6D1C002CF6DA02E057
:1026800028680CF015FF0020F8BD000028D00108D4
:10269000044A0349116004490A6B086310467047F5
:1026A0008C040020C4080020C808002038B50D465E
:1026B000002403F069FD0090C06B294603F046FE3C
:1026C0000546684603F0AAFD1DB1284603F05CFDEF
:1026D0000446204638BD10B5FEF714FFFFF720FB77
:1026E00001F0D6FB01F014F9012001F0C7FB012035
:1026F00001F028FC002001F0B5F804F0D1FD01F054
:1027000065F9FFF7A5F810BD2DE9FC470E465FEA15
:10271000000978D003F038FD009090F85470D0F89C
:102720005880456BC46C684603F078FDB8F1000F23
:1027300004D0314648464246904761E0122E18D0F8
:1027400006DC082E43D0102E3CD0112E06D112E00C
:10275000132E21D01D2E43D01E2E3DD0202E4FDB18
:1027600017B148460EF0B9FAB1B2484611F0F0FF81
:1027700060B3611C27E04DB3284603F005FD054614
:102780002146019005F0B4FC4419204605F072FC86
:1027900001462346012210E0C5B1284603F0F4FCAF
:1027A00005462146019005F0A3FC4419204605F09A
:1027B00061FC014623464FF0FF3248460DF0DAFF38
:1027C00001A81BE0611E484600F040FB18E0BCB1C8
:1027D000611E484600F03AFB48460EF07EFA0FE0D4
:1027E000484603F0D1FC0090012F0ED0012180F863
:1027F00054102146484600F029FB684603F00EFDC0
:1028000048460CF0BAFBBDE8FC87002180F8541064
:10281000F3E7FEB54468054620460DF08DF90646FF
:10282000294620460BF080FB002837D028680F2867
:1028300030D004DC0B2832D00E2853D13AE0A0F57A
:102840008070133804D0A0F580702D384AD110E084
:1028500020460CF0D9FC2046002112F0E8FF20466B
:1028600003F092FC0190C06F00210CF0B3FC01A8B2
:102870001DE0E86860B1017A29B10168204600F0E6
:10288000F5F8012100E0022120460CF0FAFB29E0D6
:102890000321F9E70121204612F0C9FFFEBD2046C1
:1028A00003F072FC0090343003F0C0FB684603F084
:1028B000B5FC17E0B6B1E8684168002912DD01688F
:1028C0001B290FD006DC09290CD00A290AD00D29B2
:1028D00004D107E0212905D0222903D02046FFF7A3
:1028E00013FFFEBD28460BF03FFEFEBDF0B587B0DE
:1028F00004460DF1080CD4E90567B0F90850408A88
:102900008CE8E1000020CDE90010B4F90C00B4F926
:102910001060C118B4F90A00B4F90E5010443346DF
:102920002A4600F009F8050002D0618A00F051FA49
:1029300007B02846F0BD0000F0B585B00D46DDE9D2
:102940000D640F9FDDE90AC141F48051DFF870E0AA
:10295000CDE900C15837CDE902E729460BF056FD15
:1029600005002AD003F010FC1022314604900BF031
:1029700081FC04981C2213496030FDF721FC049966
:10298000012081F85500601C00D0012081F88000F2
:10299000002C00DC082424B20C8700204887486300
:1029A00004A8641C03F03AFC2146284611F0B5FD4A
:1029B00018B928460BF00CFE002505B02846F0BDDE
:1029C000132800084805002038B504001BD05AB170
:1029D00000230A4619460BF0EFFC0546204603F09B
:1029E000D3FB0090C5670BE003F0CEFB0090C06FF7
:1029F0000BF0DDFD00990020C86720460CF0BDFA01
:102A0000684603F00BFC38BD00B52DED028B81B09C
:102A10009FED0E8AA0B103F0B7FB009090F8441030
:102A20000B4AD0ED120A684652F82110F8EEE00A7F
:102A300000EE101AB8EE400A80EE808A03F0EEFB3A
:102A400001B0B0EE480ABDEC028B00BD00000000F2
:102A5000A0D2010838B5002430B103F095FB0090F6
:102A6000846C684603F0DAFB204638BD2DE9F0415E
:102A700086B00C46060050D003F086FB0090406BF9
:102A800098B303F081FB03900098806E05F070F915
:102A9000804630460BF0BDFF0746039804F0BCFBB0
:102AA0000546009890F8601001F00301012916D046
:102AB00002290DD0416EC06A00680844241A641EC1
:102AC000039806F005FA0146002C0FDA002115E004
:102AD000781B401C00EBD070A4EB6004F0E7406E64
:102AE000791B081A241A641CEAE713E0AC4205DCDF
:102AF00002462146039806F08BF90146304600F065
:102B0000A5F903A803F08AFB404605F031F93046E9
:102B10000CF033FA684603F081FB06B0BDE8F081A3
:102B20002DE9F8431D46DDE9084916460F465FEAE0
:102B3000000840D003F028FB20490090816520491F
:102B4000C1650021C0E91271E0E90F65012104723D
:102B500080F81A90017690F84470684603F05EFBA6
:102B600087B1284611F0A3FA0546304611F09FFAC6
:102B70000CB1401C6D1C854200DD284601464046D4
:102B800000F093F8404614F01BFA404603F0FCFABC
:102B9000009000F046F90B490978884205D1009869
:102BA000C16C4046491C00F051F9684603F036FB01
:102BB00040460CF0E2F9BDE8F88300002502010868
:102BC000C16F0108CC0200202DE9F04190462DEDA7
:102BD000068B82B00E46F0EE418AB0EE60AA070086
:102BE00048D0274850F8260000EE900AB8EE608AD8
:102BF00028EE000A10EE100AFDF70FFD9FED219B55
:102C000053EC192BFDF72BFB41EC100B14F08CFE51
:102C100051EC100BFDF7C9FC28EE0A0A054610EE30
:102C2000100AFDF7FAFC53EC192BFDF718FB41ECE9
:102C3000100B14F079FE51EC100BFDF7B6FC28EEEA
:102C4000280A044610EE100AFDF7E7FC53EC192B96
:102C5000FDF705FB41EC100B14F066FE51EC100B78
:102C6000FDF7A3FCCDE90068034622462946384615
:102C7000FFF756FF02B0BDEC068BBDE8F081000007
:102C8000A0D20108000000000000E03F38B50D466A
:102C9000040009D003F078FA0090856620460CF015
:102CA0006CF9684603F0BAFA38BD7CB50C460600EC
:102CB0002ED003F069FA0090B0F93810458FA14288
:102CC00023D012DD406B80B103F05EFA019006F074
:102CD000FFF8A04206DD2146019805F009FA019AA5
:102CE0000021115401A803F099FA684603F096FAFE
:102CF000611B3046491C11F010FC304603F044FAC9
:102D00000090048730460CF038F9684603F086FAE4
:102D10007CBD2DE9FC4788465FEA00094FF00006BC
:102D200055D003F031FA0090B0F93850446B684642
:102D300003F074FA0027B8F1000F3ED04CB12046E2
:102D400003F022FA0190FDF76DFA461C01A803F08A
:102D500065FA404606F0BCF80446A84200DD2C4661
:102D60002146404605F0C4F9451CA91B484611F010
:102D7000D7FD08B3484603F007FA0090406B03F014
:102D800003FA2A4641460190FDF71AFA01982844B1
:102D900000F8017C0098C464B0F938108C4205D169
:102DA00090F85410012901D1641EC46401A803F0F5
:102DB00035FA684603F032FA06E00098343003F042
:102DC00035F900984787C76448460CF0D6F8BDE847
:102DD000FC8738B50C4605000AD003F0D5F9009001
:102DE00018B1046628460CF0C8F8684603F016FAD5
:102DF00038BDF8B515460C4606000ED003F0C4F9F0
:102E0000009038B1022C05D200EB8400C566304634
:102E10000CF0B3F8684603F001FAF8BD002213F095
:102E20004DBF38B50546406B002468B103F0ACF9DE
:102E300000900446E96C05F05BF9204405F01AF9AE
:102E40000446684603F0EAF9204638BD1CB50C4636
:102E500003F09AF90090406BF0B103F095F90190FE
:102E600006F036F8009991F8542002B10122002CA6
:102E700000DA0024844200DD0446B1F93800801AEB
:102E8000A04200DA0446C86CA04200D0CC64002006
:102E9000086501A803F0C2F9684603F0BFF91CBD3C
:102EA00010B504461048406920F010000E494861F2
:102EB000204601F005F80C48406940F020000A491E
:102EC0004861082015F0FEFA0748406920F020000C
:102ED00005494861082015F0F5FA00F08FFE034916
:102EE00008600846006810BD00100240E4000020A1
:102EF00010B5044600203B4908603B4908600CE0DF
:102F00002046FFF7CDFF3949374A126841F82200C1
:102F100035480068401C344908603348006806287A
:102F2000EED300203049086035E02F480068401C8F
:102F30002F49086026E02D482B49096850F82110D8
:102F40002B4A126850F82200814216D92748264998
:102F5000096850F821002749086024482449096875
:102F600050F821002149204A126841F822002148E6
:102F700000681F4A126841F822001D480068401C82
:102F80001B4908601A4800680628D4D31648006810
:102F9000401C15490860144800680528C5D3002066
:102FA000104908600120104908600EE00F480E49E2
:102FB000096850F821000B4909680844094908606C
:102FC00009480068401C084908600748006805284F
:102FD000ECD3044800688008064908600846006889
:102FE00010BD0000F0000020E80000206023002059
:102FF000EC000020F4000020F0B504460F46154612
:103000001E463946022000F0D9FC2146032000F07C
:10301000D5FC3146062000F0D1FC2946072000F0FF
:10302000CDFC0F204FF0C0410880F0BD10B500204E
:103030002E4908702E49081F00F044FE00284DD08C
:1030400001202A4908702A48001F00682949096898
:1030500088420DD92648001F006826490968401A91
:103060004FF47A71484324490968B0FBF1F00CE051
:103070001F48001F00681F490968081A4FF47A7139
:1030800048431D490968B0FBF1F01C490860184825
:10309000001F40681A49096888420DD91448001F6A
:1030A000406817490968401A4FF47A714843154936
:1030B0000968B0FBF1F00CE00D48001F40681049B2
:1030C0000968081A4FF47A7148430E490968B0FB41
:1030D000F1F00A4948600548007810BD0020074912
:1030E0000860486001480078F7E7000024010020EC
:1030F0003C230020D4000020CC0000204C230020E2
:10310000D8000020D00000202DE9FF4F83B0814679
:103110000E461C46DDE9117A109DDAF80000029097
:10312000DAF8040001902E4432480068007C00F078
:10313000030030B1012836D002281CD0032855D115
:1031400030E000BF207880222A41104008B1019869
:1031500000E0029803463146761C4846059A00F086
:103160003BFE681C0546082801D10025641C781E1A
:10317000071EE7D13AE000BF2078802129410840AE
:1031800028B131464846019B059A00F025FE761C81
:10319000681C0546082801D10025641C781E071EFE
:1031A000EAD123E000BFD9F8101088688047804634
:1031B00000BF207880212941084060B1314648464F
:1031C000059A00F011FB83468BEA08033146484616
:1031D000059A00F001FE761C681C0546082801D1FE
:1031E0000025641C781E071EE3D100BF00BF07B096
:1031F000BDE8F08FD80200202DE9FF4F81B00F46C7
:103200009846DDE90F9A98F800B00E9D0E9D2F4468
:1032100053480068007C00F0030010B102284BD135
:103220004BE0BAF1000F25D000BFC5F10300440008
:10323000C4F10601C020084100EA0B0020FA04F6A0
:103240005AF82600009039467F1CDDE90030039AC9
:1032500000F0C2FD681C0546042805D1002508F1D0
:103260000100804690F800B0A9F10100B0F100091A
:10327000DBD121E000BFC5F103004400C4F1060129
:10328000C020084100EA0B0020FA04F639467F1CF2
:103290003346039A019800F09FFD681C05460428F8
:1032A00005D1002508F10100804690F800B0A9F191
:1032B0000100B0F10009DED14DE0BAF1000F26D0D7
:1032C00000BFC5F103004400C4F10601C02008415D
:1032D00000EA0B0020FA04F646B15AF826000090E6
:1032E0003946DDE90030039A00F076FD7F1C681C4A
:1032F0000546042805D1002508F10100804690F814
:1033000000B0A9F10100B0F10009DAD122E000BF5C
:10331000C5F103004400C4F10601C020084100EAE1
:103320000B0020FA04F62EB133463946039A019871
:1033300000F052FD7F1C681C0546042805D10025BD
:1033400008F10100804690F800B0A9F10100B0F149
:103350000009DDD100BF00BF05B0BDE8F08F00005F
:10336000D80200202DE9F04107460D4690461C4644
:10337000069E08E0424629463846236800F02CFDA8
:10338000761E6D1C241D002EF4DCBDE8F0810000CB
:103390002DE9FF4F81B00F469846DDE90F9A98F866
:1033A00000B00E9D0E9D2F4453480068007C00F035
:1033B000030010B102284BD14BE0BAF1000F25D029
:1033C00000BFC5F101008400C4F10401F0200841F0
:1033D00000EA0B0020FA04F65AF82600009039465D
:1033E0007F1CDDE90030039A00F0F6FC681C0546FE
:1033F000022805D1002508F10100804690F800B0B0
:10340000A9F10100B0F10009DBD121E000BFC5F155
:1034100001008400C4F10401F020084100EA0B001F
:1034200020FA04F639467F1C3346039A019800F0CF
:10343000D3FC681C0546022805D1002508F10100CF
:10344000804690F800B0A9F10100B0F10009DED18A
:103450004DE0BAF1000F26D000BFC5F10100840095
:10346000C4F10401F020084100EA0B0020FA04F640
:1034700046B15AF8260000903946DDE90030039A3B
:1034800000F0AAFC7F1C681C0546022805D1002517
:1034900008F10100804690F800B0A9F10100B0F1F8
:1034A0000009DAD122E000BFC5F101008400C4F1B7
:1034B0000401F020084100EA0B0020FA04F62EB1C6
:1034C00033463946039A019800F086FC7F1C681C3D
:1034D0000546022805D1002508F10100804690F834
:1034E00000B0A9F10100B0F10009DDD100BF00BFBB
:1034F00005B0BDE8F08F0000D80200202DE9F047AC
:1035000081460F4692461C46DDE908582648006869
:10351000007C00F0030010B1022841D11EE0B8F198
:10352000000F0ED00AE0267858F826305246394669
:10353000484600F051FC6D1E7F1C641C002DF2DC1F
:103540000BE008E0237852463946484600F044FC38
:103550006D1E7F1C641C002DF4DC21E0B8F1000F0F
:103560000FD00BE0267836B158F82630524639464F
:10357000484600F031FC6D1E7F1C641C002DF1DC00
:103580000DE00AE026782EB13346524639464846C9
:1035900000F022FC6D1E7F1C641C002DF2DC00BFBD
:1035A00000BFBDE8F0870000D80200202DE9FF4FE2
:1035B00085B016461F46DDE916BADDE91495DDF83B
:1035C0004880139808283FD006DC012809D002283B
:1035D00018D004287BD126E0102844D0202876D1AA
:1035E00067E000240BE0A2192B46CDE900B7CDF827
:1035F00008A0DDE90501FFF787FD4D44641C444543
:10360000F1DB64E000240BE0A2192B46CDE900B702
:10361000CDF808A0DDE90501FFF7EEFD4D44641C7F
:103620004445F1DB53E000240BE0A2192B46CDE921
:1036300000B7CDF808A0DDE90501FFF7A9FE4D446C
:10364000641C4445F1DB42E0002409E0A2192B464A
:10365000CDE9007ADDE90501FFF750FF4D44641C18
:103660004445F3DB33E0002420E006980190A019E4
:1036700002A9A1C1DDE9010100F096F90F204FF088
:10368000C04108800CE00398008813490880049822
:10369000401E04900198401C01900398801C0390E8
:1036A00004980028EFDC00BF4D44641C4445DCDB7B
:1036B0000DE0002408E0A2192B460097DDE9050182
:1036C000FFF750FE4D44641C4445F4DB00BF00BFCF
:1036D00009B0BDE8F08F000000001060F8B50546A5
:1036E0000E4614461F463B46224631462846009465
:1036F00000F00EF8F8BDF8B506460C4617461D4614
:1037000023463A4621463046009500F001F8F8BDC0
:103710002DE9F84380460C4615461E46089F06488C
:103720000068C06B00683B46324629460090204640
:1037300000F0CCF8BDE8F883D80200200246002053
:10374000704700000246A1F10900082813D2DFE803
:1037500000F00406080A120C0E10084870470848CA
:10376000FCE70848FAE70848F8E70848F6E7084899
:10377000F4E70848F2E70020F0E70000373E0008D1
:103780005D3E0008F93D00081D380008153B0008A3
:10379000053B0008993D000803460A4699680F2A30
:1037A0001FD2DFE802F01E080A0C0E1E1E1E1012A9
:1037B0001416181A1C00486870478868FCE7C86827
:1037C000FAE70869F8E78869F6E70020F4E70120DE
:1037D000F2E70120F0E70020EEE70020ECE7002010
:1037E000EAE74FF0FF30E7E72DE9F04107460C46E6
:1037F00015462946204600F0C1F806463046BDE889
:10380000F081826800230B804B8093895B1E1BB282
:103810008B80138A5B1E1BB2CB80704770B5044649
:10382000204600F009F8054600220121A06907F0B2
:1038300017FF0543284670BD70B50446A06858B907
:103840001C2002F009FCA060A568216988688047F7
:10385000064607F0EDFFA861A06808B9012070BD19
:103860000020FCE770B5044640F2DF1340F21F323F
:1038700000210846FFF7C0FB002508E0002602E013
:1038800005490C80761CB6F5F07FF9D36D1CB5F5B3
:10389000487FF3D370BD00000000106000B5032125
:1038A000012000F08BF800BD30B504460D462B46D4
:1038B000224629462046FFF79FFB0248008802491E
:1038C000088030BDC8000020000010602DE9F047DE
:1038D00004460D4616461F46DDF820A03B463246FC
:1038E00029462046FFF788FBA8460AE0A14604E0E7
:1038F0000649A1F800A009F10109B145F8D908F17C
:103900000108B845F2D9BDE8F0870000000010605A
:1039100010B51848006840F010001649086064208F
:1039200014F0D6FD1348006840F0200011490860EB
:10393000642014F0CDFD1048406920F040000E498D
:103940004861642014F0C4FD0B48406940F0400019
:1039500009494861642014F0BBFD0648006820F066
:10396000800004490860642014F0B2FDFFF796FF60
:1039700010BD0000140C02400010024030B5044697
:103980000D46B4F5487F02D2B5F5F07F01D3002093
:1039900030BD2B46224629462046FFF72DFB014825
:1039A0000088F5E70000106030B504460D462B4650
:1039B000224629462046FFF71FFB30BD4FF0C0438B
:1039C0001880014B198070470000106010B501206D
:1039D00004F0A2F93C480AF077FC3C4809F080FA70
:1039E0003B4801F067F8394809F07AFA3948FEF7A0
:1039F00015FC3948FEF720FD3848FEF749FE3848E7
:103A000009F08CFD374809F077FE374806F0BEFF15
:103A1000364809F03BFB08F0D9F93549086003F056
:103A2000E5FA4FF42073334A19463348006802F030
:103A30002FF8324908602E4908693049096801F0B9
:103A400051FF2F4A11682A4A10680AF0B5FE2C4926
:103A500048600A469168264A10680AF0ADFE284977
:103A6000C8600A461169224A10680AF0A5FE244976
:103A700048610A4691691E4A10680AF09DFE204975
:103A8000C8610A46116A1A4A10680AF095FE1C4974
:103A900048620A46916A164A10680AF08DFE184973
:103AA000C8620A46116B124A10680AF085FE144972
:103AB00048630A46916B0E4A10680AF07DFE104971
:103AC000C86303F093FA10BD404040005DCE00088B
:103AD00041460008511F000849230008E525000859
:103AE00069D30008CDD500084DA90008D5CF00083E
:103AF000C4730020340D0020CC010020C001002040
:103B0000D401002010B5044600220621A06907F068
:103B1000A7FD10BD10B5044600220521A06907F0DD
:103B20009FFD10BD10B5FFF781FA3049087407F00A
:103B3000E7F92E490968884205D907F0EDF92B49C4
:103B40004968884204D80020284908604860087401
:103B50002748006825490968884205D92448006833
:103B600022490968401A04E0204800682049096891
:103B7000401A204908801E4840681C49496888420C
:103B800005D91B48406819494968401A04E017489C
:103B9000406817494968401A174908801448007A54
:103BA0001249097C884207D1124800881E2803DC8C
:103BB000114800881E2817DD0C48007C0C4908724B
:103BC0000A48007C48B10948006808600748406816
:103BD0004860084604F032FA06E0054804F02EFA80
:103BE000002003490860486010BD00004C230020FD
:103BF00028010020340100203601002010B50020EB
:103C00001A4908701A4908601849087026E01848CF
:103C100000684000164908601648406940F02000DE
:103C200014494861082014F04DFC1248406920F006
:103C3000200010494861082014F044FC0E48006838
:103C400000F0040028B10A48006840F0010008496B
:103C5000086006480078401C044908700348007852
:103C60000C28D4DB0248006810BD0000DD000020F5
:103C7000E000002000100240100C024070B5044625
:103C80000D46D020FFF734F90C4908609020FFF76B
:103C90002FF90B49086009480068642803D30846D7
:103CA0000068642801D2002070BD044800682060CC
:103CB0000348006828600120F6E70000F8000020B3
:103CC000FC00002070B504460D462E492E48FFF733
:103CD000D5FF2E4908700846007808B9002070BD4D
:103CE0002B492C48FFF7CAFF28490870084600787E
:103CF00008B90020F3E7274800682349096888428B
:103D000006D82148016823480068143081420CD34A
:103D10001D4800681F490968884230D81D4801685D
:103D2000194800681430814229D2194800681549A1
:103D30000968884206D8134801681548006814309D
:103D400081420CD30F48006811490968884216D88F
:103D50000F4801680B480068143081420FD20A48AE
:103D600000680C490968084440082060054800685C
:103D7000074909680844400828600120AFE700208F
:103D8000ADE7000004010020000100201001002028
:103D90000C010020080100207CB504460D461646A3
:103DA0000020009001908DF8045000966A4604218E
:103DB000A06907F055FC7CBD7CB504460D4616464F
:103DC000002000900190009501966A460321A069A9
:103DD00007F046FC7CBD00002DE9F04107460C468B
:103DE00015461E460348066029462046FFF75CFD3F
:103DF000BDE8F081C80000202DE9FC4105460E46D3
:103E000017460020009001902846FFF715FDA8688E
:103E100078B1AC68606908B9304600E060696061FB
:103E20006660A760009601976A460721A86907F0B7
:103E300017FCBDE8FC81F8B504460D460020009053
:103E40002046FFF7F9FCA06838B1A66835600095F8
:103E50006A460221A06907F003FCF8BD2DE9F04194
:103E600005460E4617462846FFF7E6FCA86818B137
:103E7000AC68E66027616661BDE8F08104214FF01F
:103E8000C0421180014908807047000000001060A6
:103E90000A48406940F010000849486108464069F6
:103EA00040F0200048610846406940F00400486145
:103EB0000846406940F02000486170470010024009
:103EC00010B5044600201D4908701D48406920F0C7
:103ED00020001B49486100201849087028E004F0C0
:103EE000800030B11648406940F004001449486130
:103EF00005E01348406920F004001149486160065C
:103F0000040E0F48406920F020000D494861082048
:103F100014F0D8FA0A48406940F020000849486186
:103F2000082014F0CFFA05480078401C03490870B7
:103F3000024800780828D2DB10BD0000DC00002019
:103F40000010024005214FF0C04211800149088055
:103F500070470000000010602DE9F04104460D4656
:103F60001646324629462046FFF73EFC07462169A1
:103F700088688047804687EA0803324629462046FB
:103F8000FFF72AFFBDE8F08100BFFEE770B52DED19
:103F9000048B0446002594ED022BB0EE420AF0EEAD
:103FA000620A94ED002BB0EE421AF0EE621A53EC66
:103FB000102B51EC110BFCF76BFA41EC180BFCF7D2
:103FC00013FB0546214890ED281BB0EE410AF0EEA8
:103FD000610A53EC102B9FED1E1B51EC110BFCF7EB
:103FE00057FA41EC180BFCF7E0FAA84200D16D1C1F
:103FF0006808206105F0010018B12069401C60616B
:1040000001E02069606194ED001BB0EE410AF0EE22
:10401000610A9FED111B53EC112B51EC100BFCF7B7
:10402000C5F941EC190B94ED021BB0EE410AF0EE1C
:10403000610A53EC102BFCF72BFA41EC180BFCF740
:10404000D3FAE083BDEC048B70BD00003822002061
:104050000000000080842E41C3F5285C8FC2ED3F34
:1040600010B50748006820F48070054908600846CC
:10407000006840F080000860052014F023FA10BDAD
:104080001404024010B504467F220021204606F0A9
:104090008BFCB4F8D81041F2C8000153218D801C6C
:1040A0000153801E015B801C005B081A81B241F243
:1040B000CC00015310BD00002DE9F0412DED048B23
:1040C000E4B005460E464FF4C8716846FCF79FF809
:1040D00000240027A0469FED430BB0EE408AF0EE8F
:1040E000608A318B728B881A00EBD0714FEA6108BD
:1040F000D6E904128818FCF74BFA41EC190B53EC83
:10410000192B9FED3A0B51EC100BFCF7C1F905F59B
:10411000805242F8E80F516000BF0FE005F5807053
:10412000611C30F8111030F81400081A404504DD05
:1041300038467F1C4DF8204003E0641CB4F5006F46
:10414000ECDB00BF0EE005F58070611C30F811104B
:1041500030F81400081A404503DD38467F1C4DF83E
:104160002040641CB4F5006F01DA642FEBDB0124FE
:1041700010E05DF82420611E5DF82110501AFCF754
:10418000F6F941EC190B53EC182BFCF768F841ECED
:10419000180B641CBC42ECDB781EFCF7E8F941EC20
:1041A000190B53EC192B51EC180BFCF771F941EC7E
:1041B000180B05F5805090ED3A1BB0EE410AF0EE79
:1041C000610A53EC102B51EC180BFCF7EFF805F5D6
:1041D000805242F8B80F516064B0BDEC048BBDE86A
:1041E000F08100000000000000000000000000005E
:1041F00065CDCD412DE9F0472DED028B81460D4671
:1042000016461F46DDE90A844846FCF7C1F9C4E9B1
:1042100002012583668327772046FFF7B7FE2069D2
:1042200040442061D4E904128818FCF7B1F941EC4C
:10423000180B94ED001BB0EE410AF0EE610A53EC4E
:10424000182B51EC100BFCF723F9C4E90201FFF71E
:1042500007FF206909F060FC606909F05DFC208BB4
:1042600009F040FC608B09F03DFC207F09F086FCE2
:10427000E08B09F037FCBDEC028BBDE8F0872DE93F
:10428000F04389B0984615460F4606004FF00004EB
:1042900028D000F0B7FB0446304600F09FFB814673
:1042A00003A9304600F0CBFCF80706D0BDF91C008E
:1042B0008221001B401B401C08E0B807BDF9180014
:1042C000284402D540F2022100E002210096CDE907
:1042D000018123461A464946FDF7C8FD04460021E0
:1042E000FDF7AAFF09B02046BDE8F08310B505230D
:1042F000FFF7C5FF0446054A0021FDF7BDFF04494D
:1043000020460AF0B5FF204610BD00004D0F010801
:10431000E57A010810B50723FFF7B1FF0446054A07
:104320000021FDF7A9FF044920460AF0A1FF20461D
:1043300010BD000099100108FB7A010810B5082390
:10434000FFF79DFF0446054A0021FDF795FF04494C
:1043500020460AF08DFF204610BD0000C91001085C
:10436000317B01082DE9F047044640688EB00027F4
:10437000804601F009FF0090B0F87CA0D0F868906A
:10438000D0F88060D0F88850C06D00B107686846EA
:1043900001F044FF05E0696820468847002843D1C2
:1043A0002D68002DF7D12068172853D00CDC0F287A
:1043B0003DD004DC0B2877D00D2825D18BE01128C7
:1043C00010D0142820D13BE0262846D004DC1E283B
:1043D00051D0202818D18AE02A2816D0B0F5107FB5
:1043E00012D128E04046E56801F0CEFE0290697ADD
:1043F00039B9297A012904D130F87C1F41F4807140
:10440000018002A801F00AFF75E0404601F0BCFE01
:104410000090E16811B1C0F8841002E0D0F8840087
:10442000E060684601F0FAFE0EB0BDE8F087D7B351
:104430004046B8475FE02146404610F0DDFFF3E715
:1044400005A9404600F0FBFBE0680699016007996A
:104450004160E9E7C4F80C90E6E7E0680228E3D1A0
:10446000CDF83080E0680D9027200A900AA9A06856
:104470000BF072FDD8E7E068012804D00021404627
:1044800000F0EDFAD0E730460AF0CCFD68B13046D6
:104490000AF098FF30460AF0A7FC98B10121304697
:1044A00009F0D2FD0EE026E02FE048460AF0D8FFE2
:1044B0000646404601F068FE0090C0F880606846FD
:1044C00001F0ACFE0121404600F0C9FA002EABD14C
:1044D0000020E060A8E75FEA0A700CD4E068C068DA
:1044E00048B1007A38B140460AF06CFF03E021463B
:1044F000404610F0F2FB2146404609F015FD002829
:1045000092D020460AF030F88EE7404601F03CFE9B
:104510000090703001F08AFD684673E7F0B587B00F
:10452000B0F908400DF10C0C0C9E876945688CE8C9
:10453000F000448A0025CDE900150294B0F90C1072
:10454000B0F91050B0F90E40B0F90A001944104407
:104550002B46224600F002F807B0F0BD2DE9F047E7
:104560008AB00DF14C0CDDE917849CE86006129FBF
:1045700045F48055DFF8BCC06034CDE902C4CDE914
:10458000007509F043FF04004FD001F0FDFD30221B
:104590004946049009F06EFE0498282226493430DA
:1045A000FBF70EFE0498244FC0F86480A0F87C60EE
:1045B0000026C0F88060C666083FC0F88860796849
:1045C000C16504A801F02AFE05A9204600F037FBCA
:1045D0001A4841F2827103960094CDE90110BDF9A9
:1045E0001E00BDF91A10BDF91C20431ABDF91800B0
:1045F0005B1C121A521C09F009FF064678684168D4
:1046000020468847204601F0BFFD0490866604A836
:1046100001F004FE42F20400054202D120460AF0F5
:1046200049F85146204600F089FA0AB02046BDE814
:10463000F0870000654300086C050020454F000826
:104640002DE9F041044694B0006800F0B7F908B1D4
:10465000D94D01E0D84D2C35606815281ED00CDCF2
:104660000B281FD004DC00287ED005287DD12FE147
:104670000E287BD01228F9D141E1162806D0172840
:1046800008D0182808D01C28F0D109E0E86914B037
:10469000BDE8F081286AFAE7686AF8E7A86AF6E7F1
:1046A0006869F4E720680B901C200C90206801F0EA
:1046B0006BFD0390016D0BA88847064603A801F027
:1046C000ADFD022E0FDB95E807008DE80700D4E969
:1046D00004023346A16904F011FA20698719A06920
:1046E000A0EB06082CE0286803F038FB2169E86994
:1046F0000A18521E606902F07BFBA269E869111A70
:10470000491C606902F074FBD4E904077F1C394638
:1047100002F0B0FB3946A06902F0ACFB686803F018
:104720001DFB20693946401C02F0A4FBA0693946F4
:10473000401E02F09FFBA0692769A0F10208BF1C80
:10474000286803F00BFB42463946606902F050FBD3
:10475000686803F003FB606942463946401C02F07A
:1047600047FB686A022802E015E1B0E000E10BDDDA
:10477000A86803F0F3FA61696A6A881C8B1801461D
:10478000424638465B1E27E0296AB14226DD606951
:10479000022E074600F1020801DB374401E007F171
:1047A0000207206901DB304401E000F102002269C8
:1047B0003B460A444146A2F1010202F039FC022EB6
:1047C00002DBA069821B01E0A269921EA069E9696F
:1047D0003B46401A4146401C02F02AFC022E02DBF6
:1047E0006069064401E06669B61CE76928687F1EB7
:1047F00003F0B4FA3A463146206902F099FB3A4692
:104800003146A06902F094FBE7696868BF1E03F0B7
:10481000A5FA20693A463146401C02F089FBA0699E
:104820003A463146401E02F083FBE869022802DC6A
:10483000286A022823DDA86A022802DDE1690F1A2E
:1048400001E0E769BF1EA86803F088FAE969022958
:1048500009DD20693B46421800F1020C31466046F2
:10486000521E02F0E5FB286A022808DDA269E86909
:104870003B46101A3146401C921E02F0D9FB2868B4
:1048800003F06CFAD4E90620216902F0B1FA6868F5
:1048900003F064FAD4E906202169401E491C521E27
:1048A00002F0A6FAA86A022811DDA1692669E46966
:1048B000A1F10208271AA41EB61C7F1CA86803F0E9
:1048C0004DFA234642463946304602F0B1FB71E0CC
:1048D000208A00B2ADF81400A18A09B2ADF8161012
:1048E000228B12B2ADF81820A38B1BB2ADF81A3090
:1048F0002C69ED68CDE9005402F022FA5AE0208AD2
:10490000298B0844ADF81400A08AADF81600208B5E
:10491000298B401AADF81800A08BADF81A0020685A
:1049200001F032FC0390006FF0B1022003F062FA54
:10493000039890F87C10C1F3C00100EB8100006C7B
:1049400003F00CFA0398406B03F012FA0398006F1F
:1049500001F01AFC03990990B1F95A2005A902F057
:1049600053F809A801F05AFC03A801F057FC21E014
:10497000208AADF81400A08AADF81600208BADF89F
:104980001800A08BADF81A00A86803F0E7F905A895
:1049900002F072FB0EE0206801F0F6FB039030F8A5
:1049A0005A1F41F00C01018003A801F037FC206878
:1049B0000AF07EFD00206AE6A805002038B5002434
:1049C00050B101F0E1FB009090F87C00000700D5A9
:1049D0000124684601F022FC204638BD38B50500A8
:1049E0004FF000040CD001F0CFFB0090C06D00210F
:1049F00080680268284690470446684601F00EFC2D
:104A0000204638BD30B587B005004FF000040ED009
:104A100001A900F014F9284601F0B6FB0090B0F9A6
:104A20005440684601F0FAFB0CB9BDF9044007B0E8
:104A3000204630BD002801D010F056B8704700283D
:104A400001D010F0A0B8704710B5040006D011F0E6
:104A5000F1FC2046BDE8104011F0C0BC10BD00289C
:104A600001D011F083BD7047F8B515460C4606001D
:104A70000DD001F089FB0090022C05D200EB8400E0
:104A8000856330460AF079FA684601F0C7FBF8BD45
:104A900038B50C4600280CD001F076FB0090816CF4
:104AA000A14203D08464806E0AF067FA684601F080
:104AB000B5FB38BD074A0649054B1160064A083B5D
:104AC000D16958601B68C2E906300846704700008B
:104AD0009C050020680500206C0500202DE9FC41A4
:104AE0000D46070028D001F04FFB0190C16D8C6886
:104AF00000F00CF980460198456301A801F08EFB97
:104B0000226801213846904706462268032138462C
:104B100090470546226800213846904704463846AB
:104B200000F0D9F92B46324641463846009400F051
:104B300062F938460AF021FABDE8FC817CB50D46E1
:104B4000040019D001F020FB0090006F019068462E
:104B500001F064FB294601A804F010FB00280BD0EB
:104B6000204601F011FB009001990167684601F0B1
:104B700055FB20460AF001FA7CBD38B50C4605000D
:104B80000ED001F001FB0090B0F95A10A14204D000
:104B9000A0F85A4028460AF0F0F9684601F03EFBBA
:104BA00038BD38B50C4605000FD001F0EDFA0022F3
:104BB000009000EB8201521C0C64022AF9D3684673
:104BC00001F02CFB28460AF0D8F938BD2DE9FC4746
:104BD0000D465FEA00094FF000042DD001F0D4FA31
:104BE0000190B0F95440A54223D000F08FF88046E0
:104BF00001980121A0F85450C06D856848462A6884
:104C0000904707462A6803214846904706462A6887
:104C10000021484690470546484600F05CF9334677
:104C20003A4641464846009500F0E5F848460AF005
:104C3000A4F901A801F0F2FA2046BDE8FC872DE9AD
:104C4000F34F85B000270C46B846059801F09CFA52
:104C50000090C06D0121856805982A6890478246BA
:104C60002A6803210598904704902A680221059834
:104C7000904703902A6800210598904706460098BF
:104C80000AF0D8FD834600980AF0DBFD81460098C3
:104C900090F83210890601D5B0F9588000F036F846
:104CA00005460098C06E10B109F0C4FE0746258085
:104CB0006780A4F804A0049AABEB020006EB08029C
:104CC000401E2A4420813A44E280039BA9EB030260
:104CD000521E6281A4F80CA020827019E681401E49
:104CE0006082684601F09AFAB4F90C000190B4F9B8
:104CF0001000029002AA01A9059800F039F8019865
:104D0000A0810298208207B0BDE8F08F10B501465F
:104D1000002091F83220920607D5B1F954000028FE
:104D200003D1486B02F09CFA801C10BD70B58AB0AC
:104D30000C46054601F028FA0990C06D866809A85E
:104D400001F06CFA009534B1012C06D0022C0BD086
:104D5000032C04D10AE0182000E0162001907168AD
:104D6000684688470AB070BD1520F7E71720F5E7B9
:104D70002DE9FC4117468846044601F005FA0090EB
:104D8000C16D056868468E6801F048FA32680021F6
:104D9000204690470646204609F016FD27E000BF52
:104DA00001F0F2F90190B0F900102AB2B0F9043024
:104DB000891A9A1AB0F90230A3EB2543B34210D1F5
:104DC00090F82800000605D53868884209DB491E9E
:104DD000396006E0D8F80000904202DC521CC8F8A6
:104DE000002001A801F01AFA204609F096FD0400FF
:104DF000D6D1BDE8FC812DE9FF4F83B00E460746B2
:104E0000DDF8409001F0C0F90190C16D8D68FFF7A9
:104E10007DFF044601A801F001FA2A680121384605
:104E2000904783462A6803213846904782462A687D
:104E30000021384690470546B44207D105998B4575
:104E400004D106998A4501D14D4541D0A41B0026C5
:104E5000B046384609F0B8FC38E001F095F900900A
:104E6000806A010601D5800502E0810528D500068B
:104E7000002825DB24B12246114638460AF034F9D1
:104E8000009890F8280000060AD50698A5EB0902BC
:104E9000A0EB0A0004FB16013846761C0AF0EFF876
:104EA0000098008D80050BD50599A5EB0902ABEBA9
:104EB000010004FB080108F1010838460AF0DFF898
:104EC000684601F0ABF9384609F027FD0700C4D168
:104ED00007B0BDE8F08F70B586B0064601F054F912
:104EE0000590D0E91A4505A801F098F954EA0500A3
:104EF00026D069463046FFF7A2FEACB1BDF90620C8
:104F0000BDF9041020460AF08FF8BDF90A00BDF97A
:104F10000610421ABDF90800BDF90410521C411ACE
:104F20002046491C0AF0F4FA002D09D0BDF906000C
:104F3000BDF90210421ABDF9041028460AF074F8AF
:104F400006B070BD2DE9F0430446406889B00546BF
:104F500009F0FAFC814601F017F90290D0F8488078
:104F6000D0F88070466E02A801F058F92068172822
:104F700053D008DC0E283AD00F2811D014284CD07A
:104F800015283DD149E01E281ED01F282AD02228EE
:104F900040D0312834D10020E06009B0BDE8F08372
:104FA0006FF070414046884503D006F051F901F09A
:104FB000DBFA002EF1D0D4E902122068CDE9040515
:104FC000CDE9061204A81FE0E0680028E5D02FB163
:104FD000AF4203D038460AF0F5F9DEE728460AF07A
:104FE0003FFADAE72146484608F09EFFD5E7E06839
:104FF0004168002904DD00680928EFD00A2805D09F
:105000005EB12046C4F80490B047C6E728460AF0CF
:105010002FFAC2E7C4F80C80BFE7204609F0A4FAD3
:10502000BBE7000070B504461D460023B5F5804F70
:1050300013D154F822300C480340D1E9000640EA6D
:1050400006108E6840EA06208E8940EA06408E6986
:105050003043034344F8223003E06FF0704044F8DB
:105060002200002070BD00000000F0CF10B5034604
:105070000022086853F8202012480240D1E90104B8
:105080002043CC6820430C6920434C6920438C6941
:105090002043CC6920430C6A20434C6A20438C6A2D
:1050A0002043CC6A2043CC6B20430C6B204302434B
:1050B0008868082801D142F04002086843F820209F
:1050C000002010BD8000F0FF30B503460024501CC6
:1050D00053F8204004F04044D1E9000540EA0510AF
:1050E0008D6840EA05208D8940EA0545088A401E02
:1050F00045EA0055087D801E45EA00608D69284319
:105100000443501C43F82040002030BD10B52DED65
:10511000048B2A494869FBF73BFA41EC180B2748F6
:1051200090ED021BB0EE410AF0EE610A53EC102B39
:1051300051EC180BFBF784FA2ED1204890ED021B9E
:10514000B0EE410AF0EE610A51EC100BFBF74CFA9D
:105150001A494861084690ED021BB0EE410AF0EE94
:10516000610A9FED171B53EC112B51EC100BFBF751
:105170001DF941EC190B9FED140B53EC102BFBF7B1
:1051800087F941EC180BFBF72FFA0446234600225F
:1051900010210F4804F0ECFA0848006907494968F3
:1051A000884208D1054840680449086108464168BA
:1051B0000020FBF7F3FBBDEC048B10BD9800002032
:1051C000000000000000B040000000000000594056
:1051D000680A002010B52DED048B0A21012004F08F
:1051E000CFF8BCEEC00A10EE100A124988830846B8
:1051F000808B00EE100AB8EE400A10EE101A084636
:10520000FBF70BFA41EC190B9FED0B0B53EC102B3A
:10521000FBF7CCF841EC180BFBF742FA05490862A2
:105220004FF4006300221021054804F0A1FABDEC00
:10523000048B10BD580000206666666666664A3FAD
:10524000680A002010B50024064807F04FFD00B999
:1052500010BD002400E0641CB4F5207FFBDB00BF20
:10526000F6E70000340D00202DE9F0430446C56840
:1052700087B090468946002002F078FD064625B1A9
:10528000287910B146F0020001E026F0020002F099
:105290006DFD2069012558B1D4E902128DE8260080
:1052A000039563882288046841464846A0471EE06B
:1052B000124F134B214638681B68427CE0689847C0
:1052C00030B9E088012801D0002001E03868806B07
:1052D000A288E388A1680095CDE90410CDE90232E7
:1052E0000195638822884146484605F0B9FB07B01E
:1052F0003046BDE8F04302F039BD0000D80200207E
:10530000D00200201CB50024019401AC009400F0F0
:10531000E7F81CBD2DE9FF4F83B0814606988A4609
:10532000A0EB0A08109E00200090A2EB090435684B
:10533000934654EA080018D02046FBF75DFC074668
:105340004046FBF759FC87420BDA2046444680462C
:105350004846D14682465846DDF818B006900120EE
:105360000090002C07DD204606E007B04846BDE867
:10537000F04F00F03BB96042A0420AD04846D946FF
:105380006442C8F1000883464FF0FF37DDF818A0EB
:1053900000E001275148B8F1000F11D004EBD4719F
:1053A0004FEA610B01DACBF1000B4C480068807EBC
:1053B00088B3002F02DA30682044306000257BE09B
:1053C00000990029016821D0897E11B1002780460B
:1053D00015E007B05A4649465046BDE8F04F05F083
:1053E000A1BC28466D1C11F09FF938B9D8F800000F
:1053F00009EB0701406E4268504690477F1CA74268
:10540000EFDD6D1E356007B0BDE8F08F8A7E1AB102
:105410000027804617E019E0486E5A465146036857
:1054200007B04846BDE8F04F184728466D1C11F0FC
:105430007BF938B9D8F8001009EB0700496E4A68C3
:10544000514690477F1CA742EFDDDAE700250FE0C9
:1054500008FB05B090FBF4F101EB0A00009951B193
:105460001E4A09EB05011268526E526890476D1C86
:10547000A542EDDDC7E7194909EB05030968496E47
:105480004A6801461846F1E708FB05B090FBF4F1C5
:1054900001EB0A00019030683844306011F044F9A3
:1054A00048B9009890B10D4809EB05010068406EBD
:1054B0004268019890476D1CA542E5DD3068002FD9
:1054C00001DA20443060C01B30609CE7034909EBDF
:1054D00005000968496E4A680199EBE7D802002087
:1054E0002DE9FF470F4640491646804609680C984B
:1054F0001D460A7E012A1CD0A8EB0600791B50EA43
:1055000001031CD0A2F1010912F0AAFA00F5806093
:10551000824603F004FF00FB09F4504603F004FF49
:1055200000FB09F1002C0CDAC4F500708012404237
:105530000AE00090324639464046FFF7EBFEBDE8F0
:10554000FF8704F50074A012002904DAC1F5007188
:1055500089124C4202E001F500718C12002804DD32
:10556000411C01EBD171491003E000EBD0714910EF
:10557000401E00EBD0704210002C04DD601C00EBDC
:10558000D070401003E004EBD4704010641E04EBB4
:10559000D47308EB0104ADF800403C18ADF80240AC
:1055A000A8EB02045B10B21AADF80440ADF8082075
:1055B0003144FC1AEA1AADF80C102844ADF80A2060
:1055C000ADF80E000023ADF806401A4604216846E7
:1055D00000F07AF8394640460DF0F0F92946304699
:1055E0000DF0ECF9ABE70000D8020020064A136882
:1055F0001A7E012A05D0521E02EBD272521000F020
:1056000005B85A6E52681047D80200202DE9F05FA5
:105610000646884640F2C32002FB00F14FF47A7040
:1056200091FBF0F702FB02F102EBD27001EB600B91
:105630001446B118234A301B7F1C1268526E13683F
:105640000A4641469847012538E000BF05FB05F0B2
:1056500004FB040159451CDDBC4219DD194B06EB66
:10566000050AA6EB05091B68AAF1010208EB040173
:105670005B6E09F101001B689847124BAAF1010209
:10568000A8EB04011B6809F101005B6E1B689847D9
:10569000641E0C4B3219301B1B68924608EB050147
:1056A0005B6E81461B689847064B5246A8EB050186
:1056B0001B6848465B6E1B6898476D1CBD42C5DD84
:1056C000BDE8F09FD80200202DE9FF4F43F6FF749C
:1056D0000F46664283B09B46814600210BE000BF27
:1056E00009EB8100B0F90200A04200DA0446B042A2
:1056F00000DD0646491CB942F2DB67480068406994
:1057000000280DD0B0F906101A46A1EB0B01B142EA
:1057100000DA0E46B0F90200801AA04200DD04460D
:10572000B4E0DFF878A100200546CAF8000088E060
:10573000781E854201DA6B1C00E0002309EB850C22
:1057400009EB8302BCF90200B2F90210A04244D175
:10575000A14215D139F92330059A39F9251003EB07
:10576000020C4D4A05981268084404EB0B01526E76
:105770006045136801DA62462AE00246604627E087
:105780002846A4464FF000087A1E0BE008B1401EE0
:1057900000E0781E09EB8003B3F90230634504D1C1
:1057A00008F101089045F1DB2346A34248D01A1BBB
:1057B00039F92500A1EB040C059B92EA0C0F09D4E2
:1057C000354A184404EB0B011268526E1368024606
:1057D000984735E00AF0C4FC32E0A14230D001DB4A
:1057E000A04203DDA0422BDBA14229DCE046884237
:1057F0000ADC0346A04223DC0846A14220DBB8F9BC
:1058000000C0B2F9001008E00B46A14218DCA0422B
:1058100016DBB2F900C0B8F90010E21AA1EB0C01D6
:1058200051430029A0EB030202DD01EB620102E01B
:10583000A1EB6201491CC01A91FBF0F06044C9E77A
:105840006D1CBD42FFF674AF0598009004EB0B0091
:10585000019000208046054613E01149B8F1000F81
:1058600031F915A009D0009901EB0A0208440A4950
:105870000968496E0B680199984788F001085046FD
:105880006D1C064909688D42E7DB641CB4427FF752
:1058900048AF07B0BDE8F08FD8020020E009002033
:1058A0004876002010B5002002F056FA6FF07F40D5
:1058B00002F054FA012002F08BFA002002F090FA74
:1058C000002002F097FA002002F050FA0448006825
:1058D00002F04EFABDE81040002002F055BA000078
:1058E000D402002033B583B0040016D000F04CFC85
:1058F0000190456E01A800F091FC049800F044FC72
:1059000000908460684600F089FC042204A92846BF
:1059100000F0A8FC204609F030FB05B030BD33B5DF
:1059200083B0040016D000F02FFC0190856E01A812
:1059300000F074FC049800F027FC00908460684636
:1059400000F06CFC042204A9284600F08BFC2046E1
:1059500009F013FB05B030BD2DE9F04104460025E8
:10596000D4E90007B0F5407F00D101252146384633
:1059700008F0DAFA064615B138460FF04EF8002E58
:105980002FD02068052806D00B280ED00F2806D06F
:10599000262821D10EE038460FF03FF81CE03846AB
:1059A000E168BDE8F0410FF093BA3846BDE8F04138
:1059B0000FF0C2B9E06805280ED1384608F0E9FFBB
:1059C000A168884205D0384608F0DAFFA16888420D
:1059D00002D160680FF0C1FC2046BDE8F04108F03C
:1059E000C3BDBDE8F081F0B585B0B0F90850468A76
:1059F00084690296CDE903540027CDE90017B0F978
:105A00000C10B0F91050B0F90E40B0F90A0019446A
:105A100010442B46224600F003F805B0F0BD00000C
:105A20002DE9F04186B00DF1300CDDE90F849CE8E2
:105A3000E0006C34DFF850C003948DE8601008F08B
:105A4000E5FC04001BD000F04AFC054600F047FCD2
:105A50000646204600F098FB0490C0E91956002243
:105A6000414608F007FC0498302208493430FAF720
:105A7000A7FB0498A0F8787004A800F0CFFB06B04C
:105A80002046BDE8F08100005959000800060020BA
:105A90002DE9F043814685B01D4690460F462C20E7
:105AA00000F081FA060024D0780000F07CFA0400AF
:105AB0000ED0B8F1000F0BD055B1204600F064FBBA
:105AC0006A0041460090FAF77BFB684600F0A6FBAF
:105AD000304600F059FB0949029000F10C02446283
