:020000040800F2
:1000000010BB00209D01000871C00008A701000876
:10001000A9010008AB010008AD01000800000000C4
:10002000000000000000000000000000D1D1000826
:10003000B10100080000000019C8000887D20008BC
:10004000B7010008B7010008B7010008B7010008B0
:10005000B7010008B7010008B7010008B7010008A0
:10006000B7010008B7010008B7010008B701000890
:100070000D250008B70100081D250008B70100087C
:10008000B7010008B7010008B7010008B701000870
:10009000B7010008B7010008B7010008B701000860
:1000A000B7010008B7010008B7010008B701000850
:1000B000B7010008B7010008B7010008B701000840
:1000C000B7010008B7010008B7010008B701000830
:1000D000B7010008B7010008B7010008B701000820
:1000E000B7010008B7010008B7010008B701000810
:1000F000B7010008B7010008B7010008B701000800
:10010000B7010008B7010008B7010008B7010008EF
:10011000B7010008B7010008B7010008B7010008DF
:100120002D250008B7010008B70100083D2500088B
:10013000B7010008B7010008B7010008B7010008BF
:10014000B7010008B7010008B7010008B7010008AF
:10015000B7010008B7010008B7010008B70100089F
:10016000B7010008B7010008B7010008B70100088F
:10017000B7010008B7010008B7010008000000003F
:10018000B7010008B7010008DFF80CD000F052FBFF
:1001900000480047F579010810BB00200648804759
:1001A00006480047FEE7FEE7FEE7FEE7FEE7FEE75C
:1001B000FEE7FEE7FEE7FEE75DD3000889010008E1
:1001C00010B5431A934209D28318881803E010F837
:1001D000011D03F8011D521EF9D210BD40EA0103B2
:1001E0009B0703D009E008C9121F08C0042AFAD2ED
:1001F00003E011F8013B00F8013B521EF9D210BD9B
:10020000D2B201E000F8012B491EFBD27047002258
:10021000F6E710B513460A4604461946FFF7F0FF05
:10022000204610BD421C10F8011B0029FBD1801A8A
:10023000704730B504460020034600E05B1C934243
:1002400003D2E05CCD5C401BF8D030BD034611F812
:10025000012B00F8012B002AF9D1184670472DE92F
:10026000FE4F804681EA0300C00F0C46009021F04B
:10027000004123F00045B8EB0200A94105D24046F9
:10028000214690461C460B46024623F00040104390
:1002900047D0270DC7F30A00C3F30A510290401A52
:1002A000019040286BDAC3F3130040F4801B0098E0
:1002B000924620B10023D2EB030A63EB0B0B0198AB
:1002C0005946C0F14002504600F0EEF906460D4690
:1002D00050465946019A00F006FA10EB08006141B9
:1002E000002487EA115284EAE7731A4340D0009A47
:1002F00062B3019A012A4FEA075215DC001B61EB39
:1003000002014FF0004202EA0752CDE90042001C10
:1003100041F5801132462B4600F03DFA03B0BDE8AE
:10032000F08F40462146F9E7001B61EB0201001CFB
:1003300041F5801300185B412018A2F5001747EB28
:10034000030140EAD570B6196D4111E06D084FEA1E
:10035000360645EAC0754FEA0752001B61EB020101
:10036000001C41F5801149084FEA30000019514145
:1003700032462B4603B0BDE8F04F00F0FDB90098BF
:10038000012240000023D0EB020263EBE0730098EF
:1003900021464FEAE074B8EB000061EB0401E9E7A5
:1003A00083F000435BE781F0004158E72DE9FE4F01
:1003B00081EA030404F0004421F0004100944FF06E
:1003C000000B23F0004350EA01045ED052EA03041C
:1003D0005BD0C3F30A54C1F30A552C44A4F2F3349E
:1003E0000194A0FB0254C1F3130141F48011C3F343
:1003F000130343F4801301FB024400FB034E840A01
:10040000970A44EA815447EA8357A4FB0768029598
:100410008D0A05FB07854FEA932C04FB0C54270536
:10042000029D4FEA065847EA1637B5EB08056EEB12
:10043000070C870E920E47EA811742EA8312A7FB48
:100440000201B6EB0B0164EB00042B0D43EA0C3305
:100450005E1844EB1C50DA465146E7FB0201C5F337
:1004600013044FEA0B3343EA14534FEA0432019C5E
:1004700043EA0603A4F10C040294009CCDE900B405
:1004800000F089F903B0BDE8F08F00200146F9E7DC
:100490002DE9F04D81EA030404F0004B21F0004502
:1004A00014464FF0000A23F0004150EA050220D024
:1004B00054EA01021DD0C5F30A570246C5F31303DF
:1004C000C1F31300C1F30A5640F4801543F48013BE
:1004D000A7EB0608101BD64608F2FD3873EB0500A3
:1004E00002D308F1010801E092185B41B8F1000F56
:1004F00003DA00200146BDE8F08D00204FF48011A2
:10050000064684460EE0171B73EB050705D3121B46
:1005100063EB050306434CEA010C49084FEA30003F
:1005200092185B4150EA0107EDD152EA030012D064
:1005300082EA040083EA0501084305D0101BAB41A1
:1005400006D20122002306E000224FF0004302E021
:100550006FF0010253101AEB06004CEB085110EB40
:100560000A0041EB0B01BDE8F04D00F005B90EB5F6
:10057000C10F80EAE0700844CA07002140F233430B
:100580008DE80E000A460B4600F005F903B000BDE9
:100590000EB540F2334102910021CDE900110A4627
:1005A0000B4600F0F8F803B000BD70B5C1F30A5275
:1005B00001F000450024C1F3130140F2FF3341F480
:1005C00080119A4201DA002070BD40F233439A4212
:1005D000A2F2334203DC524200F075F800E0904092
:1005E0002C43F1D0404270BD00F0004230F000409A
:1005F0000AD0C10D01F56071C0F3160042EA015145
:10060000C2084007114370470020014670470000B0
:1006100030B5041E71F1000404DB4FF00044404289
:1006200064EB0101141E73F1000405DB1C464FF05E
:100630000043524263EB04038B4208BF824230BD49
:1006400030B5041E71F1000404DB4FF00044404259
:1006500064EB0101141E73F1000405DB1C464FF02E
:100660000043524263EB0403994208BF904230BDFD
:1006700001F0004330B421F0004150EA010206D0FD
:100680000A0DA2F56072C1F31301002A02DC30BC2E
:1006900000207047440F44EAC104C100E01830BC98
:1006A00000EBC25000F031B8202A04DB203A00FAF7
:1006B00002F1002070479140C2F1200320FA03F3B9
:1006C000194390407047202A04DB203A21FA02F0B7
:1006D0000021704721FA02F3D040C2F1200291407C
:1006E000084319467047202A06DBCB17203A41FA07
:1006F00002F043EAE07306E041FA02F3D040C2F1AF
:10070000200291400843194670470029A8BF70474E
:10071000401C490008BF20F00100704710B4B0FA37
:1007200080FC00FA0CF050EA010404BF10BC7047D2
:1007300049B1CCF1200421FA04F411FA0CF118BFEC
:10074000012121430843A3EB0C01CB1D4FEA0061BB
:100750004FEA102042BF002010BC704700EBC3508E
:1007600010440029A4BF10BC7047401C490008BFBA
:1007700020F0010010BC704710B5141E73F1000486
:1007800008DA401C41F1000192185B411A4301D183
:1007900020F0010010BD2DE9F04D92469B4611B1AD
:1007A000B1FA81F202E0B0FA80F220329046FFF70F
:1007B0007BFF04460F4640EA0A0041EA0B0153461C
:1007C0005A46084313D0114653EA010019D0C8F124
:1007D00040025046FFF777FF05460E465046594601
:1007E0004246FFF761FF084305D0012004E02046A0
:1007F0003946BDE8F08D0020054346EAE0762C43FB
:1008000037430A986305E40AA0EB08000022FD0ABA
:1008100044EA47540A3002D500200146E9E70105C1
:1008200010196941DDE9084500196941BDE8F04D3D
:10083000A2E70000064C074D06E0E06840F0010327
:1008400094E8070098471034AC42F6D3FFF7A0FCB9
:1008500020D2010840D2010870B58C1810F8015B55
:1008600015F0070301D110F8013B2A1106D110F849
:10087000012B03E010F8016B01F8016B5B1EF9D14D
:100880002B0705D40023521E0DD401F8013BFAE7D3
:1008900010F8013BCB1A921C03E013F8015B01F83E
:1008A000015B521EF9D5A142D8D3002070BD0000D3
:1008B0005A49096821F44031594AC2F804131146D3
:1008C000D1F8041342681143544A11600168496821
:1008D00021F480710268516001684A68016942EA46
:1008E0000121026851600168496821F04071026885
:1008F000516001684968826811430268516001686B
:10090000896821F400610268916001688968C268A1
:10091000114302689160434A816A914218D001688C
:10092000896821F070610268916001688968826A53
:100930001143026891600168896821F040510268A2
:10094000916001688968C26A1143026891600BE096
:100950000168896821F070610268916001688968A6
:1009600021F04051026891600168896821F002011C
:100970000268916001688A68816942EA41010268FF
:100980009160016AD1B10168496841F4006102686F
:1009900051600168496821F4604102685160016852
:1009A0004A68416A491E4FF4604393FAA3F3B3FACD
:1009B00083F399400A4301684A6005E00168496889
:1009C00021F40061026851600168C96A21F4700174
:1009D0000268D1620168CA6A818B491E42EA0151EC
:1009E0000268D1620168896821F40071026891602F
:1009F00001688A68016B42EA4121026891600168DE
:100A0000896821F480610268916001688A6841699F
:100A100042EA81210268916070470000042301408E
:100A2000002001400100000F002800DC4042704718
:100A300010B50020234908702348006800F0020028
:100A4000C0BB2249081F01F01FF898B301201D49BF
:100A500008701F48B0F9080000EE100AB8EEC00A8E
:100A60001B4890ED001A1948001FD0ED000AF8EE5F
:100A7000600A01EE200ABCEEC00A164880ED000AAA
:100A80001348B0F90A0000EE100AB8EEC00A104888
:100A900090ED011A0D48001FD0ED010AF8EE600A32
:100AA00001EE200ABCEEC00A0A4880ED010A0846A1
:100AB000007810BDFFE70020064908604860014843
:100AC0000078F6E71C01002010040240DC1C002026
:100AD00010010020EC1C00202DE9FF4F83B081465F
:100AE0000E461C46DDE9117A109DDAF800000290EE
:100AF000DAF8040001902E4432480068007C00F0CF
:100B0000030030B1012836D002281CD0032855D16B
:100B100030E000BF207880222A41104008B10198BF
:100B200000E0029803463146761C4846059A00F0DC
:100B3000A3FE681C0546082801D10025641C781E08
:100B4000071EE7D13AE000BF207880212941084004
:100B500028B131464846019B059A00F08DFE761C6F
:100B6000681C0546082801D10025641C781E071E54
:100B7000EAD123E000BFD9F810108868804780468A
:100B800000BF207880212941084060B131464846A5
:100B9000059A00F029FB83468BEA08033146484654
:100BA000059A00F069FE761C681C0546082801D1EC
:100BB0000025641C781E071EE3D100BF00BF07B0EC
:100BC000BDE8F08F140200202DE9FF4F81B00F46E1
:100BD0009846DDE90F9A98F800B00E9D0E9D2F44BF
:100BE00053480068007C00F0030010B102284BD18C
:100BF0004BE0BAF1000F25D000BFC5F1030044005F
:100C0000C4F10601C020084100EA0B0020FA04F6F6
:100C10005AF82600009039467F1CDDE90030039A1F
:100C200000F02AFE681C0546042805D1002508F1BD
:100C30000100804690F800B0A9F10100B0F1000970
:100C4000DBD121E000BFC5F103004400C4F106017F
:100C5000C020084100EA0B0020FA04F639467F1C48
:100C60003346039A019800F007FE681C05460428E5
:100C700005D1002508F10100804690F800B0A9F1E7
:100C80000100B0F10009DED14DE0BAF1000F26D02D
:100C900000BFC5F103004400C4F10601C0200841B3
:100CA00000EA0B0020FA04F646B15AF8260000903C
:100CB0003946DDE90030039A00F0DEFD7F1C681C38
:100CC0000546042805D1002508F10100804690F86A
:100CD00000B0A9F10100B0F10009DAD122E000BFB3
:100CE000C5F103004400C4F10601C020084100EA38
:100CF0000B0020FA04F62EB133463946039A0198C8
:100D000000F0BAFD7F1C681C0546042805D10025AB
:100D100008F10100804690F800B0A9F10100B0F19F
:100D20000009DDD100BF00BF05B0BDE8F08F0000B5
:100D3000140200202DE9F04107460D4690461C465E
:100D4000069E08E0424629463846236800F094FD96
:100D5000761E6D1C241D002EF4DCBDE8F081000021
:100D60002DE9FF4F81B00F469846DDE90F9A98F8BC
:100D700000B00E9D0E9D2F4453480068007C00F08B
:100D8000030010B102284BD14BE0BAF1000F25D07F
:100D900000BFC5F101008400C4F10401F020084146
:100DA00000EA0B0020FA04F65AF8260000903946B3
:100DB0007F1CDDE90030039A00F05EFD681C0546EB
:100DC000022805D1002508F10100804690F800B006
:100DD000A9F10100B0F10009DBD121E000BFC5F1AC
:100DE00001008400C4F10401F020084100EA0B0076
:100DF00020FA04F639467F1C3346039A019800F026
:100E00003BFD681C0546022805D1002508F10100BC
:100E1000804690F800B0A9F10100B0F10009DED1E0
:100E20004DE0BAF1000F26D000BFC5F101008400EB
:100E3000C4F10401F020084100EA0B0020FA04F696
:100E400046B15AF8260000903946DDE90030039A91
:100E500000F012FD7F1C681C0546022805D1002504
:100E600008F10100804690F800B0A9F10100B0F14E
:100E70000009DAD122E000BFC5F101008400C4F10D
:100E80000401F020084100EA0B0020FA04F62EB11C
:100E900033463946039A019800F0EEFC7F1C681C2B
:100EA0000546022805D1002508F10100804690F88A
:100EB00000B0A9F10100B0F10009DDD100BF00BF11
:100EC00005B0BDE8F08F0000140200202DE9F047C6
:100ED00081460F4692461C46DDE9085826480068C0
:100EE000007C00F0030010B1022841D11EE0B8F1EF
:100EF000000F0ED00AE0267858F8263052463946C0
:100F0000484600F0B9FC6D1E7F1C641C002DF2DC0D
:100F10000BE008E0237852463946484600F0ACFC26
:100F20006D1E7F1C641C002DF4DC21E0B8F1000F65
:100F30000FD00BE0267836B158F8263052463946A5
:100F4000484600F099FC6D1E7F1C641C002DF1DCEE
:100F50000DE00AE026782EB133465246394648461F
:100F600000F08AFC6D1E7F1C641C002DF2DC00BFAB
:100F700000BFBDE8F0870000140200202DE9FF4FFC
:100F800085B016461F46DDE916BADDE91495DDF891
:100F90004880139808283FD006DC012809D0022891
:100FA00018D004287CD126E0102844D0202877D1FE
:100FB00068E000240BE0A2192B46CDE900B7CDF87C
:100FC00008A0DDE90501FFF787FD4D44641C444599
:100FD000F1DB65E000240BE0A2192B46CDE900B758
:100FE000CDF808A0DDE90501FFF7EEFD4D44641CD6
:100FF0004445F1DB54E000240BE0A2192B46CDE977
:1010000000B7CDF808A0DDE90501FFF7A9FE4D44C2
:10101000641C4445F1DB43E0002409E0A2192B469F
:10102000CDE9007ADDE90501FFF750FF4D44641C6E
:101030004445F3DB34E0002421E006980190A01938
:1010400002A9A1C1DDE9010100F00EFB22204FF051
:10105000D84108800DE0039800884FF0D8410880FF
:101060000498401E04900198401C01900398801C35
:10107000039004980028EEDC00BF4D44641C4445F6
:10108000DBDB0DE0002408E0A2192B460097DDE928
:101090000501FFF74FFE4D44641C4445F4DB00BFDF
:1010A00000BF09B0BDE8F08F2DE9F04107460D46BD
:1010B00014461E4606480068C06B00680549086073
:1010C000A3B2F2B2A1B2E8B200F0E0F8BDE8F0815C
:1010D00014020020F40000202DE9F04107460C46E0
:1010E00015461E4606480068C06B00680549086042
:1010F000B3B2E2B2A9B2E0B200F0C8F8BDE8F08144
:1011000014020020F40000202DE9F04180460C4636
:1011100015461E46069F07480068C06B00680649D2
:101120000860BBB2F2B2A9B2E0B200F0AFF8BDE81D
:10113000F081000014020020F4000020024600208C
:10114000704700000246A1F10900082813D2DFE829
:1011500000F00406080A120C0E10084870470848F0
:10116000FCE70848FAE70848F8E70848F6E70848BF
:10117000F4E70848F2E70020F0E70000D71800087D
:10118000FD180008991800081D12000851170008E2
:10119000411700083918000803460A4699680F2AC3
:1011A0001FD2DFE802F01E080A0C0E1E1E1E1012CF
:1011B0001416181A1C00486870478868FCE7C8684D
:1011C000FAE70869F8E78869F6E70020F4E7012004
:1011D000F2E70120F0E70020EEE70020ECE7002036
:1011E000EAE74FF0FF30E7E72DE9F04107460C460C
:1011F00015462946204600F00FFA06463046BDE85F
:10120000F081826800230B804B8093895B1E1BB2A8
:101210008B80138A5B1E1BB2CB80704770B504466F
:10122000204600F009F8054600220121A0690AF0D5
:10123000E5F80543284670BD70B50446A06858B966
:101240001C2004F0EFFDA060A56821698868804734
:1012500006460AF0BBF9A861A06808B9012070BD74
:101260000020FCE770B504460D462946204600F0F4
:10127000FBF922204FF0D84108800248008802493B
:10128000088070BDF40000208000006C2DE9F04162
:1012900004460D4616461F4650204FF0D8410880A0
:1012A00022480480512008800846A0F8806052201F
:1012B00008801E480580532008800846A0F88070EA
:1012C0002946204600F0D0F922204FF0D84108806E
:1012D000781B401C311B491C00FB01F803E014483B
:1012E000008812490880B8F10000A8F10108F6D181
:1012F00050204FF0D841088000200C490880512030
:101300004FF0D8410880EF20A1F8800052200880DB
:1013100000200649088053204FF0D841088040F251
:101320003F10A1F88000BDE8F08100008000006C53
:10133000F400002000B5E5204FF0D841088047F6C2
:10134000F000B349088001204FF0D8410880000226
:10135000A1F88000022008804FF4E060AC490880CA
:1013600003204FF0D841088041F23000A84908809E
:1013700004204FF0D84108800020A54908800820AB
:101380004FF0D841088040F20220A149088009208E
:101390004FF0D841088000209D4908800A204FF076
:1013A000D841088000209A4908800C204FF0D8418D
:1013B00008800020964908800D204FF0D841088011
:1013C0000020934908800F204FF0D841088000206A
:1013D0008F49088010204FF0D841088000208C49A8
:1013E000088011204FF0D8410880072088490880E4
:1013F00012204FF0D8410880002085490880132032
:101400004FF0D841088000208149088007204FF024
:10141000D841088000207E49088010204FF0D84134
:10142000088041F290607A49088011204FF0D8413D
:10143000088040F227207649088012204FF0D841DA
:1014400008809D207249088013204FF0D841088001
:101450004FF4C8506E49088029204FF0D8410880C9
:1014600025206B4908802B204FF0D84108800D20A3
:101470006749088030204FF0D84108800720644930
:10148000088031204FF0D841088040F20330604995
:10149000088032204FF0D841088003205C49088042
:1014A00035204FF0D841088040F206205849088086
:1014B00036204106088008205549088037204FF023
:1014C000D841088040F206405149088038204FF04A
:1014D000D84108804FF441704D49088039204FF0C1
:1014E000D841088007204A4908803C204FF0D84165
:1014F000088040F20260464908803D204FF0D84104
:10150000088008204249088050204FF0D8410880C8
:1015100000203F49088051204FF0D8410880EF203B
:101520003B49088052204FF0D841088000203849BC
:10153000088053204FF0D841088040F23F103449D2
:10154000088060204FF0D84108804FF42740304990
:10155000088061204FF0D841088001202C49088084
:101560006A204FF0D8410880002029490880802057
:101570004FF0D841088000202549088081204FF095
:10158000D841088000202249088082204FF0D841AD
:10159000088000201E49088083204FF0D841088031
:1015A00000201B49088084204FF0D841088000208B
:1015B0001749088085204FF0D84108800020144941
:1015C000088090204FF0D8410880102010490880F2
:1015D00092204FF0D84108804FF4C0600C49088039
:1015E00007204FF0D841088040F2331008490880A6
:1015F00000204FF0D84108802220A1F8800000F0A0
:1016000025F80448006840F400400249086000BD25
:101610008000006C140402402DE9F04104460D46A0
:1016200000260027B0462946204600F01DF822205B
:101630004FF0D84108800448008800B100BF02483C
:1016400006883046BDE8F0818000006C002040F044
:10165000100040F4805003214FF0D842118001491E
:10166000088070478000006C20224FF0D8431A8019
:10167000044B188021224FF0D8431A80A3F8801021
:10168000704700008000006C00B59DB0002006F09F
:1016900043FA6FF07F400CF087FC6FF07F400DF055
:1016A000E1FC1C480BF040F81B4803F085F8194892
:1016B0000BF03AF8194800F0DBFC194800F0ECFD9B
:1016C000184801F011F818480BF06CFB17480BF0A4
:1016D00033FD174809F044F816480BF0FBF80AF000
:1016E000D9FD1549486000F025FE134988600020A7
:1016F00000F010FE702211496846FEF761FD0F48A8
:101700000C380EC801200BF006F905F06FFB1DB078
:1017100000BD0000A5C6000891430008A51D0008F3
:10172000A92100083D260008F1CB0008C1CF000820
:1017300021A700081DC80008106D0020FC770020BC
:1017400010B5044600220621A06909F057FE10BD1D
:1017500010B5044600220521A06909F04FFE10BD16
:1017600010B5FFF765F93049087409F097FA2E496A
:101770000968884205D909F09DFA2B4949688842D1
:1017800004D8002028490860486008742748006889
:1017900025490968884205D9244800682249096812
:1017A000401A04E02048006820490968401A20498E
:1017B00008801E4840681C494968884205D91B4872
:1017C000406819494968401A04E0174840681749B9
:1017D0004968401A174908801448007A1249097C60
:1017E000884207D1124800881E2803DC114800886F
:1017F0001E2817DD0C48007C0C4908720A48007C42
:1018000048B10948006808600748406848600846D1
:1018100006F014FB06E0054806F010FB0020034923
:101820000860486010BD0000EC1C0020001D002076
:101830001E010020200100207CB504460D461646FE
:101840000020009001908DF8045000966A46042113
:10185000A06909F0D3FD7CBD7CB504460D46164653
:10186000002000900190009501966A460321A0692E
:1018700009F0C4FD7CBD00002DE9F04107460C468F
:1018800015461E460348066029462046FFF7EAFC37
:10189000BDE8F081F40000202DE9FC4105460E462C
:1018A00017460020009001902846FFF7C5FCA86865
:1018B00078B1AC68606908B9304600E06069606181
:1018C0006660A760009601976A460721A86909F03B
:1018D00095FDBDE8FC81F8B504460D46002000905A
:1018E0002046FFF7A9FCA06838B1A66835600095CE
:1018F0006A460221A06909F081FDF8BD2DE9F04199
:1019000005460E4617462846FFF796FCA86818B10C
:10191000AC68E66027616661BDE8F08170B5064697
:10192000002500242A48006820F0010028490860AA
:101930002848006820F400602649086026480068AE
:1019400020F4005024490860304600F0E3F80620F7
:1019500015F0EEFF1E48006820F001001C490860E9
:10196000012015F0E5FF1A48006840F00100184911
:101970000860012015F0DCFF1548006820F0010028
:101980001349086000BF17E064001148006820F0A8
:1019900001000F490860012015F0CAFF0C480068DB
:1019A00040F001000A490860081F006800F00400C8
:1019B00000B1641C681CC5B2102DE5DB2409064883
:1019C000006840F4005004490860204670BD0000E3
:1019D0001404024014140240140802402DE9F0419E
:1019E00086B080460027002406E04046FFF796FFB9
:1019F00001A941F82400641C052CF6D3002418E04A
:101A0000651C13E001A850F8240001A951F8251025
:101A100088420AD901A850F8246050F8250001A98D
:101A200041F8240001A840F825606D1C052DE9D37C
:101A3000641C042CE4D30027012404E001A850F81E
:101A400024000744641C042CF8D30320B7FBF0F6F1
:101A5000304606B0BDE8F0812DE9F04104460D4660
:101A600007480078FFF7BAFF064606480078FFF7F8
:101A7000B5FF074626602F600120BDE8F081000019
:101A8000FC000020FD0000207FB504460D4602A9A1
:101A900003A8FFF7E1FF064616B9002004B070BDA9
:101AA000694601A8FFF7D8FF06460EB90020F5E702
:101AB00003990198884204D80198323003998142F1
:101AC00008D301990398884222D8039832300199AB
:101AD00081421DD202990098884204D80098323081
:101AE0000299814208D300990298884210D802983E
:101AF0003230009981420BD2019903980844400882
:101B00002060009902980844400828600120C5E739
:101B10000020C3E770B50446002500BF22E004F0B2
:101B2000800030B11148006840F400600F4908603F
:101B300005E00E48006820F400600C49086060066B
:101B4000040E0B48006820F00100094908600120DC
:101B500015F0EEFE0648006840F0010004490860F8
:101B6000681CC5B2082DDADB70BD000014140240F9
:101B7000140402400C48006840F400500A49086010
:101B80000A48006840F001000849086008480068F9
:101B900040F40060064908600448006840F0010015
:101BA0000249086070470000140802401404024013
:101BB000141402402DE9F04104460D461646324603
:101BC00029462046FFF710FB0746216988688047B1
:101BD000804687EA0803324629462046FFF74CFE36
:101BE000BDE8F08138B545680446014628460BF04B
:101BF00023FF00282BD02068304A11280DD006DCA6
:101C00000B2825D00E2833D00F2852D112E02828D7
:101C100049D0B0F5107F4CD108E09268002A16D068
:101C20002146284601B0BDE83040104721462846ED
:101C30005268F7E7284604F08DF90090406E04687A
:101C4000684604F0D1F9002C01D02846A04738BDE1
:101C5000284604F07FF90090683004F0CDF8009831
:101C600003216C3004F0D0F8684604F0BDF920E0A0
:101C7000E168486809680D2902D0202913D105E0E0
:101C8000002810DD284612F09DFD06E0002804DD46
:101C90002846BDE8384012F095BD2846BDE83840DA
:101CA000022112F0A5BDE06818B90021284600F015
:101CB00004FA2046BDE838400CF0ACBAB40200206B
:101CC0002DE9FF410AAF97E87000002703958DE8E2
:101CD000D00000F003F804B0BDE8F081F0B585B0A5
:101CE0000DF1280C9CE8F0004FF0000C8DE8F0108E
:101CF00000F024F805B0F0BDF0B5044685B0806969
:101D0000B4F90850668A0027CDE90265CDE90017CD
:101D10000490B4F90C00B4F91060C118B4F90A00C9
:101D2000B4F90E50104433462A4600F007F8054631
:101D3000616800F0E1F905B02846F0BDF0B585B066
:101D40000C46DDE90D51DFF854C04C31DDE90A677E
:101D5000CDE902C12146CDE900670CF0ADF90400E0
:101D600018D004F0F7F81022294604900CF020F85F
:101D7000049830220A493430FEF722FA084D0499BB
:101D80000C3D2868486604A804F02EF928684168CC
:101D90002046884705B02046F0BD0000E51B00083E
:101DA000C0020020F0B5044680688B4989B051F824
:101DB0002050606800287DD0052804D006287AD0FD
:101DC000122879D1AEE0E86900284FD095E80E00DE
:101DD0008DE80F0004F110010FC906F0C1FD0026C7
:101DE00055F8260005F0BAFEA169E8690A1A2169CA
:101DF00001446069304404F0FBFEA169E8690A1AF5
:101E000021690144E069801B04F0F2FEE169E869A0
:101E10000A1A616901442069304404F089FFE169CC
:101E2000E8690A1A61690144A069801B04F080FF17
:101E3000761C022ED4DBA86805F090FEE069E96903
:101E40006669431A206942183144801C521E04F00E
:101E5000EFFFE169E869A2690B1A61690144101A90
:101E6000401C921E04F0E4FFEE6913E05FF00006F0
:101E700055F8260005F072FEE069831BA069821BFD
:101E8000606981192069304404F014FF761C022E29
:101E9000EEDB0226D5E90301CDE900016169E069C5
:101EA00008444310A069891C821B2069304404F057
:101EB0006BFE02E089E012E08AE0D5E90501CDE998
:101EC0000001E36960690121184401EB6001A06928
:101ED0009B1E821B2069304404F056FE78E0206887
:101EE00004F038F8049020680DF0A8FC40B1A06818
:101EF00008B1002008E00498006F28B1012003E039
:101F00000498406F00B10220049901EB8000C56E77
:101F100004A804F069F800231A462846216804F052
:101F20006DFB55E0206804F015F80490866EEEB362
:101F3000B0F95C70A168D1B3032942D05FF0000111
:101F400000EB8101406D0C6C05F012FE204605F09F
:101F500005FE05A805F00CF8BDF81410A88B014487
:101F6000ADF81410BDF81810081AADF81800BDF837
:101F70001600801CADF81600BDF81A00801EADF8E2
:101F80001A000498B0F96020B0F95E1005A805F0B9
:101F9000F5FC04A804F028F8022005F02BFE3046DA
:101FA00003F0D8FF3A4605A9079001E00BE006E0F0
:101FB00004F04EFC0DF11C0004F016F808E00121BD
:101FC000BEE70221BCE704A8F6E720680DF0DEF8C2
:101FD00009B00020F0BD00000CC201082DE9FC4151
:101FE00015460E4600281DD003F0B4FF0190806E08
:101FF000002798B103F0AEFF0090FEF713F90446F6
:10200000681E844200DD0446224630460099FEF7F1
:10201000D7F8684603F0E8FF375500E0377001A8AD
:1020200003F0E2FFBDE8FC8170B516460C4605469C
:1020300019463046049A04F0ADFA02462146284675
:10204000BDE8704000F080B8F8B515460C460600B3
:102050000DD003F07FFF0090032C02D200EB840030
:102060004563684603F0C0FF30460CF0DCFDF8BD68
:10207000044A0349116004494A6A4862104670479D
:10208000F0020020B4020020C002002000294FF01E
:10209000100101D00BF060BD0BF0BABC38B50D4695
:1020A000040009D003F056FF00904565684603F030
:1020B0009BFF20460CF0B7FD38BD4FF4807200291D
:1020C000114601D00BF048BD0BF0A2BC08B50023AF
:1020D000009300F001F808BD70B516460C460546A1
:1020E00019463046049A04F071FA02462146284601
:1020F000BDE8704000F028B82DE9FF410E4605000C
:102100004FF001041CD003F025FF0190876E01A859
:10211000009703F069FF3146684606F02FFF78B15B
:1021200000980024B84208D0284603F013FF01901D
:102130000099816601A803F057FF28460CF073FD53
:1021400004B02046BDE8F081F8B515460C460600FF
:1021500013D003F0FFFE0090032C0BD200EB8400A1
:102160006C3003F049FE009800EB8400C5663046F1
:102170000CF059FD684603F037FFF8BD10B500209C
:1021800005F0CAFCFFF7ECFA04F030FE012005F080
:10219000C3FC01F0D7FC04F029FE024801F088FEE0
:1021A00010BD0000480000202DE9FF4704460068EC
:1021B00010B10DF043FB68B10022314850F82210F5
:1021C00060680A2841D007DCF0B306280DD0072844
:1021D00054D106E00122F0E712280AD019284DD187
:1021E00037E020460EF036FE48E020460FF012FBA6
:1021F00044E0206803F0AEFE0290B0F9548090F8FD
:102200005650476C466B02A803F0EEFE206800F0C3
:1022100039F8814668460CF0F3F8BDF8001009EB78
:1022200005000844ADF80000246A304605F0A0FC23
:10223000022005F0DFFC384605F090FC4246694676
:10224000204604F005FB19E007E020460FF09EFE53
:1022500014E0886904B0BDE8F08720680CF096FFB0
:10226000206803F077FE0390B0F90610B0F9022061
:10227000891A491CC16703A803F0B6FE0020E9E7EC
:102280001CC2010838B503F065FE0090C46F6846B3
:1022900003F0AAFE204638BD044A034911600449F0
:1022A000CA69C861104670477C030020C40700203B
:1022B000C807002000B589B024216846FDF7A7FFB4
:1022C0001920019003480068806841686846884783
:1022D00009B000BDC407002000B59DB00B480078D0
:1022E00001280AD170220A496846FDF769FF0848AB
:1022F0000C380EC800200AF00EFB04488078012834
:1023000002D1002000F006F81DB000BD4D000020F5
:10231000FC77002010B50446012C04D104498868DC
:102320000CF090FF03E0024988680CF0C3FB10BD7D
:10233000106D00201CB5002000900346044A0521C2
:102340000190044804F03EF8044620461CBD0000FD
:1023500045240008AC7A010870B504466568FF2181
:10236000284602F0A0FA3449284602F039FA022140
:10237000284602F084FA00220121284601F05EFE80
:1023800001221146284601F06DFE02220121284655
:1023900001F07CFE1021284602F09AFA4FF4987161
:1023A00028460CF05FF80646642200210AF0D2FEAF
:1023B0004FF4987128460CF055F8064601210AF0B2
:1023C000E5FE40F2311128460CF04CF8064642F288
:1023D000283200210AF0BEFE40F2311128460CF0EE
:1023E00041F8064640F6B8310AF0D0FE4FF4B0711D
:1023F00028460CF037F8064610490BF07DF84FF4EC
:10240000B07128460CF02EF8064602210BF086F833
:1024100040F2611128460CF025F8064607490BF0FA
:102420006BF840F2611128460CF01CF806460221B8
:102430000BF074F870BD00003C9801083CBB01082B
:10244000416870472DE9F0410446676820680E280E
:102450001CD00F2804D01D2806D026284DD127E0F7
:102460002046FFF7EDFF4CE02046FFF775FF4FF4E5
:10247000987138460BF0F6FF2349086040F231119D
:1024800038460BF0EFFF2049C8603AE0E06800688A
:102490000D2806D01B2809D10121384604F068FC1C
:1024A00004E00021384604F063FC00BF00BF28E0D0
:1024B000A0680CF008F80646E568134908680AF0B9
:1024C00014FE11494860C8680AF00FFE0E49086101
:1024D000012E02D0022E0ED106E0022D03D10021E2
:1024E000384604F045FC06E0022D03D100213846B1
:1024F00004F03EFC00BF00BF03E020460BF08AFE64
:1025000000BF00BFBDE8F081206D002010B502487B
:1025100007F02EF810BD0000100B002010B5024887
:1025200007F026F810BD0000700B002010B502481F
:1025300007F01EF810BD0000100A002010B5024878
:1025400007F016F810BD0000700A00200146087858
:1025500010381823B0FBF3F20848805CC865032AE2
:1025600005D908686FF30900001D886503E0086855
:102570006FF309008865886D704700003C7A010898
:10258000014600208A6A8B6903BB32B1012A0CD054
:10259000022A10D0032A17D115E0CB6A03F080730A
:1025A000B3F1807F00D101200FE0CB6AB3F1C07F8F
:1025B00000D1012009E0CB6A03F08073B3F1807F82
:1025C00000D1012001E000E000BF35E08B69B3F5E8
:1025D000005F1BD132B1012A06D0022A0CD0032A97
:1025E00012D10BE0012010E0CB6A03F08073B3F14D
:1025F000807F00D1012008E0012006E0CB6AB3F122
:10260000C07F00D1012000E000BF15E032B1012AF7
:1026100005D0022A04D0032A0CD103E000BF00BF7A
:10262000012008E0CB6A03F08073B3F1807F00D112
:10263000012000E000BF00BF70470000F8B505466C
:10264000006803F087FC0090448ED0F888606846EC
:1026500003F0CAFC06B1012604F0010428680DF05D
:10266000EDF80EB1002006E00CB1012003E008B146
:10267000022000E003201B4951F82010686858B37D
:1026800002280CD0052802D0122828D103E02846C1
:102690000EF00CFC23E0284610F0EFF91FE06A6909
:1026A000E8694FF0FF33801AA0F1080203EB6204DF
:1026B000421CAB69001B4510A3EB6206C86905F01C
:1026C0004DFA06E03219311B284604F091FA641ED7
:1026D0006D1C002CF6DA02E028680CF057FD002093
:1026E000F8BD000024C20108044A034911600449EE
:1026F0000A6B086310467047C803002004080020D6
:102700000808002038B50D46002403F023FC009093
:10271000C06B294603F000FD0546684603F064FCE3
:102720001DB1284603F016FC0446204638BD0000C3
:1027300010B5FEF7FFFDFFF71DFA01F0C9FB01F030
:10274000EDF8094801F0B4FB002001F091F80648CB
:1027500001F0AEFB002001F08BF804F0A1FC01F0C9
:102760003BF9FEF791FF10BD480000202DE9FC4722
:102770000E465FEA000978D003F0ECFB009090F879
:102780005470D0F85880456BC46C684603F02CFC3C
:10279000B8F1000F04D0314648464246904761E008
:1027A000122E18D006DC082E43D0102E3CD0112E4D
:1027B00006D112E0132E21D01D2E43D01E2E3DD067
:1027C000202E4FDB17B148460EF0FBF8B1B2484659
:1027D00011F09AFD60B3611C27E04DB3284603F069
:1027E000B9FB05462146019005F082FB44192046BD
:1027F00005F040FB01462346012210E0C5B1284602
:1028000003F0A8FB05462146019005F071FB441931
:10281000204605F02FFB014623464FF0FF32484685
:102820000DF01CFE01A81BE0611E484600F014FBE1
:1028300018E0BCB1611E484600F00EFB48460EF0A1
:10284000C0F80FE0484603F085FB0090012F0ED042
:10285000012180F854102146484600F0FDFA6846F0
:1028600003F0C2FB48460CF0DEF9BDE8FC8700210E
:1028700080F85410F3E7FEB54468054620460CF096
:10288000DDFF0646294620460BF0D6F8002837D053
:1028900028680F2830D004DC0B2832D00E2853D102
:1028A0003AE0A0F58070133804D0A0F580702D3880
:1028B0004AD110E020460CF015FB2046002112F012
:1028C000F6FD204603F046FB0190C06F00210CF09E
:1028D000EFFA01A81DE0E86860B1017A29B101684A
:1028E000204600F0C9F8012100E0022120460CF04A
:1028F0001EFA29E00321F9E70121204612F0D7FD55
:10290000FEBD204603F026FB0090343003F074FA3D
:10291000684603F069FB17E0B6B1E8684168002932
:1029200012DD01681B290FD006DC09290CD00A2909
:102930000AD00D2904D107E0212905D0222903D08E
:102940002046FFF713FFFEBD28460BF063FCFEBDDB
:10295000F0B587B004460DF1080CD4E90567B0F96D
:102960000850408A8CE8E1000020CDE90010B4F95D
:102970000C00B4F91060C118B4F90A00B4F90E5093
:10298000104433462A4600F009F8050002D0618A57
:1029900000F025FA07B02846F0BD0000F0B585B07C
:1029A0000D46DDE90D640F9FDDE90AC141F4805158
:1029B000DFF870E0CDE900C15837CDE902E72946DC
:1029C0000BF07AFB05002AD003F0C4FA102231463E
:1029D00004900BF0EDF904981C2213496030FDF7C8
:1029E000EFFB0499012081F85500601C00D0012004
:1029F00081F88000002C00DC082424B20C87002021
:102A00004887486304A8641C03F0EEFA2146284670
:102A100011F05FFB18B928460BF030FC002505B01B
:102A20002846F0BD772800088404002000B52DED6D
:102A3000028B81B09FED0E8AA0B103F08BFA00905B
:102A400090F844100B4AD0ED120A684652F8211053
:102A5000F8EEE00A00EE101AB8EE400A80EE808A26
:102A600003F0C2FA01B0B0EE480ABDEC028B00BD23
:102A7000000000009CC401082DE9F04186B00C461E
:102A8000060050D003F066FA0090406B98B303F054
:102A900061FA03900098806E05F06AF8804630462F
:102AA0000BF00DFE0746039804F0B6FA05460098B1
:102AB00090F8601001F00301012916D002290DD011
:102AC000416EC06A00680844241A641E039806F028
:102AD000FFF80146002C0FDA002115E0781B401C9E
:102AE00000EBD070A4EB6004F0E7406E791B081A8D
:102AF000241A641CEAE713E0AC4205DC02462146D6
:102B0000039806F085F80146304600F0A5F903A8C1
:102B100003F06AFA404605F02BF830460CF083F8D3
:102B2000684603F061FA06B0BDE8F0812DE9F8438C
:102B30001D46DDE9084916460F465FEA000840D009
:102B400003F008FA2049009081652049C165002101
:102B5000C0E91271E0E90F650121047280F81A9052
:102B6000017690F84470684603F03EFA87B1284633
:102B700011F09CF80546304611F098F80CB1401C55
:102B80006D1C854200DD28460146404600F093F862
:102B9000404614F055F8404603F0DCF9009000F090
:102BA00046F90B490978884205D10098C16C404626
:102BB000491C00F051F9684603F016FA40460CF043
:102BC00032F8BDE8F88300000DFF0008416C0108F1
:102BD000080200202DE9F04190462DED068B82B0D1
:102BE0000E46F0EE418AB0EE60AA070048D02748B2
:102BF00050F8260000EE900AB8EE608A28EE000A2F
:102C000010EE100AFDF7F0FC9FED219B53EC192B01
:102C1000FDF725FB41EC100B14F0E6FC51EC100B1A
:102C2000FDF7C3FC28EE0A0A054610EE100AFDF770
:102C3000DBFC53EC192BFDF712FB41EC100B14F0ED
:102C4000D3FC51EC100BFDF7B0FC28EE280A04462B
:102C500010EE100AFDF7C8FC53EC192BFDF7FFFA34
:102C600041EC100B14F0C0FC51EC100BFDF79DFC77
:102C7000CDE900680346224629463846FFF756FF4D
:102C800002B0BDEC068BBDE8F08100009CC40108D9
:102C9000000000000000E03F38B50D46040009D0F8
:102CA00003F058F90090856620460BF0BCFF68469B
:102CB00003F09AF938BD7CB50C4606002ED003F01F
:102CC00049F90090B0F93810458FA14223D012DDA8
:102CD000406B80B103F03EF9019005F0F9FFA0428E
:102CE00006DD2146019805F003F9019A00211154EF
:102CF00001A803F079F9684603F076F9611B3046C4
:102D0000491C11F0E6F9304603F024F900900487DD
:102D100030460BF088FF684603F066F97CBD2DE96C
:102D2000FC4788465FEA00094FF0000655D003F0E3
:102D300011F90090B0F93850446B684603F054F92B
:102D40000027B8F1000F3ED04CB1204603F002F945
:102D50000190FDF767FA461C01A803F045F94046CB
:102D600005F0B6FF0446A84200DD2C462146404649
:102D700005F0BEF8451CA91B484611F079FB08B3C5
:102D8000484603F0E7F80090406B03F0E3F82A466A
:102D900041460190FDF714FA0198284400F8017C9F
:102DA0000098C464B0F938108C4205D190F85410E2
:102DB000012901D1641EC46401A803F015F9684615
:102DC00003F012F906E00098343003F015F800988B
:102DD0004787C76448460BF026FFBDE8FC8738B537
:102DE0000C4605000AD003F0B5F8009018B104664F
:102DF00028460BF018FF684603F0F6F838BDF8B522
:102E000015460C4606000ED003F0A4F8009038B129
:102E1000022C05D200EB8400C56630460BF003FFA0
:102E2000684603F0E1F8F8BD002213F087BD38B51D
:102E30000546406B002468B103F08CF8009004460E
:102E4000E96C05F055F8204405F014F8044668468E
:102E500003F0CAF8204638BD1CB50C4603F07AF8DA
:102E60000090406BF0B103F075F8019005F030FF71
:102E7000009991F8542002B10122002C00DA0024BC
:102E8000844200DD0446B1F93800801AA04200DA1D
:102E90000446C86CA04200D0CC640020086501A89C
:102EA00003F0A2F8684603F09FF81CBD10B5044675
:102EB0001048406920F010000E494861204601F09A
:102EC0001FF80C48406940F020000A49486108207A
:102ED00014F00CFD0748406920F0200005494861C6
:102EE000082014F003FD00F099FE0349086008462D
:102EF000006810BD001002408800002010B5044694
:102F000000203B4908603B4908600CE02046FFF781
:102F1000CDFF3949374A126841F822003548006828
:102F2000401C34490860334800680628EED300206E
:102F30003049086035E02F480068401C2F49086080
:102F400026E02D482B49096850F821102B4A1268B9
:102F500050F82200814216D927482649096850F8BE
:102F600021002749086024482449096850F82100B5
:102F70002149204A126841F82200214800681F4A6E
:102F8000126841F822001D480068401C1B49086077
:102F90001A4800680628D4D316480068401C154912
:102FA0000860144800680528C5D30020104908604F
:102FB0000120104908600EE00F480E49096850F8DA
:102FC00021000B490968084409490860094800685C
:102FD000401C08490860074800680528ECD30448ED
:102FE00000688008064908600846006810BD0000B7
:102FF000940000208C000020A81C002090000020DD
:1030000098000020F0B504460F4615461E46394686
:10301000022000F0D9FC2146032000F0D5FC314607
:10302000062000F0D1FC2946072000F0CDFC0F203F
:103030004FF0C0410880F0BD10B500202E49087047
:103040002E49081F00F04EFE00284DD001202A49CD
:1030500008702A48001F00682949096888420DD96C
:103060002648001F006826490968401A4FF47A7103
:10307000484324490968B0FBF1F00CE01F48001FE9
:1030800000681F490968081A4FF47A7148431D49BE
:103090000968B0FBF1F01C4908601848001F40683F
:1030A0001A49096888420DD91448001F4068174919
:1030B0000968401A4FF47A71484315490968B0FB12
:1030C000F1F00CE00D48001F406810490968081A2B
:1030D0004FF47A7148430E490968B0FBF1F00A4990
:1030E00048600548007810BD002007490860486026
:1030F00001480078F7E70000E0000020841C002071
:103100007800002070000020941C00207C0000202B
:10311000740000202DE9FF4F83B081460E461C4607
:10312000DDE9117A109DDAF800000290DAF8040067
:1031300001902E4432480068007C00F0030030B15A
:10314000012836D002281CD0032855D130E000BF1A
:10315000207880222A41104008B1019800E00298AE
:1031600003463146761C4846059A00F045FE681C29
:103170000546082801D10025641C781E071EE7D1EA
:103180003AE000BF207880212941084028B131462B
:103190004846019B059A00F02FFE761C681C0546E8
:1031A000082801D10025641C781E071EEAD123E0FF
:1031B00000BFD9F8101088688047804600BF20788B
:1031C00080212941084060B131464846059A00F007
:1031D00011FB83468BEA080331464846059A00F006
:1031E0000BFE761C681C0546082801D10025641CCE
:1031F000781E071EE3D100BF00BF07B0BDE8F08F07
:10320000140200202DE9FF4F81B00F469846DDE9FA
:103210000F9A98F800B00E9D0E9D2F4453480068F9
:10322000007C00F0030010B102284BD14BE0BAF152
:10323000000F25D000BFC5F103004400C4F1060112
:10324000C020084100EA0B0020FA04F65AF82600D4
:10325000009039467F1CDDE90030039A00F0CCFD78
:10326000681C0546042805D1002508F101008046A8
:1032700090F800B0A9F10100B0F10009DBD121E024
:1032800000BFC5F103004400C4F10601C02008419D
:1032900000EA0B0020FA04F639467F1C3346039AF5
:1032A000019800F0A9FD681C0546042805D10025F9
:1032B00008F10100804690F800B0A9F10100B0F1DA
:1032C0000009DED14DE0BAF1000F26D000BFC5F1F4
:1032D00003004400C4F10601C020084100EA0B00CD
:1032E00020FA04F646B15AF8260000903946DDE986
:1032F0000030039A00F080FD7F1C681C05460428FE
:1033000005D1002508F10100804690F800B0A9F130
:103310000100B0F10009DAD122E000BFC5F10300DD
:103320004400C4F10601C020084100EA0B0020FA65
:1033300004F62EB133463946039A019800F05CFD3D
:103340007F1C681C0546042805D1002508F10100F2
:10335000804690F800B0A9F10100B0F10009DDD17C
:1033600000BF00BF05B0BDE8F08F000014020020D0
:103370002DE9F04107460D4690461C46069E08E0A2
:10338000424629463846236800F036FD761E6D1CFD
:10339000241D002EF4DCBDE8F08100002DE9FF4F74
:1033A00081B00F469846DDE90F9A98F800B00E9D5F
:1033B0000E9D2F4453480068007C00F0030010B1BC
:1033C00002284BD14BE0BAF1000F25D000BFC5F168
:1033D00001008400C4F10401F020084100EA0B0060
:1033E00020FA04F65AF82600009039467F1CDDE9E1
:1033F0000030039A00F000FD681C0546022805D144
:10340000002508F10100804690F800B0A9F1010004
:10341000B0F10009DBD121E000BFC5F1010084005B
:10342000C4F10401F020084100EA0B0020FA04F680
:1034300039467F1C3346039A019800F0DDFC681C76
:103440000546022805D1002508F10100804690F8C4
:1034500000B0A9F10100B0F10009DED14DE0BAF1F0
:10346000000F26D000BFC5F101008400C4F10401A3
:10347000F020084100EA0B0020FA04F646B15AF8A1
:10348000260000903946DDE90030039A00F0B4FCD4
:103490007F1C681C0546022805D1002508F10100A3
:1034A000804690F800B0A9F10100B0F10009DAD12E
:1034B00022E000BFC5F101008400C4F10401F02046
:1034C000084100EA0B0020FA04F62EB133463946D3
:1034D000039A019800F090FC7F1C681C05460228A6
:1034E00005D1002508F10100804690F800B0A9F14F
:1034F0000100B0F10009DDD100BF00BF05B0BDE89B
:10350000F08F0000140200202DE9F04781460F469D
:1035100092461C46DDE9085826480068007C00F009
:10352000030010B1022841D11EE0B8F1000F0ED007
:103530000AE0267858F8263052463946484600F0C8
:103540005BFC6D1E7F1C641C002DF2DC0BE008E0B0
:10355000237852463946484600F04EFC6D1E7F1CCB
:10356000641C002DF4DC21E0B8F1000F0FD00BE05B
:10357000267836B158F8263052463946484600F08B
:103580003BFC6D1E7F1C641C002DF1DC0DE00AE08D
:1035900026782EB1334652463946484600F02CFC78
:1035A0006D1E7F1C641C002DF2DC00BF00BFBDE857
:1035B000F0870000140200202DE9FF4F85B0164669
:1035C0001F46DDE916BADDE91495DDF84880139849
:1035D00008283FD006DC012809D0022818D004288A
:1035E0007BD126E0102844D0202876D167E0002443
:1035F0000BE0A2192B46CDE900B7CDF808A0DDE914
:103600000501FFF787FD4D44641C4445F1DB64E090
:1036100000240BE0A2192B46CDE900B7CDF808A095
:10362000DDE90501FFF7EEFD4D44641C4445F1DB87
:1036300053E000240BE0A2192B46CDE900B7CDF8EA
:1036400008A0DDE90501FFF7A9FE4D44641C4445CF
:10365000F1DB42E0002409E0A2192B46CDE9007A13
:10366000DDE90501FFF750FF4D44641C4445F3DBE1
:1036700033E0002420E006980190A01902A9A1C11E
:10368000DDE9010100F096F90F204FF0C0410880FC
:103690000CE003980088134908800498401E0490A9
:1036A0000198401C01900398801C03900498002806
:1036B000EFDC00BF4D44641C4445DCDB0DE000241E
:1036C00008E0A2192B460097DDE90501FFF750FE3F
:1036D0004D44641C4445F4DB00BF00BF09B0BDE8A5
:1036E000F08F000000001060F8B505460E46144645
:1036F0001F463B46224631462846009400F00EF80D
:10370000F8BDF8B506460C4617461D4623463A4610
:1037100021463046009500F001F8F8BD2DE9F84348
:1037200080460C4615461E46089F06480068C06B3A
:1037300000683B46324629460090204600F0CCF80F
:10374000BDE8F88314020020024600207047000004
:103750000246A1F10900082813D2DFE800F00406B0
:10376000080A120C0E10084870470848FCE7084881
:10377000FAE70848F8E70848F6E70848F4E7084891
:10378000F2E70020F0E70000573E00087D3E000809
:10379000193E000829380008353B0008253B000881
:1037A000B93D000803460A4699680F2A1FD2DFE890
:1037B00002F01E080A0C0E1E1E1E10121416181AF5
:1037C0001C00486870478868FCE7C868FAE7086921
:1037D000F8E78869F6E70020F4E70120F2E7012026
:1037E000F0E70020EEE70020ECE70020EAE74FF0EA
:1037F000FF30E7E72DE9F04107460C46154629461C
:10380000204600F0C1F806463046BDE8F0818268E7
:1038100000230B804B8093895B1E1BB28B80138A25
:103820005B1E1BB2CB80704770B50446204600F08B
:1038300009F8054600220121A06907F0DFFD0543D4
:10384000284670BD70B50446A06858B91C2002F027
:10385000E9FAA060A568216988688047064607F0F4
:10386000B5FEA861A06808B9012070BD0020FCE782
:1038700070B5044640F2DF1340F21F3200210846C3
:10388000FFF7C0FB002508E0002602E005490C8098
:10389000761CB6F5F07FF9D36D1CB5F5487FF3D3F0
:1038A00070BD00000000106000B50321012000F091
:1038B0008BF800BD70B504460D462B4622462946BE
:1038C0002046FFF79FFB024800880249088070BD30
:1038D0006C000020000010602DE9F04704460D4602
:1038E00016461F46DDF820A03B46324629462046B4
:1038F000FFF788FBA8460AE0A14604E00649A1F8C4
:1039000000A009F10109B145F8D908F10108B8454D
:10391000F2D9BDE8F08700000000106010B518482B
:10392000006840F0100016490860642013F0E4FFBE
:103930001348006840F0200011490860642013F02B
:10394000DBFF1048406920F040000E4948616420C8
:1039500013F0D2FF0B48406940F04000094948612C
:10396000642013F0C9FF0648006820F08000044975
:103970000860642013F0C0FFFFF796FF10BD000041
:10398000140C02400010024030B504460D46B4F558
:10399000487F02D2B5F5F07F01D3002030BD2B4621
:1039A000224629462046FFF72DFB01480088F5E70F
:1039B0000000106070B504460D462B46224629468D
:1039C0002046FFF71FFB70BD4FF0C0431880014B2E
:1039D000198070470000106010B5012004F09CF8B9
:1039E00040480AF0E1FA404808F09EFE3F4800F0E7
:1039F000E3FE3D4808F098FE3D48FEF739FB3D48A0
:103A0000FEF74AFC3C48FEF76FFE3C4809F0CAF955
:103A10003B4809F091FB3B4806F0A2FE3A4808F00B
:103A200059FF08F085F83949086003F0DFF9384894
:103A300000F03EFA354908680BF0B4F94FF42A73E8
:103A4000344A19463448006801F070FE3349086072
:103A50002E49C8683149096801F06AFD304A116889
:103A60002A4A10680AF0FEFC2D4948600A4691680F
:103A7000264A10680AF0F6FC2949C8600A4611690E
:103A8000224A10680AF0EEFC254948610A4691690D
:103A90001E4A10680AF0E6FC2149C8610A46916A8C
:103AA0001A4A10680AF0DEFC1D49C8620A46116A0B
:103AB000164A10680AF0D6FC194948620A46116B8A
:103AC000124A10680AF0CEFC154948630A46916B09
:103AD0000E4A10680AF0C6FC1149C86303F086F963
:103AE00010BD000040404000A5C6000891430008FA
:103AF000A51D0008A92100083D260008F1CB0008FB
:103B0000C1CF000821A700081DC80008106D0020C3
:103B100048000020506D0020580100204C0100207A
:103B20006801002010B5044600220621A06907F0B4
:103B300065FC10BD10B5044600220521A06907F000
:103B40005DFC10BD10B5FFF777FA3049087407F037
:103B5000A5F82E490968884205D907F0ABF82B492A
:103B60004968884204D800202849086048600874E1
:103B70002748006825490968884205D92448006813
:103B800022490968401A04E0204800682049096871
:103B9000401A204908801E4840681C4949688842EC
:103BA00005D91B48406819494968401A04E017487C
:103BB000406817494968401A174908801448007A34
:103BC0001249097C884207D1124800881E2803DC6C
:103BD000114800881E2817DD0C48007C0C4908722B
:103BE0000A48007C48B109480068086007484068F6
:103BF0004860084604F022F906E0054804F01EF982
:103C0000002003490860486010BD0000941C00209B
:103C1000E4000020F0000020F200002010B5002099
:103C20001A4908701A4908601849087026E01848AF
:103C300000684000164908601648406940F02000BE
:103C400014494861082013F051FE1248406920F0E1
:103C5000200010494861082013F048FE0E48006813
:103C600000F0040028B10A48006840F0010008494B
:103C7000086006480078401C044908700348007832
:103C80000C28D4DB0248006810BD00008100002031
:103C90008400002000100240100C024070B5044661
:103CA0000D46D020FFF72AF90C4908609020FFF755
:103CB00025F90B49086009480068642803D30846C1
:103CC0000068642801D2002070BD044800682060AC
:103CD0000348006828600120F6E700009C000020EF
:103CE000A000002070B504460D462E492E48FFF76F
:103CF000D5FF2E4908700846007808B9002070BD2D
:103D00002B492C48FFF7CAFF28490870084600785D
:103D100008B90020F3E7274800682349096888426A
:103D200006D82148016823480068143081420CD32A
:103D30001D4800681F490968884230D81D4801683D
:103D4000194800681430814229D219480068154981
:103D50000968884206D8134801681548006814307D
:103D600081420CD30F48006811490968884216D86F
:103D70000F4801680B480068143081420FD20A488E
:103D800000680C490968084440082060054800683C
:103D9000074909680844400828600120AFE700206F
:103DA000ADE70000A8000020A4000020B40000201F
:103DB000B0000020AC0000207CB504460D4616463D
:103DC0000020009001908DF8045000966A4604216E
:103DD000A06907F013FB7CBD7CB504460D46164672
:103DE000002000900190009501966A460321A06989
:103DF00007F004FB7CBD00002DE9F04107460C46AE
:103E000015461E460348066029462046FFF752FD28
:103E1000BDE8F0816C0000202DE9FC4105460E460E
:103E200017460020009001902846FFF70BFDA86878
:103E300078B1AC68606908B9304600E060696061DB
:103E40006660A760009601976A460721A86907F097
:103E5000D5FABDE8FC81F8B504460D460020009077
:103E60002046FFF7EFFCA06838B1A66835600095E2
:103E70006A460221A06907F0C1FAF8BD2DE9F041B8
:103E800005460E4617462846FFF7DCFCA86818B121
:103E9000AC68E66027616661BDE8F08104214FF0FF
:103EA000C042118001490880704700000000106086
:103EB00000B503465878FFF7F1FF187800F062F874
:103EC00018789870587818709878587000BD00006D
:103ED0000A48406940F010000849486108464069B6
:103EE00040F0200048610846406940F00400486105
:103EF0000846406940F020004861704700100240C9
:103F000010B5044600201D4908701D48406920F086
:103F100020001B49486100201849087028E004F07F
:103F2000800030B11648406940F0040014494861EF
:103F300005E01348406920F004001149486160061B
:103F4000040E0F48406920F020000D494861082008
:103F500013F0CCFC0A48406940F020000849486151
:103F6000082013F0C3FC05480078401C0349087082
:103F7000024800780828D2DB10BD00008000002035
:103F80000010024005214FF0C04211800149088015
:103F900070470000000010602DE9F04104460D4616
:103FA0001646324629462046FFF724FC074621697B
:103FB00088688047804687EA0803324629462046BB
:103FC000FFF71AFFBDE8F08100BFFEE72DE9F043DF
:103FD00089B0984615460F4606004FF0000428D0D9
:103FE00000F0B8FB0446304600F0A0FB814603A970
:103FF000304600F0A6FCF80706D0BDF91C0082216F
:10400000001B401B401C08E0B807BDF918002844FD
:1040100002D540F2022100E002210096CDE90181A3
:1040200023461A464946FDF74BFE04460021FEF79B
:104030002DF809B02046BDE8F083000010B5052337
:10404000FFF7C4FF0446054A0021FEF73FF8044984
:1040500020460AF07BFF204610BD0000350C010809
:10406000A577010810B50723FFF7B0FF0446054AFE
:104070000021FEF72BF8044920460AF067FF20468E
:1040800010BD0000810D0108BB77010810B50823A1
:10409000FFF79CFF0446054A0021FEF717F8044984
:1040A00020460AF053FF204610BD0000B10D010864
:1040B000F17701082DE9F047044640688EB00027EB
:1040C000804601F047FF0090B0F87CA0D0F86890DF
:1040D000D0F88060D0F88850C06D00B1076868469D
:1040E00001F082FF05E0696820468847002843D137
:1040F0002D68002DF7D12068172853D00CDC0F282D
:104100003DD004DC0B2877D00D2825D18BE0112879
:1041100010D0142820D13BE0262846D004DC1E28ED
:1041200051D0202818D18AE02A2816D0B0F5107F67
:1041300012D128E04046E56801F00CFF0290697A50
:1041400039B9297A012904D130F87C1F41F48071F2
:10415000018002A801F048FF75E0404601F0FAFE38
:104160000090E16811B1C0F8841002E0D0F884003A
:10417000E060684601F038FF0EB0BDE8F087D7B3C5
:104180004046B8475FE02146404610F009FFF3E79C
:1041900005A9404600F0D5FBE06806990160079943
:1041A0004160E9E7C4F80C90E6E7E0680228E3D153
:1041B000CDF83080E0680D9027200A900AA9A06809
:1041C0000BF04CFDD8E7E068012804D00021404600
:1041D00000F0EDFAD0E730460AF07AFD68B13046DB
:1041E0000AF05EFF30460AF055FC98B101213046D6
:1041F00009F0B2FC0EE026E02FE048460AF09EFFF0
:104200000646404601F0A6FE0090C0F88060684671
:1042100001F0EAFE0121404600F0C9FA002EABD1C0
:104220000020E060A8E75FEA0A700CD4E068C0688C
:1042300048B1007A38B140460AF032FF03E0214627
:10424000404610F0F2FA2146404609F0F5FB0028FE
:1042500092D0204609F0DEFF8EE7404601F07AFE5C
:104260000090703001F0C8FD684673E7F0B587B084
:10427000B0F908400DF10C0C0C9E876945688CE87C
:10428000F000448A0025CDE900150294B0F90C1025
:10429000B0F91050B0F90E40B0F90A0019441044BA
:1042A0002B46224600F002F807B0F0BD2DE9F0479A
:1042B0008AB00DF14C0CDDE917849CE86006129F72
:1042C00045F48055DFF8BCC06034CDE902C4CDE9C7
:1042D000007509F0F1FE04004FD001F03BFE3022E2
:1042E0004946049009F064FD049828222649343098
:1042F000FBF766FF0498244FC0F86480A0F87C6048
:104300000026C0F88060C666083FC0F888607968FB
:10431000C16504A801F068FE05A9204600F011FB64
:104320001A4841F2827103960094CDE90110BDF95B
:104330001E00BDF91A10BDF91C20431ABDF9180062
:104340005B1C121A521C09F0B7FE064678684168D9
:1043500020468847204601F0FDFD0490866604A8AB
:1043600001F042FE42F20400054202D1204609F06B
:10437000F7FF5146204600F063FA0AB02046BDE838
:10438000F0870000B5400008A8040020494C000850
:104390002DE9F041044694B0006800F0B7F908B187
:1043A000D94D01E0D84D2C35606815281ED00CDCA5
:1043B0000B281FD004DC00287ED005287DD12FE1FA
:1043C0000E287BD01228F9D141E1162806D01728F3
:1043D00008D0182808D01C28F0D109E0E86914B0EA
:1043E000BDE8F081286AFAE7686AF8E7A86AF6E7A4
:1043F0006869F4E720680B901C200C90206801F09D
:10440000A9FD0390016D0BA88847064603A801F09B
:10441000EBFD022E0FDB95E807008DE80700D4E9DD
:1044200004023346A16904F069FA20698719A0697A
:10443000A0EB06082CE0286803F090FB2169E869EE
:104440000A18521E606902F0D3FBA269E869111ACA
:10445000491C606902F0CCFBD4E904077F1C394693
:1044600002F008FC3946A06902F004FC686803F019
:1044700075FB20693946401C02F0FCFBA0693946F7
:10448000401E02F0F7FBA0692769A0F10208BF1CDB
:10449000286803F063FB42463946606902F0A8FBD6
:1044A000686803F05BFB606942463946401C02F0D5
:1044B0009FFB686A022802E015E1B0E000E10BDD35
:1044C000A86803F04BFB61696A6A881C8B18014677
:1044D000424638465B1E27E0296AB14226DD606904
:1044E000022E074600F1020801DB374401E007F124
:1044F0000207206901DB304401E000F1020022697B
:104500003B460A444146A2F1010202F091FC022E10
:1045100002DBA069821B01E0A269921EA069E96921
:104520003B46401A4146401C02F082FC022E02DB50
:104530006069064401E06669B61CE76928687F1E69
:1045400003F00CFB3A463146206902F0F1FB3A4693
:104550003146A06902F0ECFBE7696868BF1E03F012
:10456000FDFA20693A463146401C02F0E1FBA069A1
:104570003A463146401E02F0DBFBE869022802DCC5
:10458000286A022823DDA86A022802DDE1690F1AE1
:1045900001E0E769BF1EA86803F0E0FAE9690229B3
:1045A00009DD20693B46421800F1020C31466046A5
:1045B000521E02F03DFC286A022808DDA269E86963
:1045C0003B46101A3146401C921E02F031FC28680E
:1045D00003F0C4FAD4E90620216902F009FB6868F7
:1045E00003F0BCFAD4E906202169401E491C521E82
:1045F00002F0FEFAA86A022811DDA1692669E469C1
:10460000A1F10208271AA41EB61C7F1CA86803F09B
:10461000A5FA234642463946304602F009FC71E0CD
:10462000208A00B2ADF81400A18A09B2ADF81610C4
:10463000228B12B2ADF81820A38B1BB2ADF81A3042
:104640002C69ED68CDE9005402F09EFA5AE0208A08
:10465000298B0844ADF81400A08AADF81600208B11
:10466000298B401AADF81800A08BADF81A0020680D
:1046700001F070FC0390006FF0B1022003F0BAFA71
:10468000039890F87C10C1F3C00100EB8100006C2E
:1046900003F064FA0398406B03F06AFA0398006F22
:1046A00001F058FC03990990B1F95A2005A902F0CC
:1046B000CFF809A801F098FC03A801F095FC21E0CF
:1046C000208AADF81400A08AADF81600208BADF852
:1046D0001800A08BADF81A00A86803F03FFA05A8EF
:1046E00002F0CAFB0EE0206801F034FC039030F8C1
:1046F0005A1F41F00C01018003A801F075FC2068ED
:104700000AF044FD00206AE6E404002038B50024E5
:1047100050B101F01FFC009090F87C00000700D51C
:104720000124684601F060FC204638BD38B505001C
:104730004FF000040CD001F00DFC0090C06D002182
:1047400080680268284690470446684601F04CFCA1
:10475000204638BD30B587B005004FF000040ED0BC
:1047600001A900F0EEF8284601F0F4FB0090B0F942
:104770005440684601F038FC0CB9BDF9044007B05C
:10478000204630BD002801D00FF056BF70470028EA
:1047900001D00FF0A0BF704710B5040006D011F093
:1047A00089FC2046BDE8104011F058BC10BD00281F
:1047B00001D011F01BBD7047074A0649054B116037
:1047C000064A083BD16958601B68C2E906300846B2
:1047D00070470000D8040020A4040020A804002092
:1047E0002DE9FC410D46070028D001F0B3FB0190F4
:1047F000C16D8C6800F00CF980460198456301A8F2
:1048000001F0F2FB226801213846904706462268F3
:1048100003213846904705462268002138469047D4
:104820000446384600F0D9F92B4632464146384610
:10483000009400F062F938460AF0F5F9BDE8FC8111
:104840007CB50D46040019D001F084FB0090006F88
:104850000190684601F0C8FB294601A804F08EFBD0
:1048600000280BD0204601F075FB009001990167EC
:10487000684601F0B9FB20460AF0D5F97CBD38B591
:104880000C4605000ED001F065FB0090B0F95A10FF
:10489000A14204D0A0F85A4028460AF0C4F968465C
:1048A00001F0A2FB38BD38B50C4605000FD001F071
:1048B00051FB0022009000EB8201521C0C64022A82
:1048C000F9D3684601F090FB28460AF0ACF938BDF0
:1048D0002DE9FC470D465FEA00094FF000042DD09A
:1048E00001F038FB0190B0F95440A54223D000F00C
:1048F0008FF8804601980121A0F85450C06D85685A
:1049000048462A68904707462A6803214846904748
:1049100006462A680021484690470546484600F06A
:104920005CF933463A4641464846009500F0E5F8C2
:1049300048460AF078F901A801F056FB2046BDE888
:10494000FC872DE9F34F85B000270C46B846059843
:1049500001F000FB0090C06D0121856805982A6870
:10496000904782462A6803210598904704902A6858
:1049700002210598904703902A68002105989047E6
:10498000064600980AF0D8FD834600980AF0DBFD41
:104990008146009890F83210890601D5B0F9588008
:1049A00000F036F805460098C06E10B109F098FE88
:1049B000074625806780A4F804A0049AABEB0200A8
:1049C00006EB0802401E2A4420813A44E280039B01
:1049D000A9EB0302521E6281A4F80CA02082701978
:1049E000E681401E6082684601F0FEFAB4F90C00D0
:1049F0000190B4F91000029002AA01A9059800F0F4
:104A000039F80198A0810298208207B0BDE8F08FA4
:104A100010B50146002091F83220920607D5B1F971
:104A20005400002803D1486B02F01AFB801C10BD13
:104A300070B58AB00C46054601F08CFA0990C06D3D
:104A4000866809A801F0D0FA009534B1012C06D08F
:104A5000022C0BD0032C04D10AE0182000E0162011
:104A600001907168684688470AB070BD1520F7E765
:104A70001720F5E72DE9FC4117468846044601F06A
:104A800069FA0090C16D056868468E6801F0ACFA5D
:104A900032680021204690470646204609F0EAFC8D
:104AA00027E000BF01F056FA0190B0F900102AB2D9
:104AB000B0F90430891A9A1AB0F90230A3EB2543F1
:104AC000B34210D190F82800000605D53868884216
:104AD00009DB491E396006E0D8F80000904202DC8C
:104AE000521CC8F8002001A801F07EFA204609F007
:104AF0006AFD0400D6D1BDE8FC812DE9FF4F83B0EB
:104B00000E460746DDF8409001F024FA0190C16D91
:104B10008D68FFF77DFF044601A801F065FA2A6859
:104B200001213846904783462A680321384690473A
:104B300082462A680021384690470546B44207D18C
:104B400005998B4504D106998A4501D14D4541D03F
:104B5000A41B0026B046384609F08CFC38E001F072
:104B6000F9F90090806A010601D5800502E081050F
:104B700028D50006002825DB24B1224611463846F8
:104B80000AF020F9009890F8280000060AD5069847
:104B9000A5EB0902A0EB0A0004FB16013846761CBF
:104BA0000AF0C3F80098008D80050BD50599A5EB98
:104BB0000902ABEB010004FB080108F101083846CB
:104BC0000AF0B3F8684601F00FFA384609F0FBFC2A
:104BD0000700C4D107B0BDE8F08F70B586B00646B7
:104BE00001F0B8F90590D0E91A4505A801F0FCF9E3
:104BF00054EA050026D069463046FFF7A2FEACB164
:104C0000BDF90620BDF9041020460AF063F8BDF98D
:104C10000A00BDF90610421ABDF90800BDF90410DA
:104C2000521C411A2046491C0AF0E0FA002D09D016
:104C3000BDF90600BDF90210421ABDF9041028465C
:104C40000AF048F806B070BD2DE9F043044640680C
:104C500089B0054609F0CEFC814601F07BF902904F
:104C6000D0F84880D0F88070466E02A801F0BCF9F8
:104C70002068172853D008DC0E283AD00F2811D00E
:104C800014284CD015283DD149E01E281ED01F28DD
:104C90002AD0222840D0312834D10020E06009B049
:104CA000BDE8F0836FF070414046884503D006F0C0
:104CB0009DF901F03FFB002EF1D0D4E902122068EB
:104CC000CDE90405CDE9061204A81FE0E06800283C
:104CD000E5D02FB1AF4203D038460AF0E1F9DEE764
:104CE00028460AF02BFADAE72146484608F0A4FEE7
:104CF000D5E7E0684168002904DD00680928EFD0A5
:104D00000A2805D05EB12046C4F80490B047C6E733
:104D100028460AF01BFAC2E7C4F80C80BFE7204619
:104D200009F078FABBE7000070B504461D46002381
:104D3000B5F5804F13D154F822300C480340D1E927
:104D4000000640EA06108E6840EA06208E8940EA96
:104D500006408E693043034344F8223003E06FF08D
:104D6000704044F82200002070BD00000000F0CF29
:104D700010B503460022086853F82020124802406C
:104D8000D1E901042043CC6820430C6920434C69DD
:104D900020438C692043CC6920430C6A20434C6A31
:104DA00020438C6A2043CC6A2043CC6B20430C6B9D
:104DB000204302438868082801D142F04002086875
:104DC00043F82020002010BD8000F0FF30B50346DE
:104DD0000024501C53F8204004F04044D1E9000561
:104DE00040EA05108D6840EA05208D8940EA0545B6
:104DF000088A401E45EA0055087D801E45EA00608D
:104E00008D6928430443501C43F82040002030BDE6
:104E100010B52DED048B1548407800F0C1FD04213C
:104E2000012004F0ADF9BCEEC00A10EE100A1049E2
:104E300088830846808B00EE100AB8EE400A10EE18
:104E4000101A0846FBF7D0FB41EC190B9FED090B3C
:104E500053EC102BFBF7AAFA41EC180BFBF708FCFC
:104E600003490862BDEC048B10BD00004D0000201A
:104E7000100000206666666666664A3F2DE9F043CC
:104E80000446C56887B090468946002002F06EFE51
:104E9000064625B1287910B146F0020001E026F05F
:104EA000020002F063FE2069012558B1D4E9021224
:104EB0008DE82600039563882288046841464846A9
:104EC000A0471EE0124F134B214638681B68427CF6
:104ED000E068984730B9E088012801D0002001E05F
:104EE0003868806BA288E388A1680095CDE904103A
:104EF000CDE902320195638822884146484605F093
:104F00007DFC07B03046BDE8F04302F02FBE000044
:104F1000140200200C0200201CB50024019401ACF6
:104F2000009400F0E7F81CBD2DE9FF4F83B08146E7
:104F300006988A46A0EB0A08109E00200090A2EB7B
:104F400009043568934654EA080018D02046FBF758
:104F50006BFD07464046FBF767FD87420BDA2046AC
:104F6000444680464846D14682465846DDF818B049
:104F7000069001200090002C07DD204606E007B0D7
:104F80004846BDE8F04F00F04FB96042A0420AD059
:104F90004846D9466442C8F1000883464FF0FF37BF
:104FA000DDF818A000E001275148B8F1000F11D03A
:104FB00004EBD4714FEA610B01DACBF1000B4C48E2
:104FC0000068807E88B3002F02DA306820443060A9
:104FD00000257BE000990029016821D0897E11B16C
:104FE0000027804615E007B05A4649465046BDE8BE
:104FF000F04F05F065BD28466D1C11F0D5F938B9A4
:10500000D8F8000009EB0701406E4268504690470F
:105010007F1CA742EFDD6D1E356007B0BDE8F08F45
:105020008A7E1AB10027804617E019E0486E5A467A
:105030005146036807B04846BDE8F04F1847284678
:105040006D1C11F0B1F938B9D8F8001009EB070060
:10505000496E4A68514690477F1CA742EFDDDAE768
:1050600000250FE008FB05B090FBF4F101EB0A000E
:10507000009951B11E4A09EB05011268526E52683F
:1050800090476D1CA542EDDDC7E7194909EB050303
:105090000968496E4A6801461846F1E708FB05B001
:1050A00090FBF4F101EB0A00019030683844306065
:1050B00011F07AF948B9009890B10D4809EB050153
:1050C0000068406E4268019890476D1CA542E5DD7E
:1050D0003068002F01DA20443060C01B30609CE74C
:1050E000034909EB05000968496E4A680199EBE735
:1050F000140200202DE9FF470F464049164680461E
:1051000009680C981D460A7E012A1CD0A8EB0600EF
:10511000791B50EA01031CD0A2F1010912F000FB37
:1051200000F58060824603F0FAFF00FB09F4504668
:1051300003F0FAFF00FB09F1002C0CDAC4F5007053
:10514000801240420AE00090324639464046FFF75E
:10515000EBFEBDE8FF8704F50074A012002904DA15
:10516000C1F5007189124C4202E001F500718C1208
:10517000002804DD411C01EBD171491003E000EB74
:10518000D0714910401E00EBD0704210002C04DD9D
:10519000601C00EBD070401003E004EBD4704010B2
:1051A000641E04EBD47308EB0104ADF800403C1816
:1051B000ADF80240A8EB02045B10B21AADF804404F
:1051C000ADF808203144FC1AEA1AADF80C10284456
:1051D000ADF80A20ADF80E000023ADF806401A46DF
:1051E0000421684600F08EF8394640460DF05EF91D
:1051F000294630460DF05AF9ABE7000014020020B2
:10520000F8B5084E0546009230680C462346B0F9C2
:105210002810B0F926002A46FFF76CFF3068C584D5
:105220000485F8BD14020020064A13681A7E012A7C
:1052300005D0521E02EBD272521000F005B85A6E21
:1052400052681047140200202DE9F05F0646884698
:1052500040F2C32002FB00F14FF47A7091FBF0F7AB
:1052600002FB02F102EBD27001EB600B1446B118A5
:10527000234A301B7F1C1268526E13680A4641464F
:105280009847012538E000BF05FB05F004FB040149
:1052900059451CDDBC4219DD194B06EB050AA6EB8E
:1052A00005091B68AAF1010208EB04015B6E09F114
:1052B00001001B689847124BAAF10102A8EB0401F8
:1052C0001B6809F101005B6E1B689847641E0C4B5C
:1052D0003219301B1B68924608EB05015B6E814654
:1052E0001B689847064B5246A8EB05011B684846C9
:1052F0005B6E1B6898476D1CBD42C5DDBDE8F09F25
:10530000140200202DE9FF4F43F6FF740F4666425A
:1053100083B09B46814600210BE000BF09EB810072
:10532000B0F90200A04200DA0446B04200DD0646B1
:10533000491CB942F2DB67480068406900280DD07B
:10534000B0F906101A46A1EB0B01B14200DA0E4685
:10535000B0F90200801AA04200DD0446B4E0DFF894
:1053600078A100200546CAF8000088E0781E854232
:1053700001DA6B1C00E0002309EB850C09EB8302CA
:10538000BCF90200B2F90210A04244D1A14215D1E9
:1053900039F92330059A39F9251003EB020C4D4AEF
:1053A00005981268084404EB0B01526E60451368BF
:1053B00001DA62462AE00246604627E02846A44613
:1053C0004FF000087A1E0BE008B1401E00E0781E86
:1053D00009EB8003B3F90230634504D108F10108F9
:1053E0009045F1DB2346A34248D01A1B39F925002A
:1053F000A1EB040C059B92EA0C0F09D4354A184422
:1054000004EB0B011268526E13680246984735E0B0
:105410000AF01AFD32E0A14230D001DBA04203DDE8
:10542000A0422BDBA14229DCE04688420ADC03468D
:10543000A04223DC0846A14220DBB8F900C0B2F943
:10544000001008E00B46A14218DCA04216DBB2F9BE
:1054500000C0B8F90010E21AA1EB0C015143002979
:10546000A0EB030202DD01EB620102E0A1EB6201AD
:10547000491CC01A91FBF0F06044C9E76D1CBD42A5
:10548000FFF674AF0598009004EB0B00019000202C
:105490008046054613E01149B8F1000F31F915A017
:1054A00009D0009901EB0A0208440A490968496ECB
:1054B0000B680199984788F0010850466D1C064911
:1054C00009688D42E7DB641CB4427FF748AF07B040
:1054D000BDE8F08F140200201C090020DC7A0020B7
:1054E000024A1268D084118570470000140200201F
:1054F00010B5002002F030FB6FF07F4002F02EFB71
:10550000012002F065FB002002F06AFB002002F09F
:1055100071FB002002F02AFB0448006802F028FB1F
:10552000BDE81040002002F02FBB00001002002058
:1055300033B583B0040016D000F00CFD0190456E29
:1055400001A800F051FD049800F004FD0090846073
:10555000684600F049FD042204A9284600F068FDD1
:10556000204609F060FB05B030BD33B583B00400C0
:1055700016D000F0EFFC0190856E01A800F034FD1C
:10558000049800F0E7FC00908460684600F02CFD71
:10559000042204A9284600F04BFD204609F043FBF5
:1055A00005B030BD2DE9F04104460025D4E90007DF
:1055B000B0F5407F00D101252146384608F03CFA7D
:1055C000064615B138460EF0D0FF002E2FD02068C9
:1055D000052806D00B280ED00F2806D0262821D16A
:1055E0000EE038460EF0C1FF1CE03846E168BDE829
:1055F000F0410FF015BA3846BDE8F0410FF044B95C
:10560000E06805280ED1384609F019F8A1688842EB
:1056100005D0384609F00AF8A168884202D16068CE
:105620000FF06EFC2046BDE8F04108F0F3BDBDE888
:10563000F081F0B585B0B0F90850468A84690296C9
:10564000CDE903540027CDE90017B0F90C10B0F9EB
:105650001050B0F90E40B0F90A00194410442B461E
:10566000224600F003F805B0F0BD00002DE9F0413E
:1056700086B00DF1300CDDE90F849CE8E0006C345D
:10568000DFF850C003948DE8601008F015FD0400A9
:105690001BD000F00AFD054600F007FD0646204637
:1056A00000F058FC0490C0E919560022414608F069
:1056B0007FFB0498302208493430FAF781FD0498C2
:1056C000A0F8787004A800F08FFC06B02046BDE872
:1056D000F0810000A55500083C0500201CB50C46D3
:1056E000002812D000F036FC0090406A00F032FC36
:1056F0000146019004232246009800F0EBF801A82F
:1057000000F072FC684600F06FFC1CBD08B5002874
:105710000AD000F01FFC002100900161806809F0B0
:1057200082FA684600F060FC08BD00002DE9F043F5
:10573000814685B01D4690460F46342000F019FB87
:10574000060029D0B80000F014FB04000ED0B8F118
:10575000000F0BD055B1204600F0FCFBAA004146DB
:105760000090FAF72DFD684600F03EFC304600F050
:10577000F1FB02900121446280F82D100522826223
:1057800080F82C10064902C0064940F80C1B80E83E
:10579000A00202A800F028FC05B03046BDE8F08366
:1057A000CD4B0108194901082DE9F84307469846F1
:1057B00015460E46302000F0DCFA040015D000F04B
:1057C000C9FB0090C0E905768584094AB7EE000A56
:1057D000C0F81C8080ED0A0AD2E90012C0E9031269
:1057E00004490160684600F0FFFB2046BDE8F883ED
:1057F0006C050020F94C010838B50D46002460B155
:1058000000F0A8FB0090C468AC4203D0C56080687B
:1058100009F009FA684600F0E7FB204638BDF8B504
:105820000D4606004FF000040CD000F093FB0090F2
:10583000846CAC4203D08564304609F0F4F96846C4
:1058400000F0D2FB2046F8BDF8B50D4606004FF03B
:10585000000416D000F07EFB0090B0F8781011F034
:10586000010403D055B921F0010102E035B141F046
:105870000101A0F87810304609F0D5F9684600F02B
:10588000B3FB2046F8BDF8B50D4606004FF0000406
:105890000ED000F05FFB009090F86C40AC4204D05A
:1058A00080F86C50304609F0BEF9684600F09CFB69
:1058B0002046F8BD38B50D4604000AD000F04AFB7A
:1058C0000090C0F89450684600F08EFB204609F026
:1058D000AAF938BD2DE9F041044680681D461746F7
:1058E0000E46002826D0D4E9040290420ED1521E62
:1058F0006A4371193046FAF763FC20692A46401E54
:1059000005FB00603946FAF75BFC0EE005FB00136F
:10591000401C20612A4639461846FAF751FCE168D6
:1059200019B12046BDE8F0410847A068BDE8F04144
:1059300000F002B8BDE8F08110B58AB0044600F06E
:1059400009FB09A904AACDE9002105AB089006AA24
:1059500007A90EF0AAFA08A800F046FB02A9204603
:1059600008F0CEFDBDF8080007990844ADF808001E
:10597000BDF80A0006990844ADF80A00BDF80C000D
:105980000599401AADF80C00BDF80E000499401AB4
:10599000ADF80E0002A9204609F00AF90AB010BDC0
:1059A00010B52B4807F015FC29498868FAF7DFFD88
:1059B000284AC2E9020126490869FAF7D8FD254AB2
:1059C000C2E904014FF42A71234806F081FC00B9B2
:1059D00010BD22480068FFF799FE002020490860AA
:1059E0000DE01D481E4A126800EB82011B4800684A
:1059F000FFF774FE1A480068401C194908601548F2
:105A0000006B174909688842EBD81649486809F0C5
:105A10000AF91449C86809F006F91249486909F0F9
:105A200002F91049C86909F0FEF80E49C86A09F080
:105A3000FAF80C49486A09F0F6F80A49486B09F087
:105A4000F2F80849C86B09F0EEF800BFC0E70000A3
:105A5000206D002010000020506D00204C0100201F
:105A600060010020680100202DE9F04FDFF828B127
:105A700091B04FF0FF35DBF80030B3F922100691FA
:105A8000DE69B3F92490F469A189814206D8E289DC
:105A9000824203D3471AD4F8008012E0D4E901818E
:105AA00000296FD00A8882426CD84D88854269D31C
:105AB000801A82B2486800EB8200B0F90070B0F939
:105AC0000250781C5ED0307EA17C10FB01FA217C54
:105AD000CDE90701B3F92A60304605F0D1FAC0B22A
